{
	"Ballot.sol": {
		"Ballot": {
			"abi": [
				{
					"inputs": [
						{
							"internalType": "bytes32[]",
							"name": "proposalNames",
							"type": "bytes32[]"
						}
					],
					"stateMutability": "nonpayable",
					"type": "constructor"
				},
				{
					"inputs": [],
					"name": "chairperson",
					"outputs": [
						{
							"internalType": "address",
							"name": "",
							"type": "address"
						}
					],
					"stateMutability": "view",
					"type": "function"
				},
				{
					"inputs": [
						{
							"internalType": "address",
							"name": "to",
							"type": "address"
						}
					],
					"name": "delegate",
					"outputs": [],
					"stateMutability": "nonpayable",
					"type": "function"
				},
				{
					"inputs": [
						{
							"internalType": "address",
							"name": "voter",
							"type": "address"
						}
					],
					"name": "giveRightToVote",
					"outputs": [],
					"stateMutability": "nonpayable",
					"type": "function"
				},
				{
					"inputs": [
						{
							"internalType": "uint256",
							"name": "",
							"type": "uint256"
						}
					],
					"name": "proposals",
					"outputs": [
						{
							"internalType": "bytes32",
							"name": "name",
							"type": "bytes32"
						},
						{
							"internalType": "uint256",
							"name": "voteCount",
							"type": "uint256"
						}
					],
					"stateMutability": "view",
					"type": "function"
				},
				{
					"inputs": [
						{
							"internalType": "uint256",
							"name": "proposal",
							"type": "uint256"
						}
					],
					"name": "vote",
					"outputs": [],
					"stateMutability": "nonpayable",
					"type": "function"
				},
				{
					"inputs": [
						{
							"internalType": "address",
							"name": "",
							"type": "address"
						}
					],
					"name": "voters",
					"outputs": [
						{
							"internalType": "uint256",
							"name": "weight",
							"type": "uint256"
						},
						{
							"internalType": "bool",
							"name": "voted",
							"type": "bool"
						},
						{
							"internalType": "address",
							"name": "delegate",
							"type": "address"
						},
						{
							"internalType": "uint256",
							"name": "vote",
							"type": "uint256"
						}
					],
					"stateMutability": "view",
					"type": "function"
				},
				{
					"inputs": [],
					"name": "winnerName",
					"outputs": [
						{
							"internalType": "bytes32",
							"name": "winnerName_",
							"type": "bytes32"
						}
					],
					"stateMutability": "view",
					"type": "function"
				},
				{
					"inputs": [],
					"name": "winningProposal",
					"outputs": [
						{
							"internalType": "uint256",
							"name": "winningProposal_",
							"type": "uint256"
						}
					],
					"stateMutability": "view",
					"type": "function"
				}
			],
			"devdoc": {
				"kind": "dev",
				"methods": {},
				"version": 1
			},
			"evm": {
				"assembly": "    /* \"Ballot.sol\":61:3632  contract Ballot {... */\n  mstore(0x40, 0x80)\n    /* \"Ballot.sol\":860:1308  constructor(bytes32[] memory proposalNames) {... */\n  callvalue\n  dup1\n  iszero\n  tag_1\n  jumpi\n  revert(0x00, 0x00)\ntag_1:\n  pop\n  mload(0x40)\n  sub(codesize, bytecodeSize)\n  dup1\n  bytecodeSize\n  dup4\n  codecopy\n  dup2\n  dup2\n  add\n  0x40\n  mstore\n  dup2\n  add\n  swap1\n  tag_2\n  swap2\n  swap1\n  tag_3\n  jump\t// in\ntag_2:\n    /* \"Ballot.sol\":929:939  msg.sender */\n  caller\n    /* \"Ballot.sol\":915:926  chairperson */\n  0x00\n  0x00\n    /* \"Ballot.sol\":915:939  chairperson = msg.sender */\n  0x0100\n  exp\n  dup2\n  sload\n  dup2\n  0xffffffffffffffffffffffffffffffffffffffff\n  mul\n  not\n  and\n  swap1\n  dup4\n  0xffffffffffffffffffffffffffffffffffffffff\n  and\n  mul\n  or\n  swap1\n  sstore\n  pop\n    /* \"Ballot.sol\":1026:1027  1 */\n  0x01\n    /* \"Ballot.sol\":997:1003  voters */\n  dup1\n    /* \"Ballot.sol\":997:1016  voters[chairperson] */\n  0x00\n    /* \"Ballot.sol\":1004:1015  chairperson */\n  0x00\n  0x00\n  swap1\n  sload\n  swap1\n  0x0100\n  exp\n  swap1\n  div\n  0xffffffffffffffffffffffffffffffffffffffff\n  and\n    /* \"Ballot.sol\":997:1016  voters[chairperson] */\n  0xffffffffffffffffffffffffffffffffffffffff\n  and\n  0xffffffffffffffffffffffffffffffffffffffff\n  and\n  dup2\n  mstore\n  0x20\n  add\n  swap1\n  dup2\n  mstore\n  0x20\n  add\n  0x00\n  keccak256\n    /* \"Ballot.sol\":997:1023  voters[chairperson].weight */\n  0x00\n  add\n    /* \"Ballot.sol\":997:1027  voters[chairperson].weight = 1 */\n  dup2\n  swap1\n  sstore\n  pop\n    /* \"Ballot.sol\":1074:1080  uint i */\n  0x00\n    /* \"Ballot.sol\":1083:1084  0 */\n  0x00\n    /* \"Ballot.sol\":1074:1084  uint i = 0 */\n  swap1\n  pop\n    /* \"Ballot.sol\":1069:1301  for (uint i = 0; i < proposalNames.length; i++) {... */\ntag_6:\n    /* \"Ballot.sol\":1090:1103  proposalNames */\n  dup2\n    /* \"Ballot.sol\":1090:1110  proposalNames.length */\n  mload\n    /* \"Ballot.sol\":1086:1087  i */\n  dup2\n    /* \"Ballot.sol\":1086:1110  i < proposalNames.length */\n  lt\n    /* \"Ballot.sol\":1069:1301  for (uint i = 0; i < proposalNames.length; i++) {... */\n  iszero\n  tag_7\n  jumpi\n    /* \"Ballot.sol\":1132:1141  proposals */\n  0x02\n    /* \"Ballot.sol\":1165:1274  Proposal({... */\n  mload(0x40)\n  dup1\n  0x40\n  add\n  0x40\n  mstore\n  dup1\n    /* \"Ballot.sol\":1203:1216  proposalNames */\n  dup5\n    /* \"Ballot.sol\":1217:1218  i */\n  dup5\n    /* \"Ballot.sol\":1203:1219  proposalNames[i] */\n  dup2\n  mload\n  dup2\n  lt\n  tag_9\n  jumpi\n  tag_10\n  tag_11\n  jump\t// in\ntag_10:\ntag_9:\n  0x20\n  mul\n  0x20\n  add\n  add\n  mload\n    /* \"Ballot.sol\":1165:1274  Proposal({... */\n  dup2\n  mstore\n  0x20\n  add\n    /* \"Ballot.sol\":1253:1254  0 */\n  0x00\n    /* \"Ballot.sol\":1165:1274  Proposal({... */\n  dup2\n  mstore\n  pop\n    /* \"Ballot.sol\":1132:1289  proposals.push(... */\n  swap1\n  dup1\n  0x01\n  dup2\n  sload\n  add\n  dup1\n  dup3\n  sstore\n  dup1\n  swap2\n  pop\n  pop\n  0x01\n  swap1\n  sub\n  swap1\n  0x00\n  mstore\n  keccak256(0x00, 0x20)\n  swap1\n  0x02\n  mul\n  add\n  0x00\n  swap1\n  swap2\n  swap1\n  swap2\n  swap1\n  swap2\n  pop\n  0x00\n  dup3\n  add\n  mload\n  dup2\n  0x00\n  add\n  sstore\n  0x20\n  dup3\n  add\n  mload\n  dup2\n  0x01\n  add\n  sstore\n  pop\n  pop\n    /* \"Ballot.sol\":1112:1115  i++ */\n  dup1\n  dup1\n  0x01\n  add\n  swap2\n  pop\n  pop\n    /* \"Ballot.sol\":1069:1301  for (uint i = 0; i < proposalNames.length; i++) {... */\n  jump(tag_6)\ntag_7:\n  pop\n    /* \"Ballot.sol\":860:1308  constructor(bytes32[] memory proposalNames) {... */\n  pop\n    /* \"Ballot.sol\":61:3632  contract Ballot {... */\n  jump(tag_13)\n    /* \"#utility.yul\":7:82   */\ntag_14:\n    /* \"#utility.yul\":40:46   */\n  0x00\n    /* \"#utility.yul\":73:75   */\n  0x40\n    /* \"#utility.yul\":67:76   */\n  mload\n    /* \"#utility.yul\":57:76   */\n  swap1\n  pop\n    /* \"#utility.yul\":7:82   */\n  swap1\n  jump\t// out\n    /* \"#utility.yul\":88:205   */\ntag_15:\n    /* \"#utility.yul\":197:198   */\n  0x00\n    /* \"#utility.yul\":194:195   */\n  0x00\n    /* \"#utility.yul\":187:199   */\n  revert\n    /* \"#utility.yul\":211:328   */\ntag_16:\n    /* \"#utility.yul\":320:321   */\n  0x00\n    /* \"#utility.yul\":317:318   */\n  0x00\n    /* \"#utility.yul\":310:322   */\n  revert\n    /* \"#utility.yul\":334:451   */\ntag_17:\n    /* \"#utility.yul\":443:444   */\n  0x00\n    /* \"#utility.yul\":440:441   */\n  0x00\n    /* \"#utility.yul\":433:445   */\n  revert\n    /* \"#utility.yul\":457:559   */\ntag_18:\n    /* \"#utility.yul\":498:504   */\n  0x00\n    /* \"#utility.yul\":549:551   */\n  0x1f\n    /* \"#utility.yul\":545:552   */\n  not\n    /* \"#utility.yul\":540:542   */\n  0x1f\n    /* \"#utility.yul\":533:538   */\n  dup4\n    /* \"#utility.yul\":529:543   */\n  add\n    /* \"#utility.yul\":525:553   */\n  and\n    /* \"#utility.yul\":515:553   */\n  swap1\n  pop\n    /* \"#utility.yul\":457:559   */\n  swap2\n  swap1\n  pop\n  jump\t// out\n    /* \"#utility.yul\":565:745   */\ntag_19:\n    /* \"#utility.yul\":613:690   */\n  0x4e487b7100000000000000000000000000000000000000000000000000000000\n    /* \"#utility.yul\":610:611   */\n  0x00\n    /* \"#utility.yul\":603:691   */\n  mstore\n    /* \"#utility.yul\":710:714   */\n  0x41\n    /* \"#utility.yul\":707:708   */\n  0x04\n    /* \"#utility.yul\":700:715   */\n  mstore\n    /* \"#utility.yul\":734:738   */\n  0x24\n    /* \"#utility.yul\":731:732   */\n  0x00\n    /* \"#utility.yul\":724:739   */\n  revert\n    /* \"#utility.yul\":751:1032   */\ntag_20:\n    /* \"#utility.yul\":834:861   */\n  tag_37\n    /* \"#utility.yul\":856:860   */\n  dup3\n    /* \"#utility.yul\":834:861   */\n  tag_18\n  jump\t// in\ntag_37:\n    /* \"#utility.yul\":826:832   */\n  dup2\n    /* \"#utility.yul\":822:862   */\n  add\n    /* \"#utility.yul\":964:970   */\n  dup2\n    /* \"#utility.yul\":952:962   */\n  dup2\n    /* \"#utility.yul\":949:971   */\n  lt\n    /* \"#utility.yul\":928:946   */\n  0xffffffffffffffff\n    /* \"#utility.yul\":916:926   */\n  dup3\n    /* \"#utility.yul\":913:947   */\n  gt\n    /* \"#utility.yul\":910:972   */\n  or\n    /* \"#utility.yul\":907:995   */\n  iszero\n  tag_38\n  jumpi\n    /* \"#utility.yul\":975:993   */\n  tag_39\n  tag_19\n  jump\t// in\ntag_39:\n    /* \"#utility.yul\":907:995   */\ntag_38:\n    /* \"#utility.yul\":1015:1025   */\n  dup1\n    /* \"#utility.yul\":1011:1013   */\n  0x40\n    /* \"#utility.yul\":1004:1026   */\n  mstore\n    /* \"#utility.yul\":794:1032   */\n  pop\n    /* \"#utility.yul\":751:1032   */\n  pop\n  pop\n  jump\t// out\n    /* \"#utility.yul\":1038:1167   */\ntag_21:\n    /* \"#utility.yul\":1072:1078   */\n  0x00\n    /* \"#utility.yul\":1099:1119   */\n  tag_41\n  tag_14\n  jump\t// in\ntag_41:\n    /* \"#utility.yul\":1089:1119   */\n  swap1\n  pop\n    /* \"#utility.yul\":1128:1161   */\n  tag_42\n    /* \"#utility.yul\":1156:1160   */\n  dup3\n    /* \"#utility.yul\":1148:1154   */\n  dup3\n    /* \"#utility.yul\":1128:1161   */\n  tag_20\n  jump\t// in\ntag_42:\n    /* \"#utility.yul\":1038:1167   */\n  swap2\n  swap1\n  pop\n  jump\t// out\n    /* \"#utility.yul\":1173:1484   */\ntag_22:\n    /* \"#utility.yul\":1250:1254   */\n  0x00\n    /* \"#utility.yul\":1340:1358   */\n  0xffffffffffffffff\n    /* \"#utility.yul\":1332:1338   */\n  dup3\n    /* \"#utility.yul\":1329:1359   */\n  gt\n    /* \"#utility.yul\":1326:1382   */\n  iszero\n  tag_44\n  jumpi\n    /* \"#utility.yul\":1362:1380   */\n  tag_45\n  tag_19\n  jump\t// in\ntag_45:\n    /* \"#utility.yul\":1326:1382   */\ntag_44:\n    /* \"#utility.yul\":1412:1416   */\n  0x20\n    /* \"#utility.yul\":1404:1410   */\n  dup3\n    /* \"#utility.yul\":1400:1417   */\n  mul\n    /* \"#utility.yul\":1392:1417   */\n  swap1\n  pop\n    /* \"#utility.yul\":1472:1476   */\n  0x20\n    /* \"#utility.yul\":1466:1470   */\n  dup2\n    /* \"#utility.yul\":1462:1477   */\n  add\n    /* \"#utility.yul\":1454:1477   */\n  swap1\n  pop\n    /* \"#utility.yul\":1173:1484   */\n  swap2\n  swap1\n  pop\n  jump\t// out\n    /* \"#utility.yul\":1490:1607   */\ntag_23:\n    /* \"#utility.yul\":1599:1600   */\n  0x00\n    /* \"#utility.yul\":1596:1597   */\n  0x00\n    /* \"#utility.yul\":1589:1601   */\n  revert\n    /* \"#utility.yul\":1613:1690   */\ntag_24:\n    /* \"#utility.yul\":1650:1657   */\n  0x00\n    /* \"#utility.yul\":1679:1684   */\n  dup2\n    /* \"#utility.yul\":1668:1684   */\n  swap1\n  pop\n    /* \"#utility.yul\":1613:1690   */\n  swap2\n  swap1\n  pop\n  jump\t// out\n    /* \"#utility.yul\":1696:1818   */\ntag_25:\n    /* \"#utility.yul\":1769:1793   */\n  tag_49\n    /* \"#utility.yul\":1787:1792   */\n  dup2\n    /* \"#utility.yul\":1769:1793   */\n  tag_24\n  jump\t// in\ntag_49:\n    /* \"#utility.yul\":1762:1767   */\n  dup2\n    /* \"#utility.yul\":1759:1794   */\n  eq\n    /* \"#utility.yul\":1749:1812   */\n  tag_50\n  jumpi\n    /* \"#utility.yul\":1808:1809   */\n  0x00\n    /* \"#utility.yul\":1805:1806   */\n  0x00\n    /* \"#utility.yul\":1798:1810   */\n  revert\n    /* \"#utility.yul\":1749:1812   */\ntag_50:\n    /* \"#utility.yul\":1696:1818   */\n  pop\n  jump\t// out\n    /* \"#utility.yul\":1824:1967   */\ntag_26:\n    /* \"#utility.yul\":1881:1886   */\n  0x00\n    /* \"#utility.yul\":1912:1918   */\n  dup2\n    /* \"#utility.yul\":1906:1919   */\n  mload\n    /* \"#utility.yul\":1897:1919   */\n  swap1\n  pop\n    /* \"#utility.yul\":1928:1961   */\n  tag_52\n    /* \"#utility.yul\":1955:1960   */\n  dup2\n    /* \"#utility.yul\":1928:1961   */\n  tag_25\n  jump\t// in\ntag_52:\n    /* \"#utility.yul\":1824:1967   */\n  swap3\n  swap2\n  pop\n  pop\n  jump\t// out\n    /* \"#utility.yul\":1990:2722   */\ntag_27:\n    /* \"#utility.yul\":2097:2102   */\n  0x00\n    /* \"#utility.yul\":2122:2203   */\n  tag_54\n    /* \"#utility.yul\":2138:2202   */\n  tag_55\n    /* \"#utility.yul\":2195:2201   */\n  dup5\n    /* \"#utility.yul\":2138:2202   */\n  tag_22\n  jump\t// in\ntag_55:\n    /* \"#utility.yul\":2122:2203   */\n  tag_21\n  jump\t// in\ntag_54:\n    /* \"#utility.yul\":2113:2203   */\n  swap1\n  pop\n    /* \"#utility.yul\":2223:2228   */\n  dup1\n    /* \"#utility.yul\":2252:2258   */\n  dup4\n    /* \"#utility.yul\":2245:2250   */\n  dup3\n    /* \"#utility.yul\":2238:2259   */\n  mstore\n    /* \"#utility.yul\":2286:2290   */\n  0x20\n    /* \"#utility.yul\":2279:2284   */\n  dup3\n    /* \"#utility.yul\":2275:2291   */\n  add\n    /* \"#utility.yul\":2268:2291   */\n  swap1\n  pop\n    /* \"#utility.yul\":2339:2343   */\n  0x20\n    /* \"#utility.yul\":2331:2337   */\n  dup5\n    /* \"#utility.yul\":2327:2344   */\n  mul\n    /* \"#utility.yul\":2319:2325   */\n  dup4\n    /* \"#utility.yul\":2315:2345   */\n  add\n    /* \"#utility.yul\":2368:2371   */\n  dup6\n    /* \"#utility.yul\":2360:2366   */\n  dup2\n    /* \"#utility.yul\":2357:2372   */\n  gt\n    /* \"#utility.yul\":2354:2476   */\n  iszero\n  tag_56\n  jumpi\n    /* \"#utility.yul\":2387:2466   */\n  tag_57\n  tag_23\n  jump\t// in\ntag_57:\n    /* \"#utility.yul\":2354:2476   */\ntag_56:\n    /* \"#utility.yul\":2502:2508   */\n  dup4\n    /* \"#utility.yul\":2485:2716   */\ntag_58:\n    /* \"#utility.yul\":2519:2525   */\n  dup2\n    /* \"#utility.yul\":2514:2517   */\n  dup2\n    /* \"#utility.yul\":2511:2526   */\n  lt\n    /* \"#utility.yul\":2485:2716   */\n  iszero\n  tag_60\n  jumpi\n    /* \"#utility.yul\":2594:2597   */\n  dup1\n    /* \"#utility.yul\":2623:2671   */\n  tag_61\n    /* \"#utility.yul\":2667:2670   */\n  dup9\n    /* \"#utility.yul\":2655:2665   */\n  dup3\n    /* \"#utility.yul\":2623:2671   */\n  tag_26\n  jump\t// in\ntag_61:\n    /* \"#utility.yul\":2618:2621   */\n  dup5\n    /* \"#utility.yul\":2611:2672   */\n  mstore\n    /* \"#utility.yul\":2701:2705   */\n  0x20\n    /* \"#utility.yul\":2696:2699   */\n  dup5\n    /* \"#utility.yul\":2692:2706   */\n  add\n    /* \"#utility.yul\":2685:2706   */\n  swap4\n  pop\n    /* \"#utility.yul\":2561:2716   */\n  pop\n    /* \"#utility.yul\":2545:2549   */\n  0x20\n    /* \"#utility.yul\":2540:2543   */\n  dup2\n    /* \"#utility.yul\":2536:2550   */\n  add\n    /* \"#utility.yul\":2529:2550   */\n  swap1\n  pop\n    /* \"#utility.yul\":2485:2716   */\n  jump(tag_58)\ntag_60:\n    /* \"#utility.yul\":2489:2510   */\n  pop\n    /* \"#utility.yul\":2103:2722   */\n  pop\n  pop\n    /* \"#utility.yul\":1990:2722   */\n  swap4\n  swap3\n  pop\n  pop\n  pop\n  jump\t// out\n    /* \"#utility.yul\":2745:3130   */\ntag_28:\n    /* \"#utility.yul\":2827:2832   */\n  0x00\n    /* \"#utility.yul\":2876:2879   */\n  dup3\n    /* \"#utility.yul\":2869:2873   */\n  0x1f\n    /* \"#utility.yul\":2861:2867   */\n  dup4\n    /* \"#utility.yul\":2857:2874   */\n  add\n    /* \"#utility.yul\":2853:2880   */\n  slt\n    /* \"#utility.yul\":2843:2965   */\n  tag_63\n  jumpi\n    /* \"#utility.yul\":2884:2963   */\n  tag_64\n  tag_17\n  jump\t// in\ntag_64:\n    /* \"#utility.yul\":2843:2965   */\ntag_63:\n    /* \"#utility.yul\":2994:3000   */\n  dup2\n    /* \"#utility.yul\":2988:3001   */\n  mload\n    /* \"#utility.yul\":3019:3124   */\n  tag_65\n    /* \"#utility.yul\":3120:3123   */\n  dup5\n    /* \"#utility.yul\":3112:3118   */\n  dup3\n    /* \"#utility.yul\":3105:3109   */\n  0x20\n    /* \"#utility.yul\":3097:3103   */\n  dup7\n    /* \"#utility.yul\":3093:3110   */\n  add\n    /* \"#utility.yul\":3019:3124   */\n  tag_27\n  jump\t// in\ntag_65:\n    /* \"#utility.yul\":3010:3124   */\n  swap2\n  pop\n    /* \"#utility.yul\":2833:3130   */\n  pop\n    /* \"#utility.yul\":2745:3130   */\n  swap3\n  swap2\n  pop\n  pop\n  jump\t// out\n    /* \"#utility.yul\":3136:3690   */\ntag_3:\n    /* \"#utility.yul\":3231:3237   */\n  0x00\n    /* \"#utility.yul\":3280:3282   */\n  0x20\n    /* \"#utility.yul\":3268:3277   */\n  dup3\n    /* \"#utility.yul\":3259:3266   */\n  dup5\n    /* \"#utility.yul\":3255:3278   */\n  sub\n    /* \"#utility.yul\":3251:3283   */\n  slt\n    /* \"#utility.yul\":3248:3367   */\n  iszero\n  tag_67\n  jumpi\n    /* \"#utility.yul\":3286:3365   */\n  tag_68\n  tag_15\n  jump\t// in\ntag_68:\n    /* \"#utility.yul\":3248:3367   */\ntag_67:\n    /* \"#utility.yul\":3427:3428   */\n  0x00\n    /* \"#utility.yul\":3416:3425   */\n  dup3\n    /* \"#utility.yul\":3412:3429   */\n  add\n    /* \"#utility.yul\":3406:3430   */\n  mload\n    /* \"#utility.yul\":3457:3475   */\n  0xffffffffffffffff\n    /* \"#utility.yul\":3449:3455   */\n  dup2\n    /* \"#utility.yul\":3446:3476   */\n  gt\n    /* \"#utility.yul\":3443:3560   */\n  iszero\n  tag_69\n  jumpi\n    /* \"#utility.yul\":3479:3558   */\n  tag_70\n  tag_16\n  jump\t// in\ntag_70:\n    /* \"#utility.yul\":3443:3560   */\ntag_69:\n    /* \"#utility.yul\":3584:3673   */\n  tag_71\n    /* \"#utility.yul\":3665:3672   */\n  dup5\n    /* \"#utility.yul\":3656:3662   */\n  dup3\n    /* \"#utility.yul\":3645:3654   */\n  dup6\n    /* \"#utility.yul\":3641:3663   */\n  add\n    /* \"#utility.yul\":3584:3673   */\n  tag_28\n  jump\t// in\ntag_71:\n    /* \"#utility.yul\":3574:3673   */\n  swap2\n  pop\n    /* \"#utility.yul\":3377:3683   */\n  pop\n    /* \"#utility.yul\":3136:3690   */\n  swap3\n  swap2\n  pop\n  pop\n  jump\t// out\n    /* \"#utility.yul\":3696:3876   */\ntag_11:\n    /* \"#utility.yul\":3744:3821   */\n  0x4e487b7100000000000000000000000000000000000000000000000000000000\n    /* \"#utility.yul\":3741:3742   */\n  0x00\n    /* \"#utility.yul\":3734:3822   */\n  mstore\n    /* \"#utility.yul\":3841:3845   */\n  0x32\n    /* \"#utility.yul\":3838:3839   */\n  0x04\n    /* \"#utility.yul\":3831:3846   */\n  mstore\n    /* \"#utility.yul\":3865:3869   */\n  0x24\n    /* \"#utility.yul\":3862:3863   */\n  0x00\n    /* \"#utility.yul\":3855:3870   */\n  revert\n    /* \"Ballot.sol\":61:3632  contract Ballot {... */\ntag_13:\n  dataSize(sub_0)\n  dup1\n  dataOffset(sub_0)\n  0x00\n  codecopy\n  0x00\n  return\nstop\n\nsub_0: assembly {\n        /* \"Ballot.sol\":61:3632  contract Ballot {... */\n      mstore(0x40, 0x80)\n      callvalue\n      dup1\n      iszero\n      tag_1\n      jumpi\n      revert(0x00, 0x00)\n    tag_1:\n      pop\n      jumpi(tag_2, lt(calldatasize, 0x04))\n      shr(0xe0, calldataload(0x00))\n      dup1\n      0x609ff1bd\n      gt\n      tag_11\n      jumpi\n      dup1\n      0x609ff1bd\n      eq\n      tag_7\n      jumpi\n      dup1\n      0x9e7b8d61\n      eq\n      tag_8\n      jumpi\n      dup1\n      0xa3ec138d\n      eq\n      tag_9\n      jumpi\n      dup1\n      0xe2ba53f0\n      eq\n      tag_10\n      jumpi\n      jump(tag_2)\n    tag_11:\n      dup1\n      0x0121b93f\n      eq\n      tag_3\n      jumpi\n      dup1\n      0x013cf08b\n      eq\n      tag_4\n      jumpi\n      dup1\n      0x2e4176cf\n      eq\n      tag_5\n      jumpi\n      dup1\n      0x5c19a95c\n      eq\n      tag_6\n      jumpi\n    tag_2:\n      revert(0x00, 0x00)\n        /* \"Ballot.sol\":2693:3031  function vote(uint proposal) external {... */\n    tag_3:\n      tag_12\n      0x04\n      dup1\n      calldatasize\n      sub\n      dup2\n      add\n      swap1\n      tag_13\n      swap2\n      swap1\n      tag_14\n      jump\t// in\n    tag_13:\n      tag_15\n      jump\t// in\n    tag_12:\n      stop\n        /* \"Ballot.sol\":778:805  Proposal[] public proposals */\n    tag_4:\n      tag_16\n      0x04\n      dup1\n      calldatasize\n      sub\n      dup2\n      add\n      swap1\n      tag_17\n      swap2\n      swap1\n      tag_14\n      jump\t// in\n    tag_17:\n      tag_18\n      jump\t// in\n    tag_16:\n      mload(0x40)\n      tag_19\n      swap3\n      swap2\n      swap1\n      tag_20\n      jump\t// in\n    tag_19:\n      mload(0x40)\n      dup1\n      swap2\n      sub\n      swap1\n      return\n        /* \"Ballot.sol\":587:613  address public chairperson */\n    tag_5:\n      tag_21\n      tag_22\n      jump\t// in\n    tag_21:\n      mload(0x40)\n      tag_23\n      swap2\n      swap1\n      tag_24\n      jump\t// in\n    tag_23:\n      mload(0x40)\n      dup1\n      swap2\n      sub\n      swap1\n      return\n        /* \"Ballot.sol\":1724:2663  function delegate(address to) external {... */\n    tag_6:\n      tag_25\n      0x04\n      dup1\n      calldatasize\n      sub\n      dup2\n      add\n      swap1\n      tag_26\n      swap2\n      swap1\n      tag_27\n      jump\t// in\n    tag_26:\n      tag_28\n      jump\t// in\n    tag_25:\n      stop\n        /* \"Ballot.sol\":3082:3441  function winningProposal() public view returns (uint winningProposal_) {... */\n    tag_7:\n      tag_29\n      tag_30\n      jump\t// in\n    tag_29:\n      mload(0x40)\n      tag_31\n      swap2\n      swap1\n      tag_32\n      jump\t// in\n    tag_31:\n      mload(0x40)\n      dup1\n      swap2\n      sub\n      swap1\n      return\n        /* \"Ballot.sol\":1362:1694  function giveRightToVote(address voter) external {... */\n    tag_8:\n      tag_33\n      0x04\n      dup1\n      calldatasize\n      sub\n      dup2\n      add\n      swap1\n      tag_34\n      swap2\n      swap1\n      tag_27\n      jump\t// in\n    tag_34:\n      tag_35\n      jump\t// in\n    tag_33:\n      stop\n        /* \"Ballot.sol\":676:715  mapping(address => Voter) public voters */\n    tag_9:\n      tag_36\n      0x04\n      dup1\n      calldatasize\n      sub\n      dup2\n      add\n      swap1\n      tag_37\n      swap2\n      swap1\n      tag_27\n      jump\t// in\n    tag_37:\n      tag_38\n      jump\t// in\n    tag_36:\n      mload(0x40)\n      tag_39\n      swap5\n      swap4\n      swap3\n      swap2\n      swap1\n      tag_40\n      jump\t// in\n    tag_39:\n      mload(0x40)\n      dup1\n      swap2\n      sub\n      swap1\n      return\n        /* \"Ballot.sol\":3497:3629  function winnerName() external view returns (bytes32 winnerName_) {... */\n    tag_10:\n      tag_41\n      tag_42\n      jump\t// in\n    tag_41:\n      mload(0x40)\n      tag_43\n      swap2\n      swap1\n      tag_44\n      jump\t// in\n    tag_43:\n      mload(0x40)\n      dup1\n      swap2\n      sub\n      swap1\n      return\n        /* \"Ballot.sol\":2693:3031  function vote(uint proposal) external {... */\n    tag_15:\n        /* \"Ballot.sol\":2742:2762  Voter storage sender */\n      0x00\n        /* \"Ballot.sol\":2765:2771  voters */\n      0x01\n        /* \"Ballot.sol\":2765:2783  voters[msg.sender] */\n      0x00\n        /* \"Ballot.sol\":2772:2782  msg.sender */\n      caller\n        /* \"Ballot.sol\":2765:2783  voters[msg.sender] */\n      0xffffffffffffffffffffffffffffffffffffffff\n      and\n      0xffffffffffffffffffffffffffffffffffffffff\n      and\n      dup2\n      mstore\n      0x20\n      add\n      swap1\n      dup2\n      mstore\n      0x20\n      add\n      0x00\n      keccak256\n        /* \"Ballot.sol\":2742:2783  Voter storage sender = voters[msg.sender] */\n      swap1\n      pop\n        /* \"Ballot.sol\":2821:2822  0 */\n      0x00\n        /* \"Ballot.sol\":2804:2810  sender */\n      dup2\n        /* \"Ballot.sol\":2804:2817  sender.weight */\n      0x00\n      add\n      sload\n        /* \"Ballot.sol\":2804:2822  sender.weight != 0 */\n      sub\n        /* \"Ballot.sol\":2796:2848  require(sender.weight != 0, \"Has no right to vote.\") */\n      tag_46\n      jumpi\n      mload(0x40)\n      0x08c379a000000000000000000000000000000000000000000000000000000000\n      dup2\n      mstore\n      0x04\n      add\n      tag_47\n      swap1\n      tag_48\n      jump\t// in\n    tag_47:\n      mload(0x40)\n      dup1\n      swap2\n      sub\n      swap1\n      revert\n    tag_46:\n        /* \"Ballot.sol\":2868:2874  sender */\n      dup1\n        /* \"Ballot.sol\":2868:2880  sender.voted */\n      0x01\n      add\n      0x00\n      swap1\n      sload\n      swap1\n      0x0100\n      exp\n      swap1\n      div\n      0xff\n      and\n        /* \"Ballot.sol\":2867:2880  !sender.voted */\n      iszero\n        /* \"Ballot.sol\":2859:2899  require(!sender.voted, \"Already voted.\") */\n      tag_49\n      jumpi\n      mload(0x40)\n      0x08c379a000000000000000000000000000000000000000000000000000000000\n      dup2\n      mstore\n      0x04\n      add\n      tag_50\n      swap1\n      tag_51\n      jump\t// in\n    tag_50:\n      mload(0x40)\n      dup1\n      swap2\n      sub\n      swap1\n      revert\n    tag_49:\n        /* \"Ballot.sol\":2927:2931  true */\n      0x01\n        /* \"Ballot.sol\":2912:2918  sender */\n      dup2\n        /* \"Ballot.sol\":2912:2924  sender.voted */\n      0x01\n      add\n      0x00\n        /* \"Ballot.sol\":2912:2931  sender.voted = true */\n      0x0100\n      exp\n      dup2\n      sload\n      dup2\n      0xff\n      mul\n      not\n      and\n      swap1\n      dup4\n      iszero\n      iszero\n      mul\n      or\n      swap1\n      sstore\n      pop\n        /* \"Ballot.sol\":2956:2964  proposal */\n      dup2\n        /* \"Ballot.sol\":2942:2948  sender */\n      dup2\n        /* \"Ballot.sol\":2942:2953  sender.vote */\n      0x02\n      add\n        /* \"Ballot.sol\":2942:2964  sender.vote = proposal */\n      dup2\n      swap1\n      sstore\n      pop\n        /* \"Ballot.sol\":3010:3016  sender */\n      dup1\n        /* \"Ballot.sol\":3010:3023  sender.weight */\n      0x00\n      add\n      sload\n        /* \"Ballot.sol\":2977:2986  proposals */\n      0x02\n        /* \"Ballot.sol\":2987:2995  proposal */\n      dup4\n        /* \"Ballot.sol\":2977:2996  proposals[proposal] */\n      dup2\n      sload\n      dup2\n      lt\n      tag_52\n      jumpi\n      tag_53\n      tag_54\n      jump\t// in\n    tag_53:\n    tag_52:\n      swap1\n      0x00\n      mstore\n      keccak256(0x00, 0x20)\n      swap1\n      0x02\n      mul\n      add\n        /* \"Ballot.sol\":2977:3006  proposals[proposal].voteCount */\n      0x01\n      add\n      0x00\n        /* \"Ballot.sol\":2977:3023  proposals[proposal].voteCount += sender.weight */\n      dup3\n      dup3\n      sload\n      tag_56\n      swap2\n      swap1\n      tag_57\n      jump\t// in\n    tag_56:\n      swap3\n      pop\n      pop\n      dup2\n      swap1\n      sstore\n      pop\n        /* \"Ballot.sol\":2731:3031  {... */\n      pop\n        /* \"Ballot.sol\":2693:3031  function vote(uint proposal) external {... */\n      pop\n      jump\t// out\n        /* \"Ballot.sol\":778:805  Proposal[] public proposals */\n    tag_18:\n      0x02\n      dup2\n      dup2\n      sload\n      dup2\n      lt\n      tag_58\n      jumpi\n      0x00\n      dup1\n      revert\n    tag_58:\n      swap1\n      0x00\n      mstore\n      keccak256(0x00, 0x20)\n      swap1\n      0x02\n      mul\n      add\n      0x00\n      swap2\n      pop\n      swap1\n      pop\n      dup1\n      0x00\n      add\n      sload\n      swap1\n      dup1\n      0x01\n      add\n      sload\n      swap1\n      pop\n      dup3\n      jump\t// out\n        /* \"Ballot.sol\":587:613  address public chairperson */\n    tag_22:\n      0x00\n      0x00\n      swap1\n      sload\n      swap1\n      0x0100\n      exp\n      swap1\n      div\n      0xffffffffffffffffffffffffffffffffffffffff\n      and\n      dup2\n      jump\t// out\n        /* \"Ballot.sol\":1724:2663  function delegate(address to) external {... */\n    tag_28:\n        /* \"Ballot.sol\":1774:1794  Voter storage sender */\n      0x00\n        /* \"Ballot.sol\":1797:1803  voters */\n      0x01\n        /* \"Ballot.sol\":1797:1815  voters[msg.sender] */\n      0x00\n        /* \"Ballot.sol\":1804:1814  msg.sender */\n      caller\n        /* \"Ballot.sol\":1797:1815  voters[msg.sender] */\n      0xffffffffffffffffffffffffffffffffffffffff\n      and\n      0xffffffffffffffffffffffffffffffffffffffff\n      and\n      dup2\n      mstore\n      0x20\n      add\n      swap1\n      dup2\n      mstore\n      0x20\n      add\n      0x00\n      keccak256\n        /* \"Ballot.sol\":1774:1815  Voter storage sender = voters[msg.sender] */\n      swap1\n      pop\n        /* \"Ballot.sol\":1853:1854  0 */\n      0x00\n        /* \"Ballot.sol\":1836:1842  sender */\n      dup2\n        /* \"Ballot.sol\":1836:1849  sender.weight */\n      0x00\n      add\n      sload\n        /* \"Ballot.sol\":1836:1854  sender.weight != 0 */\n      sub\n        /* \"Ballot.sol\":1828:1885  require(sender.weight != 0, \"You have no right to vote.\") */\n      tag_61\n      jumpi\n      mload(0x40)\n      0x08c379a000000000000000000000000000000000000000000000000000000000\n      dup2\n      mstore\n      0x04\n      add\n      tag_62\n      swap1\n      tag_63\n      jump\t// in\n    tag_62:\n      mload(0x40)\n      dup1\n      swap2\n      sub\n      swap1\n      revert\n    tag_61:\n        /* \"Ballot.sol\":1905:1911  sender */\n      dup1\n        /* \"Ballot.sol\":1905:1917  sender.voted */\n      0x01\n      add\n      0x00\n      swap1\n      sload\n      swap1\n      0x0100\n      exp\n      swap1\n      div\n      0xff\n      and\n        /* \"Ballot.sol\":1904:1917  !sender.voted */\n      iszero\n        /* \"Ballot.sol\":1896:1945  require(!sender.voted, \"You have already voted.\") */\n      tag_64\n      jumpi\n      mload(0x40)\n      0x08c379a000000000000000000000000000000000000000000000000000000000\n      dup2\n      mstore\n      0x04\n      add\n      tag_65\n      swap1\n      tag_66\n      jump\t// in\n    tag_65:\n      mload(0x40)\n      dup1\n      swap2\n      sub\n      swap1\n      revert\n    tag_64:\n        /* \"Ballot.sol\":1970:1980  msg.sender */\n      caller\n        /* \"Ballot.sol\":1964:1980  to != msg.sender */\n      0xffffffffffffffffffffffffffffffffffffffff\n      and\n        /* \"Ballot.sol\":1964:1966  to */\n      dup3\n        /* \"Ballot.sol\":1964:1980  to != msg.sender */\n      0xffffffffffffffffffffffffffffffffffffffff\n      and\n      sub\n        /* \"Ballot.sol\":1956:2015  require(to != msg.sender, \"Self-delegation is disallowed.\") */\n      tag_67\n      jumpi\n      mload(0x40)\n      0x08c379a000000000000000000000000000000000000000000000000000000000\n      dup2\n      mstore\n      0x04\n      add\n      tag_68\n      swap1\n      tag_69\n      jump\t// in\n    tag_68:\n      mload(0x40)\n      dup1\n      swap2\n      sub\n      swap1\n      revert\n    tag_67:\n        /* \"Ballot.sol\":2064:2226  while (voters[to].delegate != address(0)) {... */\n    tag_70:\n        /* \"Ballot.sol\":2102:2103  0 */\n      0x00\n        /* \"Ballot.sol\":2071:2104  voters[to].delegate != address(0) */\n      0xffffffffffffffffffffffffffffffffffffffff\n      and\n        /* \"Ballot.sol\":2071:2077  voters */\n      0x01\n        /* \"Ballot.sol\":2071:2081  voters[to] */\n      0x00\n        /* \"Ballot.sol\":2078:2080  to */\n      dup5\n        /* \"Ballot.sol\":2071:2081  voters[to] */\n      0xffffffffffffffffffffffffffffffffffffffff\n      and\n      0xffffffffffffffffffffffffffffffffffffffff\n      and\n      dup2\n      mstore\n      0x20\n      add\n      swap1\n      dup2\n      mstore\n      0x20\n      add\n      0x00\n      keccak256\n        /* \"Ballot.sol\":2071:2090  voters[to].delegate */\n      0x01\n      add\n      0x01\n      swap1\n      sload\n      swap1\n      0x0100\n      exp\n      swap1\n      div\n      0xffffffffffffffffffffffffffffffffffffffff\n      and\n        /* \"Ballot.sol\":2071:2104  voters[to].delegate != address(0) */\n      0xffffffffffffffffffffffffffffffffffffffff\n      and\n      eq\n        /* \"Ballot.sol\":2064:2226  while (voters[to].delegate != address(0)) {... */\n      tag_71\n      jumpi\n        /* \"Ballot.sol\":2126:2132  voters */\n      0x01\n        /* \"Ballot.sol\":2126:2136  voters[to] */\n      0x00\n        /* \"Ballot.sol\":2133:2135  to */\n      dup4\n        /* \"Ballot.sol\":2126:2136  voters[to] */\n      0xffffffffffffffffffffffffffffffffffffffff\n      and\n      0xffffffffffffffffffffffffffffffffffffffff\n      and\n      dup2\n      mstore\n      0x20\n      add\n      swap1\n      dup2\n      mstore\n      0x20\n      add\n      0x00\n      keccak256\n        /* \"Ballot.sol\":2126:2145  voters[to].delegate */\n      0x01\n      add\n      0x01\n      swap1\n      sload\n      swap1\n      0x0100\n      exp\n      swap1\n      div\n      0xffffffffffffffffffffffffffffffffffffffff\n      and\n        /* \"Ballot.sol\":2121:2145  to = voters[to].delegate */\n      swap2\n      pop\n        /* \"Ballot.sol\":2174:2184  msg.sender */\n      caller\n        /* \"Ballot.sol\":2168:2184  to != msg.sender */\n      0xffffffffffffffffffffffffffffffffffffffff\n      and\n        /* \"Ballot.sol\":2168:2170  to */\n      dup3\n        /* \"Ballot.sol\":2168:2184  to != msg.sender */\n      0xffffffffffffffffffffffffffffffffffffffff\n      and\n      sub\n        /* \"Ballot.sol\":2160:2214  require(to != msg.sender, \"Found loop in delegation.\") */\n      tag_72\n      jumpi\n      mload(0x40)\n      0x08c379a000000000000000000000000000000000000000000000000000000000\n      dup2\n      mstore\n      0x04\n      add\n      tag_73\n      swap1\n      tag_74\n      jump\t// in\n    tag_73:\n      mload(0x40)\n      dup1\n      swap2\n      sub\n      swap1\n      revert\n    tag_72:\n        /* \"Ballot.sol\":2064:2226  while (voters[to].delegate != address(0)) {... */\n      jump(tag_70)\n    tag_71:\n        /* \"Ballot.sol\":2238:2261  Voter storage delegate_ */\n      0x00\n        /* \"Ballot.sol\":2264:2270  voters */\n      0x01\n        /* \"Ballot.sol\":2264:2274  voters[to] */\n      0x00\n        /* \"Ballot.sol\":2271:2273  to */\n      dup5\n        /* \"Ballot.sol\":2264:2274  voters[to] */\n      0xffffffffffffffffffffffffffffffffffffffff\n      and\n      0xffffffffffffffffffffffffffffffffffffffff\n      and\n      dup2\n      mstore\n      0x20\n      add\n      swap1\n      dup2\n      mstore\n      0x20\n      add\n      0x00\n      keccak256\n        /* \"Ballot.sol\":2238:2274  Voter storage delegate_ = voters[to] */\n      swap1\n      pop\n        /* \"Ballot.sol\":2313:2314  1 */\n      0x01\n        /* \"Ballot.sol\":2293:2302  delegate_ */\n      dup2\n        /* \"Ballot.sol\":2293:2309  delegate_.weight */\n      0x00\n      add\n      sload\n        /* \"Ballot.sol\":2293:2314  delegate_.weight >= 1 */\n      lt\n      iszero\n        /* \"Ballot.sol\":2285:2349  require(delegate_.weight >= 1, \"Delegate has no right to vote.\") */\n      tag_75\n      jumpi\n      mload(0x40)\n      0x08c379a000000000000000000000000000000000000000000000000000000000\n      dup2\n      mstore\n      0x04\n      add\n      tag_76\n      swap1\n      tag_77\n      jump\t// in\n    tag_76:\n      mload(0x40)\n      dup1\n      swap2\n      sub\n      swap1\n      revert\n    tag_75:\n        /* \"Ballot.sol\":2410:2414  true */\n      0x01\n        /* \"Ballot.sol\":2395:2401  sender */\n      dup3\n        /* \"Ballot.sol\":2395:2407  sender.voted */\n      0x01\n      add\n      0x00\n        /* \"Ballot.sol\":2395:2414  sender.voted = true */\n      0x0100\n      exp\n      dup2\n      sload\n      dup2\n      0xff\n      mul\n      not\n      and\n      swap1\n      dup4\n      iszero\n      iszero\n      mul\n      or\n      swap1\n      sstore\n      pop\n        /* \"Ballot.sol\":2443:2445  to */\n      dup3\n        /* \"Ballot.sol\":2425:2431  sender */\n      dup3\n        /* \"Ballot.sol\":2425:2440  sender.delegate */\n      0x01\n      add\n      0x01\n        /* \"Ballot.sol\":2425:2445  sender.delegate = to */\n      0x0100\n      exp\n      dup2\n      sload\n      dup2\n      0xffffffffffffffffffffffffffffffffffffffff\n      mul\n      not\n      and\n      swap1\n      dup4\n      0xffffffffffffffffffffffffffffffffffffffff\n      and\n      mul\n      or\n      swap1\n      sstore\n      pop\n        /* \"Ballot.sol\":2494:2503  delegate_ */\n      dup1\n        /* \"Ballot.sol\":2494:2509  delegate_.voted */\n      0x01\n      add\n      0x00\n      swap1\n      sload\n      swap1\n      0x0100\n      exp\n      swap1\n      div\n      0xff\n      and\n        /* \"Ballot.sol\":2490:2656  if (delegate_.voted) {... */\n      iszero\n      tag_78\n      jumpi\n        /* \"Ballot.sol\":2565:2571  sender */\n      dup2\n        /* \"Ballot.sol\":2565:2578  sender.weight */\n      0x00\n      add\n      sload\n        /* \"Ballot.sol\":2526:2535  proposals */\n      0x02\n        /* \"Ballot.sol\":2536:2545  delegate_ */\n      dup3\n        /* \"Ballot.sol\":2536:2550  delegate_.vote */\n      0x02\n      add\n      sload\n        /* \"Ballot.sol\":2526:2551  proposals[delegate_.vote] */\n      dup2\n      sload\n      dup2\n      lt\n      tag_79\n      jumpi\n      tag_80\n      tag_54\n      jump\t// in\n    tag_80:\n    tag_79:\n      swap1\n      0x00\n      mstore\n      keccak256(0x00, 0x20)\n      swap1\n      0x02\n      mul\n      add\n        /* \"Ballot.sol\":2526:2561  proposals[delegate_.vote].voteCount */\n      0x01\n      add\n      0x00\n        /* \"Ballot.sol\":2526:2578  proposals[delegate_.vote].voteCount += sender.weight */\n      dup3\n      dup3\n      sload\n      tag_82\n      swap2\n      swap1\n      tag_57\n      jump\t// in\n    tag_82:\n      swap3\n      pop\n      pop\n      dup2\n      swap1\n      sstore\n      pop\n        /* \"Ballot.sol\":2490:2656  if (delegate_.voted) {... */\n      jump(tag_83)\n    tag_78:\n        /* \"Ballot.sol\":2631:2637  sender */\n      dup2\n        /* \"Ballot.sol\":2631:2644  sender.weight */\n      0x00\n      add\n      sload\n        /* \"Ballot.sol\":2611:2620  delegate_ */\n      dup2\n        /* \"Ballot.sol\":2611:2627  delegate_.weight */\n      0x00\n      add\n      0x00\n        /* \"Ballot.sol\":2611:2644  delegate_.weight += sender.weight */\n      dup3\n      dup3\n      sload\n      tag_84\n      swap2\n      swap1\n      tag_57\n      jump\t// in\n    tag_84:\n      swap3\n      pop\n      pop\n      dup2\n      swap1\n      sstore\n      pop\n        /* \"Ballot.sol\":2490:2656  if (delegate_.voted) {... */\n    tag_83:\n        /* \"Ballot.sol\":1763:2663  {... */\n      pop\n      pop\n        /* \"Ballot.sol\":1724:2663  function delegate(address to) external {... */\n      pop\n      jump\t// out\n        /* \"Ballot.sol\":3082:3441  function winningProposal() public view returns (uint winningProposal_) {... */\n    tag_30:\n        /* \"Ballot.sol\":3130:3151  uint winningProposal_ */\n      0x00\n        /* \"Ballot.sol\":3164:3185  uint winningVoteCount */\n      0x00\n        /* \"Ballot.sol\":3188:3189  0 */\n      0x00\n        /* \"Ballot.sol\":3164:3189  uint winningVoteCount = 0 */\n      swap1\n      pop\n        /* \"Ballot.sol\":3207:3213  uint p */\n      0x00\n        /* \"Ballot.sol\":3216:3217  0 */\n      0x00\n        /* \"Ballot.sol\":3207:3217  uint p = 0 */\n      swap1\n      pop\n        /* \"Ballot.sol\":3202:3434  for (uint p = 0; p < proposals.length; p++) {... */\n    tag_86:\n        /* \"Ballot.sol\":3223:3232  proposals */\n      0x02\n        /* \"Ballot.sol\":3223:3239  proposals.length */\n      dup1\n      sload\n      swap1\n      pop\n        /* \"Ballot.sol\":3219:3220  p */\n      dup2\n        /* \"Ballot.sol\":3219:3239  p < proposals.length */\n      lt\n        /* \"Ballot.sol\":3202:3434  for (uint p = 0; p < proposals.length; p++) {... */\n      iszero\n      tag_87\n      jumpi\n        /* \"Ballot.sol\":3290:3306  winningVoteCount */\n      dup2\n        /* \"Ballot.sol\":3265:3274  proposals */\n      0x02\n        /* \"Ballot.sol\":3275:3276  p */\n      dup3\n        /* \"Ballot.sol\":3265:3277  proposals[p] */\n      dup2\n      sload\n      dup2\n      lt\n      tag_89\n      jumpi\n      tag_90\n      tag_54\n      jump\t// in\n    tag_90:\n    tag_89:\n      swap1\n      0x00\n      mstore\n      keccak256(0x00, 0x20)\n      swap1\n      0x02\n      mul\n      add\n        /* \"Ballot.sol\":3265:3287  proposals[p].voteCount */\n      0x01\n      add\n      sload\n        /* \"Ballot.sol\":3265:3306  proposals[p].voteCount > winningVoteCount */\n      gt\n        /* \"Ballot.sol\":3261:3423  if (proposals[p].voteCount > winningVoteCount) {... */\n      iszero\n      tag_92\n      jumpi\n        /* \"Ballot.sol\":3346:3355  proposals */\n      0x02\n        /* \"Ballot.sol\":3356:3357  p */\n      dup2\n        /* \"Ballot.sol\":3346:3358  proposals[p] */\n      dup2\n      sload\n      dup2\n      lt\n      tag_93\n      jumpi\n      tag_94\n      tag_54\n      jump\t// in\n    tag_94:\n    tag_93:\n      swap1\n      0x00\n      mstore\n      keccak256(0x00, 0x20)\n      swap1\n      0x02\n      mul\n      add\n        /* \"Ballot.sol\":3346:3368  proposals[p].voteCount */\n      0x01\n      add\n      sload\n        /* \"Ballot.sol\":3327:3368  winningVoteCount = proposals[p].voteCount */\n      swap2\n      pop\n        /* \"Ballot.sol\":3406:3407  p */\n      dup1\n        /* \"Ballot.sol\":3387:3407  winningProposal_ = p */\n      swap3\n      pop\n        /* \"Ballot.sol\":3261:3423  if (proposals[p].voteCount > winningVoteCount) {... */\n    tag_92:\n        /* \"Ballot.sol\":3241:3244  p++ */\n      dup1\n      dup1\n      0x01\n      add\n      swap2\n      pop\n      pop\n        /* \"Ballot.sol\":3202:3434  for (uint p = 0; p < proposals.length; p++) {... */\n      jump(tag_86)\n    tag_87:\n      pop\n        /* \"Ballot.sol\":3153:3441  {... */\n      pop\n        /* \"Ballot.sol\":3082:3441  function winningProposal() public view returns (uint winningProposal_) {... */\n      swap1\n      jump\t// out\n        /* \"Ballot.sol\":1362:1694  function giveRightToVote(address voter) external {... */\n    tag_35:\n        /* \"Ballot.sol\":1444:1455  chairperson */\n      0x00\n      0x00\n      swap1\n      sload\n      swap1\n      0x0100\n      exp\n      swap1\n      div\n      0xffffffffffffffffffffffffffffffffffffffff\n      and\n        /* \"Ballot.sol\":1430:1455  msg.sender == chairperson */\n      0xffffffffffffffffffffffffffffffffffffffff\n      and\n        /* \"Ballot.sol\":1430:1440  msg.sender */\n      caller\n        /* \"Ballot.sol\":1430:1455  msg.sender == chairperson */\n      0xffffffffffffffffffffffffffffffffffffffff\n      and\n      eq\n        /* \"Ballot.sol\":1422:1500  require(msg.sender == chairperson, \"Only chairperson can give right to vote.\") */\n      tag_97\n      jumpi\n      mload(0x40)\n      0x08c379a000000000000000000000000000000000000000000000000000000000\n      dup2\n      mstore\n      0x04\n      add\n      tag_98\n      swap1\n      tag_99\n      jump\t// in\n    tag_98:\n      mload(0x40)\n      dup1\n      swap2\n      sub\n      swap1\n      revert\n    tag_97:\n        /* \"Ballot.sol\":1520:1526  voters */\n      0x01\n        /* \"Ballot.sol\":1520:1533  voters[voter] */\n      0x00\n        /* \"Ballot.sol\":1527:1532  voter */\n      dup3\n        /* \"Ballot.sol\":1520:1533  voters[voter] */\n      0xffffffffffffffffffffffffffffffffffffffff\n      and\n      0xffffffffffffffffffffffffffffffffffffffff\n      and\n      dup2\n      mstore\n      0x20\n      add\n      swap1\n      dup2\n      mstore\n      0x20\n      add\n      0x00\n      keccak256\n        /* \"Ballot.sol\":1520:1539  voters[voter].voted */\n      0x01\n      add\n      0x00\n      swap1\n      sload\n      swap1\n      0x0100\n      exp\n      swap1\n      div\n      0xff\n      and\n        /* \"Ballot.sol\":1519:1539  !voters[voter].voted */\n      iszero\n        /* \"Ballot.sol\":1511:1568  require(!voters[voter].voted, \"The voter already voted.\") */\n      tag_100\n      jumpi\n      mload(0x40)\n      0x08c379a000000000000000000000000000000000000000000000000000000000\n      dup2\n      mstore\n      0x04\n      add\n      tag_101\n      swap1\n      tag_102\n      jump\t// in\n    tag_101:\n      mload(0x40)\n      dup1\n      swap2\n      sub\n      swap1\n      revert\n    tag_100:\n        /* \"Ballot.sol\":1611:1612  0 */\n      0x00\n        /* \"Ballot.sol\":1587:1593  voters */\n      0x01\n        /* \"Ballot.sol\":1587:1600  voters[voter] */\n      0x00\n        /* \"Ballot.sol\":1594:1599  voter */\n      dup4\n        /* \"Ballot.sol\":1587:1600  voters[voter] */\n      0xffffffffffffffffffffffffffffffffffffffff\n      and\n      0xffffffffffffffffffffffffffffffffffffffff\n      and\n      dup2\n      mstore\n      0x20\n      add\n      swap1\n      dup2\n      mstore\n      0x20\n      add\n      0x00\n      keccak256\n        /* \"Ballot.sol\":1587:1607  voters[voter].weight */\n      0x00\n      add\n      sload\n        /* \"Ballot.sol\":1587:1612  voters[voter].weight == 0 */\n      eq\n        /* \"Ballot.sol\":1579:1649  require(voters[voter].weight == 0, \"Voter already has voting rights.\") */\n      tag_103\n      jumpi\n      mload(0x40)\n      0x08c379a000000000000000000000000000000000000000000000000000000000\n      dup2\n      mstore\n      0x04\n      add\n      tag_104\n      swap1\n      tag_105\n      jump\t// in\n    tag_104:\n      mload(0x40)\n      dup1\n      swap2\n      sub\n      swap1\n      revert\n    tag_103:\n        /* \"Ballot.sol\":1685:1686  1 */\n      0x01\n        /* \"Ballot.sol\":1662:1668  voters */\n      dup1\n        /* \"Ballot.sol\":1662:1675  voters[voter] */\n      0x00\n        /* \"Ballot.sol\":1669:1674  voter */\n      dup4\n        /* \"Ballot.sol\":1662:1675  voters[voter] */\n      0xffffffffffffffffffffffffffffffffffffffff\n      and\n      0xffffffffffffffffffffffffffffffffffffffff\n      and\n      dup2\n      mstore\n      0x20\n      add\n      swap1\n      dup2\n      mstore\n      0x20\n      add\n      0x00\n      keccak256\n        /* \"Ballot.sol\":1662:1682  voters[voter].weight */\n      0x00\n      add\n        /* \"Ballot.sol\":1662:1686  voters[voter].weight = 1 */\n      dup2\n      swap1\n      sstore\n      pop\n        /* \"Ballot.sol\":1362:1694  function giveRightToVote(address voter) external {... */\n      pop\n      jump\t// out\n        /* \"Ballot.sol\":676:715  mapping(address => Voter) public voters */\n    tag_38:\n      mstore(0x20, 0x01)\n      dup1\n      0x00\n      mstore\n      keccak256(0x00, 0x40)\n      0x00\n      swap2\n      pop\n      swap1\n      pop\n      dup1\n      0x00\n      add\n      sload\n      swap1\n      dup1\n      0x01\n      add\n      0x00\n      swap1\n      sload\n      swap1\n      0x0100\n      exp\n      swap1\n      div\n      0xff\n      and\n      swap1\n      dup1\n      0x01\n      add\n      0x01\n      swap1\n      sload\n      swap1\n      0x0100\n      exp\n      swap1\n      div\n      0xffffffffffffffffffffffffffffffffffffffff\n      and\n      swap1\n      dup1\n      0x02\n      add\n      sload\n      swap1\n      pop\n      dup5\n      jump\t// out\n        /* \"Ballot.sol\":3497:3629  function winnerName() external view returns (bytes32 winnerName_) {... */\n    tag_42:\n        /* \"Ballot.sol\":3542:3561  bytes32 winnerName_ */\n      0x00\n        /* \"Ballot.sol\":3588:3597  proposals */\n      0x02\n        /* \"Ballot.sol\":3598:3615  winningProposal() */\n      tag_107\n        /* \"Ballot.sol\":3598:3613  winningProposal */\n      tag_30\n        /* \"Ballot.sol\":3598:3615  winningProposal() */\n      jump\t// in\n    tag_107:\n        /* \"Ballot.sol\":3588:3616  proposals[winningProposal()] */\n      dup2\n      sload\n      dup2\n      lt\n      tag_108\n      jumpi\n      tag_109\n      tag_54\n      jump\t// in\n    tag_109:\n    tag_108:\n      swap1\n      0x00\n      mstore\n      keccak256(0x00, 0x20)\n      swap1\n      0x02\n      mul\n      add\n        /* \"Ballot.sol\":3588:3621  proposals[winningProposal()].name */\n      0x00\n      add\n      sload\n        /* \"Ballot.sol\":3574:3621  winnerName_ = proposals[winningProposal()].name */\n      swap1\n      pop\n        /* \"Ballot.sol\":3497:3629  function winnerName() external view returns (bytes32 winnerName_) {... */\n      swap1\n      jump\t// out\n        /* \"#utility.yul\":88:205   */\n    tag_112:\n        /* \"#utility.yul\":197:198   */\n      0x00\n        /* \"#utility.yul\":194:195   */\n      0x00\n        /* \"#utility.yul\":187:199   */\n      revert\n        /* \"#utility.yul\":334:411   */\n    tag_114:\n        /* \"#utility.yul\":371:378   */\n      0x00\n        /* \"#utility.yul\":400:405   */\n      dup2\n        /* \"#utility.yul\":389:405   */\n      swap1\n      pop\n        /* \"#utility.yul\":334:411   */\n      swap2\n      swap1\n      pop\n      jump\t// out\n        /* \"#utility.yul\":417:539   */\n    tag_115:\n        /* \"#utility.yul\":490:514   */\n      tag_155\n        /* \"#utility.yul\":508:513   */\n      dup2\n        /* \"#utility.yul\":490:514   */\n      tag_114\n      jump\t// in\n    tag_155:\n        /* \"#utility.yul\":483:488   */\n      dup2\n        /* \"#utility.yul\":480:515   */\n      eq\n        /* \"#utility.yul\":470:533   */\n      tag_156\n      jumpi\n        /* \"#utility.yul\":529:530   */\n      0x00\n        /* \"#utility.yul\":526:527   */\n      0x00\n        /* \"#utility.yul\":519:531   */\n      revert\n        /* \"#utility.yul\":470:533   */\n    tag_156:\n        /* \"#utility.yul\":417:539   */\n      pop\n      jump\t// out\n        /* \"#utility.yul\":545:684   */\n    tag_116:\n        /* \"#utility.yul\":591:596   */\n      0x00\n        /* \"#utility.yul\":629:635   */\n      dup2\n        /* \"#utility.yul\":616:636   */\n      calldataload\n        /* \"#utility.yul\":607:636   */\n      swap1\n      pop\n        /* \"#utility.yul\":645:678   */\n      tag_158\n        /* \"#utility.yul\":672:677   */\n      dup2\n        /* \"#utility.yul\":645:678   */\n      tag_115\n      jump\t// in\n    tag_158:\n        /* \"#utility.yul\":545:684   */\n      swap3\n      swap2\n      pop\n      pop\n      jump\t// out\n        /* \"#utility.yul\":690:1019   */\n    tag_14:\n        /* \"#utility.yul\":749:755   */\n      0x00\n        /* \"#utility.yul\":798:800   */\n      0x20\n        /* \"#utility.yul\":786:795   */\n      dup3\n        /* \"#utility.yul\":777:784   */\n      dup5\n        /* \"#utility.yul\":773:796   */\n      sub\n        /* \"#utility.yul\":769:801   */\n      slt\n        /* \"#utility.yul\":766:885   */\n      iszero\n      tag_160\n      jumpi\n        /* \"#utility.yul\":804:883   */\n      tag_161\n      tag_112\n      jump\t// in\n    tag_161:\n        /* \"#utility.yul\":766:885   */\n    tag_160:\n        /* \"#utility.yul\":924:925   */\n      0x00\n        /* \"#utility.yul\":949:1002   */\n      tag_162\n        /* \"#utility.yul\":994:1001   */\n      dup5\n        /* \"#utility.yul\":985:991   */\n      dup3\n        /* \"#utility.yul\":974:983   */\n      dup6\n        /* \"#utility.yul\":970:992   */\n      add\n        /* \"#utility.yul\":949:1002   */\n      tag_116\n      jump\t// in\n    tag_162:\n        /* \"#utility.yul\":939:1002   */\n      swap2\n      pop\n        /* \"#utility.yul\":895:1012   */\n      pop\n        /* \"#utility.yul\":690:1019   */\n      swap3\n      swap2\n      pop\n      pop\n      jump\t// out\n        /* \"#utility.yul\":1025:1102   */\n    tag_117:\n        /* \"#utility.yul\":1062:1069   */\n      0x00\n        /* \"#utility.yul\":1091:1096   */\n      dup2\n        /* \"#utility.yul\":1080:1096   */\n      swap1\n      pop\n        /* \"#utility.yul\":1025:1102   */\n      swap2\n      swap1\n      pop\n      jump\t// out\n        /* \"#utility.yul\":1108:1226   */\n    tag_118:\n        /* \"#utility.yul\":1195:1219   */\n      tag_165\n        /* \"#utility.yul\":1213:1218   */\n      dup2\n        /* \"#utility.yul\":1195:1219   */\n      tag_117\n      jump\t// in\n    tag_165:\n        /* \"#utility.yul\":1190:1193   */\n      dup3\n        /* \"#utility.yul\":1183:1220   */\n      mstore\n        /* \"#utility.yul\":1108:1226   */\n      pop\n      pop\n      jump\t// out\n        /* \"#utility.yul\":1232:1350   */\n    tag_119:\n        /* \"#utility.yul\":1319:1343   */\n      tag_167\n        /* \"#utility.yul\":1337:1342   */\n      dup2\n        /* \"#utility.yul\":1319:1343   */\n      tag_114\n      jump\t// in\n    tag_167:\n        /* \"#utility.yul\":1314:1317   */\n      dup3\n        /* \"#utility.yul\":1307:1344   */\n      mstore\n        /* \"#utility.yul\":1232:1350   */\n      pop\n      pop\n      jump\t// out\n        /* \"#utility.yul\":1356:1688   */\n    tag_20:\n        /* \"#utility.yul\":1477:1481   */\n      0x00\n        /* \"#utility.yul\":1515:1517   */\n      0x40\n        /* \"#utility.yul\":1504:1513   */\n      dup3\n        /* \"#utility.yul\":1500:1518   */\n      add\n        /* \"#utility.yul\":1492:1518   */\n      swap1\n      pop\n        /* \"#utility.yul\":1528:1599   */\n      tag_169\n        /* \"#utility.yul\":1596:1597   */\n      0x00\n        /* \"#utility.yul\":1585:1594   */\n      dup4\n        /* \"#utility.yul\":1581:1598   */\n      add\n        /* \"#utility.yul\":1572:1578   */\n      dup6\n        /* \"#utility.yul\":1528:1599   */\n      tag_118\n      jump\t// in\n    tag_169:\n        /* \"#utility.yul\":1609:1681   */\n      tag_170\n        /* \"#utility.yul\":1677:1679   */\n      0x20\n        /* \"#utility.yul\":1666:1675   */\n      dup4\n        /* \"#utility.yul\":1662:1680   */\n      add\n        /* \"#utility.yul\":1653:1659   */\n      dup5\n        /* \"#utility.yul\":1609:1681   */\n      tag_119\n      jump\t// in\n    tag_170:\n        /* \"#utility.yul\":1356:1688   */\n      swap4\n      swap3\n      pop\n      pop\n      pop\n      jump\t// out\n        /* \"#utility.yul\":1694:1820   */\n    tag_120:\n        /* \"#utility.yul\":1731:1738   */\n      0x00\n        /* \"#utility.yul\":1771:1813   */\n      0xffffffffffffffffffffffffffffffffffffffff\n        /* \"#utility.yul\":1764:1769   */\n      dup3\n        /* \"#utility.yul\":1760:1814   */\n      and\n        /* \"#utility.yul\":1749:1814   */\n      swap1\n      pop\n        /* \"#utility.yul\":1694:1820   */\n      swap2\n      swap1\n      pop\n      jump\t// out\n        /* \"#utility.yul\":1826:1922   */\n    tag_121:\n        /* \"#utility.yul\":1863:1870   */\n      0x00\n        /* \"#utility.yul\":1892:1916   */\n      tag_173\n        /* \"#utility.yul\":1910:1915   */\n      dup3\n        /* \"#utility.yul\":1892:1916   */\n      tag_120\n      jump\t// in\n    tag_173:\n        /* \"#utility.yul\":1881:1916   */\n      swap1\n      pop\n        /* \"#utility.yul\":1826:1922   */\n      swap2\n      swap1\n      pop\n      jump\t// out\n        /* \"#utility.yul\":1928:2046   */\n    tag_122:\n        /* \"#utility.yul\":2015:2039   */\n      tag_175\n        /* \"#utility.yul\":2033:2038   */\n      dup2\n        /* \"#utility.yul\":2015:2039   */\n      tag_121\n      jump\t// in\n    tag_175:\n        /* \"#utility.yul\":2010:2013   */\n      dup3\n        /* \"#utility.yul\":2003:2040   */\n      mstore\n        /* \"#utility.yul\":1928:2046   */\n      pop\n      pop\n      jump\t// out\n        /* \"#utility.yul\":2052:2274   */\n    tag_24:\n        /* \"#utility.yul\":2145:2149   */\n      0x00\n        /* \"#utility.yul\":2183:2185   */\n      0x20\n        /* \"#utility.yul\":2172:2181   */\n      dup3\n        /* \"#utility.yul\":2168:2186   */\n      add\n        /* \"#utility.yul\":2160:2186   */\n      swap1\n      pop\n        /* \"#utility.yul\":2196:2267   */\n      tag_177\n        /* \"#utility.yul\":2264:2265   */\n      0x00\n        /* \"#utility.yul\":2253:2262   */\n      dup4\n        /* \"#utility.yul\":2249:2266   */\n      add\n        /* \"#utility.yul\":2240:2246   */\n      dup5\n        /* \"#utility.yul\":2196:2267   */\n      tag_122\n      jump\t// in\n    tag_177:\n        /* \"#utility.yul\":2052:2274   */\n      swap3\n      swap2\n      pop\n      pop\n      jump\t// out\n        /* \"#utility.yul\":2280:2402   */\n    tag_123:\n        /* \"#utility.yul\":2353:2377   */\n      tag_179\n        /* \"#utility.yul\":2371:2376   */\n      dup2\n        /* \"#utility.yul\":2353:2377   */\n      tag_121\n      jump\t// in\n    tag_179:\n        /* \"#utility.yul\":2346:2351   */\n      dup2\n        /* \"#utility.yul\":2343:2378   */\n      eq\n        /* \"#utility.yul\":2333:2396   */\n      tag_180\n      jumpi\n        /* \"#utility.yul\":2392:2393   */\n      0x00\n        /* \"#utility.yul\":2389:2390   */\n      0x00\n        /* \"#utility.yul\":2382:2394   */\n      revert\n        /* \"#utility.yul\":2333:2396   */\n    tag_180:\n        /* \"#utility.yul\":2280:2402   */\n      pop\n      jump\t// out\n        /* \"#utility.yul\":2408:2547   */\n    tag_124:\n        /* \"#utility.yul\":2454:2459   */\n      0x00\n        /* \"#utility.yul\":2492:2498   */\n      dup2\n        /* \"#utility.yul\":2479:2499   */\n      calldataload\n        /* \"#utility.yul\":2470:2499   */\n      swap1\n      pop\n        /* \"#utility.yul\":2508:2541   */\n      tag_182\n        /* \"#utility.yul\":2535:2540   */\n      dup2\n        /* \"#utility.yul\":2508:2541   */\n      tag_123\n      jump\t// in\n    tag_182:\n        /* \"#utility.yul\":2408:2547   */\n      swap3\n      swap2\n      pop\n      pop\n      jump\t// out\n        /* \"#utility.yul\":2553:2882   */\n    tag_27:\n        /* \"#utility.yul\":2612:2618   */\n      0x00\n        /* \"#utility.yul\":2661:2663   */\n      0x20\n        /* \"#utility.yul\":2649:2658   */\n      dup3\n        /* \"#utility.yul\":2640:2647   */\n      dup5\n        /* \"#utility.yul\":2636:2659   */\n      sub\n        /* \"#utility.yul\":2632:2664   */\n      slt\n        /* \"#utility.yul\":2629:2748   */\n      iszero\n      tag_184\n      jumpi\n        /* \"#utility.yul\":2667:2746   */\n      tag_185\n      tag_112\n      jump\t// in\n    tag_185:\n        /* \"#utility.yul\":2629:2748   */\n    tag_184:\n        /* \"#utility.yul\":2787:2788   */\n      0x00\n        /* \"#utility.yul\":2812:2865   */\n      tag_186\n        /* \"#utility.yul\":2857:2864   */\n      dup5\n        /* \"#utility.yul\":2848:2854   */\n      dup3\n        /* \"#utility.yul\":2837:2846   */\n      dup6\n        /* \"#utility.yul\":2833:2855   */\n      add\n        /* \"#utility.yul\":2812:2865   */\n      tag_124\n      jump\t// in\n    tag_186:\n        /* \"#utility.yul\":2802:2865   */\n      swap2\n      pop\n        /* \"#utility.yul\":2758:2875   */\n      pop\n        /* \"#utility.yul\":2553:2882   */\n      swap3\n      swap2\n      pop\n      pop\n      jump\t// out\n        /* \"#utility.yul\":2888:3110   */\n    tag_32:\n        /* \"#utility.yul\":2981:2985   */\n      0x00\n        /* \"#utility.yul\":3019:3021   */\n      0x20\n        /* \"#utility.yul\":3008:3017   */\n      dup3\n        /* \"#utility.yul\":3004:3022   */\n      add\n        /* \"#utility.yul\":2996:3022   */\n      swap1\n      pop\n        /* \"#utility.yul\":3032:3103   */\n      tag_188\n        /* \"#utility.yul\":3100:3101   */\n      0x00\n        /* \"#utility.yul\":3089:3098   */\n      dup4\n        /* \"#utility.yul\":3085:3102   */\n      add\n        /* \"#utility.yul\":3076:3082   */\n      dup5\n        /* \"#utility.yul\":3032:3103   */\n      tag_119\n      jump\t// in\n    tag_188:\n        /* \"#utility.yul\":2888:3110   */\n      swap3\n      swap2\n      pop\n      pop\n      jump\t// out\n        /* \"#utility.yul\":3116:3206   */\n    tag_125:\n        /* \"#utility.yul\":3150:3157   */\n      0x00\n        /* \"#utility.yul\":3193:3198   */\n      dup2\n        /* \"#utility.yul\":3186:3199   */\n      iszero\n        /* \"#utility.yul\":3179:3200   */\n      iszero\n        /* \"#utility.yul\":3168:3200   */\n      swap1\n      pop\n        /* \"#utility.yul\":3116:3206   */\n      swap2\n      swap1\n      pop\n      jump\t// out\n        /* \"#utility.yul\":3212:3321   */\n    tag_126:\n        /* \"#utility.yul\":3293:3314   */\n      tag_191\n        /* \"#utility.yul\":3308:3313   */\n      dup2\n        /* \"#utility.yul\":3293:3314   */\n      tag_125\n      jump\t// in\n    tag_191:\n        /* \"#utility.yul\":3288:3291   */\n      dup3\n        /* \"#utility.yul\":3281:3315   */\n      mstore\n        /* \"#utility.yul\":3212:3321   */\n      pop\n      pop\n      jump\t// out\n        /* \"#utility.yul\":3327:3868   */\n    tag_40:\n        /* \"#utility.yul\":3498:3502   */\n      0x00\n        /* \"#utility.yul\":3536:3539   */\n      0x80\n        /* \"#utility.yul\":3525:3534   */\n      dup3\n        /* \"#utility.yul\":3521:3540   */\n      add\n        /* \"#utility.yul\":3513:3540   */\n      swap1\n      pop\n        /* \"#utility.yul\":3550:3621   */\n      tag_193\n        /* \"#utility.yul\":3618:3619   */\n      0x00\n        /* \"#utility.yul\":3607:3616   */\n      dup4\n        /* \"#utility.yul\":3603:3620   */\n      add\n        /* \"#utility.yul\":3594:3600   */\n      dup8\n        /* \"#utility.yul\":3550:3621   */\n      tag_119\n      jump\t// in\n    tag_193:\n        /* \"#utility.yul\":3631:3697   */\n      tag_194\n        /* \"#utility.yul\":3693:3695   */\n      0x20\n        /* \"#utility.yul\":3682:3691   */\n      dup4\n        /* \"#utility.yul\":3678:3696   */\n      add\n        /* \"#utility.yul\":3669:3675   */\n      dup7\n        /* \"#utility.yul\":3631:3697   */\n      tag_126\n      jump\t// in\n    tag_194:\n        /* \"#utility.yul\":3707:3779   */\n      tag_195\n        /* \"#utility.yul\":3775:3777   */\n      0x40\n        /* \"#utility.yul\":3764:3773   */\n      dup4\n        /* \"#utility.yul\":3760:3778   */\n      add\n        /* \"#utility.yul\":3751:3757   */\n      dup6\n        /* \"#utility.yul\":3707:3779   */\n      tag_122\n      jump\t// in\n    tag_195:\n        /* \"#utility.yul\":3789:3861   */\n      tag_196\n        /* \"#utility.yul\":3857:3859   */\n      0x60\n        /* \"#utility.yul\":3846:3855   */\n      dup4\n        /* \"#utility.yul\":3842:3860   */\n      add\n        /* \"#utility.yul\":3833:3839   */\n      dup5\n        /* \"#utility.yul\":3789:3861   */\n      tag_119\n      jump\t// in\n    tag_196:\n        /* \"#utility.yul\":3327:3868   */\n      swap6\n      swap5\n      pop\n      pop\n      pop\n      pop\n      pop\n      jump\t// out\n        /* \"#utility.yul\":3874:4096   */\n    tag_44:\n        /* \"#utility.yul\":3967:3971   */\n      0x00\n        /* \"#utility.yul\":4005:4007   */\n      0x20\n        /* \"#utility.yul\":3994:4003   */\n      dup3\n        /* \"#utility.yul\":3990:4008   */\n      add\n        /* \"#utility.yul\":3982:4008   */\n      swap1\n      pop\n        /* \"#utility.yul\":4018:4089   */\n      tag_198\n        /* \"#utility.yul\":4086:4087   */\n      0x00\n        /* \"#utility.yul\":4075:4084   */\n      dup4\n        /* \"#utility.yul\":4071:4088   */\n      add\n        /* \"#utility.yul\":4062:4068   */\n      dup5\n        /* \"#utility.yul\":4018:4089   */\n      tag_118\n      jump\t// in\n    tag_198:\n        /* \"#utility.yul\":3874:4096   */\n      swap3\n      swap2\n      pop\n      pop\n      jump\t// out\n        /* \"#utility.yul\":4102:4271   */\n    tag_127:\n        /* \"#utility.yul\":4186:4197   */\n      0x00\n        /* \"#utility.yul\":4220:4226   */\n      dup3\n        /* \"#utility.yul\":4215:4218   */\n      dup3\n        /* \"#utility.yul\":4208:4227   */\n      mstore\n        /* \"#utility.yul\":4260:4264   */\n      0x20\n        /* \"#utility.yul\":4255:4258   */\n      dup3\n        /* \"#utility.yul\":4251:4265   */\n      add\n        /* \"#utility.yul\":4236:4265   */\n      swap1\n      pop\n        /* \"#utility.yul\":4102:4271   */\n      swap3\n      swap2\n      pop\n      pop\n      jump\t// out\n        /* \"#utility.yul\":4277:4448   */\n    tag_128:\n        /* \"#utility.yul\":4417:4440   */\n      0x486173206e6f20726967687420746f20766f74652e0000000000000000000000\n        /* \"#utility.yul\":4413:4414   */\n      0x00\n        /* \"#utility.yul\":4405:4411   */\n      dup3\n        /* \"#utility.yul\":4401:4415   */\n      add\n        /* \"#utility.yul\":4394:4441   */\n      mstore\n        /* \"#utility.yul\":4277:4448   */\n      pop\n      jump\t// out\n        /* \"#utility.yul\":4454:4820   */\n    tag_129:\n        /* \"#utility.yul\":4596:4599   */\n      0x00\n        /* \"#utility.yul\":4617:4684   */\n      tag_202\n        /* \"#utility.yul\":4681:4683   */\n      0x15\n        /* \"#utility.yul\":4676:4679   */\n      dup4\n        /* \"#utility.yul\":4617:4684   */\n      tag_127\n      jump\t// in\n    tag_202:\n        /* \"#utility.yul\":4610:4684   */\n      swap2\n      pop\n        /* \"#utility.yul\":4693:4786   */\n      tag_203\n        /* \"#utility.yul\":4782:4785   */\n      dup3\n        /* \"#utility.yul\":4693:4786   */\n      tag_128\n      jump\t// in\n    tag_203:\n        /* \"#utility.yul\":4811:4813   */\n      0x20\n        /* \"#utility.yul\":4806:4809   */\n      dup3\n        /* \"#utility.yul\":4802:4814   */\n      add\n        /* \"#utility.yul\":4795:4814   */\n      swap1\n      pop\n        /* \"#utility.yul\":4454:4820   */\n      swap2\n      swap1\n      pop\n      jump\t// out\n        /* \"#utility.yul\":4826:5245   */\n    tag_48:\n        /* \"#utility.yul\":4992:4996   */\n      0x00\n        /* \"#utility.yul\":5030:5032   */\n      0x20\n        /* \"#utility.yul\":5019:5028   */\n      dup3\n        /* \"#utility.yul\":5015:5033   */\n      add\n        /* \"#utility.yul\":5007:5033   */\n      swap1\n      pop\n        /* \"#utility.yul\":5079:5088   */\n      dup2\n        /* \"#utility.yul\":5073:5077   */\n      dup2\n        /* \"#utility.yul\":5069:5089   */\n      sub\n        /* \"#utility.yul\":5065:5066   */\n      0x00\n        /* \"#utility.yul\":5054:5063   */\n      dup4\n        /* \"#utility.yul\":5050:5067   */\n      add\n        /* \"#utility.yul\":5043:5090   */\n      mstore\n        /* \"#utility.yul\":5107:5238   */\n      tag_205\n        /* \"#utility.yul\":5233:5237   */\n      dup2\n        /* \"#utility.yul\":5107:5238   */\n      tag_129\n      jump\t// in\n    tag_205:\n        /* \"#utility.yul\":5099:5238   */\n      swap1\n      pop\n        /* \"#utility.yul\":4826:5245   */\n      swap2\n      swap1\n      pop\n      jump\t// out\n        /* \"#utility.yul\":5251:5415   */\n    tag_130:\n        /* \"#utility.yul\":5391:5407   */\n      0x416c726561647920766f7465642e000000000000000000000000000000000000\n        /* \"#utility.yul\":5387:5388   */\n      0x00\n        /* \"#utility.yul\":5379:5385   */\n      dup3\n        /* \"#utility.yul\":5375:5389   */\n      add\n        /* \"#utility.yul\":5368:5408   */\n      mstore\n        /* \"#utility.yul\":5251:5415   */\n      pop\n      jump\t// out\n        /* \"#utility.yul\":5421:5787   */\n    tag_131:\n        /* \"#utility.yul\":5563:5566   */\n      0x00\n        /* \"#utility.yul\":5584:5651   */\n      tag_208\n        /* \"#utility.yul\":5648:5650   */\n      0x0e\n        /* \"#utility.yul\":5643:5646   */\n      dup4\n        /* \"#utility.yul\":5584:5651   */\n      tag_127\n      jump\t// in\n    tag_208:\n        /* \"#utility.yul\":5577:5651   */\n      swap2\n      pop\n        /* \"#utility.yul\":5660:5753   */\n      tag_209\n        /* \"#utility.yul\":5749:5752   */\n      dup3\n        /* \"#utility.yul\":5660:5753   */\n      tag_130\n      jump\t// in\n    tag_209:\n        /* \"#utility.yul\":5778:5780   */\n      0x20\n        /* \"#utility.yul\":5773:5776   */\n      dup3\n        /* \"#utility.yul\":5769:5781   */\n      add\n        /* \"#utility.yul\":5762:5781   */\n      swap1\n      pop\n        /* \"#utility.yul\":5421:5787   */\n      swap2\n      swap1\n      pop\n      jump\t// out\n        /* \"#utility.yul\":5793:6212   */\n    tag_51:\n        /* \"#utility.yul\":5959:5963   */\n      0x00\n        /* \"#utility.yul\":5997:5999   */\n      0x20\n        /* \"#utility.yul\":5986:5995   */\n      dup3\n        /* \"#utility.yul\":5982:6000   */\n      add\n        /* \"#utility.yul\":5974:6000   */\n      swap1\n      pop\n        /* \"#utility.yul\":6046:6055   */\n      dup2\n        /* \"#utility.yul\":6040:6044   */\n      dup2\n        /* \"#utility.yul\":6036:6056   */\n      sub\n        /* \"#utility.yul\":6032:6033   */\n      0x00\n        /* \"#utility.yul\":6021:6030   */\n      dup4\n        /* \"#utility.yul\":6017:6034   */\n      add\n        /* \"#utility.yul\":6010:6057   */\n      mstore\n        /* \"#utility.yul\":6074:6205   */\n      tag_211\n        /* \"#utility.yul\":6200:6204   */\n      dup2\n        /* \"#utility.yul\":6074:6205   */\n      tag_131\n      jump\t// in\n    tag_211:\n        /* \"#utility.yul\":6066:6205   */\n      swap1\n      pop\n        /* \"#utility.yul\":5793:6212   */\n      swap2\n      swap1\n      pop\n      jump\t// out\n        /* \"#utility.yul\":6218:6398   */\n    tag_54:\n        /* \"#utility.yul\":6266:6343   */\n      0x4e487b7100000000000000000000000000000000000000000000000000000000\n        /* \"#utility.yul\":6263:6264   */\n      0x00\n        /* \"#utility.yul\":6256:6344   */\n      mstore\n        /* \"#utility.yul\":6363:6367   */\n      0x32\n        /* \"#utility.yul\":6360:6361   */\n      0x04\n        /* \"#utility.yul\":6353:6368   */\n      mstore\n        /* \"#utility.yul\":6387:6391   */\n      0x24\n        /* \"#utility.yul\":6384:6385   */\n      0x00\n        /* \"#utility.yul\":6377:6392   */\n      revert\n        /* \"#utility.yul\":6404:6584   */\n    tag_132:\n        /* \"#utility.yul\":6452:6529   */\n      0x4e487b7100000000000000000000000000000000000000000000000000000000\n        /* \"#utility.yul\":6449:6450   */\n      0x00\n        /* \"#utility.yul\":6442:6530   */\n      mstore\n        /* \"#utility.yul\":6549:6553   */\n      0x11\n        /* \"#utility.yul\":6546:6547   */\n      0x04\n        /* \"#utility.yul\":6539:6554   */\n      mstore\n        /* \"#utility.yul\":6573:6577   */\n      0x24\n        /* \"#utility.yul\":6570:6571   */\n      0x00\n        /* \"#utility.yul\":6563:6578   */\n      revert\n        /* \"#utility.yul\":6590:6781   */\n    tag_57:\n        /* \"#utility.yul\":6630:6633   */\n      0x00\n        /* \"#utility.yul\":6649:6669   */\n      tag_215\n        /* \"#utility.yul\":6667:6668   */\n      dup3\n        /* \"#utility.yul\":6649:6669   */\n      tag_114\n      jump\t// in\n    tag_215:\n        /* \"#utility.yul\":6644:6669   */\n      swap2\n      pop\n        /* \"#utility.yul\":6683:6703   */\n      tag_216\n        /* \"#utility.yul\":6701:6702   */\n      dup4\n        /* \"#utility.yul\":6683:6703   */\n      tag_114\n      jump\t// in\n    tag_216:\n        /* \"#utility.yul\":6678:6703   */\n      swap3\n      pop\n        /* \"#utility.yul\":6726:6727   */\n      dup3\n        /* \"#utility.yul\":6723:6724   */\n      dup3\n        /* \"#utility.yul\":6719:6728   */\n      add\n        /* \"#utility.yul\":6712:6728   */\n      swap1\n      pop\n        /* \"#utility.yul\":6747:6750   */\n      dup1\n        /* \"#utility.yul\":6744:6745   */\n      dup3\n        /* \"#utility.yul\":6741:6751   */\n      gt\n        /* \"#utility.yul\":6738:6774   */\n      iszero\n      tag_217\n      jumpi\n        /* \"#utility.yul\":6754:6772   */\n      tag_218\n      tag_132\n      jump\t// in\n    tag_218:\n        /* \"#utility.yul\":6738:6774   */\n    tag_217:\n        /* \"#utility.yul\":6590:6781   */\n      swap3\n      swap2\n      pop\n      pop\n      jump\t// out\n        /* \"#utility.yul\":6787:6963   */\n    tag_133:\n        /* \"#utility.yul\":6927:6955   */\n      0x596f752068617665206e6f20726967687420746f20766f74652e000000000000\n        /* \"#utility.yul\":6923:6924   */\n      0x00\n        /* \"#utility.yul\":6915:6921   */\n      dup3\n        /* \"#utility.yul\":6911:6925   */\n      add\n        /* \"#utility.yul\":6904:6956   */\n      mstore\n        /* \"#utility.yul\":6787:6963   */\n      pop\n      jump\t// out\n        /* \"#utility.yul\":6969:7335   */\n    tag_134:\n        /* \"#utility.yul\":7111:7114   */\n      0x00\n        /* \"#utility.yul\":7132:7199   */\n      tag_221\n        /* \"#utility.yul\":7196:7198   */\n      0x1a\n        /* \"#utility.yul\":7191:7194   */\n      dup4\n        /* \"#utility.yul\":7132:7199   */\n      tag_127\n      jump\t// in\n    tag_221:\n        /* \"#utility.yul\":7125:7199   */\n      swap2\n      pop\n        /* \"#utility.yul\":7208:7301   */\n      tag_222\n        /* \"#utility.yul\":7297:7300   */\n      dup3\n        /* \"#utility.yul\":7208:7301   */\n      tag_133\n      jump\t// in\n    tag_222:\n        /* \"#utility.yul\":7326:7328   */\n      0x20\n        /* \"#utility.yul\":7321:7324   */\n      dup3\n        /* \"#utility.yul\":7317:7329   */\n      add\n        /* \"#utility.yul\":7310:7329   */\n      swap1\n      pop\n        /* \"#utility.yul\":6969:7335   */\n      swap2\n      swap1\n      pop\n      jump\t// out\n        /* \"#utility.yul\":7341:7760   */\n    tag_63:\n        /* \"#utility.yul\":7507:7511   */\n      0x00\n        /* \"#utility.yul\":7545:7547   */\n      0x20\n        /* \"#utility.yul\":7534:7543   */\n      dup3\n        /* \"#utility.yul\":7530:7548   */\n      add\n        /* \"#utility.yul\":7522:7548   */\n      swap1\n      pop\n        /* \"#utility.yul\":7594:7603   */\n      dup2\n        /* \"#utility.yul\":7588:7592   */\n      dup2\n        /* \"#utility.yul\":7584:7604   */\n      sub\n        /* \"#utility.yul\":7580:7581   */\n      0x00\n        /* \"#utility.yul\":7569:7578   */\n      dup4\n        /* \"#utility.yul\":7565:7582   */\n      add\n        /* \"#utility.yul\":7558:7605   */\n      mstore\n        /* \"#utility.yul\":7622:7753   */\n      tag_224\n        /* \"#utility.yul\":7748:7752   */\n      dup2\n        /* \"#utility.yul\":7622:7753   */\n      tag_134\n      jump\t// in\n    tag_224:\n        /* \"#utility.yul\":7614:7753   */\n      swap1\n      pop\n        /* \"#utility.yul\":7341:7760   */\n      swap2\n      swap1\n      pop\n      jump\t// out\n        /* \"#utility.yul\":7766:7939   */\n    tag_135:\n        /* \"#utility.yul\":7906:7931   */\n      0x596f75206861766520616c726561647920766f7465642e000000000000000000\n        /* \"#utility.yul\":7902:7903   */\n      0x00\n        /* \"#utility.yul\":7894:7900   */\n      dup3\n        /* \"#utility.yul\":7890:7904   */\n      add\n        /* \"#utility.yul\":7883:7932   */\n      mstore\n        /* \"#utility.yul\":7766:7939   */\n      pop\n      jump\t// out\n        /* \"#utility.yul\":7945:8311   */\n    tag_136:\n        /* \"#utility.yul\":8087:8090   */\n      0x00\n        /* \"#utility.yul\":8108:8175   */\n      tag_227\n        /* \"#utility.yul\":8172:8174   */\n      0x17\n        /* \"#utility.yul\":8167:8170   */\n      dup4\n        /* \"#utility.yul\":8108:8175   */\n      tag_127\n      jump\t// in\n    tag_227:\n        /* \"#utility.yul\":8101:8175   */\n      swap2\n      pop\n        /* \"#utility.yul\":8184:8277   */\n      tag_228\n        /* \"#utility.yul\":8273:8276   */\n      dup3\n        /* \"#utility.yul\":8184:8277   */\n      tag_135\n      jump\t// in\n    tag_228:\n        /* \"#utility.yul\":8302:8304   */\n      0x20\n        /* \"#utility.yul\":8297:8300   */\n      dup3\n        /* \"#utility.yul\":8293:8305   */\n      add\n        /* \"#utility.yul\":8286:8305   */\n      swap1\n      pop\n        /* \"#utility.yul\":7945:8311   */\n      swap2\n      swap1\n      pop\n      jump\t// out\n        /* \"#utility.yul\":8317:8736   */\n    tag_66:\n        /* \"#utility.yul\":8483:8487   */\n      0x00\n        /* \"#utility.yul\":8521:8523   */\n      0x20\n        /* \"#utility.yul\":8510:8519   */\n      dup3\n        /* \"#utility.yul\":8506:8524   */\n      add\n        /* \"#utility.yul\":8498:8524   */\n      swap1\n      pop\n        /* \"#utility.yul\":8570:8579   */\n      dup2\n        /* \"#utility.yul\":8564:8568   */\n      dup2\n        /* \"#utility.yul\":8560:8580   */\n      sub\n        /* \"#utility.yul\":8556:8557   */\n      0x00\n        /* \"#utility.yul\":8545:8554   */\n      dup4\n        /* \"#utility.yul\":8541:8558   */\n      add\n        /* \"#utility.yul\":8534:8581   */\n      mstore\n        /* \"#utility.yul\":8598:8729   */\n      tag_230\n        /* \"#utility.yul\":8724:8728   */\n      dup2\n        /* \"#utility.yul\":8598:8729   */\n      tag_136\n      jump\t// in\n    tag_230:\n        /* \"#utility.yul\":8590:8729   */\n      swap1\n      pop\n        /* \"#utility.yul\":8317:8736   */\n      swap2\n      swap1\n      pop\n      jump\t// out\n        /* \"#utility.yul\":8742:8922   */\n    tag_137:\n        /* \"#utility.yul\":8882:8914   */\n      0x53656c662d64656c65676174696f6e20697320646973616c6c6f7765642e0000\n        /* \"#utility.yul\":8878:8879   */\n      0x00\n        /* \"#utility.yul\":8870:8876   */\n      dup3\n        /* \"#utility.yul\":8866:8880   */\n      add\n        /* \"#utility.yul\":8859:8915   */\n      mstore\n        /* \"#utility.yul\":8742:8922   */\n      pop\n      jump\t// out\n        /* \"#utility.yul\":8928:9294   */\n    tag_138:\n        /* \"#utility.yul\":9070:9073   */\n      0x00\n        /* \"#utility.yul\":9091:9158   */\n      tag_233\n        /* \"#utility.yul\":9155:9157   */\n      0x1e\n        /* \"#utility.yul\":9150:9153   */\n      dup4\n        /* \"#utility.yul\":9091:9158   */\n      tag_127\n      jump\t// in\n    tag_233:\n        /* \"#utility.yul\":9084:9158   */\n      swap2\n      pop\n        /* \"#utility.yul\":9167:9260   */\n      tag_234\n        /* \"#utility.yul\":9256:9259   */\n      dup3\n        /* \"#utility.yul\":9167:9260   */\n      tag_137\n      jump\t// in\n    tag_234:\n        /* \"#utility.yul\":9285:9287   */\n      0x20\n        /* \"#utility.yul\":9280:9283   */\n      dup3\n        /* \"#utility.yul\":9276:9288   */\n      add\n        /* \"#utility.yul\":9269:9288   */\n      swap1\n      pop\n        /* \"#utility.yul\":8928:9294   */\n      swap2\n      swap1\n      pop\n      jump\t// out\n        /* \"#utility.yul\":9300:9719   */\n    tag_69:\n        /* \"#utility.yul\":9466:9470   */\n      0x00\n        /* \"#utility.yul\":9504:9506   */\n      0x20\n        /* \"#utility.yul\":9493:9502   */\n      dup3\n        /* \"#utility.yul\":9489:9507   */\n      add\n        /* \"#utility.yul\":9481:9507   */\n      swap1\n      pop\n        /* \"#utility.yul\":9553:9562   */\n      dup2\n        /* \"#utility.yul\":9547:9551   */\n      dup2\n        /* \"#utility.yul\":9543:9563   */\n      sub\n        /* \"#utility.yul\":9539:9540   */\n      0x00\n        /* \"#utility.yul\":9528:9537   */\n      dup4\n        /* \"#utility.yul\":9524:9541   */\n      add\n        /* \"#utility.yul\":9517:9564   */\n      mstore\n        /* \"#utility.yul\":9581:9712   */\n      tag_236\n        /* \"#utility.yul\":9707:9711   */\n      dup2\n        /* \"#utility.yul\":9581:9712   */\n      tag_138\n      jump\t// in\n    tag_236:\n        /* \"#utility.yul\":9573:9712   */\n      swap1\n      pop\n        /* \"#utility.yul\":9300:9719   */\n      swap2\n      swap1\n      pop\n      jump\t// out\n        /* \"#utility.yul\":9725:9900   */\n    tag_139:\n        /* \"#utility.yul\":9865:9892   */\n      0x466f756e64206c6f6f7020696e2064656c65676174696f6e2e00000000000000\n        /* \"#utility.yul\":9861:9862   */\n      0x00\n        /* \"#utility.yul\":9853:9859   */\n      dup3\n        /* \"#utility.yul\":9849:9863   */\n      add\n        /* \"#utility.yul\":9842:9893   */\n      mstore\n        /* \"#utility.yul\":9725:9900   */\n      pop\n      jump\t// out\n        /* \"#utility.yul\":9906:10272   */\n    tag_140:\n        /* \"#utility.yul\":10048:10051   */\n      0x00\n        /* \"#utility.yul\":10069:10136   */\n      tag_239\n        /* \"#utility.yul\":10133:10135   */\n      0x19\n        /* \"#utility.yul\":10128:10131   */\n      dup4\n        /* \"#utility.yul\":10069:10136   */\n      tag_127\n      jump\t// in\n    tag_239:\n        /* \"#utility.yul\":10062:10136   */\n      swap2\n      pop\n        /* \"#utility.yul\":10145:10238   */\n      tag_240\n        /* \"#utility.yul\":10234:10237   */\n      dup3\n        /* \"#utility.yul\":10145:10238   */\n      tag_139\n      jump\t// in\n    tag_240:\n        /* \"#utility.yul\":10263:10265   */\n      0x20\n        /* \"#utility.yul\":10258:10261   */\n      dup3\n        /* \"#utility.yul\":10254:10266   */\n      add\n        /* \"#utility.yul\":10247:10266   */\n      swap1\n      pop\n        /* \"#utility.yul\":9906:10272   */\n      swap2\n      swap1\n      pop\n      jump\t// out\n        /* \"#utility.yul\":10278:10697   */\n    tag_74:\n        /* \"#utility.yul\":10444:10448   */\n      0x00\n        /* \"#utility.yul\":10482:10484   */\n      0x20\n        /* \"#utility.yul\":10471:10480   */\n      dup3\n        /* \"#utility.yul\":10467:10485   */\n      add\n        /* \"#utility.yul\":10459:10485   */\n      swap1\n      pop\n        /* \"#utility.yul\":10531:10540   */\n      dup2\n        /* \"#utility.yul\":10525:10529   */\n      dup2\n        /* \"#utility.yul\":10521:10541   */\n      sub\n        /* \"#utility.yul\":10517:10518   */\n      0x00\n        /* \"#utility.yul\":10506:10515   */\n      dup4\n        /* \"#utility.yul\":10502:10519   */\n      add\n        /* \"#utility.yul\":10495:10542   */\n      mstore\n        /* \"#utility.yul\":10559:10690   */\n      tag_242\n        /* \"#utility.yul\":10685:10689   */\n      dup2\n        /* \"#utility.yul\":10559:10690   */\n      tag_140\n      jump\t// in\n    tag_242:\n        /* \"#utility.yul\":10551:10690   */\n      swap1\n      pop\n        /* \"#utility.yul\":10278:10697   */\n      swap2\n      swap1\n      pop\n      jump\t// out\n        /* \"#utility.yul\":10703:10883   */\n    tag_141:\n        /* \"#utility.yul\":10843:10875   */\n      0x44656c656761746520686173206e6f20726967687420746f20766f74652e0000\n        /* \"#utility.yul\":10839:10840   */\n      0x00\n        /* \"#utility.yul\":10831:10837   */\n      dup3\n        /* \"#utility.yul\":10827:10841   */\n      add\n        /* \"#utility.yul\":10820:10876   */\n      mstore\n        /* \"#utility.yul\":10703:10883   */\n      pop\n      jump\t// out\n        /* \"#utility.yul\":10889:11255   */\n    tag_142:\n        /* \"#utility.yul\":11031:11034   */\n      0x00\n        /* \"#utility.yul\":11052:11119   */\n      tag_245\n        /* \"#utility.yul\":11116:11118   */\n      0x1e\n        /* \"#utility.yul\":11111:11114   */\n      dup4\n        /* \"#utility.yul\":11052:11119   */\n      tag_127\n      jump\t// in\n    tag_245:\n        /* \"#utility.yul\":11045:11119   */\n      swap2\n      pop\n        /* \"#utility.yul\":11128:11221   */\n      tag_246\n        /* \"#utility.yul\":11217:11220   */\n      dup3\n        /* \"#utility.yul\":11128:11221   */\n      tag_141\n      jump\t// in\n    tag_246:\n        /* \"#utility.yul\":11246:11248   */\n      0x20\n        /* \"#utility.yul\":11241:11244   */\n      dup3\n        /* \"#utility.yul\":11237:11249   */\n      add\n        /* \"#utility.yul\":11230:11249   */\n      swap1\n      pop\n        /* \"#utility.yul\":10889:11255   */\n      swap2\n      swap1\n      pop\n      jump\t// out\n        /* \"#utility.yul\":11261:11680   */\n    tag_77:\n        /* \"#utility.yul\":11427:11431   */\n      0x00\n        /* \"#utility.yul\":11465:11467   */\n      0x20\n        /* \"#utility.yul\":11454:11463   */\n      dup3\n        /* \"#utility.yul\":11450:11468   */\n      add\n        /* \"#utility.yul\":11442:11468   */\n      swap1\n      pop\n        /* \"#utility.yul\":11514:11523   */\n      dup2\n        /* \"#utility.yul\":11508:11512   */\n      dup2\n        /* \"#utility.yul\":11504:11524   */\n      sub\n        /* \"#utility.yul\":11500:11501   */\n      0x00\n        /* \"#utility.yul\":11489:11498   */\n      dup4\n        /* \"#utility.yul\":11485:11502   */\n      add\n        /* \"#utility.yul\":11478:11525   */\n      mstore\n        /* \"#utility.yul\":11542:11673   */\n      tag_248\n        /* \"#utility.yul\":11668:11672   */\n      dup2\n        /* \"#utility.yul\":11542:11673   */\n      tag_142\n      jump\t// in\n    tag_248:\n        /* \"#utility.yul\":11534:11673   */\n      swap1\n      pop\n        /* \"#utility.yul\":11261:11680   */\n      swap2\n      swap1\n      pop\n      jump\t// out\n        /* \"#utility.yul\":11686:11913   */\n    tag_143:\n        /* \"#utility.yul\":11826:11860   */\n      0x4f6e6c79206368616972706572736f6e2063616e206769766520726967687420\n        /* \"#utility.yul\":11822:11823   */\n      0x00\n        /* \"#utility.yul\":11814:11820   */\n      dup3\n        /* \"#utility.yul\":11810:11824   */\n      add\n        /* \"#utility.yul\":11803:11861   */\n      mstore\n        /* \"#utility.yul\":11895:11905   */\n      0x746f20766f74652e000000000000000000000000000000000000000000000000\n        /* \"#utility.yul\":11890:11892   */\n      0x20\n        /* \"#utility.yul\":11882:11888   */\n      dup3\n        /* \"#utility.yul\":11878:11893   */\n      add\n        /* \"#utility.yul\":11871:11906   */\n      mstore\n        /* \"#utility.yul\":11686:11913   */\n      pop\n      jump\t// out\n        /* \"#utility.yul\":11919:12285   */\n    tag_144:\n        /* \"#utility.yul\":12061:12064   */\n      0x00\n        /* \"#utility.yul\":12082:12149   */\n      tag_251\n        /* \"#utility.yul\":12146:12148   */\n      0x28\n        /* \"#utility.yul\":12141:12144   */\n      dup4\n        /* \"#utility.yul\":12082:12149   */\n      tag_127\n      jump\t// in\n    tag_251:\n        /* \"#utility.yul\":12075:12149   */\n      swap2\n      pop\n        /* \"#utility.yul\":12158:12251   */\n      tag_252\n        /* \"#utility.yul\":12247:12250   */\n      dup3\n        /* \"#utility.yul\":12158:12251   */\n      tag_143\n      jump\t// in\n    tag_252:\n        /* \"#utility.yul\":12276:12278   */\n      0x40\n        /* \"#utility.yul\":12271:12274   */\n      dup3\n        /* \"#utility.yul\":12267:12279   */\n      add\n        /* \"#utility.yul\":12260:12279   */\n      swap1\n      pop\n        /* \"#utility.yul\":11919:12285   */\n      swap2\n      swap1\n      pop\n      jump\t// out\n        /* \"#utility.yul\":12291:12710   */\n    tag_99:\n        /* \"#utility.yul\":12457:12461   */\n      0x00\n        /* \"#utility.yul\":12495:12497   */\n      0x20\n        /* \"#utility.yul\":12484:12493   */\n      dup3\n        /* \"#utility.yul\":12480:12498   */\n      add\n        /* \"#utility.yul\":12472:12498   */\n      swap1\n      pop\n        /* \"#utility.yul\":12544:12553   */\n      dup2\n        /* \"#utility.yul\":12538:12542   */\n      dup2\n        /* \"#utility.yul\":12534:12554   */\n      sub\n        /* \"#utility.yul\":12530:12531   */\n      0x00\n        /* \"#utility.yul\":12519:12528   */\n      dup4\n        /* \"#utility.yul\":12515:12532   */\n      add\n        /* \"#utility.yul\":12508:12555   */\n      mstore\n        /* \"#utility.yul\":12572:12703   */\n      tag_254\n        /* \"#utility.yul\":12698:12702   */\n      dup2\n        /* \"#utility.yul\":12572:12703   */\n      tag_144\n      jump\t// in\n    tag_254:\n        /* \"#utility.yul\":12564:12703   */\n      swap1\n      pop\n        /* \"#utility.yul\":12291:12710   */\n      swap2\n      swap1\n      pop\n      jump\t// out\n        /* \"#utility.yul\":12716:12890   */\n    tag_145:\n        /* \"#utility.yul\":12856:12882   */\n      0x54686520766f74657220616c726561647920766f7465642e0000000000000000\n        /* \"#utility.yul\":12852:12853   */\n      0x00\n        /* \"#utility.yul\":12844:12850   */\n      dup3\n        /* \"#utility.yul\":12840:12854   */\n      add\n        /* \"#utility.yul\":12833:12883   */\n      mstore\n        /* \"#utility.yul\":12716:12890   */\n      pop\n      jump\t// out\n        /* \"#utility.yul\":12896:13262   */\n    tag_146:\n        /* \"#utility.yul\":13038:13041   */\n      0x00\n        /* \"#utility.yul\":13059:13126   */\n      tag_257\n        /* \"#utility.yul\":13123:13125   */\n      0x18\n        /* \"#utility.yul\":13118:13121   */\n      dup4\n        /* \"#utility.yul\":13059:13126   */\n      tag_127\n      jump\t// in\n    tag_257:\n        /* \"#utility.yul\":13052:13126   */\n      swap2\n      pop\n        /* \"#utility.yul\":13135:13228   */\n      tag_258\n        /* \"#utility.yul\":13224:13227   */\n      dup3\n        /* \"#utility.yul\":13135:13228   */\n      tag_145\n      jump\t// in\n    tag_258:\n        /* \"#utility.yul\":13253:13255   */\n      0x20\n        /* \"#utility.yul\":13248:13251   */\n      dup3\n        /* \"#utility.yul\":13244:13256   */\n      add\n        /* \"#utility.yul\":13237:13256   */\n      swap1\n      pop\n        /* \"#utility.yul\":12896:13262   */\n      swap2\n      swap1\n      pop\n      jump\t// out\n        /* \"#utility.yul\":13268:13687   */\n    tag_102:\n        /* \"#utility.yul\":13434:13438   */\n      0x00\n        /* \"#utility.yul\":13472:13474   */\n      0x20\n        /* \"#utility.yul\":13461:13470   */\n      dup3\n        /* \"#utility.yul\":13457:13475   */\n      add\n        /* \"#utility.yul\":13449:13475   */\n      swap1\n      pop\n        /* \"#utility.yul\":13521:13530   */\n      dup2\n        /* \"#utility.yul\":13515:13519   */\n      dup2\n        /* \"#utility.yul\":13511:13531   */\n      sub\n        /* \"#utility.yul\":13507:13508   */\n      0x00\n        /* \"#utility.yul\":13496:13505   */\n      dup4\n        /* \"#utility.yul\":13492:13509   */\n      add\n        /* \"#utility.yul\":13485:13532   */\n      mstore\n        /* \"#utility.yul\":13549:13680   */\n      tag_260\n        /* \"#utility.yul\":13675:13679   */\n      dup2\n        /* \"#utility.yul\":13549:13680   */\n      tag_146\n      jump\t// in\n    tag_260:\n        /* \"#utility.yul\":13541:13680   */\n      swap1\n      pop\n        /* \"#utility.yul\":13268:13687   */\n      swap2\n      swap1\n      pop\n      jump\t// out\n        /* \"#utility.yul\":13693:13875   */\n    tag_147:\n        /* \"#utility.yul\":13833:13867   */\n      0x566f74657220616c72656164792068617320766f74696e67207269676874732e\n        /* \"#utility.yul\":13829:13830   */\n      0x00\n        /* \"#utility.yul\":13821:13827   */\n      dup3\n        /* \"#utility.yul\":13817:13831   */\n      add\n        /* \"#utility.yul\":13810:13868   */\n      mstore\n        /* \"#utility.yul\":13693:13875   */\n      pop\n      jump\t// out\n        /* \"#utility.yul\":13881:14247   */\n    tag_148:\n        /* \"#utility.yul\":14023:14026   */\n      0x00\n        /* \"#utility.yul\":14044:14111   */\n      tag_263\n        /* \"#utility.yul\":14108:14110   */\n      0x20\n        /* \"#utility.yul\":14103:14106   */\n      dup4\n        /* \"#utility.yul\":14044:14111   */\n      tag_127\n      jump\t// in\n    tag_263:\n        /* \"#utility.yul\":14037:14111   */\n      swap2\n      pop\n        /* \"#utility.yul\":14120:14213   */\n      tag_264\n        /* \"#utility.yul\":14209:14212   */\n      dup3\n        /* \"#utility.yul\":14120:14213   */\n      tag_147\n      jump\t// in\n    tag_264:\n        /* \"#utility.yul\":14238:14240   */\n      0x20\n        /* \"#utility.yul\":14233:14236   */\n      dup3\n        /* \"#utility.yul\":14229:14241   */\n      add\n        /* \"#utility.yul\":14222:14241   */\n      swap1\n      pop\n        /* \"#utility.yul\":13881:14247   */\n      swap2\n      swap1\n      pop\n      jump\t// out\n        /* \"#utility.yul\":14253:14672   */\n    tag_105:\n        /* \"#utility.yul\":14419:14423   */\n      0x00\n        /* \"#utility.yul\":14457:14459   */\n      0x20\n        /* \"#utility.yul\":14446:14455   */\n      dup3\n        /* \"#utility.yul\":14442:14460   */\n      add\n        /* \"#utility.yul\":14434:14460   */\n      swap1\n      pop\n        /* \"#utility.yul\":14506:14515   */\n      dup2\n        /* \"#utility.yul\":14500:14504   */\n      dup2\n        /* \"#utility.yul\":14496:14516   */\n      sub\n        /* \"#utility.yul\":14492:14493   */\n      0x00\n        /* \"#utility.yul\":14481:14490   */\n      dup4\n        /* \"#utility.yul\":14477:14494   */\n      add\n        /* \"#utility.yul\":14470:14517   */\n      mstore\n        /* \"#utility.yul\":14534:14665   */\n      tag_266\n        /* \"#utility.yul\":14660:14664   */\n      dup2\n        /* \"#utility.yul\":14534:14665   */\n      tag_148\n      jump\t// in\n    tag_266:\n        /* \"#utility.yul\":14526:14665   */\n      swap1\n      pop\n        /* \"#utility.yul\":14253:14672   */\n      swap2\n      swap1\n      pop\n      jump\t// out\n\n    auxdata: 0xa26469706673582212204a5c36722aa218c75f3ad01d8647eb847f40aa65b263c204cacfcc340d661f5064736f6c634300081f0033\n}\n",
				"bytecode": {
					"linkReferences": {},
					"object": "608060405234801561000f575f5ffd5b5060405161148f38038061148f833981810160405281019061003191906102f5565b335f5f6101000a81548173ffffffffffffffffffffffffffffffffffffffff021916908373ffffffffffffffffffffffffffffffffffffffff1602179055506001805f5f5f9054906101000a900473ffffffffffffffffffffffffffffffffffffffff1673ffffffffffffffffffffffffffffffffffffffff1673ffffffffffffffffffffffffffffffffffffffff1681526020019081526020015f205f01819055505f5f90505b815181101561015a57600260405180604001604052808484815181106101025761010161033c565b5b602002602001015181526020015f815250908060018154018082558091505060019003905f5260205f2090600202015f909190919091505f820151815f015560208201518160010155505080806001019150506100d9565b5050610369565b5f604051905090565b5f5ffd5b5f5ffd5b5f5ffd5b5f601f19601f8301169050919050565b7f4e487b71000000000000000000000000000000000000000000000000000000005f52604160045260245ffd5b6101bc82610176565b810181811067ffffffffffffffff821117156101db576101da610186565b5b80604052505050565b5f6101ed610161565b90506101f982826101b3565b919050565b5f67ffffffffffffffff82111561021857610217610186565b5b602082029050602081019050919050565b5f5ffd5b5f819050919050565b61023f8161022d565b8114610249575f5ffd5b50565b5f8151905061025a81610236565b92915050565b5f61027261026d846101fe565b6101e4565b9050808382526020820190506020840283018581111561029557610294610229565b5b835b818110156102be57806102aa888261024c565b845260208401935050602081019050610297565b5050509392505050565b5f82601f8301126102dc576102db610172565b5b81516102ec848260208601610260565b91505092915050565b5f6020828403121561030a5761030961016a565b5b5f82015167ffffffffffffffff8111156103275761032661016e565b5b610333848285016102c8565b91505092915050565b7f4e487b71000000000000000000000000000000000000000000000000000000005f52603260045260245ffd5b611119806103765f395ff3fe608060405234801561000f575f5ffd5b5060043610610086575f3560e01c8063609ff1bd11610059578063609ff1bd146101115780639e7b8d611461012f578063a3ec138d1461014b578063e2ba53f01461017e57610086565b80630121b93f1461008a578063013cf08b146100a65780632e4176cf146100d75780635c19a95c146100f5575b5f5ffd5b6100a4600480360381019061009f9190610a5b565b61019c565b005b6100c060048036038101906100bb9190610a5b565b6102d7565b6040516100ce929190610aad565b60405180910390f35b6100df610306565b6040516100ec9190610b13565b60405180910390f35b61010f600480360381019061010a9190610b56565b61032a565b005b61011961073b565b6040516101269190610b81565b60405180910390f35b61014960048036038101906101449190610b56565b6107b9565b005b61016560048036038101906101609190610b56565b61099c565b6040516101759493929190610bb4565b60405180910390f35b6101866109f4565b6040516101939190610bf7565b60405180910390f35b5f60015f3373ffffffffffffffffffffffffffffffffffffffff1673ffffffffffffffffffffffffffffffffffffffff1681526020019081526020015f2090505f815f015403610221576040517f08c379a000000000000000000000000000000000000000000000000000000000815260040161021890610c6a565b60405180910390fd5b806001015f9054906101000a900460ff1615610272576040517f08c379a000000000000000000000000000000000000000000000000000000000815260040161026990610cd2565b60405180910390fd5b6001816001015f6101000a81548160ff021916908315150217905550818160020181905550805f0154600283815481106102af576102ae610cf0565b5b905f5260205f2090600202016001015f8282546102cc9190610d4a565b925050819055505050565b600281815481106102e6575f80fd5b905f5260205f2090600202015f91509050805f0154908060010154905082565b5f5f9054906101000a900473ffffffffffffffffffffffffffffffffffffffff1681565b5f60015f3373ffffffffffffffffffffffffffffffffffffffff1673ffffffffffffffffffffffffffffffffffffffff1681526020019081526020015f2090505f815f0154036103af576040517f08c379a00000000000000000000000000000000000000000000000000000000081526004016103a690610dc7565b60405180910390fd5b806001015f9054906101000a900460ff1615610400576040517f08c379a00000000000000000000000000000000000000000000000000000000081526004016103f790610e2f565b60405180910390fd5b3373ffffffffffffffffffffffffffffffffffffffff168273ffffffffffffffffffffffffffffffffffffffff160361046e576040517f08c379a000000000000000000000000000000000000000000000000000000000815260040161046590610e97565b60405180910390fd5b5b5f73ffffffffffffffffffffffffffffffffffffffff1660015f8473ffffffffffffffffffffffffffffffffffffffff1673ffffffffffffffffffffffffffffffffffffffff1681526020019081526020015f2060010160019054906101000a900473ffffffffffffffffffffffffffffffffffffffff1673ffffffffffffffffffffffffffffffffffffffff16146105d85760015f8373ffffffffffffffffffffffffffffffffffffffff1673ffffffffffffffffffffffffffffffffffffffff1681526020019081526020015f2060010160019054906101000a900473ffffffffffffffffffffffffffffffffffffffff1691503373ffffffffffffffffffffffffffffffffffffffff168273ffffffffffffffffffffffffffffffffffffffff16036105d3576040517f08c379a00000000000000000000000000000000000000000000000000000000081526004016105ca90610eff565b60405180910390fd5b61046f565b5f60015f8473ffffffffffffffffffffffffffffffffffffffff1673ffffffffffffffffffffffffffffffffffffffff1681526020019081526020015f2090506001815f0154101561065f576040517f08c379a000000000000000000000000000000000000000000000000000000000815260040161065690610f67565b60405180910390fd5b6001826001015f6101000a81548160ff021916908315150217905550828260010160016101000a81548173ffffffffffffffffffffffffffffffffffffffff021916908373ffffffffffffffffffffffffffffffffffffffff160217905550806001015f9054906101000a900460ff161561071957815f015460028260020154815481106106f0576106ef610cf0565b5b905f5260205f2090600202016001015f82825461070d9190610d4a565b92505081905550610736565b815f0154815f015f82825461072e9190610d4a565b925050819055505b505050565b5f5f5f90505f5f90505b6002805490508110156107b457816002828154811061076757610766610cf0565b5b905f5260205f2090600202016001015411156107a7576002818154811061079157610790610cf0565b5b905f5260205f2090600202016001015491508092505b8080600101915050610745565b505090565b5f5f9054906101000a900473ffffffffffffffffffffffffffffffffffffffff1673ffffffffffffffffffffffffffffffffffffffff163373ffffffffffffffffffffffffffffffffffffffff1614610847576040517f08c379a000000000000000000000000000000000000000000000000000000000815260040161083e90610ff5565b60405180910390fd5b60015f8273ffffffffffffffffffffffffffffffffffffffff1673ffffffffffffffffffffffffffffffffffffffff1681526020019081526020015f206001015f9054906101000a900460ff16156108d4576040517f08c379a00000000000000000000000000000000000000000000000000000000081526004016108cb9061105d565b60405180910390fd5b5f60015f8373ffffffffffffffffffffffffffffffffffffffff1673ffffffffffffffffffffffffffffffffffffffff1681526020019081526020015f205f015414610955576040517f08c379a000000000000000000000000000000000000000000000000000000000815260040161094c906110c5565b60405180910390fd5b6001805f8373ffffffffffffffffffffffffffffffffffffffff1673ffffffffffffffffffffffffffffffffffffffff1681526020019081526020015f205f018190555050565b6001602052805f5260405f205f91509050805f015490806001015f9054906101000a900460ff16908060010160019054906101000a900473ffffffffffffffffffffffffffffffffffffffff16908060020154905084565b5f60026109ff61073b565b81548110610a1057610a0f610cf0565b5b905f5260205f2090600202015f0154905090565b5f5ffd5b5f819050919050565b610a3a81610a28565b8114610a44575f5ffd5b50565b5f81359050610a5581610a31565b92915050565b5f60208284031215610a7057610a6f610a24565b5b5f610a7d84828501610a47565b91505092915050565b5f819050919050565b610a9881610a86565b82525050565b610aa781610a28565b82525050565b5f604082019050610ac05f830185610a8f565b610acd6020830184610a9e565b9392505050565b5f73ffffffffffffffffffffffffffffffffffffffff82169050919050565b5f610afd82610ad4565b9050919050565b610b0d81610af3565b82525050565b5f602082019050610b265f830184610b04565b92915050565b610b3581610af3565b8114610b3f575f5ffd5b50565b5f81359050610b5081610b2c565b92915050565b5f60208284031215610b6b57610b6a610a24565b5b5f610b7884828501610b42565b91505092915050565b5f602082019050610b945f830184610a9e565b92915050565b5f8115159050919050565b610bae81610b9a565b82525050565b5f608082019050610bc75f830187610a9e565b610bd46020830186610ba5565b610be16040830185610b04565b610bee6060830184610a9e565b95945050505050565b5f602082019050610c0a5f830184610a8f565b92915050565b5f82825260208201905092915050565b7f486173206e6f20726967687420746f20766f74652e00000000000000000000005f82015250565b5f610c54601583610c10565b9150610c5f82610c20565b602082019050919050565b5f6020820190508181035f830152610c8181610c48565b9050919050565b7f416c726561647920766f7465642e0000000000000000000000000000000000005f82015250565b5f610cbc600e83610c10565b9150610cc782610c88565b602082019050919050565b5f6020820190508181035f830152610ce981610cb0565b9050919050565b7f4e487b71000000000000000000000000000000000000000000000000000000005f52603260045260245ffd5b7f4e487b71000000000000000000000000000000000000000000000000000000005f52601160045260245ffd5b5f610d5482610a28565b9150610d5f83610a28565b9250828201905080821115610d7757610d76610d1d565b5b92915050565b7f596f752068617665206e6f20726967687420746f20766f74652e0000000000005f82015250565b5f610db1601a83610c10565b9150610dbc82610d7d565b602082019050919050565b5f6020820190508181035f830152610dde81610da5565b9050919050565b7f596f75206861766520616c726561647920766f7465642e0000000000000000005f82015250565b5f610e19601783610c10565b9150610e2482610de5565b602082019050919050565b5f6020820190508181035f830152610e4681610e0d565b9050919050565b7f53656c662d64656c65676174696f6e20697320646973616c6c6f7765642e00005f82015250565b5f610e81601e83610c10565b9150610e8c82610e4d565b602082019050919050565b5f6020820190508181035f830152610eae81610e75565b9050919050565b7f466f756e64206c6f6f7020696e2064656c65676174696f6e2e000000000000005f82015250565b5f610ee9601983610c10565b9150610ef482610eb5565b602082019050919050565b5f6020820190508181035f830152610f1681610edd565b9050919050565b7f44656c656761746520686173206e6f20726967687420746f20766f74652e00005f82015250565b5f610f51601e83610c10565b9150610f5c82610f1d565b602082019050919050565b5f6020820190508181035f830152610f7e81610f45565b9050919050565b7f4f6e6c79206368616972706572736f6e2063616e2067697665207269676874205f8201527f746f20766f74652e000000000000000000000000000000000000000000000000602082015250565b5f610fdf602883610c10565b9150610fea82610f85565b604082019050919050565b5f6020820190508181035f83015261100c81610fd3565b9050919050565b7f54686520766f74657220616c726561647920766f7465642e00000000000000005f82015250565b5f611047601883610c10565b915061105282611013565b602082019050919050565b5f6020820190508181035f8301526110748161103b565b9050919050565b7f566f74657220616c72656164792068617320766f74696e67207269676874732e5f82015250565b5f6110af602083610c10565b91506110ba8261107b565b602082019050919050565b5f6020820190508181035f8301526110dc816110a3565b905091905056fea26469706673582212204a5c36722aa218c75f3ad01d8647eb847f40aa65b263c204cacfcc340d661f5064736f6c634300081f0033",
					"opcodes": "PUSH1 0x80 PUSH1 0x40 MSTORE CALLVALUE DUP1 ISZERO PUSH2 0xF JUMPI PUSH0 PUSH0 REVERT JUMPDEST POP PUSH1 0x40 MLOAD PUSH2 0x148F CODESIZE SUB DUP1 PUSH2 0x148F DUP4 CODECOPY DUP2 DUP2 ADD PUSH1 0x40 MSTORE DUP2 ADD SWAP1 PUSH2 0x31 SWAP2 SWAP1 PUSH2 0x2F5 JUMP JUMPDEST CALLER PUSH0 PUSH0 PUSH2 0x100 EXP DUP2 SLOAD DUP2 PUSH20 0xFFFFFFFFFFFFFFFFFFFFFFFFFFFFFFFFFFFFFFFF MUL NOT AND SWAP1 DUP4 PUSH20 0xFFFFFFFFFFFFFFFFFFFFFFFFFFFFFFFFFFFFFFFF AND MUL OR SWAP1 SSTORE POP PUSH1 0x1 DUP1 PUSH0 PUSH0 PUSH0 SWAP1 SLOAD SWAP1 PUSH2 0x100 EXP SWAP1 DIV PUSH20 0xFFFFFFFFFFFFFFFFFFFFFFFFFFFFFFFFFFFFFFFF AND PUSH20 0xFFFFFFFFFFFFFFFFFFFFFFFFFFFFFFFFFFFFFFFF AND PUSH20 0xFFFFFFFFFFFFFFFFFFFFFFFFFFFFFFFFFFFFFFFF AND DUP2 MSTORE PUSH1 0x20 ADD SWAP1 DUP2 MSTORE PUSH1 0x20 ADD PUSH0 KECCAK256 PUSH0 ADD DUP2 SWAP1 SSTORE POP PUSH0 PUSH0 SWAP1 POP JUMPDEST DUP2 MLOAD DUP2 LT ISZERO PUSH2 0x15A JUMPI PUSH1 0x2 PUSH1 0x40 MLOAD DUP1 PUSH1 0x40 ADD PUSH1 0x40 MSTORE DUP1 DUP5 DUP5 DUP2 MLOAD DUP2 LT PUSH2 0x102 JUMPI PUSH2 0x101 PUSH2 0x33C JUMP JUMPDEST JUMPDEST PUSH1 0x20 MUL PUSH1 0x20 ADD ADD MLOAD DUP2 MSTORE PUSH1 0x20 ADD PUSH0 DUP2 MSTORE POP SWAP1 DUP1 PUSH1 0x1 DUP2 SLOAD ADD DUP1 DUP3 SSTORE DUP1 SWAP2 POP POP PUSH1 0x1 SWAP1 SUB SWAP1 PUSH0 MSTORE PUSH1 0x20 PUSH0 KECCAK256 SWAP1 PUSH1 0x2 MUL ADD PUSH0 SWAP1 SWAP2 SWAP1 SWAP2 SWAP1 SWAP2 POP PUSH0 DUP3 ADD MLOAD DUP2 PUSH0 ADD SSTORE PUSH1 0x20 DUP3 ADD MLOAD DUP2 PUSH1 0x1 ADD SSTORE POP POP DUP1 DUP1 PUSH1 0x1 ADD SWAP2 POP POP PUSH2 0xD9 JUMP JUMPDEST POP POP PUSH2 0x369 JUMP JUMPDEST PUSH0 PUSH1 0x40 MLOAD SWAP1 POP SWAP1 JUMP JUMPDEST PUSH0 PUSH0 REVERT JUMPDEST PUSH0 PUSH0 REVERT JUMPDEST PUSH0 PUSH0 REVERT JUMPDEST PUSH0 PUSH1 0x1F NOT PUSH1 0x1F DUP4 ADD AND SWAP1 POP SWAP2 SWAP1 POP JUMP JUMPDEST PUSH32 0x4E487B7100000000000000000000000000000000000000000000000000000000 PUSH0 MSTORE PUSH1 0x41 PUSH1 0x4 MSTORE PUSH1 0x24 PUSH0 REVERT JUMPDEST PUSH2 0x1BC DUP3 PUSH2 0x176 JUMP JUMPDEST DUP2 ADD DUP2 DUP2 LT PUSH8 0xFFFFFFFFFFFFFFFF DUP3 GT OR ISZERO PUSH2 0x1DB JUMPI PUSH2 0x1DA PUSH2 0x186 JUMP JUMPDEST JUMPDEST DUP1 PUSH1 0x40 MSTORE POP POP POP JUMP JUMPDEST PUSH0 PUSH2 0x1ED PUSH2 0x161 JUMP JUMPDEST SWAP1 POP PUSH2 0x1F9 DUP3 DUP3 PUSH2 0x1B3 JUMP JUMPDEST SWAP2 SWAP1 POP JUMP JUMPDEST PUSH0 PUSH8 0xFFFFFFFFFFFFFFFF DUP3 GT ISZERO PUSH2 0x218 JUMPI PUSH2 0x217 PUSH2 0x186 JUMP JUMPDEST JUMPDEST PUSH1 0x20 DUP3 MUL SWAP1 POP PUSH1 0x20 DUP2 ADD SWAP1 POP SWAP2 SWAP1 POP JUMP JUMPDEST PUSH0 PUSH0 REVERT JUMPDEST PUSH0 DUP2 SWAP1 POP SWAP2 SWAP1 POP JUMP JUMPDEST PUSH2 0x23F DUP2 PUSH2 0x22D JUMP JUMPDEST DUP2 EQ PUSH2 0x249 JUMPI PUSH0 PUSH0 REVERT JUMPDEST POP JUMP JUMPDEST PUSH0 DUP2 MLOAD SWAP1 POP PUSH2 0x25A DUP2 PUSH2 0x236 JUMP JUMPDEST SWAP3 SWAP2 POP POP JUMP JUMPDEST PUSH0 PUSH2 0x272 PUSH2 0x26D DUP5 PUSH2 0x1FE JUMP JUMPDEST PUSH2 0x1E4 JUMP JUMPDEST SWAP1 POP DUP1 DUP4 DUP3 MSTORE PUSH1 0x20 DUP3 ADD SWAP1 POP PUSH1 0x20 DUP5 MUL DUP4 ADD DUP6 DUP2 GT ISZERO PUSH2 0x295 JUMPI PUSH2 0x294 PUSH2 0x229 JUMP JUMPDEST JUMPDEST DUP4 JUMPDEST DUP2 DUP2 LT ISZERO PUSH2 0x2BE JUMPI DUP1 PUSH2 0x2AA DUP9 DUP3 PUSH2 0x24C JUMP JUMPDEST DUP5 MSTORE PUSH1 0x20 DUP5 ADD SWAP4 POP POP PUSH1 0x20 DUP2 ADD SWAP1 POP PUSH2 0x297 JUMP JUMPDEST POP POP POP SWAP4 SWAP3 POP POP POP JUMP JUMPDEST PUSH0 DUP3 PUSH1 0x1F DUP4 ADD SLT PUSH2 0x2DC JUMPI PUSH2 0x2DB PUSH2 0x172 JUMP JUMPDEST JUMPDEST DUP2 MLOAD PUSH2 0x2EC DUP5 DUP3 PUSH1 0x20 DUP7 ADD PUSH2 0x260 JUMP JUMPDEST SWAP2 POP POP SWAP3 SWAP2 POP POP JUMP JUMPDEST PUSH0 PUSH1 0x20 DUP3 DUP5 SUB SLT ISZERO PUSH2 0x30A JUMPI PUSH2 0x309 PUSH2 0x16A JUMP JUMPDEST JUMPDEST PUSH0 DUP3 ADD MLOAD PUSH8 0xFFFFFFFFFFFFFFFF DUP2 GT ISZERO PUSH2 0x327 JUMPI PUSH2 0x326 PUSH2 0x16E JUMP JUMPDEST JUMPDEST PUSH2 0x333 DUP5 DUP3 DUP6 ADD PUSH2 0x2C8 JUMP JUMPDEST SWAP2 POP POP SWAP3 SWAP2 POP POP JUMP JUMPDEST PUSH32 0x4E487B7100000000000000000000000000000000000000000000000000000000 PUSH0 MSTORE PUSH1 0x32 PUSH1 0x4 MSTORE PUSH1 0x24 PUSH0 REVERT JUMPDEST PUSH2 0x1119 DUP1 PUSH2 0x376 PUSH0 CODECOPY PUSH0 RETURN INVALID PUSH1 0x80 PUSH1 0x40 MSTORE CALLVALUE DUP1 ISZERO PUSH2 0xF JUMPI PUSH0 PUSH0 REVERT JUMPDEST POP PUSH1 0x4 CALLDATASIZE LT PUSH2 0x86 JUMPI PUSH0 CALLDATALOAD PUSH1 0xE0 SHR DUP1 PUSH4 0x609FF1BD GT PUSH2 0x59 JUMPI DUP1 PUSH4 0x609FF1BD EQ PUSH2 0x111 JUMPI DUP1 PUSH4 0x9E7B8D61 EQ PUSH2 0x12F JUMPI DUP1 PUSH4 0xA3EC138D EQ PUSH2 0x14B JUMPI DUP1 PUSH4 0xE2BA53F0 EQ PUSH2 0x17E JUMPI PUSH2 0x86 JUMP JUMPDEST DUP1 PUSH4 0x121B93F EQ PUSH2 0x8A JUMPI DUP1 PUSH4 0x13CF08B EQ PUSH2 0xA6 JUMPI DUP1 PUSH4 0x2E4176CF EQ PUSH2 0xD7 JUMPI DUP1 PUSH4 0x5C19A95C EQ PUSH2 0xF5 JUMPI JUMPDEST PUSH0 PUSH0 REVERT JUMPDEST PUSH2 0xA4 PUSH1 0x4 DUP1 CALLDATASIZE SUB DUP2 ADD SWAP1 PUSH2 0x9F SWAP2 SWAP1 PUSH2 0xA5B JUMP JUMPDEST PUSH2 0x19C JUMP JUMPDEST STOP JUMPDEST PUSH2 0xC0 PUSH1 0x4 DUP1 CALLDATASIZE SUB DUP2 ADD SWAP1 PUSH2 0xBB SWAP2 SWAP1 PUSH2 0xA5B JUMP JUMPDEST PUSH2 0x2D7 JUMP JUMPDEST PUSH1 0x40 MLOAD PUSH2 0xCE SWAP3 SWAP2 SWAP1 PUSH2 0xAAD JUMP JUMPDEST PUSH1 0x40 MLOAD DUP1 SWAP2 SUB SWAP1 RETURN JUMPDEST PUSH2 0xDF PUSH2 0x306 JUMP JUMPDEST PUSH1 0x40 MLOAD PUSH2 0xEC SWAP2 SWAP1 PUSH2 0xB13 JUMP JUMPDEST PUSH1 0x40 MLOAD DUP1 SWAP2 SUB SWAP1 RETURN JUMPDEST PUSH2 0x10F PUSH1 0x4 DUP1 CALLDATASIZE SUB DUP2 ADD SWAP1 PUSH2 0x10A SWAP2 SWAP1 PUSH2 0xB56 JUMP JUMPDEST PUSH2 0x32A JUMP JUMPDEST STOP JUMPDEST PUSH2 0x119 PUSH2 0x73B JUMP JUMPDEST PUSH1 0x40 MLOAD PUSH2 0x126 SWAP2 SWAP1 PUSH2 0xB81 JUMP JUMPDEST PUSH1 0x40 MLOAD DUP1 SWAP2 SUB SWAP1 RETURN JUMPDEST PUSH2 0x149 PUSH1 0x4 DUP1 CALLDATASIZE SUB DUP2 ADD SWAP1 PUSH2 0x144 SWAP2 SWAP1 PUSH2 0xB56 JUMP JUMPDEST PUSH2 0x7B9 JUMP JUMPDEST STOP JUMPDEST PUSH2 0x165 PUSH1 0x4 DUP1 CALLDATASIZE SUB DUP2 ADD SWAP1 PUSH2 0x160 SWAP2 SWAP1 PUSH2 0xB56 JUMP JUMPDEST PUSH2 0x99C JUMP JUMPDEST PUSH1 0x40 MLOAD PUSH2 0x175 SWAP5 SWAP4 SWAP3 SWAP2 SWAP1 PUSH2 0xBB4 JUMP JUMPDEST PUSH1 0x40 MLOAD DUP1 SWAP2 SUB SWAP1 RETURN JUMPDEST PUSH2 0x186 PUSH2 0x9F4 JUMP JUMPDEST PUSH1 0x40 MLOAD PUSH2 0x193 SWAP2 SWAP1 PUSH2 0xBF7 JUMP JUMPDEST PUSH1 0x40 MLOAD DUP1 SWAP2 SUB SWAP1 RETURN JUMPDEST PUSH0 PUSH1 0x1 PUSH0 CALLER PUSH20 0xFFFFFFFFFFFFFFFFFFFFFFFFFFFFFFFFFFFFFFFF AND PUSH20 0xFFFFFFFFFFFFFFFFFFFFFFFFFFFFFFFFFFFFFFFF AND DUP2 MSTORE PUSH1 0x20 ADD SWAP1 DUP2 MSTORE PUSH1 0x20 ADD PUSH0 KECCAK256 SWAP1 POP PUSH0 DUP2 PUSH0 ADD SLOAD SUB PUSH2 0x221 JUMPI PUSH1 0x40 MLOAD PUSH32 0x8C379A000000000000000000000000000000000000000000000000000000000 DUP2 MSTORE PUSH1 0x4 ADD PUSH2 0x218 SWAP1 PUSH2 0xC6A JUMP JUMPDEST PUSH1 0x40 MLOAD DUP1 SWAP2 SUB SWAP1 REVERT JUMPDEST DUP1 PUSH1 0x1 ADD PUSH0 SWAP1 SLOAD SWAP1 PUSH2 0x100 EXP SWAP1 DIV PUSH1 0xFF AND ISZERO PUSH2 0x272 JUMPI PUSH1 0x40 MLOAD PUSH32 0x8C379A000000000000000000000000000000000000000000000000000000000 DUP2 MSTORE PUSH1 0x4 ADD PUSH2 0x269 SWAP1 PUSH2 0xCD2 JUMP JUMPDEST PUSH1 0x40 MLOAD DUP1 SWAP2 SUB SWAP1 REVERT JUMPDEST PUSH1 0x1 DUP2 PUSH1 0x1 ADD PUSH0 PUSH2 0x100 EXP DUP2 SLOAD DUP2 PUSH1 0xFF MUL NOT AND SWAP1 DUP4 ISZERO ISZERO MUL OR SWAP1 SSTORE POP DUP2 DUP2 PUSH1 0x2 ADD DUP2 SWAP1 SSTORE POP DUP1 PUSH0 ADD SLOAD PUSH1 0x2 DUP4 DUP2 SLOAD DUP2 LT PUSH2 0x2AF JUMPI PUSH2 0x2AE PUSH2 0xCF0 JUMP JUMPDEST JUMPDEST SWAP1 PUSH0 MSTORE PUSH1 0x20 PUSH0 KECCAK256 SWAP1 PUSH1 0x2 MUL ADD PUSH1 0x1 ADD PUSH0 DUP3 DUP3 SLOAD PUSH2 0x2CC SWAP2 SWAP1 PUSH2 0xD4A JUMP JUMPDEST SWAP3 POP POP DUP2 SWAP1 SSTORE POP POP POP JUMP JUMPDEST PUSH1 0x2 DUP2 DUP2 SLOAD DUP2 LT PUSH2 0x2E6 JUMPI PUSH0 DUP1 REVERT JUMPDEST SWAP1 PUSH0 MSTORE PUSH1 0x20 PUSH0 KECCAK256 SWAP1 PUSH1 0x2 MUL ADD PUSH0 SWAP2 POP SWAP1 POP DUP1 PUSH0 ADD SLOAD SWAP1 DUP1 PUSH1 0x1 ADD SLOAD SWAP1 POP DUP3 JUMP JUMPDEST PUSH0 PUSH0 SWAP1 SLOAD SWAP1 PUSH2 0x100 EXP SWAP1 DIV PUSH20 0xFFFFFFFFFFFFFFFFFFFFFFFFFFFFFFFFFFFFFFFF AND DUP2 JUMP JUMPDEST PUSH0 PUSH1 0x1 PUSH0 CALLER PUSH20 0xFFFFFFFFFFFFFFFFFFFFFFFFFFFFFFFFFFFFFFFF AND PUSH20 0xFFFFFFFFFFFFFFFFFFFFFFFFFFFFFFFFFFFFFFFF AND DUP2 MSTORE PUSH1 0x20 ADD SWAP1 DUP2 MSTORE PUSH1 0x20 ADD PUSH0 KECCAK256 SWAP1 POP PUSH0 DUP2 PUSH0 ADD SLOAD SUB PUSH2 0x3AF JUMPI PUSH1 0x40 MLOAD PUSH32 0x8C379A000000000000000000000000000000000000000000000000000000000 DUP2 MSTORE PUSH1 0x4 ADD PUSH2 0x3A6 SWAP1 PUSH2 0xDC7 JUMP JUMPDEST PUSH1 0x40 MLOAD DUP1 SWAP2 SUB SWAP1 REVERT JUMPDEST DUP1 PUSH1 0x1 ADD PUSH0 SWAP1 SLOAD SWAP1 PUSH2 0x100 EXP SWAP1 DIV PUSH1 0xFF AND ISZERO PUSH2 0x400 JUMPI PUSH1 0x40 MLOAD PUSH32 0x8C379A000000000000000000000000000000000000000000000000000000000 DUP2 MSTORE PUSH1 0x4 ADD PUSH2 0x3F7 SWAP1 PUSH2 0xE2F JUMP JUMPDEST PUSH1 0x40 MLOAD DUP1 SWAP2 SUB SWAP1 REVERT JUMPDEST CALLER PUSH20 0xFFFFFFFFFFFFFFFFFFFFFFFFFFFFFFFFFFFFFFFF AND DUP3 PUSH20 0xFFFFFFFFFFFFFFFFFFFFFFFFFFFFFFFFFFFFFFFF AND SUB PUSH2 0x46E JUMPI PUSH1 0x40 MLOAD PUSH32 0x8C379A000000000000000000000000000000000000000000000000000000000 DUP2 MSTORE PUSH1 0x4 ADD PUSH2 0x465 SWAP1 PUSH2 0xE97 JUMP JUMPDEST PUSH1 0x40 MLOAD DUP1 SWAP2 SUB SWAP1 REVERT JUMPDEST JUMPDEST PUSH0 PUSH20 0xFFFFFFFFFFFFFFFFFFFFFFFFFFFFFFFFFFFFFFFF AND PUSH1 0x1 PUSH0 DUP5 PUSH20 0xFFFFFFFFFFFFFFFFFFFFFFFFFFFFFFFFFFFFFFFF AND PUSH20 0xFFFFFFFFFFFFFFFFFFFFFFFFFFFFFFFFFFFFFFFF AND DUP2 MSTORE PUSH1 0x20 ADD SWAP1 DUP2 MSTORE PUSH1 0x20 ADD PUSH0 KECCAK256 PUSH1 0x1 ADD PUSH1 0x1 SWAP1 SLOAD SWAP1 PUSH2 0x100 EXP SWAP1 DIV PUSH20 0xFFFFFFFFFFFFFFFFFFFFFFFFFFFFFFFFFFFFFFFF AND PUSH20 0xFFFFFFFFFFFFFFFFFFFFFFFFFFFFFFFFFFFFFFFF AND EQ PUSH2 0x5D8 JUMPI PUSH1 0x1 PUSH0 DUP4 PUSH20 0xFFFFFFFFFFFFFFFFFFFFFFFFFFFFFFFFFFFFFFFF AND PUSH20 0xFFFFFFFFFFFFFFFFFFFFFFFFFFFFFFFFFFFFFFFF AND DUP2 MSTORE PUSH1 0x20 ADD SWAP1 DUP2 MSTORE PUSH1 0x20 ADD PUSH0 KECCAK256 PUSH1 0x1 ADD PUSH1 0x1 SWAP1 SLOAD SWAP1 PUSH2 0x100 EXP SWAP1 DIV PUSH20 0xFFFFFFFFFFFFFFFFFFFFFFFFFFFFFFFFFFFFFFFF AND SWAP2 POP CALLER PUSH20 0xFFFFFFFFFFFFFFFFFFFFFFFFFFFFFFFFFFFFFFFF AND DUP3 PUSH20 0xFFFFFFFFFFFFFFFFFFFFFFFFFFFFFFFFFFFFFFFF AND SUB PUSH2 0x5D3 JUMPI PUSH1 0x40 MLOAD PUSH32 0x8C379A000000000000000000000000000000000000000000000000000000000 DUP2 MSTORE PUSH1 0x4 ADD PUSH2 0x5CA SWAP1 PUSH2 0xEFF JUMP JUMPDEST PUSH1 0x40 MLOAD DUP1 SWAP2 SUB SWAP1 REVERT JUMPDEST PUSH2 0x46F JUMP JUMPDEST PUSH0 PUSH1 0x1 PUSH0 DUP5 PUSH20 0xFFFFFFFFFFFFFFFFFFFFFFFFFFFFFFFFFFFFFFFF AND PUSH20 0xFFFFFFFFFFFFFFFFFFFFFFFFFFFFFFFFFFFFFFFF AND DUP2 MSTORE PUSH1 0x20 ADD SWAP1 DUP2 MSTORE PUSH1 0x20 ADD PUSH0 KECCAK256 SWAP1 POP PUSH1 0x1 DUP2 PUSH0 ADD SLOAD LT ISZERO PUSH2 0x65F JUMPI PUSH1 0x40 MLOAD PUSH32 0x8C379A000000000000000000000000000000000000000000000000000000000 DUP2 MSTORE PUSH1 0x4 ADD PUSH2 0x656 SWAP1 PUSH2 0xF67 JUMP JUMPDEST PUSH1 0x40 MLOAD DUP1 SWAP2 SUB SWAP1 REVERT JUMPDEST PUSH1 0x1 DUP3 PUSH1 0x1 ADD PUSH0 PUSH2 0x100 EXP DUP2 SLOAD DUP2 PUSH1 0xFF MUL NOT AND SWAP1 DUP4 ISZERO ISZERO MUL OR SWAP1 SSTORE POP DUP3 DUP3 PUSH1 0x1 ADD PUSH1 0x1 PUSH2 0x100 EXP DUP2 SLOAD DUP2 PUSH20 0xFFFFFFFFFFFFFFFFFFFFFFFFFFFFFFFFFFFFFFFF MUL NOT AND SWAP1 DUP4 PUSH20 0xFFFFFFFFFFFFFFFFFFFFFFFFFFFFFFFFFFFFFFFF AND MUL OR SWAP1 SSTORE POP DUP1 PUSH1 0x1 ADD PUSH0 SWAP1 SLOAD SWAP1 PUSH2 0x100 EXP SWAP1 DIV PUSH1 0xFF AND ISZERO PUSH2 0x719 JUMPI DUP2 PUSH0 ADD SLOAD PUSH1 0x2 DUP3 PUSH1 0x2 ADD SLOAD DUP2 SLOAD DUP2 LT PUSH2 0x6F0 JUMPI PUSH2 0x6EF PUSH2 0xCF0 JUMP JUMPDEST JUMPDEST SWAP1 PUSH0 MSTORE PUSH1 0x20 PUSH0 KECCAK256 SWAP1 PUSH1 0x2 MUL ADD PUSH1 0x1 ADD PUSH0 DUP3 DUP3 SLOAD PUSH2 0x70D SWAP2 SWAP1 PUSH2 0xD4A JUMP JUMPDEST SWAP3 POP POP DUP2 SWAP1 SSTORE POP PUSH2 0x736 JUMP JUMPDEST DUP2 PUSH0 ADD SLOAD DUP2 PUSH0 ADD PUSH0 DUP3 DUP3 SLOAD PUSH2 0x72E SWAP2 SWAP1 PUSH2 0xD4A JUMP JUMPDEST SWAP3 POP POP DUP2 SWAP1 SSTORE POP JUMPDEST POP POP POP JUMP JUMPDEST PUSH0 PUSH0 PUSH0 SWAP1 POP PUSH0 PUSH0 SWAP1 POP JUMPDEST PUSH1 0x2 DUP1 SLOAD SWAP1 POP DUP2 LT ISZERO PUSH2 0x7B4 JUMPI DUP2 PUSH1 0x2 DUP3 DUP2 SLOAD DUP2 LT PUSH2 0x767 JUMPI PUSH2 0x766 PUSH2 0xCF0 JUMP JUMPDEST JUMPDEST SWAP1 PUSH0 MSTORE PUSH1 0x20 PUSH0 KECCAK256 SWAP1 PUSH1 0x2 MUL ADD PUSH1 0x1 ADD SLOAD GT ISZERO PUSH2 0x7A7 JUMPI PUSH1 0x2 DUP2 DUP2 SLOAD DUP2 LT PUSH2 0x791 JUMPI PUSH2 0x790 PUSH2 0xCF0 JUMP JUMPDEST JUMPDEST SWAP1 PUSH0 MSTORE PUSH1 0x20 PUSH0 KECCAK256 SWAP1 PUSH1 0x2 MUL ADD PUSH1 0x1 ADD SLOAD SWAP2 POP DUP1 SWAP3 POP JUMPDEST DUP1 DUP1 PUSH1 0x1 ADD SWAP2 POP POP PUSH2 0x745 JUMP JUMPDEST POP POP SWAP1 JUMP JUMPDEST PUSH0 PUSH0 SWAP1 SLOAD SWAP1 PUSH2 0x100 EXP SWAP1 DIV PUSH20 0xFFFFFFFFFFFFFFFFFFFFFFFFFFFFFFFFFFFFFFFF AND PUSH20 0xFFFFFFFFFFFFFFFFFFFFFFFFFFFFFFFFFFFFFFFF AND CALLER PUSH20 0xFFFFFFFFFFFFFFFFFFFFFFFFFFFFFFFFFFFFFFFF AND EQ PUSH2 0x847 JUMPI PUSH1 0x40 MLOAD PUSH32 0x8C379A000000000000000000000000000000000000000000000000000000000 DUP2 MSTORE PUSH1 0x4 ADD PUSH2 0x83E SWAP1 PUSH2 0xFF5 JUMP JUMPDEST PUSH1 0x40 MLOAD DUP1 SWAP2 SUB SWAP1 REVERT JUMPDEST PUSH1 0x1 PUSH0 DUP3 PUSH20 0xFFFFFFFFFFFFFFFFFFFFFFFFFFFFFFFFFFFFFFFF AND PUSH20 0xFFFFFFFFFFFFFFFFFFFFFFFFFFFFFFFFFFFFFFFF AND DUP2 MSTORE PUSH1 0x20 ADD SWAP1 DUP2 MSTORE PUSH1 0x20 ADD PUSH0 KECCAK256 PUSH1 0x1 ADD PUSH0 SWAP1 SLOAD SWAP1 PUSH2 0x100 EXP SWAP1 DIV PUSH1 0xFF AND ISZERO PUSH2 0x8D4 JUMPI PUSH1 0x40 MLOAD PUSH32 0x8C379A000000000000000000000000000000000000000000000000000000000 DUP2 MSTORE PUSH1 0x4 ADD PUSH2 0x8CB SWAP1 PUSH2 0x105D JUMP JUMPDEST PUSH1 0x40 MLOAD DUP1 SWAP2 SUB SWAP1 REVERT JUMPDEST PUSH0 PUSH1 0x1 PUSH0 DUP4 PUSH20 0xFFFFFFFFFFFFFFFFFFFFFFFFFFFFFFFFFFFFFFFF AND PUSH20 0xFFFFFFFFFFFFFFFFFFFFFFFFFFFFFFFFFFFFFFFF AND DUP2 MSTORE PUSH1 0x20 ADD SWAP1 DUP2 MSTORE PUSH1 0x20 ADD PUSH0 KECCAK256 PUSH0 ADD SLOAD EQ PUSH2 0x955 JUMPI PUSH1 0x40 MLOAD PUSH32 0x8C379A000000000000000000000000000000000000000000000000000000000 DUP2 MSTORE PUSH1 0x4 ADD PUSH2 0x94C SWAP1 PUSH2 0x10C5 JUMP JUMPDEST PUSH1 0x40 MLOAD DUP1 SWAP2 SUB SWAP1 REVERT JUMPDEST PUSH1 0x1 DUP1 PUSH0 DUP4 PUSH20 0xFFFFFFFFFFFFFFFFFFFFFFFFFFFFFFFFFFFFFFFF AND PUSH20 0xFFFFFFFFFFFFFFFFFFFFFFFFFFFFFFFFFFFFFFFF AND DUP2 MSTORE PUSH1 0x20 ADD SWAP1 DUP2 MSTORE PUSH1 0x20 ADD PUSH0 KECCAK256 PUSH0 ADD DUP2 SWAP1 SSTORE POP POP JUMP JUMPDEST PUSH1 0x1 PUSH1 0x20 MSTORE DUP1 PUSH0 MSTORE PUSH1 0x40 PUSH0 KECCAK256 PUSH0 SWAP2 POP SWAP1 POP DUP1 PUSH0 ADD SLOAD SWAP1 DUP1 PUSH1 0x1 ADD PUSH0 SWAP1 SLOAD SWAP1 PUSH2 0x100 EXP SWAP1 DIV PUSH1 0xFF AND SWAP1 DUP1 PUSH1 0x1 ADD PUSH1 0x1 SWAP1 SLOAD SWAP1 PUSH2 0x100 EXP SWAP1 DIV PUSH20 0xFFFFFFFFFFFFFFFFFFFFFFFFFFFFFFFFFFFFFFFF AND SWAP1 DUP1 PUSH1 0x2 ADD SLOAD SWAP1 POP DUP5 JUMP JUMPDEST PUSH0 PUSH1 0x2 PUSH2 0x9FF PUSH2 0x73B JUMP JUMPDEST DUP2 SLOAD DUP2 LT PUSH2 0xA10 JUMPI PUSH2 0xA0F PUSH2 0xCF0 JUMP JUMPDEST JUMPDEST SWAP1 PUSH0 MSTORE PUSH1 0x20 PUSH0 KECCAK256 SWAP1 PUSH1 0x2 MUL ADD PUSH0 ADD SLOAD SWAP1 POP SWAP1 JUMP JUMPDEST PUSH0 PUSH0 REVERT JUMPDEST PUSH0 DUP2 SWAP1 POP SWAP2 SWAP1 POP JUMP JUMPDEST PUSH2 0xA3A DUP2 PUSH2 0xA28 JUMP JUMPDEST DUP2 EQ PUSH2 0xA44 JUMPI PUSH0 PUSH0 REVERT JUMPDEST POP JUMP JUMPDEST PUSH0 DUP2 CALLDATALOAD SWAP1 POP PUSH2 0xA55 DUP2 PUSH2 0xA31 JUMP JUMPDEST SWAP3 SWAP2 POP POP JUMP JUMPDEST PUSH0 PUSH1 0x20 DUP3 DUP5 SUB SLT ISZERO PUSH2 0xA70 JUMPI PUSH2 0xA6F PUSH2 0xA24 JUMP JUMPDEST JUMPDEST PUSH0 PUSH2 0xA7D DUP5 DUP3 DUP6 ADD PUSH2 0xA47 JUMP JUMPDEST SWAP2 POP POP SWAP3 SWAP2 POP POP JUMP JUMPDEST PUSH0 DUP2 SWAP1 POP SWAP2 SWAP1 POP JUMP JUMPDEST PUSH2 0xA98 DUP2 PUSH2 0xA86 JUMP JUMPDEST DUP3 MSTORE POP POP JUMP JUMPDEST PUSH2 0xAA7 DUP2 PUSH2 0xA28 JUMP JUMPDEST DUP3 MSTORE POP POP JUMP JUMPDEST PUSH0 PUSH1 0x40 DUP3 ADD SWAP1 POP PUSH2 0xAC0 PUSH0 DUP4 ADD DUP6 PUSH2 0xA8F JUMP JUMPDEST PUSH2 0xACD PUSH1 0x20 DUP4 ADD DUP5 PUSH2 0xA9E JUMP JUMPDEST SWAP4 SWAP3 POP POP POP JUMP JUMPDEST PUSH0 PUSH20 0xFFFFFFFFFFFFFFFFFFFFFFFFFFFFFFFFFFFFFFFF DUP3 AND SWAP1 POP SWAP2 SWAP1 POP JUMP JUMPDEST PUSH0 PUSH2 0xAFD DUP3 PUSH2 0xAD4 JUMP JUMPDEST SWAP1 POP SWAP2 SWAP1 POP JUMP JUMPDEST PUSH2 0xB0D DUP2 PUSH2 0xAF3 JUMP JUMPDEST DUP3 MSTORE POP POP JUMP JUMPDEST PUSH0 PUSH1 0x20 DUP3 ADD SWAP1 POP PUSH2 0xB26 PUSH0 DUP4 ADD DUP5 PUSH2 0xB04 JUMP JUMPDEST SWAP3 SWAP2 POP POP JUMP JUMPDEST PUSH2 0xB35 DUP2 PUSH2 0xAF3 JUMP JUMPDEST DUP2 EQ PUSH2 0xB3F JUMPI PUSH0 PUSH0 REVERT JUMPDEST POP JUMP JUMPDEST PUSH0 DUP2 CALLDATALOAD SWAP1 POP PUSH2 0xB50 DUP2 PUSH2 0xB2C JUMP JUMPDEST SWAP3 SWAP2 POP POP JUMP JUMPDEST PUSH0 PUSH1 0x20 DUP3 DUP5 SUB SLT ISZERO PUSH2 0xB6B JUMPI PUSH2 0xB6A PUSH2 0xA24 JUMP JUMPDEST JUMPDEST PUSH0 PUSH2 0xB78 DUP5 DUP3 DUP6 ADD PUSH2 0xB42 JUMP JUMPDEST SWAP2 POP POP SWAP3 SWAP2 POP POP JUMP JUMPDEST PUSH0 PUSH1 0x20 DUP3 ADD SWAP1 POP PUSH2 0xB94 PUSH0 DUP4 ADD DUP5 PUSH2 0xA9E JUMP JUMPDEST SWAP3 SWAP2 POP POP JUMP JUMPDEST PUSH0 DUP2 ISZERO ISZERO SWAP1 POP SWAP2 SWAP1 POP JUMP JUMPDEST PUSH2 0xBAE DUP2 PUSH2 0xB9A JUMP JUMPDEST DUP3 MSTORE POP POP JUMP JUMPDEST PUSH0 PUSH1 0x80 DUP3 ADD SWAP1 POP PUSH2 0xBC7 PUSH0 DUP4 ADD DUP8 PUSH2 0xA9E JUMP JUMPDEST PUSH2 0xBD4 PUSH1 0x20 DUP4 ADD DUP7 PUSH2 0xBA5 JUMP JUMPDEST PUSH2 0xBE1 PUSH1 0x40 DUP4 ADD DUP6 PUSH2 0xB04 JUMP JUMPDEST PUSH2 0xBEE PUSH1 0x60 DUP4 ADD DUP5 PUSH2 0xA9E JUMP JUMPDEST SWAP6 SWAP5 POP POP POP POP POP JUMP JUMPDEST PUSH0 PUSH1 0x20 DUP3 ADD SWAP1 POP PUSH2 0xC0A PUSH0 DUP4 ADD DUP5 PUSH2 0xA8F JUMP JUMPDEST SWAP3 SWAP2 POP POP JUMP JUMPDEST PUSH0 DUP3 DUP3 MSTORE PUSH1 0x20 DUP3 ADD SWAP1 POP SWAP3 SWAP2 POP POP JUMP JUMPDEST PUSH32 0x486173206E6F20726967687420746F20766F74652E0000000000000000000000 PUSH0 DUP3 ADD MSTORE POP JUMP JUMPDEST PUSH0 PUSH2 0xC54 PUSH1 0x15 DUP4 PUSH2 0xC10 JUMP JUMPDEST SWAP2 POP PUSH2 0xC5F DUP3 PUSH2 0xC20 JUMP JUMPDEST PUSH1 0x20 DUP3 ADD SWAP1 POP SWAP2 SWAP1 POP JUMP JUMPDEST PUSH0 PUSH1 0x20 DUP3 ADD SWAP1 POP DUP2 DUP2 SUB PUSH0 DUP4 ADD MSTORE PUSH2 0xC81 DUP2 PUSH2 0xC48 JUMP JUMPDEST SWAP1 POP SWAP2 SWAP1 POP JUMP JUMPDEST PUSH32 0x416C726561647920766F7465642E000000000000000000000000000000000000 PUSH0 DUP3 ADD MSTORE POP JUMP JUMPDEST PUSH0 PUSH2 0xCBC PUSH1 0xE DUP4 PUSH2 0xC10 JUMP JUMPDEST SWAP2 POP PUSH2 0xCC7 DUP3 PUSH2 0xC88 JUMP JUMPDEST PUSH1 0x20 DUP3 ADD SWAP1 POP SWAP2 SWAP1 POP JUMP JUMPDEST PUSH0 PUSH1 0x20 DUP3 ADD SWAP1 POP DUP2 DUP2 SUB PUSH0 DUP4 ADD MSTORE PUSH2 0xCE9 DUP2 PUSH2 0xCB0 JUMP JUMPDEST SWAP1 POP SWAP2 SWAP1 POP JUMP JUMPDEST PUSH32 0x4E487B7100000000000000000000000000000000000000000000000000000000 PUSH0 MSTORE PUSH1 0x32 PUSH1 0x4 MSTORE PUSH1 0x24 PUSH0 REVERT JUMPDEST PUSH32 0x4E487B7100000000000000000000000000000000000000000000000000000000 PUSH0 MSTORE PUSH1 0x11 PUSH1 0x4 MSTORE PUSH1 0x24 PUSH0 REVERT JUMPDEST PUSH0 PUSH2 0xD54 DUP3 PUSH2 0xA28 JUMP JUMPDEST SWAP2 POP PUSH2 0xD5F DUP4 PUSH2 0xA28 JUMP JUMPDEST SWAP3 POP DUP3 DUP3 ADD SWAP1 POP DUP1 DUP3 GT ISZERO PUSH2 0xD77 JUMPI PUSH2 0xD76 PUSH2 0xD1D JUMP JUMPDEST JUMPDEST SWAP3 SWAP2 POP POP JUMP JUMPDEST PUSH32 0x596F752068617665206E6F20726967687420746F20766F74652E000000000000 PUSH0 DUP3 ADD MSTORE POP JUMP JUMPDEST PUSH0 PUSH2 0xDB1 PUSH1 0x1A DUP4 PUSH2 0xC10 JUMP JUMPDEST SWAP2 POP PUSH2 0xDBC DUP3 PUSH2 0xD7D JUMP JUMPDEST PUSH1 0x20 DUP3 ADD SWAP1 POP SWAP2 SWAP1 POP JUMP JUMPDEST PUSH0 PUSH1 0x20 DUP3 ADD SWAP1 POP DUP2 DUP2 SUB PUSH0 DUP4 ADD MSTORE PUSH2 0xDDE DUP2 PUSH2 0xDA5 JUMP JUMPDEST SWAP1 POP SWAP2 SWAP1 POP JUMP JUMPDEST PUSH32 0x596F75206861766520616C726561647920766F7465642E000000000000000000 PUSH0 DUP3 ADD MSTORE POP JUMP JUMPDEST PUSH0 PUSH2 0xE19 PUSH1 0x17 DUP4 PUSH2 0xC10 JUMP JUMPDEST SWAP2 POP PUSH2 0xE24 DUP3 PUSH2 0xDE5 JUMP JUMPDEST PUSH1 0x20 DUP3 ADD SWAP1 POP SWAP2 SWAP1 POP JUMP JUMPDEST PUSH0 PUSH1 0x20 DUP3 ADD SWAP1 POP DUP2 DUP2 SUB PUSH0 DUP4 ADD MSTORE PUSH2 0xE46 DUP2 PUSH2 0xE0D JUMP JUMPDEST SWAP1 POP SWAP2 SWAP1 POP JUMP JUMPDEST PUSH32 0x53656C662D64656C65676174696F6E20697320646973616C6C6F7765642E0000 PUSH0 DUP3 ADD MSTORE POP JUMP JUMPDEST PUSH0 PUSH2 0xE81 PUSH1 0x1E DUP4 PUSH2 0xC10 JUMP JUMPDEST SWAP2 POP PUSH2 0xE8C DUP3 PUSH2 0xE4D JUMP JUMPDEST PUSH1 0x20 DUP3 ADD SWAP1 POP SWAP2 SWAP1 POP JUMP JUMPDEST PUSH0 PUSH1 0x20 DUP3 ADD SWAP1 POP DUP2 DUP2 SUB PUSH0 DUP4 ADD MSTORE PUSH2 0xEAE DUP2 PUSH2 0xE75 JUMP JUMPDEST SWAP1 POP SWAP2 SWAP1 POP JUMP JUMPDEST PUSH32 0x466F756E64206C6F6F7020696E2064656C65676174696F6E2E00000000000000 PUSH0 DUP3 ADD MSTORE POP JUMP JUMPDEST PUSH0 PUSH2 0xEE9 PUSH1 0x19 DUP4 PUSH2 0xC10 JUMP JUMPDEST SWAP2 POP PUSH2 0xEF4 DUP3 PUSH2 0xEB5 JUMP JUMPDEST PUSH1 0x20 DUP3 ADD SWAP1 POP SWAP2 SWAP1 POP JUMP JUMPDEST PUSH0 PUSH1 0x20 DUP3 ADD SWAP1 POP DUP2 DUP2 SUB PUSH0 DUP4 ADD MSTORE PUSH2 0xF16 DUP2 PUSH2 0xEDD JUMP JUMPDEST SWAP1 POP SWAP2 SWAP1 POP JUMP JUMPDEST PUSH32 0x44656C656761746520686173206E6F20726967687420746F20766F74652E0000 PUSH0 DUP3 ADD MSTORE POP JUMP JUMPDEST PUSH0 PUSH2 0xF51 PUSH1 0x1E DUP4 PUSH2 0xC10 JUMP JUMPDEST SWAP2 POP PUSH2 0xF5C DUP3 PUSH2 0xF1D JUMP JUMPDEST PUSH1 0x20 DUP3 ADD SWAP1 POP SWAP2 SWAP1 POP JUMP JUMPDEST PUSH0 PUSH1 0x20 DUP3 ADD SWAP1 POP DUP2 DUP2 SUB PUSH0 DUP4 ADD MSTORE PUSH2 0xF7E DUP2 PUSH2 0xF45 JUMP JUMPDEST SWAP1 POP SWAP2 SWAP1 POP JUMP JUMPDEST PUSH32 0x4F6E6C79206368616972706572736F6E2063616E206769766520726967687420 PUSH0 DUP3 ADD MSTORE PUSH32 0x746F20766F74652E000000000000000000000000000000000000000000000000 PUSH1 0x20 DUP3 ADD MSTORE POP JUMP JUMPDEST PUSH0 PUSH2 0xFDF PUSH1 0x28 DUP4 PUSH2 0xC10 JUMP JUMPDEST SWAP2 POP PUSH2 0xFEA DUP3 PUSH2 0xF85 JUMP JUMPDEST PUSH1 0x40 DUP3 ADD SWAP1 POP SWAP2 SWAP1 POP JUMP JUMPDEST PUSH0 PUSH1 0x20 DUP3 ADD SWAP1 POP DUP2 DUP2 SUB PUSH0 DUP4 ADD MSTORE PUSH2 0x100C DUP2 PUSH2 0xFD3 JUMP JUMPDEST SWAP1 POP SWAP2 SWAP1 POP JUMP JUMPDEST PUSH32 0x54686520766F74657220616C726561647920766F7465642E0000000000000000 PUSH0 DUP3 ADD MSTORE POP JUMP JUMPDEST PUSH0 PUSH2 0x1047 PUSH1 0x18 DUP4 PUSH2 0xC10 JUMP JUMPDEST SWAP2 POP PUSH2 0x1052 DUP3 PUSH2 0x1013 JUMP JUMPDEST PUSH1 0x20 DUP3 ADD SWAP1 POP SWAP2 SWAP1 POP JUMP JUMPDEST PUSH0 PUSH1 0x20 DUP3 ADD SWAP1 POP DUP2 DUP2 SUB PUSH0 DUP4 ADD MSTORE PUSH2 0x1074 DUP2 PUSH2 0x103B JUMP JUMPDEST SWAP1 POP SWAP2 SWAP1 POP JUMP JUMPDEST PUSH32 0x566F74657220616C72656164792068617320766F74696E67207269676874732E PUSH0 DUP3 ADD MSTORE POP JUMP JUMPDEST PUSH0 PUSH2 0x10AF PUSH1 0x20 DUP4 PUSH2 0xC10 JUMP JUMPDEST SWAP2 POP PUSH2 0x10BA DUP3 PUSH2 0x107B JUMP JUMPDEST PUSH1 0x20 DUP3 ADD SWAP1 POP SWAP2 SWAP1 POP JUMP JUMPDEST PUSH0 PUSH1 0x20 DUP3 ADD SWAP1 POP DUP2 DUP2 SUB PUSH0 DUP4 ADD MSTORE PUSH2 0x10DC DUP2 PUSH2 0x10A3 JUMP JUMPDEST SWAP1 POP SWAP2 SWAP1 POP JUMP INVALID LOG2 PUSH5 0x6970667358 0x22 SLT KECCAK256 BLOBBASEFEE TLOAD CALLDATASIZE PUSH19 0x2AA218C75F3AD01D8647EB847F40AA65B263C2 DIV 0xCA 0xCF 0xCC CALLVALUE 0xD PUSH7 0x1F5064736F6C63 NUMBER STOP ADDMOD 0x1F STOP CALLER "
				},
				"gasEstimates": {
					"creation": {
						"codeDepositCost": "875400",
						"executionCost": "infinite",
						"totalCost": "infinite"
					},
					"external": {
						"chairperson()": "2552",
						"delegate(address)": "infinite",
						"giveRightToVote(address)": "29310",
						"proposals(uint256)": "infinite",
						"vote(uint256)": "infinite",
						"voters(address)": "infinite",
						"winnerName()": "infinite",
						"winningProposal()": "infinite"
					}
				},
				"methodIdentifiers": {
					"chairperson()": "2e4176cf",
					"delegate(address)": "5c19a95c",
					"giveRightToVote(address)": "9e7b8d61",
					"proposals(uint256)": "013cf08b",
					"vote(uint256)": "0121b93f",
					"voters(address)": "a3ec138d",
					"winnerName()": "e2ba53f0",
					"winningProposal()": "609ff1bd"
				}
			},
			"storageLayout": {
				"storage": [
					{
						"astId": 17,
						"contract": "Ballot.sol:Ballot",
						"label": "chairperson",
						"offset": 0,
						"slot": "0",
						"type": "t_address"
					},
					{
						"astId": 22,
						"contract": "Ballot.sol:Ballot",
						"label": "voters",
						"offset": 0,
						"slot": "1",
						"type": "t_mapping(t_address,t_struct(Voter)10_storage)"
					},
					{
						"astId": 26,
						"contract": "Ballot.sol:Ballot",
						"label": "proposals",
						"offset": 0,
						"slot": "2",
						"type": "t_array(t_struct(Proposal)15_storage)dyn_storage"
					}
				],
				"types": {
					"t_address": {
						"encoding": "inplace",
						"label": "address",
						"numberOfBytes": "20"
					},
					"t_array(t_struct(Proposal)15_storage)dyn_storage": {
						"base": "t_struct(Proposal)15_storage",
						"encoding": "dynamic_array",
						"label": "struct Ballot.Proposal[]",
						"numberOfBytes": "32"
					},
					"t_bool": {
						"encoding": "inplace",
						"label": "bool",
						"numberOfBytes": "1"
					},
					"t_bytes32": {
						"encoding": "inplace",
						"label": "bytes32",
						"numberOfBytes": "32"
					},
					"t_mapping(t_address,t_struct(Voter)10_storage)": {
						"encoding": "mapping",
						"key": "t_address",
						"label": "mapping(address => struct Ballot.Voter)",
						"numberOfBytes": "32",
						"value": "t_struct(Voter)10_storage"
					},
					"t_struct(Proposal)15_storage": {
						"encoding": "inplace",
						"label": "struct Ballot.Proposal",
						"members": [
							{
								"astId": 12,
								"contract": "Ballot.sol:Ballot",
								"label": "name",
								"offset": 0,
								"slot": "0",
								"type": "t_bytes32"
							},
							{
								"astId": 14,
								"contract": "Ballot.sol:Ballot",
								"label": "voteCount",
								"offset": 0,
								"slot": "1",
								"type": "t_uint256"
							}
						],
						"numberOfBytes": "64"
					},
					"t_struct(Voter)10_storage": {
						"encoding": "inplace",
						"label": "struct Ballot.Voter",
						"members": [
							{
								"astId": 3,
								"contract": "Ballot.sol:Ballot",
								"label": "weight",
								"offset": 0,
								"slot": "0",
								"type": "t_uint256"
							},
							{
								"astId": 5,
								"contract": "Ballot.sol:Ballot",
								"label": "voted",
								"offset": 0,
								"slot": "1",
								"type": "t_bool"
							},
							{
								"astId": 7,
								"contract": "Ballot.sol:Ballot",
								"label": "delegate",
								"offset": 1,
								"slot": "1",
								"type": "t_address"
							},
							{
								"astId": 9,
								"contract": "Ballot.sol:Ballot",
								"label": "vote",
								"offset": 0,
								"slot": "2",
								"type": "t_uint256"
							}
						],
						"numberOfBytes": "96"
					},
					"t_uint256": {
						"encoding": "inplace",
						"label": "uint256",
						"numberOfBytes": "32"
					}
				}
			},
			"userdoc": {
				"kind": "user",
				"methods": {},
				"version": 1
			}
		}
	}
}