{
	"FundMe.sol": {
		"FundMe": {
			"abi": [
				{
					"inputs": [],
					"stateMutability": "nonpayable",
					"type": "constructor"
				},
				{
					"inputs": [
						{
							"internalType": "address",
							"name": "",
							"type": "address"
						}
					],
					"name": "addressToAmountFunded",
					"outputs": [
						{
							"internalType": "uint256",
							"name": "",
							"type": "uint256"
						}
					],
					"stateMutability": "view",
					"type": "function"
				},
				{
					"inputs": [],
					"name": "fund",
					"outputs": [],
					"stateMutability": "payable",
					"type": "function"
				},
				{
					"inputs": [
						{
							"internalType": "uint256",
							"name": "",
							"type": "uint256"
						}
					],
					"name": "funders",
					"outputs": [
						{
							"internalType": "address",
							"name": "",
							"type": "address"
						}
					],
					"stateMutability": "view",
					"type": "function"
				},
				{
					"inputs": [
						{
							"internalType": "uint256",
							"name": "ethAmount",
							"type": "uint256"
						}
					],
					"name": "getConversionRate",
					"outputs": [
						{
							"internalType": "uint256",
							"name": "",
							"type": "uint256"
						}
					],
					"stateMutability": "view",
					"type": "function"
				},
				{
					"inputs": [],
					"name": "getPrice",
					"outputs": [
						{
							"internalType": "uint256",
							"name": "",
							"type": "uint256"
						}
					],
					"stateMutability": "view",
					"type": "function"
				},
				{
					"inputs": [],
					"name": "minimumUsd",
					"outputs": [
						{
							"internalType": "uint256",
							"name": "",
							"type": "uint256"
						}
					],
					"stateMutability": "view",
					"type": "function"
				},
				{
					"inputs": [],
					"name": "owner",
					"outputs": [
						{
							"internalType": "address",
							"name": "",
							"type": "address"
						}
					],
					"stateMutability": "view",
					"type": "function"
				},
				{
					"inputs": [],
					"name": "withdraw",
					"outputs": [],
					"stateMutability": "nonpayable",
					"type": "function"
				}
			],
			"devdoc": {
				"kind": "dev",
				"methods": {},
				"version": 1
			},
			"evm": {
				"assembly": "    /* \"FundMe.sol\":141:1830  contract FundMe {... */\n  mstore(0x40, 0x80)\n    /* \"FundMe.sol\":341:391  constructor(){... */\n  callvalue\n  dup1\n  iszero\n  tag_1\n  jumpi\n  revert(0x00, 0x00)\ntag_1:\n  pop\n    /* \"FundMe.sol\":373:383  msg.sender */\n  caller\n    /* \"FundMe.sol\":365:370  owner */\n  0x02\n  0x00\n    /* \"FundMe.sol\":365:383  owner = msg.sender */\n  0x0100\n  exp\n  dup2\n  sload\n  dup2\n  0xffffffffffffffffffffffffffffffffffffffff\n  mul\n  not\n  and\n  swap1\n  dup4\n  0xffffffffffffffffffffffffffffffffffffffff\n  and\n  mul\n  or\n  swap1\n  sstore\n  pop\n    /* \"FundMe.sol\":141:1830  contract FundMe {... */\n  dataSize(sub_0)\n  dup1\n  dataOffset(sub_0)\n  0x00\n  codecopy\n  0x00\n  return\nstop\n\nsub_0: assembly {\n        /* \"FundMe.sol\":141:1830  contract FundMe {... */\n      mstore(0x40, 0x80)\n      jumpi(tag_1, lt(calldatasize, 0x04))\n      shr(0xe0, calldataload(0x00))\n      dup1\n      0x8da5cb5b\n      gt\n      tag_10\n      jumpi\n      dup1\n      0x8da5cb5b\n      eq\n      tag_6\n      jumpi\n      dup1\n      0x98d5fdca\n      eq\n      tag_7\n      jumpi\n      dup1\n      0xb60d4288\n      eq\n      tag_8\n      jumpi\n      dup1\n      0xdc0d3dff\n      eq\n      tag_9\n      jumpi\n      jump(tag_1)\n    tag_10:\n      dup1\n      0x098de820\n      eq\n      tag_2\n      jumpi\n      dup1\n      0x3ccfd60b\n      eq\n      tag_3\n      jumpi\n      dup1\n      0x3e47d6f3\n      eq\n      tag_4\n      jumpi\n      dup1\n      0x6e5b6b28\n      eq\n      tag_5\n      jumpi\n    tag_1:\n      revert(0x00, 0x00)\n        /* \"FundMe.sol\":166:207  uint256 public constant minimumUsd = 5e18 */\n    tag_2:\n      callvalue\n      dup1\n      iszero\n      tag_11\n      jumpi\n      revert(0x00, 0x00)\n    tag_11:\n      pop\n      tag_12\n      tag_13\n      jump\t// in\n    tag_12:\n      mload(0x40)\n      tag_14\n      swap2\n      swap1\n      tag_15\n      jump\t// in\n    tag_14:\n      mload(0x40)\n      dup1\n      swap2\n      sub\n      swap1\n      return\n        /* \"FundMe.sol\":1194:1827  function withdraw() public {... */\n    tag_3:\n      callvalue\n      dup1\n      iszero\n      tag_16\n      jumpi\n      revert(0x00, 0x00)\n    tag_16:\n      pop\n      tag_17\n      tag_18\n      jump\t// in\n    tag_17:\n      stop\n        /* \"FundMe.sol\":247:303  mapping(address => uint256) public addressToAmountFunded */\n    tag_4:\n      callvalue\n      dup1\n      iszero\n      tag_19\n      jumpi\n      revert(0x00, 0x00)\n    tag_19:\n      pop\n      tag_20\n      0x04\n      dup1\n      calldatasize\n      sub\n      dup2\n      add\n      swap1\n      tag_21\n      swap2\n      swap1\n      tag_22\n      jump\t// in\n    tag_21:\n      tag_23\n      jump\t// in\n    tag_20:\n      mload(0x40)\n      tag_24\n      swap2\n      swap1\n      tag_15\n      jump\t// in\n    tag_24:\n      mload(0x40)\n      dup1\n      swap2\n      sub\n      swap1\n      return\n        /* \"FundMe.sol\":984:1186  function getConversionRate(uint256 ethAmount)... */\n    tag_5:\n      callvalue\n      dup1\n      iszero\n      tag_25\n      jumpi\n      revert(0x00, 0x00)\n    tag_25:\n      pop\n      tag_26\n      0x04\n      dup1\n      calldatasize\n      sub\n      dup2\n      add\n      swap1\n      tag_27\n      swap2\n      swap1\n      tag_28\n      jump\t// in\n    tag_27:\n      tag_29\n      jump\t// in\n    tag_26:\n      mload(0x40)\n      tag_30\n      swap2\n      swap1\n      tag_15\n      jump\t// in\n    tag_30:\n      mload(0x40)\n      dup1\n      swap2\n      sub\n      swap1\n      return\n        /* \"FundMe.sol\":312:332  address public owner */\n    tag_6:\n      callvalue\n      dup1\n      iszero\n      tag_31\n      jumpi\n      revert(0x00, 0x00)\n    tag_31:\n      pop\n      tag_32\n      tag_33\n      jump\t// in\n    tag_32:\n      mload(0x40)\n      tag_34\n      swap2\n      swap1\n      tag_35\n      jump\t// in\n    tag_34:\n      mload(0x40)\n      dup1\n      swap2\n      sub\n      swap1\n      return\n        /* \"FundMe.sol\":694:976  function getPrice() public view returns (uint256) {... */\n    tag_7:\n      callvalue\n      dup1\n      iszero\n      tag_36\n      jumpi\n      revert(0x00, 0x00)\n    tag_36:\n      pop\n      tag_37\n      tag_38\n      jump\t// in\n    tag_37:\n      mload(0x40)\n      tag_39\n      swap2\n      swap1\n      tag_15\n      jump\t// in\n    tag_39:\n      mload(0x40)\n      dup1\n      swap2\n      sub\n      swap1\n      return\n        /* \"FundMe.sol\":399:686  function fund() public payable {... */\n    tag_8:\n      tag_40\n      tag_41\n      jump\t// in\n    tag_40:\n      stop\n        /* \"FundMe.sol\":216:240  address[] public funders */\n    tag_9:\n      callvalue\n      dup1\n      iszero\n      tag_42\n      jumpi\n      revert(0x00, 0x00)\n    tag_42:\n      pop\n      tag_43\n      0x04\n      dup1\n      calldatasize\n      sub\n      dup2\n      add\n      swap1\n      tag_44\n      swap2\n      swap1\n      tag_28\n      jump\t// in\n    tag_44:\n      tag_45\n      jump\t// in\n    tag_43:\n      mload(0x40)\n      tag_46\n      swap2\n      swap1\n      tag_35\n      jump\t// in\n    tag_46:\n      mload(0x40)\n      dup1\n      swap2\n      sub\n      swap1\n      return\n        /* \"FundMe.sol\":166:207  uint256 public constant minimumUsd = 5e18 */\n    tag_13:\n        /* \"FundMe.sol\":203:207  5e18 */\n      0x4563918244f40000\n        /* \"FundMe.sol\":166:207  uint256 public constant minimumUsd = 5e18 */\n      dup2\n      jump\t// out\n        /* \"FundMe.sol\":1194:1827  function withdraw() public {... */\n    tag_18:\n        /* \"FundMe.sol\":1254:1259  owner */\n      0x02\n      0x00\n      swap1\n      sload\n      swap1\n      0x0100\n      exp\n      swap1\n      div\n      0xffffffffffffffffffffffffffffffffffffffff\n      and\n        /* \"FundMe.sol\":1240:1259  msg.sender == owner */\n      0xffffffffffffffffffffffffffffffffffffffff\n      and\n        /* \"FundMe.sol\":1240:1250  msg.sender */\n      caller\n        /* \"FundMe.sol\":1240:1259  msg.sender == owner */\n      0xffffffffffffffffffffffffffffffffffffffff\n      and\n      eq\n        /* \"FundMe.sol\":1232:1277  require(msg.sender == owner, \"Must be owner\") */\n      tag_48\n      jumpi\n      mload(0x40)\n      0x08c379a000000000000000000000000000000000000000000000000000000000\n      dup2\n      mstore\n      0x04\n      add\n      tag_49\n      swap1\n      tag_50\n      jump\t// in\n    tag_49:\n      mload(0x40)\n      dup1\n      swap2\n      sub\n      swap1\n      revert\n    tag_48:\n        /* \"FundMe.sol\":1292:1311  uint256 funderIndex */\n      0x00\n        /* \"FundMe.sol\":1312:1313  0 */\n      0x00\n        /* \"FundMe.sol\":1292:1313  uint256 funderIndex=0 */\n      swap1\n      pop\n        /* \"FundMe.sol\":1288:1469  for(uint256 funderIndex=0; funderIndex<funders.length; funderIndex++){... */\n    tag_51:\n        /* \"FundMe.sol\":1327:1334  funders */\n      0x00\n        /* \"FundMe.sol\":1327:1341  funders.length */\n      dup1\n      sload\n      swap1\n      pop\n        /* \"FundMe.sol\":1315:1326  funderIndex */\n      dup2\n        /* \"FundMe.sol\":1315:1341  funderIndex<funders.length */\n      lt\n        /* \"FundMe.sol\":1288:1469  for(uint256 funderIndex=0; funderIndex<funders.length; funderIndex++){... */\n      iszero\n      tag_52\n      jumpi\n        /* \"FundMe.sol\":1372:1386  address funder */\n      0x00\n        /* \"FundMe.sol\":1389:1396  funders */\n      0x00\n        /* \"FundMe.sol\":1397:1408  funderIndex */\n      dup3\n        /* \"FundMe.sol\":1389:1409  funders[funderIndex] */\n      dup2\n      sload\n      dup2\n      lt\n      tag_54\n      jumpi\n      tag_55\n      tag_56\n      jump\t// in\n    tag_55:\n    tag_54:\n      swap1\n      0x00\n      mstore\n      keccak256(0x00, 0x20)\n      add\n      0x00\n      swap1\n      sload\n      swap1\n      0x0100\n      exp\n      swap1\n      div\n      0xffffffffffffffffffffffffffffffffffffffff\n      and\n        /* \"FundMe.sol\":1372:1409  address funder = funders[funderIndex] */\n      swap1\n      pop\n        /* \"FundMe.sol\":1456:1457  0 */\n      0x00\n        /* \"FundMe.sol\":1424:1445  addressToAmountFunded */\n      0x01\n        /* \"FundMe.sol\":1424:1453  addressToAmountFunded[funder] */\n      0x00\n        /* \"FundMe.sol\":1446:1452  funder */\n      dup4\n        /* \"FundMe.sol\":1424:1453  addressToAmountFunded[funder] */\n      0xffffffffffffffffffffffffffffffffffffffff\n      and\n      0xffffffffffffffffffffffffffffffffffffffff\n      and\n      dup2\n      mstore\n      0x20\n      add\n      swap1\n      dup2\n      mstore\n      0x20\n      add\n      0x00\n      keccak256\n        /* \"FundMe.sol\":1424:1457  addressToAmountFunded[funder] = 0 */\n      dup2\n      swap1\n      sstore\n      pop\n        /* \"FundMe.sol\":1357:1469  {... */\n      pop\n        /* \"FundMe.sol\":1343:1356  funderIndex++ */\n      dup1\n      dup1\n      0x01\n      add\n      swap2\n      pop\n      pop\n        /* \"FundMe.sol\":1288:1469  for(uint256 funderIndex=0; funderIndex<funders.length; funderIndex++){... */\n      jump(tag_51)\n    tag_52:\n      pop\n        /* \"FundMe.sol\":1503:1504  0 */\n      0x00\n        /* \"FundMe.sol\":1489:1505  new address[](0) */\n      0xffffffffffffffff\n      dup2\n      gt\n      iszero\n      tag_58\n      jumpi\n      tag_59\n      tag_60\n      jump\t// in\n    tag_59:\n    tag_58:\n      mload(0x40)\n      swap1\n      dup1\n      dup3\n      mstore\n      dup1\n      0x20\n      mul\n      0x20\n      add\n      dup3\n      add\n      0x40\n      mstore\n      dup1\n      iszero\n      tag_61\n      jumpi\n      dup2\n      0x20\n      add\n      0x20\n      dup3\n      mul\n      dup1\n      calldatasize\n      dup4\n      calldatacopy\n      dup1\n      dup3\n      add\n      swap2\n      pop\n      pop\n      swap1\n      pop\n    tag_61:\n      pop\n        /* \"FundMe.sol\":1479:1486  funders */\n      0x00\n        /* \"FundMe.sol\":1479:1505  funders = new address[](0) */\n      swap1\n      dup1\n      mload\n      swap1\n      0x20\n      add\n      swap1\n      tag_62\n      swap3\n      swap2\n      swap1\n      tag_63\n      jump\t// in\n    tag_62:\n      pop\n        /* \"FundMe.sol\":1547:1557  msg.sender */\n      caller\n        /* \"FundMe.sol\":1539:1567  payable(msg.sender).transfer */\n      0xffffffffffffffffffffffffffffffffffffffff\n      and\n        /* \"FundMe.sol\":1539:1590  payable(msg.sender).transfer(address(this).balance) */\n      0x08fc\n        /* \"FundMe.sol\":1568:1589  address(this).balance */\n      selfbalance\n        /* \"FundMe.sol\":1539:1590  payable(msg.sender).transfer(address(this).balance) */\n      swap1\n      dup2\n      iszero\n      mul\n      swap1\n      mload(0x40)\n      0x00\n      mload(0x40)\n      dup1\n      dup4\n      sub\n      dup2\n      dup6\n      dup9\n      dup9\n      call\n      swap4\n      pop\n      pop\n      pop\n      pop\n      iszero\n      dup1\n      iszero\n      tag_65\n      jumpi\n      returndatacopy(0x00, 0x00, returndatasize)\n      revert(0x00, returndatasize)\n    tag_65:\n      pop\n        /* \"FundMe.sol\":1617:1633  bool sendSuccess */\n      0x00\n        /* \"FundMe.sol\":1644:1654  msg.sender */\n      caller\n        /* \"FundMe.sol\":1636:1660  payable(msg.sender).send */\n      0xffffffffffffffffffffffffffffffffffffffff\n      and\n        /* \"FundMe.sol\":1636:1683  payable(msg.sender).send(address(this).balance) */\n      0x08fc\n        /* \"FundMe.sol\":1661:1682  address(this).balance */\n      selfbalance\n        /* \"FundMe.sol\":1636:1683  payable(msg.sender).send(address(this).balance) */\n      swap1\n      dup2\n      iszero\n      mul\n      swap1\n      mload(0x40)\n      0x00\n      mload(0x40)\n      dup1\n      dup4\n      sub\n      dup2\n      dup6\n      dup9\n      dup9\n      call\n      swap4\n      pop\n      pop\n      pop\n      pop\n        /* \"FundMe.sol\":1617:1683  bool sendSuccess = payable(msg.sender).send(address(this).balance) */\n      swap1\n      pop\n        /* \"FundMe.sol\":1702:1713  sendSuccess */\n      dup1\n        /* \"FundMe.sol\":1694:1729  require(sendSuccess, \"Send failed\") */\n      tag_67\n      jumpi\n      mload(0x40)\n      0x08c379a000000000000000000000000000000000000000000000000000000000\n      dup2\n      mstore\n      0x04\n      add\n      tag_68\n      swap1\n      tag_69\n      jump\t// in\n    tag_68:\n      mload(0x40)\n      dup1\n      swap2\n      sub\n      swap1\n      revert\n    tag_67:\n        /* \"FundMe.sol\":1742:1757  bool callSucces */\n      0x00\n        /* \"FundMe.sol\":1769:1779  msg.sender */\n      caller\n        /* \"FundMe.sol\":1761:1785  payable(msg.sender).call */\n      0xffffffffffffffffffffffffffffffffffffffff\n      and\n        /* \"FundMe.sol\":1793:1814  address(this).balance */\n      selfbalance\n        /* \"FundMe.sol\":1761:1819  payable(msg.sender).call{value: address(this).balance}(\"\") */\n      mload(0x40)\n      tag_70\n      swap1\n      tag_71\n      jump\t// in\n    tag_70:\n      0x00\n      mload(0x40)\n      dup1\n      dup4\n      sub\n      dup2\n      dup6\n      dup8\n      gas\n      call\n      swap3\n      pop\n      pop\n      pop\n      returndatasize\n      dup1\n      0x00\n      dup2\n      eq\n      tag_74\n      jumpi\n      mload(0x40)\n      swap2\n      pop\n      and(add(returndatasize, 0x3f), not(0x1f))\n      dup3\n      add\n      0x40\n      mstore\n      returndatasize\n      dup3\n      mstore\n      returndatasize\n      0x00\n      0x20\n      dup5\n      add\n      returndatacopy\n      jump(tag_73)\n    tag_74:\n      0x60\n      swap2\n      pop\n    tag_73:\n      pop\n        /* \"FundMe.sol\":1741:1819  (bool callSucces,)= payable(msg.sender).call{value: address(this).balance}(\"\") */\n      pop\n      swap1\n      pop\n        /* \"FundMe.sol\":1221:1827  {... */\n      pop\n      pop\n        /* \"FundMe.sol\":1194:1827  function withdraw() public {... */\n      jump\t// out\n        /* \"FundMe.sol\":247:303  mapping(address => uint256) public addressToAmountFunded */\n    tag_23:\n      mstore(0x20, 0x01)\n      dup1\n      0x00\n      mstore\n      keccak256(0x00, 0x40)\n      0x00\n      swap2\n      pop\n      swap1\n      pop\n      sload\n      dup2\n      jump\t// out\n        /* \"FundMe.sol\":984:1186  function getConversionRate(uint256 ethAmount)... */\n    tag_29:\n        /* \"FundMe.sol\":1077:1084  uint256 */\n      0x00\n        /* \"FundMe.sol\":1102:1118  uint256 ethPrice */\n      0x00\n        /* \"FundMe.sol\":1121:1131  getPrice() */\n      tag_76\n        /* \"FundMe.sol\":1121:1129  getPrice */\n      tag_38\n        /* \"FundMe.sol\":1121:1131  getPrice() */\n      jump\t// in\n    tag_76:\n        /* \"FundMe.sol\":1102:1131  uint256 ethPrice = getPrice() */\n      swap1\n      pop\n        /* \"FundMe.sol\":1174:1178  1e18 */\n      0x0de0b6b3a7640000\n        /* \"FundMe.sol\":1161:1170  ethAmount */\n      dup4\n        /* \"FundMe.sol\":1150:1158  ethPrice */\n      dup3\n        /* \"FundMe.sol\":1150:1170  ethPrice * ethAmount */\n      tag_77\n      swap2\n      swap1\n      tag_78\n      jump\t// in\n    tag_77:\n        /* \"FundMe.sol\":1149:1178  (ethPrice * ethAmount) / 1e18 */\n      tag_79\n      swap2\n      swap1\n      tag_80\n      jump\t// in\n    tag_79:\n        /* \"FundMe.sol\":1142:1178  return (ethPrice * ethAmount) / 1e18 */\n      swap2\n      pop\n      pop\n        /* \"FundMe.sol\":984:1186  function getConversionRate(uint256 ethAmount)... */\n      swap2\n      swap1\n      pop\n      jump\t// out\n        /* \"FundMe.sol\":312:332  address public owner */\n    tag_33:\n      0x02\n      0x00\n      swap1\n      sload\n      swap1\n      0x0100\n      exp\n      swap1\n      div\n      0xffffffffffffffffffffffffffffffffffffffff\n      and\n      dup2\n      jump\t// out\n        /* \"FundMe.sol\":694:976  function getPrice() public view returns (uint256) {... */\n    tag_38:\n        /* \"FundMe.sol\":735:742  uint256 */\n      0x00\n        /* \"FundMe.sol\":755:786  AggregatorV3Interface priceFeed */\n      0x00\n        /* \"FundMe.sol\":824:866  0x694AA1769357215DE4FAC081bf1f309aDC325306 */\n      0x694aa1769357215de4fac081bf1f309adc325306\n        /* \"FundMe.sol\":755:867  AggregatorV3Interface priceFeed =... */\n      swap1\n      pop\n        /* \"FundMe.sol\":883:895  int256 price */\n      0x00\n        /* \"FundMe.sol\":902:911  priceFeed */\n      dup2\n        /* \"FundMe.sol\":902:927  priceFeed.latestRoundData */\n      0xffffffffffffffffffffffffffffffffffffffff\n      and\n      0xfeaf968c\n        /* \"FundMe.sol\":902:929  priceFeed.latestRoundData() */\n      mload(0x40)\n      dup2\n      0xffffffff\n      and\n      0xe0\n      shl\n      dup2\n      mstore\n      0x04\n      add\n      0xa0\n      mload(0x40)\n      dup1\n      dup4\n      sub\n      dup2\n      dup7\n      gas\n      staticcall\n      iszero\n      dup1\n      iszero\n      tag_83\n      jumpi\n      returndatacopy(0x00, 0x00, returndatasize)\n      revert(0x00, returndatasize)\n    tag_83:\n      pop\n      pop\n      pop\n      pop\n      mload(0x40)\n      returndatasize\n      not(0x1f)\n      0x1f\n      dup3\n      add\n      and\n      dup3\n      add\n      dup1\n      0x40\n      mstore\n      pop\n      dup2\n      add\n      swap1\n      tag_84\n      swap2\n      swap1\n      tag_85\n      jump\t// in\n    tag_84:\n        /* \"FundMe.sol\":880:929  (, int256 price,,,) = priceFeed.latestRoundData() */\n      pop\n      pop\n      pop\n      swap2\n      pop\n      pop\n        /* \"FundMe.sol\":963:967  1e10 */\n      0x02540be400\n        /* \"FundMe.sol\":955:960  price */\n      dup2\n        /* \"FundMe.sol\":955:967  price * 1e10 */\n      tag_86\n      swap2\n      swap1\n      tag_87\n      jump\t// in\n    tag_86:\n        /* \"FundMe.sol\":940:968  return uint256(price * 1e10) */\n      swap3\n      pop\n      pop\n      pop\n        /* \"FundMe.sol\":694:976  function getPrice() public view returns (uint256) {... */\n      swap1\n      jump\t// out\n        /* \"FundMe.sol\":399:686  function fund() public payable {... */\n    tag_41:\n        /* \"FundMe.sol\":203:207  5e18 */\n      0x4563918244f40000\n        /* \"FundMe.sol\":449:477  getConversionRate(msg.value) */\n      tag_89\n        /* \"FundMe.sol\":467:476  msg.value */\n      callvalue\n        /* \"FundMe.sol\":449:466  getConversionRate */\n      tag_29\n        /* \"FundMe.sol\":449:477  getConversionRate(msg.value) */\n      jump\t// in\n    tag_89:\n        /* \"FundMe.sol\":449:491  getConversionRate(msg.value) >= minimumUsd */\n      lt\n      iszero\n        /* \"FundMe.sol\":441:514  require(getConversionRate(msg.value) >= minimumUsd, \"Didn't send enough\") */\n      tag_90\n      jumpi\n      mload(0x40)\n      0x08c379a000000000000000000000000000000000000000000000000000000000\n      dup2\n      mstore\n      0x04\n      add\n      tag_91\n      swap1\n      tag_92\n      jump\t// in\n    tag_91:\n      mload(0x40)\n      dup1\n      swap2\n      sub\n      swap1\n      revert\n    tag_90:\n        /* \"FundMe.sol\":567:568  0 */\n      0x00\n        /* \"FundMe.sol\":530:551  addressToAmountFunded */\n      0x01\n        /* \"FundMe.sol\":530:563  addressToAmountFunded[msg.sender] */\n      0x00\n        /* \"FundMe.sol\":552:562  msg.sender */\n      caller\n        /* \"FundMe.sol\":530:563  addressToAmountFunded[msg.sender] */\n      0xffffffffffffffffffffffffffffffffffffffff\n      and\n      0xffffffffffffffffffffffffffffffffffffffff\n      and\n      dup2\n      mstore\n      0x20\n      add\n      swap1\n      dup2\n      mstore\n      0x20\n      add\n      0x00\n      keccak256\n      sload\n        /* \"FundMe.sol\":530:568  addressToAmountFunded[msg.sender] == 0 */\n      sub\n        /* \"FundMe.sol\":527:620  if(addressToAmountFunded[msg.sender] == 0){... */\n      tag_93\n      jumpi\n        /* \"FundMe.sol\":584:591  funders */\n      0x00\n        /* \"FundMe.sol\":597:607  msg.sender */\n      caller\n        /* \"FundMe.sol\":584:608  funders.push(msg.sender) */\n      swap1\n      dup1\n      0x01\n      dup2\n      sload\n      add\n      dup1\n      dup3\n      sstore\n      dup1\n      swap2\n      pop\n      pop\n      0x01\n      swap1\n      sub\n      swap1\n      0x00\n      mstore\n      keccak256(0x00, 0x20)\n      add\n      0x00\n      swap1\n      swap2\n      swap1\n      swap2\n      swap1\n      swap2\n      0x0100\n      exp\n      dup2\n      sload\n      dup2\n      0xffffffffffffffffffffffffffffffffffffffff\n      mul\n      not\n      and\n      swap1\n      dup4\n      0xffffffffffffffffffffffffffffffffffffffff\n      and\n      mul\n      or\n      swap1\n      sstore\n      pop\n        /* \"FundMe.sol\":527:620  if(addressToAmountFunded[msg.sender] == 0){... */\n    tag_93:\n        /* \"FundMe.sol\":669:678  msg.value */\n      callvalue\n        /* \"FundMe.sol\":632:653  addressToAmountFunded */\n      0x01\n        /* \"FundMe.sol\":632:665  addressToAmountFunded[msg.sender] */\n      0x00\n        /* \"FundMe.sol\":654:664  msg.sender */\n      caller\n        /* \"FundMe.sol\":632:665  addressToAmountFunded[msg.sender] */\n      0xffffffffffffffffffffffffffffffffffffffff\n      and\n      0xffffffffffffffffffffffffffffffffffffffff\n      and\n      dup2\n      mstore\n      0x20\n      add\n      swap1\n      dup2\n      mstore\n      0x20\n      add\n      0x00\n      keccak256\n      0x00\n        /* \"FundMe.sol\":632:678  addressToAmountFunded[msg.sender] += msg.value */\n      dup3\n      dup3\n      sload\n      tag_95\n      swap2\n      swap1\n      tag_96\n      jump\t// in\n    tag_95:\n      swap3\n      pop\n      pop\n      dup2\n      swap1\n      sstore\n      pop\n        /* \"FundMe.sol\":399:686  function fund() public payable {... */\n      jump\t// out\n        /* \"FundMe.sol\":216:240  address[] public funders */\n    tag_45:\n      0x00\n      dup2\n      dup2\n      sload\n      dup2\n      lt\n      tag_97\n      jumpi\n      0x00\n      dup1\n      revert\n    tag_97:\n      swap1\n      0x00\n      mstore\n      keccak256(0x00, 0x20)\n      add\n      0x00\n      swap2\n      pop\n      sload\n      swap1\n      0x0100\n      exp\n      swap1\n      div\n      0xffffffffffffffffffffffffffffffffffffffff\n      and\n      dup2\n      jump\t// out\n    tag_63:\n      dup3\n      dup1\n      sload\n      dup3\n      dup3\n      sstore\n      swap1\n      0x00\n      mstore\n      keccak256(0x00, 0x20)\n      swap1\n      dup2\n      add\n      swap3\n      dup3\n      iszero\n      tag_99\n      jumpi\n      swap2\n      0x20\n      mul\n      dup3\n      add\n    tag_100:\n      dup3\n      dup2\n      gt\n      iszero\n      tag_101\n      jumpi\n      dup3\n      mload\n      dup3\n      exp(0x0100, 0x00)\n      dup2\n      sload\n      dup2\n      0xffffffffffffffffffffffffffffffffffffffff\n      mul\n      not\n      and\n      swap1\n      dup4\n      0xffffffffffffffffffffffffffffffffffffffff\n      and\n      mul\n      or\n      swap1\n      sstore\n      pop\n      swap2\n      0x20\n      add\n      swap2\n      swap1\n      0x01\n      add\n      swap1\n      jump(tag_100)\n    tag_101:\n    tag_99:\n      pop\n      swap1\n      pop\n      tag_102\n      swap2\n      swap1\n      tag_103\n      jump\t// in\n    tag_102:\n      pop\n      swap1\n      jump\t// out\n    tag_103:\n    tag_104:\n      dup1\n      dup3\n      gt\n      iszero\n      tag_105\n      jumpi\n      0x00\n      dup2\n      0x00\n      swap1\n      sstore\n      pop\n      0x01\n      add\n      jump(tag_104)\n    tag_105:\n      pop\n      swap1\n      jump\t// out\n        /* \"#utility.yul\":7:84   */\n    tag_106:\n        /* \"#utility.yul\":44:51   */\n      0x00\n        /* \"#utility.yul\":73:78   */\n      dup2\n        /* \"#utility.yul\":62:78   */\n      swap1\n      pop\n        /* \"#utility.yul\":7:84   */\n      swap2\n      swap1\n      pop\n      jump\t// out\n        /* \"#utility.yul\":90:208   */\n    tag_107:\n        /* \"#utility.yul\":177:201   */\n      tag_140\n        /* \"#utility.yul\":195:200   */\n      dup2\n        /* \"#utility.yul\":177:201   */\n      tag_106\n      jump\t// in\n    tag_140:\n        /* \"#utility.yul\":172:175   */\n      dup3\n        /* \"#utility.yul\":165:202   */\n      mstore\n        /* \"#utility.yul\":90:208   */\n      pop\n      pop\n      jump\t// out\n        /* \"#utility.yul\":214:436   */\n    tag_15:\n        /* \"#utility.yul\":307:311   */\n      0x00\n        /* \"#utility.yul\":345:347   */\n      0x20\n        /* \"#utility.yul\":334:343   */\n      dup3\n        /* \"#utility.yul\":330:348   */\n      add\n        /* \"#utility.yul\":322:348   */\n      swap1\n      pop\n        /* \"#utility.yul\":358:429   */\n      tag_142\n        /* \"#utility.yul\":426:427   */\n      0x00\n        /* \"#utility.yul\":415:424   */\n      dup4\n        /* \"#utility.yul\":411:428   */\n      add\n        /* \"#utility.yul\":402:408   */\n      dup5\n        /* \"#utility.yul\":358:429   */\n      tag_107\n      jump\t// in\n    tag_142:\n        /* \"#utility.yul\":214:436   */\n      swap3\n      swap2\n      pop\n      pop\n      jump\t// out\n        /* \"#utility.yul\":523:640   */\n    tag_109:\n        /* \"#utility.yul\":632:633   */\n      0x00\n        /* \"#utility.yul\":629:630   */\n      0x00\n        /* \"#utility.yul\":622:634   */\n      revert\n        /* \"#utility.yul\":769:895   */\n    tag_111:\n        /* \"#utility.yul\":806:813   */\n      0x00\n        /* \"#utility.yul\":846:888   */\n      0xffffffffffffffffffffffffffffffffffffffff\n        /* \"#utility.yul\":839:844   */\n      dup3\n        /* \"#utility.yul\":835:889   */\n      and\n        /* \"#utility.yul\":824:889   */\n      swap1\n      pop\n        /* \"#utility.yul\":769:895   */\n      swap2\n      swap1\n      pop\n      jump\t// out\n        /* \"#utility.yul\":901:997   */\n    tag_112:\n        /* \"#utility.yul\":938:945   */\n      0x00\n        /* \"#utility.yul\":967:991   */\n      tag_148\n        /* \"#utility.yul\":985:990   */\n      dup3\n        /* \"#utility.yul\":967:991   */\n      tag_111\n      jump\t// in\n    tag_148:\n        /* \"#utility.yul\":956:991   */\n      swap1\n      pop\n        /* \"#utility.yul\":901:997   */\n      swap2\n      swap1\n      pop\n      jump\t// out\n        /* \"#utility.yul\":1003:1125   */\n    tag_113:\n        /* \"#utility.yul\":1076:1100   */\n      tag_150\n        /* \"#utility.yul\":1094:1099   */\n      dup2\n        /* \"#utility.yul\":1076:1100   */\n      tag_112\n      jump\t// in\n    tag_150:\n        /* \"#utility.yul\":1069:1074   */\n      dup2\n        /* \"#utility.yul\":1066:1101   */\n      eq\n        /* \"#utility.yul\":1056:1119   */\n      tag_151\n      jumpi\n        /* \"#utility.yul\":1115:1116   */\n      0x00\n        /* \"#utility.yul\":1112:1113   */\n      0x00\n        /* \"#utility.yul\":1105:1117   */\n      revert\n        /* \"#utility.yul\":1056:1119   */\n    tag_151:\n        /* \"#utility.yul\":1003:1125   */\n      pop\n      jump\t// out\n        /* \"#utility.yul\":1131:1270   */\n    tag_114:\n        /* \"#utility.yul\":1177:1182   */\n      0x00\n        /* \"#utility.yul\":1215:1221   */\n      dup2\n        /* \"#utility.yul\":1202:1222   */\n      calldataload\n        /* \"#utility.yul\":1193:1222   */\n      swap1\n      pop\n        /* \"#utility.yul\":1231:1264   */\n      tag_153\n        /* \"#utility.yul\":1258:1263   */\n      dup2\n        /* \"#utility.yul\":1231:1264   */\n      tag_113\n      jump\t// in\n    tag_153:\n        /* \"#utility.yul\":1131:1270   */\n      swap3\n      swap2\n      pop\n      pop\n      jump\t// out\n        /* \"#utility.yul\":1276:1605   */\n    tag_22:\n        /* \"#utility.yul\":1335:1341   */\n      0x00\n        /* \"#utility.yul\":1384:1386   */\n      0x20\n        /* \"#utility.yul\":1372:1381   */\n      dup3\n        /* \"#utility.yul\":1363:1370   */\n      dup5\n        /* \"#utility.yul\":1359:1382   */\n      sub\n        /* \"#utility.yul\":1355:1387   */\n      slt\n        /* \"#utility.yul\":1352:1471   */\n      iszero\n      tag_155\n      jumpi\n        /* \"#utility.yul\":1390:1469   */\n      tag_156\n      tag_109\n      jump\t// in\n    tag_156:\n        /* \"#utility.yul\":1352:1471   */\n    tag_155:\n        /* \"#utility.yul\":1510:1511   */\n      0x00\n        /* \"#utility.yul\":1535:1588   */\n      tag_157\n        /* \"#utility.yul\":1580:1587   */\n      dup5\n        /* \"#utility.yul\":1571:1577   */\n      dup3\n        /* \"#utility.yul\":1560:1569   */\n      dup6\n        /* \"#utility.yul\":1556:1578   */\n      add\n        /* \"#utility.yul\":1535:1588   */\n      tag_114\n      jump\t// in\n    tag_157:\n        /* \"#utility.yul\":1525:1588   */\n      swap2\n      pop\n        /* \"#utility.yul\":1481:1598   */\n      pop\n        /* \"#utility.yul\":1276:1605   */\n      swap3\n      swap2\n      pop\n      pop\n      jump\t// out\n        /* \"#utility.yul\":1611:1733   */\n    tag_115:\n        /* \"#utility.yul\":1684:1708   */\n      tag_159\n        /* \"#utility.yul\":1702:1707   */\n      dup2\n        /* \"#utility.yul\":1684:1708   */\n      tag_106\n      jump\t// in\n    tag_159:\n        /* \"#utility.yul\":1677:1682   */\n      dup2\n        /* \"#utility.yul\":1674:1709   */\n      eq\n        /* \"#utility.yul\":1664:1727   */\n      tag_160\n      jumpi\n        /* \"#utility.yul\":1723:1724   */\n      0x00\n        /* \"#utility.yul\":1720:1721   */\n      0x00\n        /* \"#utility.yul\":1713:1725   */\n      revert\n        /* \"#utility.yul\":1664:1727   */\n    tag_160:\n        /* \"#utility.yul\":1611:1733   */\n      pop\n      jump\t// out\n        /* \"#utility.yul\":1739:1878   */\n    tag_116:\n        /* \"#utility.yul\":1785:1790   */\n      0x00\n        /* \"#utility.yul\":1823:1829   */\n      dup2\n        /* \"#utility.yul\":1810:1830   */\n      calldataload\n        /* \"#utility.yul\":1801:1830   */\n      swap1\n      pop\n        /* \"#utility.yul\":1839:1872   */\n      tag_162\n        /* \"#utility.yul\":1866:1871   */\n      dup2\n        /* \"#utility.yul\":1839:1872   */\n      tag_115\n      jump\t// in\n    tag_162:\n        /* \"#utility.yul\":1739:1878   */\n      swap3\n      swap2\n      pop\n      pop\n      jump\t// out\n        /* \"#utility.yul\":1884:2213   */\n    tag_28:\n        /* \"#utility.yul\":1943:1949   */\n      0x00\n        /* \"#utility.yul\":1992:1994   */\n      0x20\n        /* \"#utility.yul\":1980:1989   */\n      dup3\n        /* \"#utility.yul\":1971:1978   */\n      dup5\n        /* \"#utility.yul\":1967:1990   */\n      sub\n        /* \"#utility.yul\":1963:1995   */\n      slt\n        /* \"#utility.yul\":1960:2079   */\n      iszero\n      tag_164\n      jumpi\n        /* \"#utility.yul\":1998:2077   */\n      tag_165\n      tag_109\n      jump\t// in\n    tag_165:\n        /* \"#utility.yul\":1960:2079   */\n    tag_164:\n        /* \"#utility.yul\":2118:2119   */\n      0x00\n        /* \"#utility.yul\":2143:2196   */\n      tag_166\n        /* \"#utility.yul\":2188:2195   */\n      dup5\n        /* \"#utility.yul\":2179:2185   */\n      dup3\n        /* \"#utility.yul\":2168:2177   */\n      dup6\n        /* \"#utility.yul\":2164:2186   */\n      add\n        /* \"#utility.yul\":2143:2196   */\n      tag_116\n      jump\t// in\n    tag_166:\n        /* \"#utility.yul\":2133:2196   */\n      swap2\n      pop\n        /* \"#utility.yul\":2089:2206   */\n      pop\n        /* \"#utility.yul\":1884:2213   */\n      swap3\n      swap2\n      pop\n      pop\n      jump\t// out\n        /* \"#utility.yul\":2219:2337   */\n    tag_117:\n        /* \"#utility.yul\":2306:2330   */\n      tag_168\n        /* \"#utility.yul\":2324:2329   */\n      dup2\n        /* \"#utility.yul\":2306:2330   */\n      tag_112\n      jump\t// in\n    tag_168:\n        /* \"#utility.yul\":2301:2304   */\n      dup3\n        /* \"#utility.yul\":2294:2331   */\n      mstore\n        /* \"#utility.yul\":2219:2337   */\n      pop\n      pop\n      jump\t// out\n        /* \"#utility.yul\":2343:2565   */\n    tag_35:\n        /* \"#utility.yul\":2436:2440   */\n      0x00\n        /* \"#utility.yul\":2474:2476   */\n      0x20\n        /* \"#utility.yul\":2463:2472   */\n      dup3\n        /* \"#utility.yul\":2459:2477   */\n      add\n        /* \"#utility.yul\":2451:2477   */\n      swap1\n      pop\n        /* \"#utility.yul\":2487:2558   */\n      tag_170\n        /* \"#utility.yul\":2555:2556   */\n      0x00\n        /* \"#utility.yul\":2544:2553   */\n      dup4\n        /* \"#utility.yul\":2540:2557   */\n      add\n        /* \"#utility.yul\":2531:2537   */\n      dup5\n        /* \"#utility.yul\":2487:2558   */\n      tag_117\n      jump\t// in\n    tag_170:\n        /* \"#utility.yul\":2343:2565   */\n      swap3\n      swap2\n      pop\n      pop\n      jump\t// out\n        /* \"#utility.yul\":2571:2740   */\n    tag_118:\n        /* \"#utility.yul\":2655:2666   */\n      0x00\n        /* \"#utility.yul\":2689:2695   */\n      dup3\n        /* \"#utility.yul\":2684:2687   */\n      dup3\n        /* \"#utility.yul\":2677:2696   */\n      mstore\n        /* \"#utility.yul\":2729:2733   */\n      0x20\n        /* \"#utility.yul\":2724:2727   */\n      dup3\n        /* \"#utility.yul\":2720:2734   */\n      add\n        /* \"#utility.yul\":2705:2734   */\n      swap1\n      pop\n        /* \"#utility.yul\":2571:2740   */\n      swap3\n      swap2\n      pop\n      pop\n      jump\t// out\n        /* \"#utility.yul\":2746:2909   */\n    tag_119:\n        /* \"#utility.yul\":2886:2901   */\n      0x4d757374206265206f776e657200000000000000000000000000000000000000\n        /* \"#utility.yul\":2882:2883   */\n      0x00\n        /* \"#utility.yul\":2874:2880   */\n      dup3\n        /* \"#utility.yul\":2870:2884   */\n      add\n        /* \"#utility.yul\":2863:2902   */\n      mstore\n        /* \"#utility.yul\":2746:2909   */\n      pop\n      jump\t// out\n        /* \"#utility.yul\":2915:3281   */\n    tag_120:\n        /* \"#utility.yul\":3057:3060   */\n      0x00\n        /* \"#utility.yul\":3078:3145   */\n      tag_174\n        /* \"#utility.yul\":3142:3144   */\n      0x0d\n        /* \"#utility.yul\":3137:3140   */\n      dup4\n        /* \"#utility.yul\":3078:3145   */\n      tag_118\n      jump\t// in\n    tag_174:\n        /* \"#utility.yul\":3071:3145   */\n      swap2\n      pop\n        /* \"#utility.yul\":3154:3247   */\n      tag_175\n        /* \"#utility.yul\":3243:3246   */\n      dup3\n        /* \"#utility.yul\":3154:3247   */\n      tag_119\n      jump\t// in\n    tag_175:\n        /* \"#utility.yul\":3272:3274   */\n      0x20\n        /* \"#utility.yul\":3267:3270   */\n      dup3\n        /* \"#utility.yul\":3263:3275   */\n      add\n        /* \"#utility.yul\":3256:3275   */\n      swap1\n      pop\n        /* \"#utility.yul\":2915:3281   */\n      swap2\n      swap1\n      pop\n      jump\t// out\n        /* \"#utility.yul\":3287:3706   */\n    tag_50:\n        /* \"#utility.yul\":3453:3457   */\n      0x00\n        /* \"#utility.yul\":3491:3493   */\n      0x20\n        /* \"#utility.yul\":3480:3489   */\n      dup3\n        /* \"#utility.yul\":3476:3494   */\n      add\n        /* \"#utility.yul\":3468:3494   */\n      swap1\n      pop\n        /* \"#utility.yul\":3540:3549   */\n      dup2\n        /* \"#utility.yul\":3534:3538   */\n      dup2\n        /* \"#utility.yul\":3530:3550   */\n      sub\n        /* \"#utility.yul\":3526:3527   */\n      0x00\n        /* \"#utility.yul\":3515:3524   */\n      dup4\n        /* \"#utility.yul\":3511:3528   */\n      add\n        /* \"#utility.yul\":3504:3551   */\n      mstore\n        /* \"#utility.yul\":3568:3699   */\n      tag_177\n        /* \"#utility.yul\":3694:3698   */\n      dup2\n        /* \"#utility.yul\":3568:3699   */\n      tag_120\n      jump\t// in\n    tag_177:\n        /* \"#utility.yul\":3560:3699   */\n      swap1\n      pop\n        /* \"#utility.yul\":3287:3706   */\n      swap2\n      swap1\n      pop\n      jump\t// out\n        /* \"#utility.yul\":3712:3892   */\n    tag_56:\n        /* \"#utility.yul\":3760:3837   */\n      0x4e487b7100000000000000000000000000000000000000000000000000000000\n        /* \"#utility.yul\":3757:3758   */\n      0x00\n        /* \"#utility.yul\":3750:3838   */\n      mstore\n        /* \"#utility.yul\":3857:3861   */\n      0x32\n        /* \"#utility.yul\":3854:3855   */\n      0x04\n        /* \"#utility.yul\":3847:3862   */\n      mstore\n        /* \"#utility.yul\":3881:3885   */\n      0x24\n        /* \"#utility.yul\":3878:3879   */\n      0x00\n        /* \"#utility.yul\":3871:3886   */\n      revert\n        /* \"#utility.yul\":3898:4078   */\n    tag_60:\n        /* \"#utility.yul\":3946:4023   */\n      0x4e487b7100000000000000000000000000000000000000000000000000000000\n        /* \"#utility.yul\":3943:3944   */\n      0x00\n        /* \"#utility.yul\":3936:4024   */\n      mstore\n        /* \"#utility.yul\":4043:4047   */\n      0x41\n        /* \"#utility.yul\":4040:4041   */\n      0x04\n        /* \"#utility.yul\":4033:4048   */\n      mstore\n        /* \"#utility.yul\":4067:4071   */\n      0x24\n        /* \"#utility.yul\":4064:4065   */\n      0x00\n        /* \"#utility.yul\":4057:4072   */\n      revert\n        /* \"#utility.yul\":4084:4245   */\n    tag_121:\n        /* \"#utility.yul\":4224:4237   */\n      0x53656e64206661696c6564000000000000000000000000000000000000000000\n        /* \"#utility.yul\":4220:4221   */\n      0x00\n        /* \"#utility.yul\":4212:4218   */\n      dup3\n        /* \"#utility.yul\":4208:4222   */\n      add\n        /* \"#utility.yul\":4201:4238   */\n      mstore\n        /* \"#utility.yul\":4084:4245   */\n      pop\n      jump\t// out\n        /* \"#utility.yul\":4251:4617   */\n    tag_122:\n        /* \"#utility.yul\":4393:4396   */\n      0x00\n        /* \"#utility.yul\":4414:4481   */\n      tag_182\n        /* \"#utility.yul\":4478:4480   */\n      0x0b\n        /* \"#utility.yul\":4473:4476   */\n      dup4\n        /* \"#utility.yul\":4414:4481   */\n      tag_118\n      jump\t// in\n    tag_182:\n        /* \"#utility.yul\":4407:4481   */\n      swap2\n      pop\n        /* \"#utility.yul\":4490:4583   */\n      tag_183\n        /* \"#utility.yul\":4579:4582   */\n      dup3\n        /* \"#utility.yul\":4490:4583   */\n      tag_121\n      jump\t// in\n    tag_183:\n        /* \"#utility.yul\":4608:4610   */\n      0x20\n        /* \"#utility.yul\":4603:4606   */\n      dup3\n        /* \"#utility.yul\":4599:4611   */\n      add\n        /* \"#utility.yul\":4592:4611   */\n      swap1\n      pop\n        /* \"#utility.yul\":4251:4617   */\n      swap2\n      swap1\n      pop\n      jump\t// out\n        /* \"#utility.yul\":4623:5042   */\n    tag_69:\n        /* \"#utility.yul\":4789:4793   */\n      0x00\n        /* \"#utility.yul\":4827:4829   */\n      0x20\n        /* \"#utility.yul\":4816:4825   */\n      dup3\n        /* \"#utility.yul\":4812:4830   */\n      add\n        /* \"#utility.yul\":4804:4830   */\n      swap1\n      pop\n        /* \"#utility.yul\":4876:4885   */\n      dup2\n        /* \"#utility.yul\":4870:4874   */\n      dup2\n        /* \"#utility.yul\":4866:4886   */\n      sub\n        /* \"#utility.yul\":4862:4863   */\n      0x00\n        /* \"#utility.yul\":4851:4860   */\n      dup4\n        /* \"#utility.yul\":4847:4864   */\n      add\n        /* \"#utility.yul\":4840:4887   */\n      mstore\n        /* \"#utility.yul\":4904:5035   */\n      tag_185\n        /* \"#utility.yul\":5030:5034   */\n      dup2\n        /* \"#utility.yul\":4904:5035   */\n      tag_122\n      jump\t// in\n    tag_185:\n        /* \"#utility.yul\":4896:5035   */\n      swap1\n      pop\n        /* \"#utility.yul\":4623:5042   */\n      swap2\n      swap1\n      pop\n      jump\t// out\n        /* \"#utility.yul\":5048:5195   */\n    tag_123:\n        /* \"#utility.yul\":5149:5160   */\n      0x00\n        /* \"#utility.yul\":5186:5189   */\n      dup2\n        /* \"#utility.yul\":5171:5189   */\n      swap1\n      pop\n        /* \"#utility.yul\":5048:5195   */\n      swap3\n      swap2\n      pop\n      pop\n      jump\t// out\n        /* \"#utility.yul\":5201:5315   */\n    tag_124:\n      pop\n      jump\t// out\n        /* \"#utility.yul\":5321:5719   */\n    tag_125:\n        /* \"#utility.yul\":5480:5483   */\n      0x00\n        /* \"#utility.yul\":5501:5584   */\n      tag_189\n        /* \"#utility.yul\":5582:5583   */\n      0x00\n        /* \"#utility.yul\":5577:5580   */\n      dup4\n        /* \"#utility.yul\":5501:5584   */\n      tag_123\n      jump\t// in\n    tag_189:\n        /* \"#utility.yul\":5494:5584   */\n      swap2\n      pop\n        /* \"#utility.yul\":5593:5686   */\n      tag_190\n        /* \"#utility.yul\":5682:5685   */\n      dup3\n        /* \"#utility.yul\":5593:5686   */\n      tag_124\n      jump\t// in\n    tag_190:\n        /* \"#utility.yul\":5711:5712   */\n      0x00\n        /* \"#utility.yul\":5706:5709   */\n      dup3\n        /* \"#utility.yul\":5702:5713   */\n      add\n        /* \"#utility.yul\":5695:5713   */\n      swap1\n      pop\n        /* \"#utility.yul\":5321:5719   */\n      swap2\n      swap1\n      pop\n      jump\t// out\n        /* \"#utility.yul\":5725:6104   */\n    tag_71:\n        /* \"#utility.yul\":5909:5912   */\n      0x00\n        /* \"#utility.yul\":5931:6078   */\n      tag_192\n        /* \"#utility.yul\":6074:6077   */\n      dup3\n        /* \"#utility.yul\":5931:6078   */\n      tag_125\n      jump\t// in\n    tag_192:\n        /* \"#utility.yul\":5924:6078   */\n      swap2\n      pop\n        /* \"#utility.yul\":6095:6098   */\n      dup2\n        /* \"#utility.yul\":6088:6098   */\n      swap1\n      pop\n        /* \"#utility.yul\":5725:6104   */\n      swap2\n      swap1\n      pop\n      jump\t// out\n        /* \"#utility.yul\":6110:6290   */\n    tag_126:\n        /* \"#utility.yul\":6158:6235   */\n      0x4e487b7100000000000000000000000000000000000000000000000000000000\n        /* \"#utility.yul\":6155:6156   */\n      0x00\n        /* \"#utility.yul\":6148:6236   */\n      mstore\n        /* \"#utility.yul\":6255:6259   */\n      0x11\n        /* \"#utility.yul\":6252:6253   */\n      0x04\n        /* \"#utility.yul\":6245:6260   */\n      mstore\n        /* \"#utility.yul\":6279:6283   */\n      0x24\n        /* \"#utility.yul\":6276:6277   */\n      0x00\n        /* \"#utility.yul\":6269:6284   */\n      revert\n        /* \"#utility.yul\":6296:6706   */\n    tag_78:\n        /* \"#utility.yul\":6336:6343   */\n      0x00\n        /* \"#utility.yul\":6359:6379   */\n      tag_195\n        /* \"#utility.yul\":6377:6378   */\n      dup3\n        /* \"#utility.yul\":6359:6379   */\n      tag_106\n      jump\t// in\n    tag_195:\n        /* \"#utility.yul\":6354:6379   */\n      swap2\n      pop\n        /* \"#utility.yul\":6393:6413   */\n      tag_196\n        /* \"#utility.yul\":6411:6412   */\n      dup4\n        /* \"#utility.yul\":6393:6413   */\n      tag_106\n      jump\t// in\n    tag_196:\n        /* \"#utility.yul\":6388:6413   */\n      swap3\n      pop\n        /* \"#utility.yul\":6448:6449   */\n      dup3\n        /* \"#utility.yul\":6445:6446   */\n      dup3\n        /* \"#utility.yul\":6441:6450   */\n      mul\n        /* \"#utility.yul\":6470:6500   */\n      tag_197\n        /* \"#utility.yul\":6488:6499   */\n      dup2\n        /* \"#utility.yul\":6470:6500   */\n      tag_106\n      jump\t// in\n    tag_197:\n        /* \"#utility.yul\":6459:6500   */\n      swap2\n      pop\n        /* \"#utility.yul\":6649:6650   */\n      dup3\n        /* \"#utility.yul\":6640:6647   */\n      dup3\n        /* \"#utility.yul\":6636:6651   */\n      div\n        /* \"#utility.yul\":6633:6634   */\n      dup5\n        /* \"#utility.yul\":6630:6652   */\n      eq\n        /* \"#utility.yul\":6610:6611   */\n      dup4\n        /* \"#utility.yul\":6603:6612   */\n      iszero\n        /* \"#utility.yul\":6583:6666   */\n      or\n        /* \"#utility.yul\":6560:6699   */\n      tag_198\n      jumpi\n        /* \"#utility.yul\":6679:6697   */\n      tag_199\n      tag_126\n      jump\t// in\n    tag_199:\n        /* \"#utility.yul\":6560:6699   */\n    tag_198:\n        /* \"#utility.yul\":6344:6706   */\n      pop\n        /* \"#utility.yul\":6296:6706   */\n      swap3\n      swap2\n      pop\n      pop\n      jump\t// out\n        /* \"#utility.yul\":6712:6892   */\n    tag_127:\n        /* \"#utility.yul\":6760:6837   */\n      0x4e487b7100000000000000000000000000000000000000000000000000000000\n        /* \"#utility.yul\":6757:6758   */\n      0x00\n        /* \"#utility.yul\":6750:6838   */\n      mstore\n        /* \"#utility.yul\":6857:6861   */\n      0x12\n        /* \"#utility.yul\":6854:6855   */\n      0x04\n        /* \"#utility.yul\":6847:6862   */\n      mstore\n        /* \"#utility.yul\":6881:6885   */\n      0x24\n        /* \"#utility.yul\":6878:6879   */\n      0x00\n        /* \"#utility.yul\":6871:6886   */\n      revert\n        /* \"#utility.yul\":6898:7083   */\n    tag_80:\n        /* \"#utility.yul\":6938:6939   */\n      0x00\n        /* \"#utility.yul\":6955:6975   */\n      tag_202\n        /* \"#utility.yul\":6973:6974   */\n      dup3\n        /* \"#utility.yul\":6955:6975   */\n      tag_106\n      jump\t// in\n    tag_202:\n        /* \"#utility.yul\":6950:6975   */\n      swap2\n      pop\n        /* \"#utility.yul\":6989:7009   */\n      tag_203\n        /* \"#utility.yul\":7007:7008   */\n      dup4\n        /* \"#utility.yul\":6989:7009   */\n      tag_106\n      jump\t// in\n    tag_203:\n        /* \"#utility.yul\":6984:7009   */\n      swap3\n      pop\n        /* \"#utility.yul\":7028:7029   */\n      dup3\n        /* \"#utility.yul\":7018:7053   */\n      tag_204\n      jumpi\n        /* \"#utility.yul\":7033:7051   */\n      tag_205\n      tag_127\n      jump\t// in\n    tag_205:\n        /* \"#utility.yul\":7018:7053   */\n    tag_204:\n        /* \"#utility.yul\":7075:7076   */\n      dup3\n        /* \"#utility.yul\":7072:7073   */\n      dup3\n        /* \"#utility.yul\":7068:7077   */\n      div\n        /* \"#utility.yul\":7063:7077   */\n      swap1\n      pop\n        /* \"#utility.yul\":6898:7083   */\n      swap3\n      swap2\n      pop\n      pop\n      jump\t// out\n        /* \"#utility.yul\":7089:7194   */\n    tag_128:\n        /* \"#utility.yul\":7125:7132   */\n      0x00\n        /* \"#utility.yul\":7165:7187   */\n      0xffffffffffffffffffff\n        /* \"#utility.yul\":7158:7163   */\n      dup3\n        /* \"#utility.yul\":7154:7188   */\n      and\n        /* \"#utility.yul\":7143:7188   */\n      swap1\n      pop\n        /* \"#utility.yul\":7089:7194   */\n      swap2\n      swap1\n      pop\n      jump\t// out\n        /* \"#utility.yul\":7200:7320   */\n    tag_129:\n        /* \"#utility.yul\":7272:7295   */\n      tag_208\n        /* \"#utility.yul\":7289:7294   */\n      dup2\n        /* \"#utility.yul\":7272:7295   */\n      tag_128\n      jump\t// in\n    tag_208:\n        /* \"#utility.yul\":7265:7270   */\n      dup2\n        /* \"#utility.yul\":7262:7296   */\n      eq\n        /* \"#utility.yul\":7252:7314   */\n      tag_209\n      jumpi\n        /* \"#utility.yul\":7310:7311   */\n      0x00\n        /* \"#utility.yul\":7307:7308   */\n      0x00\n        /* \"#utility.yul\":7300:7312   */\n      revert\n        /* \"#utility.yul\":7252:7314   */\n    tag_209:\n        /* \"#utility.yul\":7200:7320   */\n      pop\n      jump\t// out\n        /* \"#utility.yul\":7326:7467   */\n    tag_130:\n        /* \"#utility.yul\":7382:7387   */\n      0x00\n        /* \"#utility.yul\":7413:7419   */\n      dup2\n        /* \"#utility.yul\":7407:7420   */\n      mload\n        /* \"#utility.yul\":7398:7420   */\n      swap1\n      pop\n        /* \"#utility.yul\":7429:7461   */\n      tag_211\n        /* \"#utility.yul\":7455:7460   */\n      dup2\n        /* \"#utility.yul\":7429:7461   */\n      tag_129\n      jump\t// in\n    tag_211:\n        /* \"#utility.yul\":7326:7467   */\n      swap3\n      swap2\n      pop\n      pop\n      jump\t// out\n        /* \"#utility.yul\":7473:7549   */\n    tag_131:\n        /* \"#utility.yul\":7509:7516   */\n      0x00\n        /* \"#utility.yul\":7538:7543   */\n      dup2\n        /* \"#utility.yul\":7527:7543   */\n      swap1\n      pop\n        /* \"#utility.yul\":7473:7549   */\n      swap2\n      swap1\n      pop\n      jump\t// out\n        /* \"#utility.yul\":7555:7675   */\n    tag_132:\n        /* \"#utility.yul\":7627:7650   */\n      tag_214\n        /* \"#utility.yul\":7644:7649   */\n      dup2\n        /* \"#utility.yul\":7627:7650   */\n      tag_131\n      jump\t// in\n    tag_214:\n        /* \"#utility.yul\":7620:7625   */\n      dup2\n        /* \"#utility.yul\":7617:7651   */\n      eq\n        /* \"#utility.yul\":7607:7669   */\n      tag_215\n      jumpi\n        /* \"#utility.yul\":7665:7666   */\n      0x00\n        /* \"#utility.yul\":7662:7663   */\n      0x00\n        /* \"#utility.yul\":7655:7667   */\n      revert\n        /* \"#utility.yul\":7607:7669   */\n    tag_215:\n        /* \"#utility.yul\":7555:7675   */\n      pop\n      jump\t// out\n        /* \"#utility.yul\":7681:7822   */\n    tag_133:\n        /* \"#utility.yul\":7737:7742   */\n      0x00\n        /* \"#utility.yul\":7768:7774   */\n      dup2\n        /* \"#utility.yul\":7762:7775   */\n      mload\n        /* \"#utility.yul\":7753:7775   */\n      swap1\n      pop\n        /* \"#utility.yul\":7784:7816   */\n      tag_217\n        /* \"#utility.yul\":7810:7815   */\n      dup2\n        /* \"#utility.yul\":7784:7816   */\n      tag_132\n      jump\t// in\n    tag_217:\n        /* \"#utility.yul\":7681:7822   */\n      swap3\n      swap2\n      pop\n      pop\n      jump\t// out\n        /* \"#utility.yul\":7828:7971   */\n    tag_134:\n        /* \"#utility.yul\":7885:7890   */\n      0x00\n        /* \"#utility.yul\":7916:7922   */\n      dup2\n        /* \"#utility.yul\":7910:7923   */\n      mload\n        /* \"#utility.yul\":7901:7923   */\n      swap1\n      pop\n        /* \"#utility.yul\":7932:7965   */\n      tag_219\n        /* \"#utility.yul\":7959:7964   */\n      dup2\n        /* \"#utility.yul\":7932:7965   */\n      tag_115\n      jump\t// in\n    tag_219:\n        /* \"#utility.yul\":7828:7971   */\n      swap3\n      swap2\n      pop\n      pop\n      jump\t// out\n        /* \"#utility.yul\":7977:8948   */\n    tag_85:\n        /* \"#utility.yul\":8080:8086   */\n      0x00\n        /* \"#utility.yul\":8088:8094   */\n      0x00\n        /* \"#utility.yul\":8096:8102   */\n      0x00\n        /* \"#utility.yul\":8104:8110   */\n      0x00\n        /* \"#utility.yul\":8112:8118   */\n      0x00\n        /* \"#utility.yul\":8161:8164   */\n      0xa0\n        /* \"#utility.yul\":8149:8158   */\n      dup7\n        /* \"#utility.yul\":8140:8147   */\n      dup9\n        /* \"#utility.yul\":8136:8159   */\n      sub\n        /* \"#utility.yul\":8132:8165   */\n      slt\n        /* \"#utility.yul\":8129:8249   */\n      iszero\n      tag_221\n      jumpi\n        /* \"#utility.yul\":8168:8247   */\n      tag_222\n      tag_109\n      jump\t// in\n    tag_222:\n        /* \"#utility.yul\":8129:8249   */\n    tag_221:\n        /* \"#utility.yul\":8288:8289   */\n      0x00\n        /* \"#utility.yul\":8313:8376   */\n      tag_223\n        /* \"#utility.yul\":8368:8375   */\n      dup9\n        /* \"#utility.yul\":8359:8365   */\n      dup3\n        /* \"#utility.yul\":8348:8357   */\n      dup10\n        /* \"#utility.yul\":8344:8366   */\n      add\n        /* \"#utility.yul\":8313:8376   */\n      tag_130\n      jump\t// in\n    tag_223:\n        /* \"#utility.yul\":8303:8376   */\n      swap6\n      pop\n        /* \"#utility.yul\":8259:8386   */\n      pop\n        /* \"#utility.yul\":8425:8427   */\n      0x20\n        /* \"#utility.yul\":8451:8514   */\n      tag_224\n        /* \"#utility.yul\":8506:8513   */\n      dup9\n        /* \"#utility.yul\":8497:8503   */\n      dup3\n        /* \"#utility.yul\":8486:8495   */\n      dup10\n        /* \"#utility.yul\":8482:8504   */\n      add\n        /* \"#utility.yul\":8451:8514   */\n      tag_133\n      jump\t// in\n    tag_224:\n        /* \"#utility.yul\":8441:8514   */\n      swap5\n      pop\n        /* \"#utility.yul\":8396:8524   */\n      pop\n        /* \"#utility.yul\":8563:8565   */\n      0x40\n        /* \"#utility.yul\":8589:8653   */\n      tag_225\n        /* \"#utility.yul\":8645:8652   */\n      dup9\n        /* \"#utility.yul\":8636:8642   */\n      dup3\n        /* \"#utility.yul\":8625:8634   */\n      dup10\n        /* \"#utility.yul\":8621:8643   */\n      add\n        /* \"#utility.yul\":8589:8653   */\n      tag_134\n      jump\t// in\n    tag_225:\n        /* \"#utility.yul\":8579:8653   */\n      swap4\n      pop\n        /* \"#utility.yul\":8534:8663   */\n      pop\n        /* \"#utility.yul\":8702:8704   */\n      0x60\n        /* \"#utility.yul\":8728:8792   */\n      tag_226\n        /* \"#utility.yul\":8784:8791   */\n      dup9\n        /* \"#utility.yul\":8775:8781   */\n      dup3\n        /* \"#utility.yul\":8764:8773   */\n      dup10\n        /* \"#utility.yul\":8760:8782   */\n      add\n        /* \"#utility.yul\":8728:8792   */\n      tag_134\n      jump\t// in\n    tag_226:\n        /* \"#utility.yul\":8718:8792   */\n      swap3\n      pop\n        /* \"#utility.yul\":8673:8802   */\n      pop\n        /* \"#utility.yul\":8841:8844   */\n      0x80\n        /* \"#utility.yul\":8868:8931   */\n      tag_227\n        /* \"#utility.yul\":8923:8930   */\n      dup9\n        /* \"#utility.yul\":8914:8920   */\n      dup3\n        /* \"#utility.yul\":8903:8912   */\n      dup10\n        /* \"#utility.yul\":8899:8921   */\n      add\n        /* \"#utility.yul\":8868:8931   */\n      tag_130\n      jump\t// in\n    tag_227:\n        /* \"#utility.yul\":8858:8931   */\n      swap2\n      pop\n        /* \"#utility.yul\":8812:8941   */\n      pop\n        /* \"#utility.yul\":7977:8948   */\n      swap3\n      swap6\n      pop\n      swap3\n      swap6\n      swap1\n      swap4\n      pop\n      jump\t// out\n        /* \"#utility.yul\":8954:9510   */\n    tag_87:\n        /* \"#utility.yul\":8993:9000   */\n      0x00\n        /* \"#utility.yul\":9016:9035   */\n      tag_229\n        /* \"#utility.yul\":9033:9034   */\n      dup3\n        /* \"#utility.yul\":9016:9035   */\n      tag_131\n      jump\t// in\n    tag_229:\n        /* \"#utility.yul\":9011:9035   */\n      swap2\n      pop\n        /* \"#utility.yul\":9049:9068   */\n      tag_230\n        /* \"#utility.yul\":9066:9067   */\n      dup4\n        /* \"#utility.yul\":9049:9068   */\n      tag_131\n      jump\t// in\n    tag_230:\n        /* \"#utility.yul\":9044:9068   */\n      swap3\n      pop\n        /* \"#utility.yul\":9103:9104   */\n      dup3\n        /* \"#utility.yul\":9100:9101   */\n      dup3\n        /* \"#utility.yul\":9096:9105   */\n      mul\n        /* \"#utility.yul\":9125:9154   */\n      tag_231\n        /* \"#utility.yul\":9142:9153   */\n      dup2\n        /* \"#utility.yul\":9125:9154   */\n      tag_131\n      jump\t// in\n    tag_231:\n        /* \"#utility.yul\":9114:9154   */\n      swap2\n      pop\n        /* \"#utility.yul\":9212:9278   */\n      0x8000000000000000000000000000000000000000000000000000000000000000\n        /* \"#utility.yul\":9209:9210   */\n      dup5\n        /* \"#utility.yul\":9206:9279   */\n      eq\n        /* \"#utility.yul\":9202:9203   */\n      0x00\n        /* \"#utility.yul\":9199:9200   */\n      dup5\n        /* \"#utility.yul\":9195:9204   */\n      slt\n        /* \"#utility.yul\":9191:9280   */\n      and\n        /* \"#utility.yul\":9188:9303   */\n      iszero\n      tag_232\n      jumpi\n        /* \"#utility.yul\":9283:9301   */\n      tag_233\n      tag_126\n      jump\t// in\n    tag_233:\n        /* \"#utility.yul\":9188:9303   */\n    tag_232:\n        /* \"#utility.yul\":9453:9454   */\n      dup3\n        /* \"#utility.yul\":9444:9451   */\n      dup3\n        /* \"#utility.yul\":9439:9455   */\n      sdiv\n        /* \"#utility.yul\":9436:9437   */\n      dup5\n        /* \"#utility.yul\":9433:9456   */\n      eq\n        /* \"#utility.yul\":9413:9414   */\n      dup4\n        /* \"#utility.yul\":9406:9415   */\n      iszero\n        /* \"#utility.yul\":9386:9470   */\n      or\n        /* \"#utility.yul\":9363:9503   */\n      tag_234\n      jumpi\n        /* \"#utility.yul\":9483:9501   */\n      tag_235\n      tag_126\n      jump\t// in\n    tag_235:\n        /* \"#utility.yul\":9363:9503   */\n    tag_234:\n        /* \"#utility.yul\":9001:9510   */\n      pop\n        /* \"#utility.yul\":8954:9510   */\n      swap3\n      swap2\n      pop\n      pop\n      jump\t// out\n        /* \"#utility.yul\":9516:9684   */\n    tag_135:\n        /* \"#utility.yul\":9656:9676   */\n      0x4469646e27742073656e6420656e6f7567680000000000000000000000000000\n        /* \"#utility.yul\":9652:9653   */\n      0x00\n        /* \"#utility.yul\":9644:9650   */\n      dup3\n        /* \"#utility.yul\":9640:9654   */\n      add\n        /* \"#utility.yul\":9633:9677   */\n      mstore\n        /* \"#utility.yul\":9516:9684   */\n      pop\n      jump\t// out\n        /* \"#utility.yul\":9690:10056   */\n    tag_136:\n        /* \"#utility.yul\":9832:9835   */\n      0x00\n        /* \"#utility.yul\":9853:9920   */\n      tag_238\n        /* \"#utility.yul\":9917:9919   */\n      0x12\n        /* \"#utility.yul\":9912:9915   */\n      dup4\n        /* \"#utility.yul\":9853:9920   */\n      tag_118\n      jump\t// in\n    tag_238:\n        /* \"#utility.yul\":9846:9920   */\n      swap2\n      pop\n        /* \"#utility.yul\":9929:10022   */\n      tag_239\n        /* \"#utility.yul\":10018:10021   */\n      dup3\n        /* \"#utility.yul\":9929:10022   */\n      tag_135\n      jump\t// in\n    tag_239:\n        /* \"#utility.yul\":10047:10049   */\n      0x20\n        /* \"#utility.yul\":10042:10045   */\n      dup3\n        /* \"#utility.yul\":10038:10050   */\n      add\n        /* \"#utility.yul\":10031:10050   */\n      swap1\n      pop\n        /* \"#utility.yul\":9690:10056   */\n      swap2\n      swap1\n      pop\n      jump\t// out\n        /* \"#utility.yul\":10062:10481   */\n    tag_92:\n        /* \"#utility.yul\":10228:10232   */\n      0x00\n        /* \"#utility.yul\":10266:10268   */\n      0x20\n        /* \"#utility.yul\":10255:10264   */\n      dup3\n        /* \"#utility.yul\":10251:10269   */\n      add\n        /* \"#utility.yul\":10243:10269   */\n      swap1\n      pop\n        /* \"#utility.yul\":10315:10324   */\n      dup2\n        /* \"#utility.yul\":10309:10313   */\n      dup2\n        /* \"#utility.yul\":10305:10325   */\n      sub\n        /* \"#utility.yul\":10301:10302   */\n      0x00\n        /* \"#utility.yul\":10290:10299   */\n      dup4\n        /* \"#utility.yul\":10286:10303   */\n      add\n        /* \"#utility.yul\":10279:10326   */\n      mstore\n        /* \"#utility.yul\":10343:10474   */\n      tag_241\n        /* \"#utility.yul\":10469:10473   */\n      dup2\n        /* \"#utility.yul\":10343:10474   */\n      tag_136\n      jump\t// in\n    tag_241:\n        /* \"#utility.yul\":10335:10474   */\n      swap1\n      pop\n        /* \"#utility.yul\":10062:10481   */\n      swap2\n      swap1\n      pop\n      jump\t// out\n        /* \"#utility.yul\":10487:10678   */\n    tag_96:\n        /* \"#utility.yul\":10527:10530   */\n      0x00\n        /* \"#utility.yul\":10546:10566   */\n      tag_243\n        /* \"#utility.yul\":10564:10565   */\n      dup3\n        /* \"#utility.yul\":10546:10566   */\n      tag_106\n      jump\t// in\n    tag_243:\n        /* \"#utility.yul\":10541:10566   */\n      swap2\n      pop\n        /* \"#utility.yul\":10580:10600   */\n      tag_244\n        /* \"#utility.yul\":10598:10599   */\n      dup4\n        /* \"#utility.yul\":10580:10600   */\n      tag_106\n      jump\t// in\n    tag_244:\n        /* \"#utility.yul\":10575:10600   */\n      swap3\n      pop\n        /* \"#utility.yul\":10623:10624   */\n      dup3\n        /* \"#utility.yul\":10620:10621   */\n      dup3\n        /* \"#utility.yul\":10616:10625   */\n      add\n        /* \"#utility.yul\":10609:10625   */\n      swap1\n      pop\n        /* \"#utility.yul\":10644:10647   */\n      dup1\n        /* \"#utility.yul\":10641:10642   */\n      dup3\n        /* \"#utility.yul\":10638:10648   */\n      gt\n        /* \"#utility.yul\":10635:10671   */\n      iszero\n      tag_245\n      jumpi\n        /* \"#utility.yul\":10651:10669   */\n      tag_246\n      tag_126\n      jump\t// in\n    tag_246:\n        /* \"#utility.yul\":10635:10671   */\n    tag_245:\n        /* \"#utility.yul\":10487:10678   */\n      swap3\n      swap2\n      pop\n      pop\n      jump\t// out\n\n    auxdata: 0xa264697066735822122018813838644aed219341f2d9775bd44eadfb41397807bea4094c17dcf9cb06f764736f6c634300081f0033\n}\n",
				"bytecode": {
					"linkReferences": {},
					"object": "6080604052348015600e575f5ffd5b503360025f6101000a81548173ffffffffffffffffffffffffffffffffffffffff021916908373ffffffffffffffffffffffffffffffffffffffff160217905550610d8b8061005c5f395ff3fe60806040526004361061007a575f3560e01c80638da5cb5b1161004d5780638da5cb5b1461013657806398d5fdca14610160578063b60d42881461018a578063dc0d3dff146101945761007a565b8063098de8201461007e5780633ccfd60b146100a85780633e47d6f3146100be5780636e5b6b28146100fa575b5f5ffd5b348015610089575f5ffd5b506100926101d0565b60405161009f91906107e2565b60405180910390f35b3480156100b3575f5ffd5b506100bc6101dc565b005b3480156100c9575f5ffd5b506100e460048036038101906100df9190610859565b610490565b6040516100f191906107e2565b60405180910390f35b348015610105575f5ffd5b50610120600480360381019061011b91906108ae565b6104a5565b60405161012d91906107e2565b60405180910390f35b348015610141575f5ffd5b5061014a6104d8565b60405161015791906108e8565b60405180910390f35b34801561016b575f5ffd5b506101746104fd565b60405161018191906107e2565b60405180910390f35b6101926105a2565b005b34801561019f575f5ffd5b506101ba60048036038101906101b591906108ae565b6106ee565b6040516101c791906108e8565b60405180910390f35b674563918244f4000081565b60025f9054906101000a900473ffffffffffffffffffffffffffffffffffffffff1673ffffffffffffffffffffffffffffffffffffffff163373ffffffffffffffffffffffffffffffffffffffff161461026b576040517f08c379a00000000000000000000000000000000000000000000000000000000081526004016102629061095b565b60405180910390fd5b5f5f90505b5f8054905081101561030a575f5f82815481106102905761028f610979565b5b905f5260205f20015f9054906101000a900473ffffffffffffffffffffffffffffffffffffffff1690505f60015f8373ffffffffffffffffffffffffffffffffffffffff1673ffffffffffffffffffffffffffffffffffffffff1681526020019081526020015f2081905550508080600101915050610270565b505f67ffffffffffffffff811115610325576103246109a6565b5b6040519080825280602002602001820160405280156103535781602001602082028036833780820191505090505b505f9080519060200190610368929190610728565b503373ffffffffffffffffffffffffffffffffffffffff166108fc4790811502906040515f60405180830381858888f193505050501580156103ac573d5f5f3e3d5ffd5b505f3373ffffffffffffffffffffffffffffffffffffffff166108fc4790811502906040515f60405180830381858888f19350505050905080610424576040517f08c379a000000000000000000000000000000000000000000000000000000000815260040161041b90610a1d565b60405180910390fd5b5f3373ffffffffffffffffffffffffffffffffffffffff164760405161044990610a68565b5f6040518083038185875af1925050503d805f8114610483576040519150601f19603f3d011682016040523d82523d5f602084013e610488565b606091505b505090505050565b6001602052805f5260405f205f915090505481565b5f5f6104af6104fd565b9050670de0b6b3a764000083826104c69190610aa9565b6104d09190610b17565b915050919050565b60025f9054906101000a900473ffffffffffffffffffffffffffffffffffffffff1681565b5f5f73694aa1769357215de4fac081bf1f309adc32530690505f8173ffffffffffffffffffffffffffffffffffffffff1663feaf968c6040518163ffffffff1660e01b815260040160a060405180830381865afa158015610560573d5f5f3e3d5ffd5b505050506040513d601f19601f820116820180604052508101906105849190610bcd565b5050509150506402540be4008161059b9190610c44565b9250505090565b674563918244f400006105b4346104a5565b10156105f5576040517f08c379a00000000000000000000000000000000000000000000000000000000081526004016105ec90610d04565b60405180910390fd5b5f60015f3373ffffffffffffffffffffffffffffffffffffffff1673ffffffffffffffffffffffffffffffffffffffff1681526020019081526020015f205403610699575f33908060018154018082558091505060019003905f5260205f20015f9091909190916101000a81548173ffffffffffffffffffffffffffffffffffffffff021916908373ffffffffffffffffffffffffffffffffffffffff1602179055505b3460015f3373ffffffffffffffffffffffffffffffffffffffff1673ffffffffffffffffffffffffffffffffffffffff1681526020019081526020015f205f8282546106e59190610d22565b92505081905550565b5f81815481106106fc575f80fd5b905f5260205f20015f915054906101000a900473ffffffffffffffffffffffffffffffffffffffff1681565b828054828255905f5260205f2090810192821561079e579160200282015b8281111561079d578251825f6101000a81548173ffffffffffffffffffffffffffffffffffffffff021916908373ffffffffffffffffffffffffffffffffffffffff16021790555091602001919060010190610746565b5b5090506107ab91906107af565b5090565b5b808211156107c6575f815f9055506001016107b0565b5090565b5f819050919050565b6107dc816107ca565b82525050565b5f6020820190506107f55f8301846107d3565b92915050565b5f5ffd5b5f73ffffffffffffffffffffffffffffffffffffffff82169050919050565b5f610828826107ff565b9050919050565b6108388161081e565b8114610842575f5ffd5b50565b5f813590506108538161082f565b92915050565b5f6020828403121561086e5761086d6107fb565b5b5f61087b84828501610845565b91505092915050565b61088d816107ca565b8114610897575f5ffd5b50565b5f813590506108a881610884565b92915050565b5f602082840312156108c3576108c26107fb565b5b5f6108d08482850161089a565b91505092915050565b6108e28161081e565b82525050565b5f6020820190506108fb5f8301846108d9565b92915050565b5f82825260208201905092915050565b7f4d757374206265206f776e6572000000000000000000000000000000000000005f82015250565b5f610945600d83610901565b915061095082610911565b602082019050919050565b5f6020820190508181035f83015261097281610939565b9050919050565b7f4e487b71000000000000000000000000000000000000000000000000000000005f52603260045260245ffd5b7f4e487b71000000000000000000000000000000000000000000000000000000005f52604160045260245ffd5b7f53656e64206661696c65640000000000000000000000000000000000000000005f82015250565b5f610a07600b83610901565b9150610a12826109d3565b602082019050919050565b5f6020820190508181035f830152610a34816109fb565b9050919050565b5f81905092915050565b50565b5f610a535f83610a3b565b9150610a5e82610a45565b5f82019050919050565b5f610a7282610a48565b9150819050919050565b7f4e487b71000000000000000000000000000000000000000000000000000000005f52601160045260245ffd5b5f610ab3826107ca565b9150610abe836107ca565b9250828202610acc816107ca565b91508282048414831517610ae357610ae2610a7c565b5b5092915050565b7f4e487b71000000000000000000000000000000000000000000000000000000005f52601260045260245ffd5b5f610b21826107ca565b9150610b2c836107ca565b925082610b3c57610b3b610aea565b5b828204905092915050565b5f69ffffffffffffffffffff82169050919050565b610b6581610b47565b8114610b6f575f5ffd5b50565b5f81519050610b8081610b5c565b92915050565b5f819050919050565b610b9881610b86565b8114610ba2575f5ffd5b50565b5f81519050610bb381610b8f565b92915050565b5f81519050610bc781610884565b92915050565b5f5f5f5f5f60a08688031215610be657610be56107fb565b5b5f610bf388828901610b72565b9550506020610c0488828901610ba5565b9450506040610c1588828901610bb9565b9350506060610c2688828901610bb9565b9250506080610c3788828901610b72565b9150509295509295909350565b5f610c4e82610b86565b9150610c5983610b86565b9250828202610c6781610b86565b91507f800000000000000000000000000000000000000000000000000000000000000084145f84121615610c9e57610c9d610a7c565b5b8282058414831517610cb357610cb2610a7c565b5b5092915050565b7f4469646e27742073656e6420656e6f75676800000000000000000000000000005f82015250565b5f610cee601283610901565b9150610cf982610cba565b602082019050919050565b5f6020820190508181035f830152610d1b81610ce2565b9050919050565b5f610d2c826107ca565b9150610d37836107ca565b9250828201905080821115610d4f57610d4e610a7c565b5b9291505056fea264697066735822122018813838644aed219341f2d9775bd44eadfb41397807bea4094c17dcf9cb06f764736f6c634300081f0033",
					"opcodes": "PUSH1 0x80 PUSH1 0x40 MSTORE CALLVALUE DUP1 ISZERO PUSH1 0xE JUMPI PUSH0 PUSH0 REVERT JUMPDEST POP CALLER PUSH1 0x2 PUSH0 PUSH2 0x100 EXP DUP2 SLOAD DUP2 PUSH20 0xFFFFFFFFFFFFFFFFFFFFFFFFFFFFFFFFFFFFFFFF MUL NOT AND SWAP1 DUP4 PUSH20 0xFFFFFFFFFFFFFFFFFFFFFFFFFFFFFFFFFFFFFFFF AND MUL OR SWAP1 SSTORE POP PUSH2 0xD8B DUP1 PUSH2 0x5C PUSH0 CODECOPY PUSH0 RETURN INVALID PUSH1 0x80 PUSH1 0x40 MSTORE PUSH1 0x4 CALLDATASIZE LT PUSH2 0x7A JUMPI PUSH0 CALLDATALOAD PUSH1 0xE0 SHR DUP1 PUSH4 0x8DA5CB5B GT PUSH2 0x4D JUMPI DUP1 PUSH4 0x8DA5CB5B EQ PUSH2 0x136 JUMPI DUP1 PUSH4 0x98D5FDCA EQ PUSH2 0x160 JUMPI DUP1 PUSH4 0xB60D4288 EQ PUSH2 0x18A JUMPI DUP1 PUSH4 0xDC0D3DFF EQ PUSH2 0x194 JUMPI PUSH2 0x7A JUMP JUMPDEST DUP1 PUSH4 0x98DE820 EQ PUSH2 0x7E JUMPI DUP1 PUSH4 0x3CCFD60B EQ PUSH2 0xA8 JUMPI DUP1 PUSH4 0x3E47D6F3 EQ PUSH2 0xBE JUMPI DUP1 PUSH4 0x6E5B6B28 EQ PUSH2 0xFA JUMPI JUMPDEST PUSH0 PUSH0 REVERT JUMPDEST CALLVALUE DUP1 ISZERO PUSH2 0x89 JUMPI PUSH0 PUSH0 REVERT JUMPDEST POP PUSH2 0x92 PUSH2 0x1D0 JUMP JUMPDEST PUSH1 0x40 MLOAD PUSH2 0x9F SWAP2 SWAP1 PUSH2 0x7E2 JUMP JUMPDEST PUSH1 0x40 MLOAD DUP1 SWAP2 SUB SWAP1 RETURN JUMPDEST CALLVALUE DUP1 ISZERO PUSH2 0xB3 JUMPI PUSH0 PUSH0 REVERT JUMPDEST POP PUSH2 0xBC PUSH2 0x1DC JUMP JUMPDEST STOP JUMPDEST CALLVALUE DUP1 ISZERO PUSH2 0xC9 JUMPI PUSH0 PUSH0 REVERT JUMPDEST POP PUSH2 0xE4 PUSH1 0x4 DUP1 CALLDATASIZE SUB DUP2 ADD SWAP1 PUSH2 0xDF SWAP2 SWAP1 PUSH2 0x859 JUMP JUMPDEST PUSH2 0x490 JUMP JUMPDEST PUSH1 0x40 MLOAD PUSH2 0xF1 SWAP2 SWAP1 PUSH2 0x7E2 JUMP JUMPDEST PUSH1 0x40 MLOAD DUP1 SWAP2 SUB SWAP1 RETURN JUMPDEST CALLVALUE DUP1 ISZERO PUSH2 0x105 JUMPI PUSH0 PUSH0 REVERT JUMPDEST POP PUSH2 0x120 PUSH1 0x4 DUP1 CALLDATASIZE SUB DUP2 ADD SWAP1 PUSH2 0x11B SWAP2 SWAP1 PUSH2 0x8AE JUMP JUMPDEST PUSH2 0x4A5 JUMP JUMPDEST PUSH1 0x40 MLOAD PUSH2 0x12D SWAP2 SWAP1 PUSH2 0x7E2 JUMP JUMPDEST PUSH1 0x40 MLOAD DUP1 SWAP2 SUB SWAP1 RETURN JUMPDEST CALLVALUE DUP1 ISZERO PUSH2 0x141 JUMPI PUSH0 PUSH0 REVERT JUMPDEST POP PUSH2 0x14A PUSH2 0x4D8 JUMP JUMPDEST PUSH1 0x40 MLOAD PUSH2 0x157 SWAP2 SWAP1 PUSH2 0x8E8 JUMP JUMPDEST PUSH1 0x40 MLOAD DUP1 SWAP2 SUB SWAP1 RETURN JUMPDEST CALLVALUE DUP1 ISZERO PUSH2 0x16B JUMPI PUSH0 PUSH0 REVERT JUMPDEST POP PUSH2 0x174 PUSH2 0x4FD JUMP JUMPDEST PUSH1 0x40 MLOAD PUSH2 0x181 SWAP2 SWAP1 PUSH2 0x7E2 JUMP JUMPDEST PUSH1 0x40 MLOAD DUP1 SWAP2 SUB SWAP1 RETURN JUMPDEST PUSH2 0x192 PUSH2 0x5A2 JUMP JUMPDEST STOP JUMPDEST CALLVALUE DUP1 ISZERO PUSH2 0x19F JUMPI PUSH0 PUSH0 REVERT JUMPDEST POP PUSH2 0x1BA PUSH1 0x4 DUP1 CALLDATASIZE SUB DUP2 ADD SWAP1 PUSH2 0x1B5 SWAP2 SWAP1 PUSH2 0x8AE JUMP JUMPDEST PUSH2 0x6EE JUMP JUMPDEST PUSH1 0x40 MLOAD PUSH2 0x1C7 SWAP2 SWAP1 PUSH2 0x8E8 JUMP JUMPDEST PUSH1 0x40 MLOAD DUP1 SWAP2 SUB SWAP1 RETURN JUMPDEST PUSH8 0x4563918244F40000 DUP2 JUMP JUMPDEST PUSH1 0x2 PUSH0 SWAP1 SLOAD SWAP1 PUSH2 0x100 EXP SWAP1 DIV PUSH20 0xFFFFFFFFFFFFFFFFFFFFFFFFFFFFFFFFFFFFFFFF AND PUSH20 0xFFFFFFFFFFFFFFFFFFFFFFFFFFFFFFFFFFFFFFFF AND CALLER PUSH20 0xFFFFFFFFFFFFFFFFFFFFFFFFFFFFFFFFFFFFFFFF AND EQ PUSH2 0x26B JUMPI PUSH1 0x40 MLOAD PUSH32 0x8C379A000000000000000000000000000000000000000000000000000000000 DUP2 MSTORE PUSH1 0x4 ADD PUSH2 0x262 SWAP1 PUSH2 0x95B JUMP JUMPDEST PUSH1 0x40 MLOAD DUP1 SWAP2 SUB SWAP1 REVERT JUMPDEST PUSH0 PUSH0 SWAP1 POP JUMPDEST PUSH0 DUP1 SLOAD SWAP1 POP DUP2 LT ISZERO PUSH2 0x30A JUMPI PUSH0 PUSH0 DUP3 DUP2 SLOAD DUP2 LT PUSH2 0x290 JUMPI PUSH2 0x28F PUSH2 0x979 JUMP JUMPDEST JUMPDEST SWAP1 PUSH0 MSTORE PUSH1 0x20 PUSH0 KECCAK256 ADD PUSH0 SWAP1 SLOAD SWAP1 PUSH2 0x100 EXP SWAP1 DIV PUSH20 0xFFFFFFFFFFFFFFFFFFFFFFFFFFFFFFFFFFFFFFFF AND SWAP1 POP PUSH0 PUSH1 0x1 PUSH0 DUP4 PUSH20 0xFFFFFFFFFFFFFFFFFFFFFFFFFFFFFFFFFFFFFFFF AND PUSH20 0xFFFFFFFFFFFFFFFFFFFFFFFFFFFFFFFFFFFFFFFF AND DUP2 MSTORE PUSH1 0x20 ADD SWAP1 DUP2 MSTORE PUSH1 0x20 ADD PUSH0 KECCAK256 DUP2 SWAP1 SSTORE POP POP DUP1 DUP1 PUSH1 0x1 ADD SWAP2 POP POP PUSH2 0x270 JUMP JUMPDEST POP PUSH0 PUSH8 0xFFFFFFFFFFFFFFFF DUP2 GT ISZERO PUSH2 0x325 JUMPI PUSH2 0x324 PUSH2 0x9A6 JUMP JUMPDEST JUMPDEST PUSH1 0x40 MLOAD SWAP1 DUP1 DUP3 MSTORE DUP1 PUSH1 0x20 MUL PUSH1 0x20 ADD DUP3 ADD PUSH1 0x40 MSTORE DUP1 ISZERO PUSH2 0x353 JUMPI DUP2 PUSH1 0x20 ADD PUSH1 0x20 DUP3 MUL DUP1 CALLDATASIZE DUP4 CALLDATACOPY DUP1 DUP3 ADD SWAP2 POP POP SWAP1 POP JUMPDEST POP PUSH0 SWAP1 DUP1 MLOAD SWAP1 PUSH1 0x20 ADD SWAP1 PUSH2 0x368 SWAP3 SWAP2 SWAP1 PUSH2 0x728 JUMP JUMPDEST POP CALLER PUSH20 0xFFFFFFFFFFFFFFFFFFFFFFFFFFFFFFFFFFFFFFFF AND PUSH2 0x8FC SELFBALANCE SWAP1 DUP2 ISZERO MUL SWAP1 PUSH1 0x40 MLOAD PUSH0 PUSH1 0x40 MLOAD DUP1 DUP4 SUB DUP2 DUP6 DUP9 DUP9 CALL SWAP4 POP POP POP POP ISZERO DUP1 ISZERO PUSH2 0x3AC JUMPI RETURNDATASIZE PUSH0 PUSH0 RETURNDATACOPY RETURNDATASIZE PUSH0 REVERT JUMPDEST POP PUSH0 CALLER PUSH20 0xFFFFFFFFFFFFFFFFFFFFFFFFFFFFFFFFFFFFFFFF AND PUSH2 0x8FC SELFBALANCE SWAP1 DUP2 ISZERO MUL SWAP1 PUSH1 0x40 MLOAD PUSH0 PUSH1 0x40 MLOAD DUP1 DUP4 SUB DUP2 DUP6 DUP9 DUP9 CALL SWAP4 POP POP POP POP SWAP1 POP DUP1 PUSH2 0x424 JUMPI PUSH1 0x40 MLOAD PUSH32 0x8C379A000000000000000000000000000000000000000000000000000000000 DUP2 MSTORE PUSH1 0x4 ADD PUSH2 0x41B SWAP1 PUSH2 0xA1D JUMP JUMPDEST PUSH1 0x40 MLOAD DUP1 SWAP2 SUB SWAP1 REVERT JUMPDEST PUSH0 CALLER PUSH20 0xFFFFFFFFFFFFFFFFFFFFFFFFFFFFFFFFFFFFFFFF AND SELFBALANCE PUSH1 0x40 MLOAD PUSH2 0x449 SWAP1 PUSH2 0xA68 JUMP JUMPDEST PUSH0 PUSH1 0x40 MLOAD DUP1 DUP4 SUB DUP2 DUP6 DUP8 GAS CALL SWAP3 POP POP POP RETURNDATASIZE DUP1 PUSH0 DUP2 EQ PUSH2 0x483 JUMPI PUSH1 0x40 MLOAD SWAP2 POP PUSH1 0x1F NOT PUSH1 0x3F RETURNDATASIZE ADD AND DUP3 ADD PUSH1 0x40 MSTORE RETURNDATASIZE DUP3 MSTORE RETURNDATASIZE PUSH0 PUSH1 0x20 DUP5 ADD RETURNDATACOPY PUSH2 0x488 JUMP JUMPDEST PUSH1 0x60 SWAP2 POP JUMPDEST POP POP SWAP1 POP POP POP JUMP JUMPDEST PUSH1 0x1 PUSH1 0x20 MSTORE DUP1 PUSH0 MSTORE PUSH1 0x40 PUSH0 KECCAK256 PUSH0 SWAP2 POP SWAP1 POP SLOAD DUP2 JUMP JUMPDEST PUSH0 PUSH0 PUSH2 0x4AF PUSH2 0x4FD JUMP JUMPDEST SWAP1 POP PUSH8 0xDE0B6B3A7640000 DUP4 DUP3 PUSH2 0x4C6 SWAP2 SWAP1 PUSH2 0xAA9 JUMP JUMPDEST PUSH2 0x4D0 SWAP2 SWAP1 PUSH2 0xB17 JUMP JUMPDEST SWAP2 POP POP SWAP2 SWAP1 POP JUMP JUMPDEST PUSH1 0x2 PUSH0 SWAP1 SLOAD SWAP1 PUSH2 0x100 EXP SWAP1 DIV PUSH20 0xFFFFFFFFFFFFFFFFFFFFFFFFFFFFFFFFFFFFFFFF AND DUP2 JUMP JUMPDEST PUSH0 PUSH0 PUSH20 0x694AA1769357215DE4FAC081BF1F309ADC325306 SWAP1 POP PUSH0 DUP2 PUSH20 0xFFFFFFFFFFFFFFFFFFFFFFFFFFFFFFFFFFFFFFFF AND PUSH4 0xFEAF968C PUSH1 0x40 MLOAD DUP2 PUSH4 0xFFFFFFFF AND PUSH1 0xE0 SHL DUP2 MSTORE PUSH1 0x4 ADD PUSH1 0xA0 PUSH1 0x40 MLOAD DUP1 DUP4 SUB DUP2 DUP7 GAS STATICCALL ISZERO DUP1 ISZERO PUSH2 0x560 JUMPI RETURNDATASIZE PUSH0 PUSH0 RETURNDATACOPY RETURNDATASIZE PUSH0 REVERT JUMPDEST POP POP POP POP PUSH1 0x40 MLOAD RETURNDATASIZE PUSH1 0x1F NOT PUSH1 0x1F DUP3 ADD AND DUP3 ADD DUP1 PUSH1 0x40 MSTORE POP DUP2 ADD SWAP1 PUSH2 0x584 SWAP2 SWAP1 PUSH2 0xBCD JUMP JUMPDEST POP POP POP SWAP2 POP POP PUSH5 0x2540BE400 DUP2 PUSH2 0x59B SWAP2 SWAP1 PUSH2 0xC44 JUMP JUMPDEST SWAP3 POP POP POP SWAP1 JUMP JUMPDEST PUSH8 0x4563918244F40000 PUSH2 0x5B4 CALLVALUE PUSH2 0x4A5 JUMP JUMPDEST LT ISZERO PUSH2 0x5F5 JUMPI PUSH1 0x40 MLOAD PUSH32 0x8C379A000000000000000000000000000000000000000000000000000000000 DUP2 MSTORE PUSH1 0x4 ADD PUSH2 0x5EC SWAP1 PUSH2 0xD04 JUMP JUMPDEST PUSH1 0x40 MLOAD DUP1 SWAP2 SUB SWAP1 REVERT JUMPDEST PUSH0 PUSH1 0x1 PUSH0 CALLER PUSH20 0xFFFFFFFFFFFFFFFFFFFFFFFFFFFFFFFFFFFFFFFF AND PUSH20 0xFFFFFFFFFFFFFFFFFFFFFFFFFFFFFFFFFFFFFFFF AND DUP2 MSTORE PUSH1 0x20 ADD SWAP1 DUP2 MSTORE PUSH1 0x20 ADD PUSH0 KECCAK256 SLOAD SUB PUSH2 0x699 JUMPI PUSH0 CALLER SWAP1 DUP1 PUSH1 0x1 DUP2 SLOAD ADD DUP1 DUP3 SSTORE DUP1 SWAP2 POP POP PUSH1 0x1 SWAP1 SUB SWAP1 PUSH0 MSTORE PUSH1 0x20 PUSH0 KECCAK256 ADD PUSH0 SWAP1 SWAP2 SWAP1 SWAP2 SWAP1 SWAP2 PUSH2 0x100 EXP DUP2 SLOAD DUP2 PUSH20 0xFFFFFFFFFFFFFFFFFFFFFFFFFFFFFFFFFFFFFFFF MUL NOT AND SWAP1 DUP4 PUSH20 0xFFFFFFFFFFFFFFFFFFFFFFFFFFFFFFFFFFFFFFFF AND MUL OR SWAP1 SSTORE POP JUMPDEST CALLVALUE PUSH1 0x1 PUSH0 CALLER PUSH20 0xFFFFFFFFFFFFFFFFFFFFFFFFFFFFFFFFFFFFFFFF AND PUSH20 0xFFFFFFFFFFFFFFFFFFFFFFFFFFFFFFFFFFFFFFFF AND DUP2 MSTORE PUSH1 0x20 ADD SWAP1 DUP2 MSTORE PUSH1 0x20 ADD PUSH0 KECCAK256 PUSH0 DUP3 DUP3 SLOAD PUSH2 0x6E5 SWAP2 SWAP1 PUSH2 0xD22 JUMP JUMPDEST SWAP3 POP POP DUP2 SWAP1 SSTORE POP JUMP JUMPDEST PUSH0 DUP2 DUP2 SLOAD DUP2 LT PUSH2 0x6FC JUMPI PUSH0 DUP1 REVERT JUMPDEST SWAP1 PUSH0 MSTORE PUSH1 0x20 PUSH0 KECCAK256 ADD PUSH0 SWAP2 POP SLOAD SWAP1 PUSH2 0x100 EXP SWAP1 DIV PUSH20 0xFFFFFFFFFFFFFFFFFFFFFFFFFFFFFFFFFFFFFFFF AND DUP2 JUMP JUMPDEST DUP3 DUP1 SLOAD DUP3 DUP3 SSTORE SWAP1 PUSH0 MSTORE PUSH1 0x20 PUSH0 KECCAK256 SWAP1 DUP2 ADD SWAP3 DUP3 ISZERO PUSH2 0x79E JUMPI SWAP2 PUSH1 0x20 MUL DUP3 ADD JUMPDEST DUP3 DUP2 GT ISZERO PUSH2 0x79D JUMPI DUP3 MLOAD DUP3 PUSH0 PUSH2 0x100 EXP DUP2 SLOAD DUP2 PUSH20 0xFFFFFFFFFFFFFFFFFFFFFFFFFFFFFFFFFFFFFFFF MUL NOT AND SWAP1 DUP4 PUSH20 0xFFFFFFFFFFFFFFFFFFFFFFFFFFFFFFFFFFFFFFFF AND MUL OR SWAP1 SSTORE POP SWAP2 PUSH1 0x20 ADD SWAP2 SWAP1 PUSH1 0x1 ADD SWAP1 PUSH2 0x746 JUMP JUMPDEST JUMPDEST POP SWAP1 POP PUSH2 0x7AB SWAP2 SWAP1 PUSH2 0x7AF JUMP JUMPDEST POP SWAP1 JUMP JUMPDEST JUMPDEST DUP1 DUP3 GT ISZERO PUSH2 0x7C6 JUMPI PUSH0 DUP2 PUSH0 SWAP1 SSTORE POP PUSH1 0x1 ADD PUSH2 0x7B0 JUMP JUMPDEST POP SWAP1 JUMP JUMPDEST PUSH0 DUP2 SWAP1 POP SWAP2 SWAP1 POP JUMP JUMPDEST PUSH2 0x7DC DUP2 PUSH2 0x7CA JUMP JUMPDEST DUP3 MSTORE POP POP JUMP JUMPDEST PUSH0 PUSH1 0x20 DUP3 ADD SWAP1 POP PUSH2 0x7F5 PUSH0 DUP4 ADD DUP5 PUSH2 0x7D3 JUMP JUMPDEST SWAP3 SWAP2 POP POP JUMP JUMPDEST PUSH0 PUSH0 REVERT JUMPDEST PUSH0 PUSH20 0xFFFFFFFFFFFFFFFFFFFFFFFFFFFFFFFFFFFFFFFF DUP3 AND SWAP1 POP SWAP2 SWAP1 POP JUMP JUMPDEST PUSH0 PUSH2 0x828 DUP3 PUSH2 0x7FF JUMP JUMPDEST SWAP1 POP SWAP2 SWAP1 POP JUMP JUMPDEST PUSH2 0x838 DUP2 PUSH2 0x81E JUMP JUMPDEST DUP2 EQ PUSH2 0x842 JUMPI PUSH0 PUSH0 REVERT JUMPDEST POP JUMP JUMPDEST PUSH0 DUP2 CALLDATALOAD SWAP1 POP PUSH2 0x853 DUP2 PUSH2 0x82F JUMP JUMPDEST SWAP3 SWAP2 POP POP JUMP JUMPDEST PUSH0 PUSH1 0x20 DUP3 DUP5 SUB SLT ISZERO PUSH2 0x86E JUMPI PUSH2 0x86D PUSH2 0x7FB JUMP JUMPDEST JUMPDEST PUSH0 PUSH2 0x87B DUP5 DUP3 DUP6 ADD PUSH2 0x845 JUMP JUMPDEST SWAP2 POP POP SWAP3 SWAP2 POP POP JUMP JUMPDEST PUSH2 0x88D DUP2 PUSH2 0x7CA JUMP JUMPDEST DUP2 EQ PUSH2 0x897 JUMPI PUSH0 PUSH0 REVERT JUMPDEST POP JUMP JUMPDEST PUSH0 DUP2 CALLDATALOAD SWAP1 POP PUSH2 0x8A8 DUP2 PUSH2 0x884 JUMP JUMPDEST SWAP3 SWAP2 POP POP JUMP JUMPDEST PUSH0 PUSH1 0x20 DUP3 DUP5 SUB SLT ISZERO PUSH2 0x8C3 JUMPI PUSH2 0x8C2 PUSH2 0x7FB JUMP JUMPDEST JUMPDEST PUSH0 PUSH2 0x8D0 DUP5 DUP3 DUP6 ADD PUSH2 0x89A JUMP JUMPDEST SWAP2 POP POP SWAP3 SWAP2 POP POP JUMP JUMPDEST PUSH2 0x8E2 DUP2 PUSH2 0x81E JUMP JUMPDEST DUP3 MSTORE POP POP JUMP JUMPDEST PUSH0 PUSH1 0x20 DUP3 ADD SWAP1 POP PUSH2 0x8FB PUSH0 DUP4 ADD DUP5 PUSH2 0x8D9 JUMP JUMPDEST SWAP3 SWAP2 POP POP JUMP JUMPDEST PUSH0 DUP3 DUP3 MSTORE PUSH1 0x20 DUP3 ADD SWAP1 POP SWAP3 SWAP2 POP POP JUMP JUMPDEST PUSH32 0x4D757374206265206F776E657200000000000000000000000000000000000000 PUSH0 DUP3 ADD MSTORE POP JUMP JUMPDEST PUSH0 PUSH2 0x945 PUSH1 0xD DUP4 PUSH2 0x901 JUMP JUMPDEST SWAP2 POP PUSH2 0x950 DUP3 PUSH2 0x911 JUMP JUMPDEST PUSH1 0x20 DUP3 ADD SWAP1 POP SWAP2 SWAP1 POP JUMP JUMPDEST PUSH0 PUSH1 0x20 DUP3 ADD SWAP1 POP DUP2 DUP2 SUB PUSH0 DUP4 ADD MSTORE PUSH2 0x972 DUP2 PUSH2 0x939 JUMP JUMPDEST SWAP1 POP SWAP2 SWAP1 POP JUMP JUMPDEST PUSH32 0x4E487B7100000000000000000000000000000000000000000000000000000000 PUSH0 MSTORE PUSH1 0x32 PUSH1 0x4 MSTORE PUSH1 0x24 PUSH0 REVERT JUMPDEST PUSH32 0x4E487B7100000000000000000000000000000000000000000000000000000000 PUSH0 MSTORE PUSH1 0x41 PUSH1 0x4 MSTORE PUSH1 0x24 PUSH0 REVERT JUMPDEST PUSH32 0x53656E64206661696C6564000000000000000000000000000000000000000000 PUSH0 DUP3 ADD MSTORE POP JUMP JUMPDEST PUSH0 PUSH2 0xA07 PUSH1 0xB DUP4 PUSH2 0x901 JUMP JUMPDEST SWAP2 POP PUSH2 0xA12 DUP3 PUSH2 0x9D3 JUMP JUMPDEST PUSH1 0x20 DUP3 ADD SWAP1 POP SWAP2 SWAP1 POP JUMP JUMPDEST PUSH0 PUSH1 0x20 DUP3 ADD SWAP1 POP DUP2 DUP2 SUB PUSH0 DUP4 ADD MSTORE PUSH2 0xA34 DUP2 PUSH2 0x9FB JUMP JUMPDEST SWAP1 POP SWAP2 SWAP1 POP JUMP JUMPDEST PUSH0 DUP2 SWAP1 POP SWAP3 SWAP2 POP POP JUMP JUMPDEST POP JUMP JUMPDEST PUSH0 PUSH2 0xA53 PUSH0 DUP4 PUSH2 0xA3B JUMP JUMPDEST SWAP2 POP PUSH2 0xA5E DUP3 PUSH2 0xA45 JUMP JUMPDEST PUSH0 DUP3 ADD SWAP1 POP SWAP2 SWAP1 POP JUMP JUMPDEST PUSH0 PUSH2 0xA72 DUP3 PUSH2 0xA48 JUMP JUMPDEST SWAP2 POP DUP2 SWAP1 POP SWAP2 SWAP1 POP JUMP JUMPDEST PUSH32 0x4E487B7100000000000000000000000000000000000000000000000000000000 PUSH0 MSTORE PUSH1 0x11 PUSH1 0x4 MSTORE PUSH1 0x24 PUSH0 REVERT JUMPDEST PUSH0 PUSH2 0xAB3 DUP3 PUSH2 0x7CA JUMP JUMPDEST SWAP2 POP PUSH2 0xABE DUP4 PUSH2 0x7CA JUMP JUMPDEST SWAP3 POP DUP3 DUP3 MUL PUSH2 0xACC DUP2 PUSH2 0x7CA JUMP JUMPDEST SWAP2 POP DUP3 DUP3 DIV DUP5 EQ DUP4 ISZERO OR PUSH2 0xAE3 JUMPI PUSH2 0xAE2 PUSH2 0xA7C JUMP JUMPDEST JUMPDEST POP SWAP3 SWAP2 POP POP JUMP JUMPDEST PUSH32 0x4E487B7100000000000000000000000000000000000000000000000000000000 PUSH0 MSTORE PUSH1 0x12 PUSH1 0x4 MSTORE PUSH1 0x24 PUSH0 REVERT JUMPDEST PUSH0 PUSH2 0xB21 DUP3 PUSH2 0x7CA JUMP JUMPDEST SWAP2 POP PUSH2 0xB2C DUP4 PUSH2 0x7CA JUMP JUMPDEST SWAP3 POP DUP3 PUSH2 0xB3C JUMPI PUSH2 0xB3B PUSH2 0xAEA JUMP JUMPDEST JUMPDEST DUP3 DUP3 DIV SWAP1 POP SWAP3 SWAP2 POP POP JUMP JUMPDEST PUSH0 PUSH10 0xFFFFFFFFFFFFFFFFFFFF DUP3 AND SWAP1 POP SWAP2 SWAP1 POP JUMP JUMPDEST PUSH2 0xB65 DUP2 PUSH2 0xB47 JUMP JUMPDEST DUP2 EQ PUSH2 0xB6F JUMPI PUSH0 PUSH0 REVERT JUMPDEST POP JUMP JUMPDEST PUSH0 DUP2 MLOAD SWAP1 POP PUSH2 0xB80 DUP2 PUSH2 0xB5C JUMP JUMPDEST SWAP3 SWAP2 POP POP JUMP JUMPDEST PUSH0 DUP2 SWAP1 POP SWAP2 SWAP1 POP JUMP JUMPDEST PUSH2 0xB98 DUP2 PUSH2 0xB86 JUMP JUMPDEST DUP2 EQ PUSH2 0xBA2 JUMPI PUSH0 PUSH0 REVERT JUMPDEST POP JUMP JUMPDEST PUSH0 DUP2 MLOAD SWAP1 POP PUSH2 0xBB3 DUP2 PUSH2 0xB8F JUMP JUMPDEST SWAP3 SWAP2 POP POP JUMP JUMPDEST PUSH0 DUP2 MLOAD SWAP1 POP PUSH2 0xBC7 DUP2 PUSH2 0x884 JUMP JUMPDEST SWAP3 SWAP2 POP POP JUMP JUMPDEST PUSH0 PUSH0 PUSH0 PUSH0 PUSH0 PUSH1 0xA0 DUP7 DUP9 SUB SLT ISZERO PUSH2 0xBE6 JUMPI PUSH2 0xBE5 PUSH2 0x7FB JUMP JUMPDEST JUMPDEST PUSH0 PUSH2 0xBF3 DUP9 DUP3 DUP10 ADD PUSH2 0xB72 JUMP JUMPDEST SWAP6 POP POP PUSH1 0x20 PUSH2 0xC04 DUP9 DUP3 DUP10 ADD PUSH2 0xBA5 JUMP JUMPDEST SWAP5 POP POP PUSH1 0x40 PUSH2 0xC15 DUP9 DUP3 DUP10 ADD PUSH2 0xBB9 JUMP JUMPDEST SWAP4 POP POP PUSH1 0x60 PUSH2 0xC26 DUP9 DUP3 DUP10 ADD PUSH2 0xBB9 JUMP JUMPDEST SWAP3 POP POP PUSH1 0x80 PUSH2 0xC37 DUP9 DUP3 DUP10 ADD PUSH2 0xB72 JUMP JUMPDEST SWAP2 POP POP SWAP3 SWAP6 POP SWAP3 SWAP6 SWAP1 SWAP4 POP JUMP JUMPDEST PUSH0 PUSH2 0xC4E DUP3 PUSH2 0xB86 JUMP JUMPDEST SWAP2 POP PUSH2 0xC59 DUP4 PUSH2 0xB86 JUMP JUMPDEST SWAP3 POP DUP3 DUP3 MUL PUSH2 0xC67 DUP2 PUSH2 0xB86 JUMP JUMPDEST SWAP2 POP PUSH32 0x8000000000000000000000000000000000000000000000000000000000000000 DUP5 EQ PUSH0 DUP5 SLT AND ISZERO PUSH2 0xC9E JUMPI PUSH2 0xC9D PUSH2 0xA7C JUMP JUMPDEST JUMPDEST DUP3 DUP3 SDIV DUP5 EQ DUP4 ISZERO OR PUSH2 0xCB3 JUMPI PUSH2 0xCB2 PUSH2 0xA7C JUMP JUMPDEST JUMPDEST POP SWAP3 SWAP2 POP POP JUMP JUMPDEST PUSH32 0x4469646E27742073656E6420656E6F7567680000000000000000000000000000 PUSH0 DUP3 ADD MSTORE POP JUMP JUMPDEST PUSH0 PUSH2 0xCEE PUSH1 0x12 DUP4 PUSH2 0x901 JUMP JUMPDEST SWAP2 POP PUSH2 0xCF9 DUP3 PUSH2 0xCBA JUMP JUMPDEST PUSH1 0x20 DUP3 ADD SWAP1 POP SWAP2 SWAP1 POP JUMP JUMPDEST PUSH0 PUSH1 0x20 DUP3 ADD SWAP1 POP DUP2 DUP2 SUB PUSH0 DUP4 ADD MSTORE PUSH2 0xD1B DUP2 PUSH2 0xCE2 JUMP JUMPDEST SWAP1 POP SWAP2 SWAP1 POP JUMP JUMPDEST PUSH0 PUSH2 0xD2C DUP3 PUSH2 0x7CA JUMP JUMPDEST SWAP2 POP PUSH2 0xD37 DUP4 PUSH2 0x7CA JUMP JUMPDEST SWAP3 POP DUP3 DUP3 ADD SWAP1 POP DUP1 DUP3 GT ISZERO PUSH2 0xD4F JUMPI PUSH2 0xD4E PUSH2 0xA7C JUMP JUMPDEST JUMPDEST SWAP3 SWAP2 POP POP JUMP INVALID LOG2 PUSH5 0x6970667358 0x22 SLT KECCAK256 XOR DUP2 CODESIZE CODESIZE PUSH5 0x4AED219341 CALLCODE 0xD9 PUSH24 0x5BD44EADFB41397807BEA4094C17DCF9CB06F764736F6C63 NUMBER STOP ADDMOD 0x1F STOP CALLER "
				},
				"gasEstimates": {
					"creation": {
						"codeDepositCost": "693400",
						"executionCost": "24991",
						"totalCost": "718391"
					},
					"external": {
						"addressToAmountFunded(address)": "2847",
						"fund()": "infinite",
						"funders(uint256)": "5009",
						"getConversionRate(uint256)": "infinite",
						"getPrice()": "infinite",
						"minimumUsd()": "326",
						"owner()": "2508",
						"withdraw()": "infinite"
					}
				},
				"methodIdentifiers": {
					"addressToAmountFunded(address)": "3e47d6f3",
					"fund()": "b60d4288",
					"funders(uint256)": "dc0d3dff",
					"getConversionRate(uint256)": "6e5b6b28",
					"getPrice()": "98d5fdca",
					"minimumUsd()": "098de820",
					"owner()": "8da5cb5b",
					"withdraw()": "3ccfd60b"
				}
			},
			"storageLayout": {
				"storage": [
					{
						"astId": 54,
						"contract": "FundMe.sol:FundMe",
						"label": "funders",
						"offset": 0,
						"slot": "0",
						"type": "t_array(t_address)dyn_storage"
					},
					{
						"astId": 58,
						"contract": "FundMe.sol:FundMe",
						"label": "addressToAmountFunded",
						"offset": 0,
						"slot": "1",
						"type": "t_mapping(t_address,t_uint256)"
					},
					{
						"astId": 60,
						"contract": "FundMe.sol:FundMe",
						"label": "owner",
						"offset": 0,
						"slot": "2",
						"type": "t_address"
					}
				],
				"types": {
					"t_address": {
						"encoding": "inplace",
						"label": "address",
						"numberOfBytes": "20"
					},
					"t_array(t_address)dyn_storage": {
						"base": "t_address",
						"encoding": "dynamic_array",
						"label": "address[]",
						"numberOfBytes": "32"
					},
					"t_mapping(t_address,t_uint256)": {
						"encoding": "mapping",
						"key": "t_address",
						"label": "mapping(address => uint256)",
						"numberOfBytes": "32",
						"value": "t_uint256"
					},
					"t_uint256": {
						"encoding": "inplace",
						"label": "uint256",
						"numberOfBytes": "32"
					}
				}
			},
			"userdoc": {
				"kind": "user",
				"methods": {},
				"version": 1
			}
		}
	}
}