{
	"FundMe.sol": {
		"FundMe": {
			"abi": [
				{
					"inputs": [
						{
							"internalType": "address",
							"name": "",
							"type": "address"
						}
					],
					"name": "addressToAmountFunded",
					"outputs": [
						{
							"internalType": "uint256",
							"name": "",
							"type": "uint256"
						}
					],
					"stateMutability": "view",
					"type": "function"
				},
				{
					"inputs": [],
					"name": "fund",
					"outputs": [],
					"stateMutability": "payable",
					"type": "function"
				},
				{
					"inputs": [
						{
							"internalType": "uint256",
							"name": "",
							"type": "uint256"
						}
					],
					"name": "funders",
					"outputs": [
						{
							"internalType": "address",
							"name": "",
							"type": "address"
						}
					],
					"stateMutability": "view",
					"type": "function"
				},
				{
					"inputs": [
						{
							"internalType": "uint256",
							"name": "ethAmount",
							"type": "uint256"
						}
					],
					"name": "getConversionRate",
					"outputs": [
						{
							"internalType": "uint256",
							"name": "",
							"type": "uint256"
						}
					],
					"stateMutability": "view",
					"type": "function"
				},
				{
					"inputs": [],
					"name": "getPrice",
					"outputs": [
						{
							"internalType": "uint256",
							"name": "",
							"type": "uint256"
						}
					],
					"stateMutability": "view",
					"type": "function"
				},
				{
					"inputs": [],
					"name": "minimumUsd",
					"outputs": [
						{
							"internalType": "uint256",
							"name": "",
							"type": "uint256"
						}
					],
					"stateMutability": "view",
					"type": "function"
				},
				{
					"inputs": [],
					"name": "withdraw",
					"outputs": [],
					"stateMutability": "nonpayable",
					"type": "function"
				}
			],
			"devdoc": {
				"kind": "dev",
				"methods": {},
				"version": 1
			},
			"evm": {
				"assembly": "    /* \"FundMe.sol\":141:1678  contract FundMe {... */\n  mstore(0x40, 0x80)\n    /* \"FundMe.sol\":194:198  5e18 */\n  0x4563918244f40000\n    /* \"FundMe.sol\":166:198  uint256 public minimumUsd = 5e18 */\n  0x00\n  sstore\n    /* \"FundMe.sol\":141:1678  contract FundMe {... */\n  callvalue\n  dup1\n  iszero\n  tag_1\n  jumpi\n  revert(0x00, 0x00)\ntag_1:\n  pop\n  dataSize(sub_0)\n  dup1\n  dataOffset(sub_0)\n  0x00\n  codecopy\n  0x00\n  return\nstop\n\nsub_0: assembly {\n        /* \"FundMe.sol\":141:1678  contract FundMe {... */\n      mstore(0x40, 0x80)\n      jumpi(tag_1, lt(calldatasize, 0x04))\n      shr(0xe0, calldataload(0x00))\n      dup1\n      0x6e5b6b28\n      gt\n      tag_9\n      jumpi\n      dup1\n      0x6e5b6b28\n      eq\n      tag_5\n      jumpi\n      dup1\n      0x98d5fdca\n      eq\n      tag_6\n      jumpi\n      dup1\n      0xb60d4288\n      eq\n      tag_7\n      jumpi\n      dup1\n      0xdc0d3dff\n      eq\n      tag_8\n      jumpi\n      jump(tag_1)\n    tag_9:\n      dup1\n      0x098de820\n      eq\n      tag_2\n      jumpi\n      dup1\n      0x3ccfd60b\n      eq\n      tag_3\n      jumpi\n      dup1\n      0x3e47d6f3\n      eq\n      tag_4\n      jumpi\n    tag_1:\n      revert(0x00, 0x00)\n        /* \"FundMe.sol\":166:198  uint256 public minimumUsd = 5e18 */\n    tag_2:\n      callvalue\n      dup1\n      iszero\n      tag_10\n      jumpi\n      revert(0x00, 0x00)\n    tag_10:\n      pop\n      tag_11\n      tag_12\n      jump\t// in\n    tag_11:\n      mload(0x40)\n      tag_13\n      swap2\n      swap1\n      tag_14\n      jump\t// in\n    tag_13:\n      mload(0x40)\n      dup1\n      swap2\n      sub\n      swap1\n      return\n        /* \"FundMe.sol\":1098:1675  function withdraw() public {... */\n    tag_3:\n      callvalue\n      dup1\n      iszero\n      tag_15\n      jumpi\n      revert(0x00, 0x00)\n    tag_15:\n      pop\n      tag_16\n      tag_17\n      jump\t// in\n    tag_16:\n      stop\n        /* \"FundMe.sol\":238:294  mapping(address => uint256) public addressToAmountFunded */\n    tag_4:\n      callvalue\n      dup1\n      iszero\n      tag_18\n      jumpi\n      revert(0x00, 0x00)\n    tag_18:\n      pop\n      tag_19\n      0x04\n      dup1\n      calldatasize\n      sub\n      dup2\n      add\n      swap1\n      tag_20\n      swap2\n      swap1\n      tag_21\n      jump\t// in\n    tag_20:\n      tag_22\n      jump\t// in\n    tag_19:\n      mload(0x40)\n      tag_23\n      swap2\n      swap1\n      tag_14\n      jump\t// in\n    tag_23:\n      mload(0x40)\n      dup1\n      swap2\n      sub\n      swap1\n      return\n        /* \"FundMe.sol\":888:1090  function getConversionRate(uint256 ethAmount)... */\n    tag_5:\n      callvalue\n      dup1\n      iszero\n      tag_24\n      jumpi\n      revert(0x00, 0x00)\n    tag_24:\n      pop\n      tag_25\n      0x04\n      dup1\n      calldatasize\n      sub\n      dup2\n      add\n      swap1\n      tag_26\n      swap2\n      swap1\n      tag_27\n      jump\t// in\n    tag_26:\n      tag_28\n      jump\t// in\n    tag_25:\n      mload(0x40)\n      tag_29\n      swap2\n      swap1\n      tag_14\n      jump\t// in\n    tag_29:\n      mload(0x40)\n      dup1\n      swap2\n      sub\n      swap1\n      return\n        /* \"FundMe.sol\":598:880  function getPrice() public view returns (uint256) {... */\n    tag_6:\n      callvalue\n      dup1\n      iszero\n      tag_30\n      jumpi\n      revert(0x00, 0x00)\n    tag_30:\n      pop\n      tag_31\n      tag_32\n      jump\t// in\n    tag_31:\n      mload(0x40)\n      tag_33\n      swap2\n      swap1\n      tag_14\n      jump\t// in\n    tag_33:\n      mload(0x40)\n      dup1\n      swap2\n      sub\n      swap1\n      return\n        /* \"FundMe.sol\":303:590  function fund() public payable {... */\n    tag_7:\n      tag_34\n      tag_35\n      jump\t// in\n    tag_34:\n      stop\n        /* \"FundMe.sol\":207:231  address[] public funders */\n    tag_8:\n      callvalue\n      dup1\n      iszero\n      tag_36\n      jumpi\n      revert(0x00, 0x00)\n    tag_36:\n      pop\n      tag_37\n      0x04\n      dup1\n      calldatasize\n      sub\n      dup2\n      add\n      swap1\n      tag_38\n      swap2\n      swap1\n      tag_27\n      jump\t// in\n    tag_38:\n      tag_39\n      jump\t// in\n    tag_37:\n      mload(0x40)\n      tag_40\n      swap2\n      swap1\n      tag_41\n      jump\t// in\n    tag_40:\n      mload(0x40)\n      dup1\n      swap2\n      sub\n      swap1\n      return\n        /* \"FundMe.sol\":166:198  uint256 public minimumUsd = 5e18 */\n    tag_12:\n      sload(0x00)\n      dup2\n      jump\t// out\n        /* \"FundMe.sol\":1098:1675  function withdraw() public {... */\n    tag_17:\n        /* \"FundMe.sol\":1140:1159  uint256 funderIndex */\n      0x00\n        /* \"FundMe.sol\":1160:1161  0 */\n      0x00\n        /* \"FundMe.sol\":1140:1161  uint256 funderIndex=0 */\n      swap1\n      pop\n        /* \"FundMe.sol\":1136:1317  for(uint256 funderIndex=0; funderIndex<funders.length; funderIndex++){... */\n    tag_43:\n        /* \"FundMe.sol\":1175:1182  funders */\n      0x01\n        /* \"FundMe.sol\":1175:1189  funders.length */\n      dup1\n      sload\n      swap1\n      pop\n        /* \"FundMe.sol\":1163:1174  funderIndex */\n      dup2\n        /* \"FundMe.sol\":1163:1189  funderIndex<funders.length */\n      lt\n        /* \"FundMe.sol\":1136:1317  for(uint256 funderIndex=0; funderIndex<funders.length; funderIndex++){... */\n      iszero\n      tag_44\n      jumpi\n        /* \"FundMe.sol\":1220:1234  address funder */\n      0x00\n        /* \"FundMe.sol\":1237:1244  funders */\n      0x01\n        /* \"FundMe.sol\":1245:1256  funderIndex */\n      dup3\n        /* \"FundMe.sol\":1237:1257  funders[funderIndex] */\n      dup2\n      sload\n      dup2\n      lt\n      tag_46\n      jumpi\n      tag_47\n      tag_48\n      jump\t// in\n    tag_47:\n    tag_46:\n      swap1\n      0x00\n      mstore\n      keccak256(0x00, 0x20)\n      add\n      0x00\n      swap1\n      sload\n      swap1\n      0x0100\n      exp\n      swap1\n      div\n      0xffffffffffffffffffffffffffffffffffffffff\n      and\n        /* \"FundMe.sol\":1220:1257  address funder = funders[funderIndex] */\n      swap1\n      pop\n        /* \"FundMe.sol\":1304:1305  0 */\n      0x00\n        /* \"FundMe.sol\":1272:1293  addressToAmountFunded */\n      0x02\n        /* \"FundMe.sol\":1272:1301  addressToAmountFunded[funder] */\n      0x00\n        /* \"FundMe.sol\":1294:1300  funder */\n      dup4\n        /* \"FundMe.sol\":1272:1301  addressToAmountFunded[funder] */\n      0xffffffffffffffffffffffffffffffffffffffff\n      and\n      0xffffffffffffffffffffffffffffffffffffffff\n      and\n      dup2\n      mstore\n      0x20\n      add\n      swap1\n      dup2\n      mstore\n      0x20\n      add\n      0x00\n      keccak256\n        /* \"FundMe.sol\":1272:1305  addressToAmountFunded[funder] = 0 */\n      dup2\n      swap1\n      sstore\n      pop\n        /* \"FundMe.sol\":1205:1317  {... */\n      pop\n        /* \"FundMe.sol\":1191:1204  funderIndex++ */\n      dup1\n      dup1\n      0x01\n      add\n      swap2\n      pop\n      pop\n        /* \"FundMe.sol\":1136:1317  for(uint256 funderIndex=0; funderIndex<funders.length; funderIndex++){... */\n      jump(tag_43)\n    tag_44:\n      pop\n        /* \"FundMe.sol\":1351:1352  0 */\n      0x00\n        /* \"FundMe.sol\":1337:1353  new address[](0) */\n      0xffffffffffffffff\n      dup2\n      gt\n      iszero\n      tag_50\n      jumpi\n      tag_51\n      tag_52\n      jump\t// in\n    tag_51:\n    tag_50:\n      mload(0x40)\n      swap1\n      dup1\n      dup3\n      mstore\n      dup1\n      0x20\n      mul\n      0x20\n      add\n      dup3\n      add\n      0x40\n      mstore\n      dup1\n      iszero\n      tag_53\n      jumpi\n      dup2\n      0x20\n      add\n      0x20\n      dup3\n      mul\n      dup1\n      calldatasize\n      dup4\n      calldatacopy\n      dup1\n      dup3\n      add\n      swap2\n      pop\n      pop\n      swap1\n      pop\n    tag_53:\n      pop\n        /* \"FundMe.sol\":1327:1334  funders */\n      0x01\n        /* \"FundMe.sol\":1327:1353  funders = new address[](0) */\n      swap1\n      dup1\n      mload\n      swap1\n      0x20\n      add\n      swap1\n      tag_54\n      swap3\n      swap2\n      swap1\n      tag_55\n      jump\t// in\n    tag_54:\n      pop\n        /* \"FundMe.sol\":1395:1405  msg.sender */\n      caller\n        /* \"FundMe.sol\":1387:1415  payable(msg.sender).transfer */\n      0xffffffffffffffffffffffffffffffffffffffff\n      and\n        /* \"FundMe.sol\":1387:1438  payable(msg.sender).transfer(address(this).balance) */\n      0x08fc\n        /* \"FundMe.sol\":1416:1437  address(this).balance */\n      selfbalance\n        /* \"FundMe.sol\":1387:1438  payable(msg.sender).transfer(address(this).balance) */\n      swap1\n      dup2\n      iszero\n      mul\n      swap1\n      mload(0x40)\n      0x00\n      mload(0x40)\n      dup1\n      dup4\n      sub\n      dup2\n      dup6\n      dup9\n      dup9\n      call\n      swap4\n      pop\n      pop\n      pop\n      pop\n      iszero\n      dup1\n      iszero\n      tag_57\n      jumpi\n      returndatacopy(0x00, 0x00, returndatasize)\n      revert(0x00, returndatasize)\n    tag_57:\n      pop\n        /* \"FundMe.sol\":1465:1481  bool sendSuccess */\n      0x00\n        /* \"FundMe.sol\":1492:1502  msg.sender */\n      caller\n        /* \"FundMe.sol\":1484:1508  payable(msg.sender).send */\n      0xffffffffffffffffffffffffffffffffffffffff\n      and\n        /* \"FundMe.sol\":1484:1531  payable(msg.sender).send(address(this).balance) */\n      0x08fc\n        /* \"FundMe.sol\":1509:1530  address(this).balance */\n      selfbalance\n        /* \"FundMe.sol\":1484:1531  payable(msg.sender).send(address(this).balance) */\n      swap1\n      dup2\n      iszero\n      mul\n      swap1\n      mload(0x40)\n      0x00\n      mload(0x40)\n      dup1\n      dup4\n      sub\n      dup2\n      dup6\n      dup9\n      dup9\n      call\n      swap4\n      pop\n      pop\n      pop\n      pop\n        /* \"FundMe.sol\":1465:1531  bool sendSuccess = payable(msg.sender).send(address(this).balance) */\n      swap1\n      pop\n        /* \"FundMe.sol\":1550:1561  sendSuccess */\n      dup1\n        /* \"FundMe.sol\":1542:1577  require(sendSuccess, \"Send failed\") */\n      tag_59\n      jumpi\n      mload(0x40)\n      0x08c379a000000000000000000000000000000000000000000000000000000000\n      dup2\n      mstore\n      0x04\n      add\n      tag_60\n      swap1\n      tag_61\n      jump\t// in\n    tag_60:\n      mload(0x40)\n      dup1\n      swap2\n      sub\n      swap1\n      revert\n    tag_59:\n        /* \"FundMe.sol\":1590:1605  bool callSucces */\n      0x00\n        /* \"FundMe.sol\":1617:1627  msg.sender */\n      caller\n        /* \"FundMe.sol\":1609:1633  payable(msg.sender).call */\n      0xffffffffffffffffffffffffffffffffffffffff\n      and\n        /* \"FundMe.sol\":1641:1662  address(this).balance */\n      selfbalance\n        /* \"FundMe.sol\":1609:1667  payable(msg.sender).call{value: address(this).balance}(\"\") */\n      mload(0x40)\n      tag_62\n      swap1\n      tag_63\n      jump\t// in\n    tag_62:\n      0x00\n      mload(0x40)\n      dup1\n      dup4\n      sub\n      dup2\n      dup6\n      dup8\n      gas\n      call\n      swap3\n      pop\n      pop\n      pop\n      returndatasize\n      dup1\n      0x00\n      dup2\n      eq\n      tag_66\n      jumpi\n      mload(0x40)\n      swap2\n      pop\n      and(add(returndatasize, 0x3f), not(0x1f))\n      dup3\n      add\n      0x40\n      mstore\n      returndatasize\n      dup3\n      mstore\n      returndatasize\n      0x00\n      0x20\n      dup5\n      add\n      returndatacopy\n      jump(tag_65)\n    tag_66:\n      0x60\n      swap2\n      pop\n    tag_65:\n      pop\n        /* \"FundMe.sol\":1589:1667  (bool callSucces,)= payable(msg.sender).call{value: address(this).balance}(\"\") */\n      pop\n      swap1\n      pop\n        /* \"FundMe.sol\":1125:1675  {... */\n      pop\n      pop\n        /* \"FundMe.sol\":1098:1675  function withdraw() public {... */\n      jump\t// out\n        /* \"FundMe.sol\":238:294  mapping(address => uint256) public addressToAmountFunded */\n    tag_22:\n      mstore(0x20, 0x02)\n      dup1\n      0x00\n      mstore\n      keccak256(0x00, 0x40)\n      0x00\n      swap2\n      pop\n      swap1\n      pop\n      sload\n      dup2\n      jump\t// out\n        /* \"FundMe.sol\":888:1090  function getConversionRate(uint256 ethAmount)... */\n    tag_28:\n        /* \"FundMe.sol\":981:988  uint256 */\n      0x00\n        /* \"FundMe.sol\":1006:1022  uint256 ethPrice */\n      0x00\n        /* \"FundMe.sol\":1025:1035  getPrice() */\n      tag_68\n        /* \"FundMe.sol\":1025:1033  getPrice */\n      tag_32\n        /* \"FundMe.sol\":1025:1035  getPrice() */\n      jump\t// in\n    tag_68:\n        /* \"FundMe.sol\":1006:1035  uint256 ethPrice = getPrice() */\n      swap1\n      pop\n        /* \"FundMe.sol\":1078:1082  1e18 */\n      0x0de0b6b3a7640000\n        /* \"FundMe.sol\":1065:1074  ethAmount */\n      dup4\n        /* \"FundMe.sol\":1054:1062  ethPrice */\n      dup3\n        /* \"FundMe.sol\":1054:1074  ethPrice * ethAmount */\n      tag_69\n      swap2\n      swap1\n      tag_70\n      jump\t// in\n    tag_69:\n        /* \"FundMe.sol\":1053:1082  (ethPrice * ethAmount) / 1e18 */\n      tag_71\n      swap2\n      swap1\n      tag_72\n      jump\t// in\n    tag_71:\n        /* \"FundMe.sol\":1046:1082  return (ethPrice * ethAmount) / 1e18 */\n      swap2\n      pop\n      pop\n        /* \"FundMe.sol\":888:1090  function getConversionRate(uint256 ethAmount)... */\n      swap2\n      swap1\n      pop\n      jump\t// out\n        /* \"FundMe.sol\":598:880  function getPrice() public view returns (uint256) {... */\n    tag_32:\n        /* \"FundMe.sol\":639:646  uint256 */\n      0x00\n        /* \"FundMe.sol\":659:690  AggregatorV3Interface priceFeed */\n      0x00\n        /* \"FundMe.sol\":728:770  0x694AA1769357215DE4FAC081bf1f309aDC325306 */\n      0x694aa1769357215de4fac081bf1f309adc325306\n        /* \"FundMe.sol\":659:771  AggregatorV3Interface priceFeed =... */\n      swap1\n      pop\n        /* \"FundMe.sol\":787:799  int256 price */\n      0x00\n        /* \"FundMe.sol\":806:815  priceFeed */\n      dup2\n        /* \"FundMe.sol\":806:831  priceFeed.latestRoundData */\n      0xffffffffffffffffffffffffffffffffffffffff\n      and\n      0xfeaf968c\n        /* \"FundMe.sol\":806:833  priceFeed.latestRoundData() */\n      mload(0x40)\n      dup2\n      0xffffffff\n      and\n      0xe0\n      shl\n      dup2\n      mstore\n      0x04\n      add\n      0xa0\n      mload(0x40)\n      dup1\n      dup4\n      sub\n      dup2\n      dup7\n      gas\n      staticcall\n      iszero\n      dup1\n      iszero\n      tag_75\n      jumpi\n      returndatacopy(0x00, 0x00, returndatasize)\n      revert(0x00, returndatasize)\n    tag_75:\n      pop\n      pop\n      pop\n      pop\n      mload(0x40)\n      returndatasize\n      not(0x1f)\n      0x1f\n      dup3\n      add\n      and\n      dup3\n      add\n      dup1\n      0x40\n      mstore\n      pop\n      dup2\n      add\n      swap1\n      tag_76\n      swap2\n      swap1\n      tag_77\n      jump\t// in\n    tag_76:\n        /* \"FundMe.sol\":784:833  (, int256 price,,,) = priceFeed.latestRoundData() */\n      pop\n      pop\n      pop\n      swap2\n      pop\n      pop\n        /* \"FundMe.sol\":867:871  1e10 */\n      0x02540be400\n        /* \"FundMe.sol\":859:864  price */\n      dup2\n        /* \"FundMe.sol\":859:871  price * 1e10 */\n      tag_78\n      swap2\n      swap1\n      tag_79\n      jump\t// in\n    tag_78:\n        /* \"FundMe.sol\":844:872  return uint256(price * 1e10) */\n      swap3\n      pop\n      pop\n      pop\n        /* \"FundMe.sol\":598:880  function getPrice() public view returns (uint256) {... */\n      swap1\n      jump\t// out\n        /* \"FundMe.sol\":303:590  function fund() public payable {... */\n    tag_35:\n        /* \"FundMe.sol\":385:395  minimumUsd */\n      sload(0x00)\n        /* \"FundMe.sol\":353:381  getConversionRate(msg.value) */\n      tag_81\n        /* \"FundMe.sol\":371:380  msg.value */\n      callvalue\n        /* \"FundMe.sol\":353:370  getConversionRate */\n      tag_28\n        /* \"FundMe.sol\":353:381  getConversionRate(msg.value) */\n      jump\t// in\n    tag_81:\n        /* \"FundMe.sol\":353:395  getConversionRate(msg.value) >= minimumUsd */\n      lt\n      iszero\n        /* \"FundMe.sol\":345:418  require(getConversionRate(msg.value) >= minimumUsd, \"Didn't send enough\") */\n      tag_82\n      jumpi\n      mload(0x40)\n      0x08c379a000000000000000000000000000000000000000000000000000000000\n      dup2\n      mstore\n      0x04\n      add\n      tag_83\n      swap1\n      tag_84\n      jump\t// in\n    tag_83:\n      mload(0x40)\n      dup1\n      swap2\n      sub\n      swap1\n      revert\n    tag_82:\n        /* \"FundMe.sol\":471:472  0 */\n      0x00\n        /* \"FundMe.sol\":434:455  addressToAmountFunded */\n      0x02\n        /* \"FundMe.sol\":434:467  addressToAmountFunded[msg.sender] */\n      0x00\n        /* \"FundMe.sol\":456:466  msg.sender */\n      caller\n        /* \"FundMe.sol\":434:467  addressToAmountFunded[msg.sender] */\n      0xffffffffffffffffffffffffffffffffffffffff\n      and\n      0xffffffffffffffffffffffffffffffffffffffff\n      and\n      dup2\n      mstore\n      0x20\n      add\n      swap1\n      dup2\n      mstore\n      0x20\n      add\n      0x00\n      keccak256\n      sload\n        /* \"FundMe.sol\":434:472  addressToAmountFunded[msg.sender] == 0 */\n      sub\n        /* \"FundMe.sol\":431:524  if(addressToAmountFunded[msg.sender] == 0){... */\n      tag_85\n      jumpi\n        /* \"FundMe.sol\":488:495  funders */\n      0x01\n        /* \"FundMe.sol\":501:511  msg.sender */\n      caller\n        /* \"FundMe.sol\":488:512  funders.push(msg.sender) */\n      swap1\n      dup1\n      0x01\n      dup2\n      sload\n      add\n      dup1\n      dup3\n      sstore\n      dup1\n      swap2\n      pop\n      pop\n      0x01\n      swap1\n      sub\n      swap1\n      0x00\n      mstore\n      keccak256(0x00, 0x20)\n      add\n      0x00\n      swap1\n      swap2\n      swap1\n      swap2\n      swap1\n      swap2\n      0x0100\n      exp\n      dup2\n      sload\n      dup2\n      0xffffffffffffffffffffffffffffffffffffffff\n      mul\n      not\n      and\n      swap1\n      dup4\n      0xffffffffffffffffffffffffffffffffffffffff\n      and\n      mul\n      or\n      swap1\n      sstore\n      pop\n        /* \"FundMe.sol\":431:524  if(addressToAmountFunded[msg.sender] == 0){... */\n    tag_85:\n        /* \"FundMe.sol\":573:582  msg.value */\n      callvalue\n        /* \"FundMe.sol\":536:557  addressToAmountFunded */\n      0x02\n        /* \"FundMe.sol\":536:569  addressToAmountFunded[msg.sender] */\n      0x00\n        /* \"FundMe.sol\":558:568  msg.sender */\n      caller\n        /* \"FundMe.sol\":536:569  addressToAmountFunded[msg.sender] */\n      0xffffffffffffffffffffffffffffffffffffffff\n      and\n      0xffffffffffffffffffffffffffffffffffffffff\n      and\n      dup2\n      mstore\n      0x20\n      add\n      swap1\n      dup2\n      mstore\n      0x20\n      add\n      0x00\n      keccak256\n      0x00\n        /* \"FundMe.sol\":536:582  addressToAmountFunded[msg.sender] += msg.value */\n      dup3\n      dup3\n      sload\n      tag_87\n      swap2\n      swap1\n      tag_88\n      jump\t// in\n    tag_87:\n      swap3\n      pop\n      pop\n      dup2\n      swap1\n      sstore\n      pop\n        /* \"FundMe.sol\":303:590  function fund() public payable {... */\n      jump\t// out\n        /* \"FundMe.sol\":207:231  address[] public funders */\n    tag_39:\n      0x01\n      dup2\n      dup2\n      sload\n      dup2\n      lt\n      tag_89\n      jumpi\n      0x00\n      dup1\n      revert\n    tag_89:\n      swap1\n      0x00\n      mstore\n      keccak256(0x00, 0x20)\n      add\n      0x00\n      swap2\n      pop\n      sload\n      swap1\n      0x0100\n      exp\n      swap1\n      div\n      0xffffffffffffffffffffffffffffffffffffffff\n      and\n      dup2\n      jump\t// out\n    tag_55:\n      dup3\n      dup1\n      sload\n      dup3\n      dup3\n      sstore\n      swap1\n      0x00\n      mstore\n      keccak256(0x00, 0x20)\n      swap1\n      dup2\n      add\n      swap3\n      dup3\n      iszero\n      tag_91\n      jumpi\n      swap2\n      0x20\n      mul\n      dup3\n      add\n    tag_92:\n      dup3\n      dup2\n      gt\n      iszero\n      tag_93\n      jumpi\n      dup3\n      mload\n      dup3\n      exp(0x0100, 0x00)\n      dup2\n      sload\n      dup2\n      0xffffffffffffffffffffffffffffffffffffffff\n      mul\n      not\n      and\n      swap1\n      dup4\n      0xffffffffffffffffffffffffffffffffffffffff\n      and\n      mul\n      or\n      swap1\n      sstore\n      pop\n      swap2\n      0x20\n      add\n      swap2\n      swap1\n      0x01\n      add\n      swap1\n      jump(tag_92)\n    tag_93:\n    tag_91:\n      pop\n      swap1\n      pop\n      tag_94\n      swap2\n      swap1\n      tag_95\n      jump\t// in\n    tag_94:\n      pop\n      swap1\n      jump\t// out\n    tag_95:\n    tag_96:\n      dup1\n      dup3\n      gt\n      iszero\n      tag_97\n      jumpi\n      0x00\n      dup2\n      0x00\n      swap1\n      sstore\n      pop\n      0x01\n      add\n      jump(tag_96)\n    tag_97:\n      pop\n      swap1\n      jump\t// out\n        /* \"#utility.yul\":7:84   */\n    tag_98:\n        /* \"#utility.yul\":44:51   */\n      0x00\n        /* \"#utility.yul\":73:78   */\n      dup2\n        /* \"#utility.yul\":62:78   */\n      swap1\n      pop\n        /* \"#utility.yul\":7:84   */\n      swap2\n      swap1\n      pop\n      jump\t// out\n        /* \"#utility.yul\":90:208   */\n    tag_99:\n        /* \"#utility.yul\":177:201   */\n      tag_130\n        /* \"#utility.yul\":195:200   */\n      dup2\n        /* \"#utility.yul\":177:201   */\n      tag_98\n      jump\t// in\n    tag_130:\n        /* \"#utility.yul\":172:175   */\n      dup3\n        /* \"#utility.yul\":165:202   */\n      mstore\n        /* \"#utility.yul\":90:208   */\n      pop\n      pop\n      jump\t// out\n        /* \"#utility.yul\":214:436   */\n    tag_14:\n        /* \"#utility.yul\":307:311   */\n      0x00\n        /* \"#utility.yul\":345:347   */\n      0x20\n        /* \"#utility.yul\":334:343   */\n      dup3\n        /* \"#utility.yul\":330:348   */\n      add\n        /* \"#utility.yul\":322:348   */\n      swap1\n      pop\n        /* \"#utility.yul\":358:429   */\n      tag_132\n        /* \"#utility.yul\":426:427   */\n      0x00\n        /* \"#utility.yul\":415:424   */\n      dup4\n        /* \"#utility.yul\":411:428   */\n      add\n        /* \"#utility.yul\":402:408   */\n      dup5\n        /* \"#utility.yul\":358:429   */\n      tag_99\n      jump\t// in\n    tag_132:\n        /* \"#utility.yul\":214:436   */\n      swap3\n      swap2\n      pop\n      pop\n      jump\t// out\n        /* \"#utility.yul\":523:640   */\n    tag_101:\n        /* \"#utility.yul\":632:633   */\n      0x00\n        /* \"#utility.yul\":629:630   */\n      0x00\n        /* \"#utility.yul\":622:634   */\n      revert\n        /* \"#utility.yul\":769:895   */\n    tag_103:\n        /* \"#utility.yul\":806:813   */\n      0x00\n        /* \"#utility.yul\":846:888   */\n      0xffffffffffffffffffffffffffffffffffffffff\n        /* \"#utility.yul\":839:844   */\n      dup3\n        /* \"#utility.yul\":835:889   */\n      and\n        /* \"#utility.yul\":824:889   */\n      swap1\n      pop\n        /* \"#utility.yul\":769:895   */\n      swap2\n      swap1\n      pop\n      jump\t// out\n        /* \"#utility.yul\":901:997   */\n    tag_104:\n        /* \"#utility.yul\":938:945   */\n      0x00\n        /* \"#utility.yul\":967:991   */\n      tag_138\n        /* \"#utility.yul\":985:990   */\n      dup3\n        /* \"#utility.yul\":967:991   */\n      tag_103\n      jump\t// in\n    tag_138:\n        /* \"#utility.yul\":956:991   */\n      swap1\n      pop\n        /* \"#utility.yul\":901:997   */\n      swap2\n      swap1\n      pop\n      jump\t// out\n        /* \"#utility.yul\":1003:1125   */\n    tag_105:\n        /* \"#utility.yul\":1076:1100   */\n      tag_140\n        /* \"#utility.yul\":1094:1099   */\n      dup2\n        /* \"#utility.yul\":1076:1100   */\n      tag_104\n      jump\t// in\n    tag_140:\n        /* \"#utility.yul\":1069:1074   */\n      dup2\n        /* \"#utility.yul\":1066:1101   */\n      eq\n        /* \"#utility.yul\":1056:1119   */\n      tag_141\n      jumpi\n        /* \"#utility.yul\":1115:1116   */\n      0x00\n        /* \"#utility.yul\":1112:1113   */\n      0x00\n        /* \"#utility.yul\":1105:1117   */\n      revert\n        /* \"#utility.yul\":1056:1119   */\n    tag_141:\n        /* \"#utility.yul\":1003:1125   */\n      pop\n      jump\t// out\n        /* \"#utility.yul\":1131:1270   */\n    tag_106:\n        /* \"#utility.yul\":1177:1182   */\n      0x00\n        /* \"#utility.yul\":1215:1221   */\n      dup2\n        /* \"#utility.yul\":1202:1222   */\n      calldataload\n        /* \"#utility.yul\":1193:1222   */\n      swap1\n      pop\n        /* \"#utility.yul\":1231:1264   */\n      tag_143\n        /* \"#utility.yul\":1258:1263   */\n      dup2\n        /* \"#utility.yul\":1231:1264   */\n      tag_105\n      jump\t// in\n    tag_143:\n        /* \"#utility.yul\":1131:1270   */\n      swap3\n      swap2\n      pop\n      pop\n      jump\t// out\n        /* \"#utility.yul\":1276:1605   */\n    tag_21:\n        /* \"#utility.yul\":1335:1341   */\n      0x00\n        /* \"#utility.yul\":1384:1386   */\n      0x20\n        /* \"#utility.yul\":1372:1381   */\n      dup3\n        /* \"#utility.yul\":1363:1370   */\n      dup5\n        /* \"#utility.yul\":1359:1382   */\n      sub\n        /* \"#utility.yul\":1355:1387   */\n      slt\n        /* \"#utility.yul\":1352:1471   */\n      iszero\n      tag_145\n      jumpi\n        /* \"#utility.yul\":1390:1469   */\n      tag_146\n      tag_101\n      jump\t// in\n    tag_146:\n        /* \"#utility.yul\":1352:1471   */\n    tag_145:\n        /* \"#utility.yul\":1510:1511   */\n      0x00\n        /* \"#utility.yul\":1535:1588   */\n      tag_147\n        /* \"#utility.yul\":1580:1587   */\n      dup5\n        /* \"#utility.yul\":1571:1577   */\n      dup3\n        /* \"#utility.yul\":1560:1569   */\n      dup6\n        /* \"#utility.yul\":1556:1578   */\n      add\n        /* \"#utility.yul\":1535:1588   */\n      tag_106\n      jump\t// in\n    tag_147:\n        /* \"#utility.yul\":1525:1588   */\n      swap2\n      pop\n        /* \"#utility.yul\":1481:1598   */\n      pop\n        /* \"#utility.yul\":1276:1605   */\n      swap3\n      swap2\n      pop\n      pop\n      jump\t// out\n        /* \"#utility.yul\":1611:1733   */\n    tag_107:\n        /* \"#utility.yul\":1684:1708   */\n      tag_149\n        /* \"#utility.yul\":1702:1707   */\n      dup2\n        /* \"#utility.yul\":1684:1708   */\n      tag_98\n      jump\t// in\n    tag_149:\n        /* \"#utility.yul\":1677:1682   */\n      dup2\n        /* \"#utility.yul\":1674:1709   */\n      eq\n        /* \"#utility.yul\":1664:1727   */\n      tag_150\n      jumpi\n        /* \"#utility.yul\":1723:1724   */\n      0x00\n        /* \"#utility.yul\":1720:1721   */\n      0x00\n        /* \"#utility.yul\":1713:1725   */\n      revert\n        /* \"#utility.yul\":1664:1727   */\n    tag_150:\n        /* \"#utility.yul\":1611:1733   */\n      pop\n      jump\t// out\n        /* \"#utility.yul\":1739:1878   */\n    tag_108:\n        /* \"#utility.yul\":1785:1790   */\n      0x00\n        /* \"#utility.yul\":1823:1829   */\n      dup2\n        /* \"#utility.yul\":1810:1830   */\n      calldataload\n        /* \"#utility.yul\":1801:1830   */\n      swap1\n      pop\n        /* \"#utility.yul\":1839:1872   */\n      tag_152\n        /* \"#utility.yul\":1866:1871   */\n      dup2\n        /* \"#utility.yul\":1839:1872   */\n      tag_107\n      jump\t// in\n    tag_152:\n        /* \"#utility.yul\":1739:1878   */\n      swap3\n      swap2\n      pop\n      pop\n      jump\t// out\n        /* \"#utility.yul\":1884:2213   */\n    tag_27:\n        /* \"#utility.yul\":1943:1949   */\n      0x00\n        /* \"#utility.yul\":1992:1994   */\n      0x20\n        /* \"#utility.yul\":1980:1989   */\n      dup3\n        /* \"#utility.yul\":1971:1978   */\n      dup5\n        /* \"#utility.yul\":1967:1990   */\n      sub\n        /* \"#utility.yul\":1963:1995   */\n      slt\n        /* \"#utility.yul\":1960:2079   */\n      iszero\n      tag_154\n      jumpi\n        /* \"#utility.yul\":1998:2077   */\n      tag_155\n      tag_101\n      jump\t// in\n    tag_155:\n        /* \"#utility.yul\":1960:2079   */\n    tag_154:\n        /* \"#utility.yul\":2118:2119   */\n      0x00\n        /* \"#utility.yul\":2143:2196   */\n      tag_156\n        /* \"#utility.yul\":2188:2195   */\n      dup5\n        /* \"#utility.yul\":2179:2185   */\n      dup3\n        /* \"#utility.yul\":2168:2177   */\n      dup6\n        /* \"#utility.yul\":2164:2186   */\n      add\n        /* \"#utility.yul\":2143:2196   */\n      tag_108\n      jump\t// in\n    tag_156:\n        /* \"#utility.yul\":2133:2196   */\n      swap2\n      pop\n        /* \"#utility.yul\":2089:2206   */\n      pop\n        /* \"#utility.yul\":1884:2213   */\n      swap3\n      swap2\n      pop\n      pop\n      jump\t// out\n        /* \"#utility.yul\":2219:2337   */\n    tag_109:\n        /* \"#utility.yul\":2306:2330   */\n      tag_158\n        /* \"#utility.yul\":2324:2329   */\n      dup2\n        /* \"#utility.yul\":2306:2330   */\n      tag_104\n      jump\t// in\n    tag_158:\n        /* \"#utility.yul\":2301:2304   */\n      dup3\n        /* \"#utility.yul\":2294:2331   */\n      mstore\n        /* \"#utility.yul\":2219:2337   */\n      pop\n      pop\n      jump\t// out\n        /* \"#utility.yul\":2343:2565   */\n    tag_41:\n        /* \"#utility.yul\":2436:2440   */\n      0x00\n        /* \"#utility.yul\":2474:2476   */\n      0x20\n        /* \"#utility.yul\":2463:2472   */\n      dup3\n        /* \"#utility.yul\":2459:2477   */\n      add\n        /* \"#utility.yul\":2451:2477   */\n      swap1\n      pop\n        /* \"#utility.yul\":2487:2558   */\n      tag_160\n        /* \"#utility.yul\":2555:2556   */\n      0x00\n        /* \"#utility.yul\":2544:2553   */\n      dup4\n        /* \"#utility.yul\":2540:2557   */\n      add\n        /* \"#utility.yul\":2531:2537   */\n      dup5\n        /* \"#utility.yul\":2487:2558   */\n      tag_109\n      jump\t// in\n    tag_160:\n        /* \"#utility.yul\":2343:2565   */\n      swap3\n      swap2\n      pop\n      pop\n      jump\t// out\n        /* \"#utility.yul\":2571:2751   */\n    tag_48:\n        /* \"#utility.yul\":2619:2696   */\n      0x4e487b7100000000000000000000000000000000000000000000000000000000\n        /* \"#utility.yul\":2616:2617   */\n      0x00\n        /* \"#utility.yul\":2609:2697   */\n      mstore\n        /* \"#utility.yul\":2716:2720   */\n      0x32\n        /* \"#utility.yul\":2713:2714   */\n      0x04\n        /* \"#utility.yul\":2706:2721   */\n      mstore\n        /* \"#utility.yul\":2740:2744   */\n      0x24\n        /* \"#utility.yul\":2737:2738   */\n      0x00\n        /* \"#utility.yul\":2730:2745   */\n      revert\n        /* \"#utility.yul\":2757:2937   */\n    tag_52:\n        /* \"#utility.yul\":2805:2882   */\n      0x4e487b7100000000000000000000000000000000000000000000000000000000\n        /* \"#utility.yul\":2802:2803   */\n      0x00\n        /* \"#utility.yul\":2795:2883   */\n      mstore\n        /* \"#utility.yul\":2902:2906   */\n      0x41\n        /* \"#utility.yul\":2899:2900   */\n      0x04\n        /* \"#utility.yul\":2892:2907   */\n      mstore\n        /* \"#utility.yul\":2926:2930   */\n      0x24\n        /* \"#utility.yul\":2923:2924   */\n      0x00\n        /* \"#utility.yul\":2916:2931   */\n      revert\n        /* \"#utility.yul\":2943:3112   */\n    tag_110:\n        /* \"#utility.yul\":3027:3038   */\n      0x00\n        /* \"#utility.yul\":3061:3067   */\n      dup3\n        /* \"#utility.yul\":3056:3059   */\n      dup3\n        /* \"#utility.yul\":3049:3068   */\n      mstore\n        /* \"#utility.yul\":3101:3105   */\n      0x20\n        /* \"#utility.yul\":3096:3099   */\n      dup3\n        /* \"#utility.yul\":3092:3106   */\n      add\n        /* \"#utility.yul\":3077:3106   */\n      swap1\n      pop\n        /* \"#utility.yul\":2943:3112   */\n      swap3\n      swap2\n      pop\n      pop\n      jump\t// out\n        /* \"#utility.yul\":3118:3279   */\n    tag_111:\n        /* \"#utility.yul\":3258:3271   */\n      0x53656e64206661696c6564000000000000000000000000000000000000000000\n        /* \"#utility.yul\":3254:3255   */\n      0x00\n        /* \"#utility.yul\":3246:3252   */\n      dup3\n        /* \"#utility.yul\":3242:3256   */\n      add\n        /* \"#utility.yul\":3235:3272   */\n      mstore\n        /* \"#utility.yul\":3118:3279   */\n      pop\n      jump\t// out\n        /* \"#utility.yul\":3285:3651   */\n    tag_112:\n        /* \"#utility.yul\":3427:3430   */\n      0x00\n        /* \"#utility.yul\":3448:3515   */\n      tag_166\n        /* \"#utility.yul\":3512:3514   */\n      0x0b\n        /* \"#utility.yul\":3507:3510   */\n      dup4\n        /* \"#utility.yul\":3448:3515   */\n      tag_110\n      jump\t// in\n    tag_166:\n        /* \"#utility.yul\":3441:3515   */\n      swap2\n      pop\n        /* \"#utility.yul\":3524:3617   */\n      tag_167\n        /* \"#utility.yul\":3613:3616   */\n      dup3\n        /* \"#utility.yul\":3524:3617   */\n      tag_111\n      jump\t// in\n    tag_167:\n        /* \"#utility.yul\":3642:3644   */\n      0x20\n        /* \"#utility.yul\":3637:3640   */\n      dup3\n        /* \"#utility.yul\":3633:3645   */\n      add\n        /* \"#utility.yul\":3626:3645   */\n      swap1\n      pop\n        /* \"#utility.yul\":3285:3651   */\n      swap2\n      swap1\n      pop\n      jump\t// out\n        /* \"#utility.yul\":3657:4076   */\n    tag_61:\n        /* \"#utility.yul\":3823:3827   */\n      0x00\n        /* \"#utility.yul\":3861:3863   */\n      0x20\n        /* \"#utility.yul\":3850:3859   */\n      dup3\n        /* \"#utility.yul\":3846:3864   */\n      add\n        /* \"#utility.yul\":3838:3864   */\n      swap1\n      pop\n        /* \"#utility.yul\":3910:3919   */\n      dup2\n        /* \"#utility.yul\":3904:3908   */\n      dup2\n        /* \"#utility.yul\":3900:3920   */\n      sub\n        /* \"#utility.yul\":3896:3897   */\n      0x00\n        /* \"#utility.yul\":3885:3894   */\n      dup4\n        /* \"#utility.yul\":3881:3898   */\n      add\n        /* \"#utility.yul\":3874:3921   */\n      mstore\n        /* \"#utility.yul\":3938:4069   */\n      tag_169\n        /* \"#utility.yul\":4064:4068   */\n      dup2\n        /* \"#utility.yul\":3938:4069   */\n      tag_112\n      jump\t// in\n    tag_169:\n        /* \"#utility.yul\":3930:4069   */\n      swap1\n      pop\n        /* \"#utility.yul\":3657:4076   */\n      swap2\n      swap1\n      pop\n      jump\t// out\n        /* \"#utility.yul\":4082:4229   */\n    tag_113:\n        /* \"#utility.yul\":4183:4194   */\n      0x00\n        /* \"#utility.yul\":4220:4223   */\n      dup2\n        /* \"#utility.yul\":4205:4223   */\n      swap1\n      pop\n        /* \"#utility.yul\":4082:4229   */\n      swap3\n      swap2\n      pop\n      pop\n      jump\t// out\n        /* \"#utility.yul\":4235:4349   */\n    tag_114:\n      pop\n      jump\t// out\n        /* \"#utility.yul\":4355:4753   */\n    tag_115:\n        /* \"#utility.yul\":4514:4517   */\n      0x00\n        /* \"#utility.yul\":4535:4618   */\n      tag_173\n        /* \"#utility.yul\":4616:4617   */\n      0x00\n        /* \"#utility.yul\":4611:4614   */\n      dup4\n        /* \"#utility.yul\":4535:4618   */\n      tag_113\n      jump\t// in\n    tag_173:\n        /* \"#utility.yul\":4528:4618   */\n      swap2\n      pop\n        /* \"#utility.yul\":4627:4720   */\n      tag_174\n        /* \"#utility.yul\":4716:4719   */\n      dup3\n        /* \"#utility.yul\":4627:4720   */\n      tag_114\n      jump\t// in\n    tag_174:\n        /* \"#utility.yul\":4745:4746   */\n      0x00\n        /* \"#utility.yul\":4740:4743   */\n      dup3\n        /* \"#utility.yul\":4736:4747   */\n      add\n        /* \"#utility.yul\":4729:4747   */\n      swap1\n      pop\n        /* \"#utility.yul\":4355:4753   */\n      swap2\n      swap1\n      pop\n      jump\t// out\n        /* \"#utility.yul\":4759:5138   */\n    tag_63:\n        /* \"#utility.yul\":4943:4946   */\n      0x00\n        /* \"#utility.yul\":4965:5112   */\n      tag_176\n        /* \"#utility.yul\":5108:5111   */\n      dup3\n        /* \"#utility.yul\":4965:5112   */\n      tag_115\n      jump\t// in\n    tag_176:\n        /* \"#utility.yul\":4958:5112   */\n      swap2\n      pop\n        /* \"#utility.yul\":5129:5132   */\n      dup2\n        /* \"#utility.yul\":5122:5132   */\n      swap1\n      pop\n        /* \"#utility.yul\":4759:5138   */\n      swap2\n      swap1\n      pop\n      jump\t// out\n        /* \"#utility.yul\":5144:5324   */\n    tag_116:\n        /* \"#utility.yul\":5192:5269   */\n      0x4e487b7100000000000000000000000000000000000000000000000000000000\n        /* \"#utility.yul\":5189:5190   */\n      0x00\n        /* \"#utility.yul\":5182:5270   */\n      mstore\n        /* \"#utility.yul\":5289:5293   */\n      0x11\n        /* \"#utility.yul\":5286:5287   */\n      0x04\n        /* \"#utility.yul\":5279:5294   */\n      mstore\n        /* \"#utility.yul\":5313:5317   */\n      0x24\n        /* \"#utility.yul\":5310:5311   */\n      0x00\n        /* \"#utility.yul\":5303:5318   */\n      revert\n        /* \"#utility.yul\":5330:5740   */\n    tag_70:\n        /* \"#utility.yul\":5370:5377   */\n      0x00\n        /* \"#utility.yul\":5393:5413   */\n      tag_179\n        /* \"#utility.yul\":5411:5412   */\n      dup3\n        /* \"#utility.yul\":5393:5413   */\n      tag_98\n      jump\t// in\n    tag_179:\n        /* \"#utility.yul\":5388:5413   */\n      swap2\n      pop\n        /* \"#utility.yul\":5427:5447   */\n      tag_180\n        /* \"#utility.yul\":5445:5446   */\n      dup4\n        /* \"#utility.yul\":5427:5447   */\n      tag_98\n      jump\t// in\n    tag_180:\n        /* \"#utility.yul\":5422:5447   */\n      swap3\n      pop\n        /* \"#utility.yul\":5482:5483   */\n      dup3\n        /* \"#utility.yul\":5479:5480   */\n      dup3\n        /* \"#utility.yul\":5475:5484   */\n      mul\n        /* \"#utility.yul\":5504:5534   */\n      tag_181\n        /* \"#utility.yul\":5522:5533   */\n      dup2\n        /* \"#utility.yul\":5504:5534   */\n      tag_98\n      jump\t// in\n    tag_181:\n        /* \"#utility.yul\":5493:5534   */\n      swap2\n      pop\n        /* \"#utility.yul\":5683:5684   */\n      dup3\n        /* \"#utility.yul\":5674:5681   */\n      dup3\n        /* \"#utility.yul\":5670:5685   */\n      div\n        /* \"#utility.yul\":5667:5668   */\n      dup5\n        /* \"#utility.yul\":5664:5686   */\n      eq\n        /* \"#utility.yul\":5644:5645   */\n      dup4\n        /* \"#utility.yul\":5637:5646   */\n      iszero\n        /* \"#utility.yul\":5617:5700   */\n      or\n        /* \"#utility.yul\":5594:5733   */\n      tag_182\n      jumpi\n        /* \"#utility.yul\":5713:5731   */\n      tag_183\n      tag_116\n      jump\t// in\n    tag_183:\n        /* \"#utility.yul\":5594:5733   */\n    tag_182:\n        /* \"#utility.yul\":5378:5740   */\n      pop\n        /* \"#utility.yul\":5330:5740   */\n      swap3\n      swap2\n      pop\n      pop\n      jump\t// out\n        /* \"#utility.yul\":5746:5926   */\n    tag_117:\n        /* \"#utility.yul\":5794:5871   */\n      0x4e487b7100000000000000000000000000000000000000000000000000000000\n        /* \"#utility.yul\":5791:5792   */\n      0x00\n        /* \"#utility.yul\":5784:5872   */\n      mstore\n        /* \"#utility.yul\":5891:5895   */\n      0x12\n        /* \"#utility.yul\":5888:5889   */\n      0x04\n        /* \"#utility.yul\":5881:5896   */\n      mstore\n        /* \"#utility.yul\":5915:5919   */\n      0x24\n        /* \"#utility.yul\":5912:5913   */\n      0x00\n        /* \"#utility.yul\":5905:5920   */\n      revert\n        /* \"#utility.yul\":5932:6117   */\n    tag_72:\n        /* \"#utility.yul\":5972:5973   */\n      0x00\n        /* \"#utility.yul\":5989:6009   */\n      tag_186\n        /* \"#utility.yul\":6007:6008   */\n      dup3\n        /* \"#utility.yul\":5989:6009   */\n      tag_98\n      jump\t// in\n    tag_186:\n        /* \"#utility.yul\":5984:6009   */\n      swap2\n      pop\n        /* \"#utility.yul\":6023:6043   */\n      tag_187\n        /* \"#utility.yul\":6041:6042   */\n      dup4\n        /* \"#utility.yul\":6023:6043   */\n      tag_98\n      jump\t// in\n    tag_187:\n        /* \"#utility.yul\":6018:6043   */\n      swap3\n      pop\n        /* \"#utility.yul\":6062:6063   */\n      dup3\n        /* \"#utility.yul\":6052:6087   */\n      tag_188\n      jumpi\n        /* \"#utility.yul\":6067:6085   */\n      tag_189\n      tag_117\n      jump\t// in\n    tag_189:\n        /* \"#utility.yul\":6052:6087   */\n    tag_188:\n        /* \"#utility.yul\":6109:6110   */\n      dup3\n        /* \"#utility.yul\":6106:6107   */\n      dup3\n        /* \"#utility.yul\":6102:6111   */\n      div\n        /* \"#utility.yul\":6097:6111   */\n      swap1\n      pop\n        /* \"#utility.yul\":5932:6117   */\n      swap3\n      swap2\n      pop\n      pop\n      jump\t// out\n        /* \"#utility.yul\":6123:6228   */\n    tag_118:\n        /* \"#utility.yul\":6159:6166   */\n      0x00\n        /* \"#utility.yul\":6199:6221   */\n      0xffffffffffffffffffff\n        /* \"#utility.yul\":6192:6197   */\n      dup3\n        /* \"#utility.yul\":6188:6222   */\n      and\n        /* \"#utility.yul\":6177:6222   */\n      swap1\n      pop\n        /* \"#utility.yul\":6123:6228   */\n      swap2\n      swap1\n      pop\n      jump\t// out\n        /* \"#utility.yul\":6234:6354   */\n    tag_119:\n        /* \"#utility.yul\":6306:6329   */\n      tag_192\n        /* \"#utility.yul\":6323:6328   */\n      dup2\n        /* \"#utility.yul\":6306:6329   */\n      tag_118\n      jump\t// in\n    tag_192:\n        /* \"#utility.yul\":6299:6304   */\n      dup2\n        /* \"#utility.yul\":6296:6330   */\n      eq\n        /* \"#utility.yul\":6286:6348   */\n      tag_193\n      jumpi\n        /* \"#utility.yul\":6344:6345   */\n      0x00\n        /* \"#utility.yul\":6341:6342   */\n      0x00\n        /* \"#utility.yul\":6334:6346   */\n      revert\n        /* \"#utility.yul\":6286:6348   */\n    tag_193:\n        /* \"#utility.yul\":6234:6354   */\n      pop\n      jump\t// out\n        /* \"#utility.yul\":6360:6501   */\n    tag_120:\n        /* \"#utility.yul\":6416:6421   */\n      0x00\n        /* \"#utility.yul\":6447:6453   */\n      dup2\n        /* \"#utility.yul\":6441:6454   */\n      mload\n        /* \"#utility.yul\":6432:6454   */\n      swap1\n      pop\n        /* \"#utility.yul\":6463:6495   */\n      tag_195\n        /* \"#utility.yul\":6489:6494   */\n      dup2\n        /* \"#utility.yul\":6463:6495   */\n      tag_119\n      jump\t// in\n    tag_195:\n        /* \"#utility.yul\":6360:6501   */\n      swap3\n      swap2\n      pop\n      pop\n      jump\t// out\n        /* \"#utility.yul\":6507:6583   */\n    tag_121:\n        /* \"#utility.yul\":6543:6550   */\n      0x00\n        /* \"#utility.yul\":6572:6577   */\n      dup2\n        /* \"#utility.yul\":6561:6577   */\n      swap1\n      pop\n        /* \"#utility.yul\":6507:6583   */\n      swap2\n      swap1\n      pop\n      jump\t// out\n        /* \"#utility.yul\":6589:6709   */\n    tag_122:\n        /* \"#utility.yul\":6661:6684   */\n      tag_198\n        /* \"#utility.yul\":6678:6683   */\n      dup2\n        /* \"#utility.yul\":6661:6684   */\n      tag_121\n      jump\t// in\n    tag_198:\n        /* \"#utility.yul\":6654:6659   */\n      dup2\n        /* \"#utility.yul\":6651:6685   */\n      eq\n        /* \"#utility.yul\":6641:6703   */\n      tag_199\n      jumpi\n        /* \"#utility.yul\":6699:6700   */\n      0x00\n        /* \"#utility.yul\":6696:6697   */\n      0x00\n        /* \"#utility.yul\":6689:6701   */\n      revert\n        /* \"#utility.yul\":6641:6703   */\n    tag_199:\n        /* \"#utility.yul\":6589:6709   */\n      pop\n      jump\t// out\n        /* \"#utility.yul\":6715:6856   */\n    tag_123:\n        /* \"#utility.yul\":6771:6776   */\n      0x00\n        /* \"#utility.yul\":6802:6808   */\n      dup2\n        /* \"#utility.yul\":6796:6809   */\n      mload\n        /* \"#utility.yul\":6787:6809   */\n      swap1\n      pop\n        /* \"#utility.yul\":6818:6850   */\n      tag_201\n        /* \"#utility.yul\":6844:6849   */\n      dup2\n        /* \"#utility.yul\":6818:6850   */\n      tag_122\n      jump\t// in\n    tag_201:\n        /* \"#utility.yul\":6715:6856   */\n      swap3\n      swap2\n      pop\n      pop\n      jump\t// out\n        /* \"#utility.yul\":6862:7005   */\n    tag_124:\n        /* \"#utility.yul\":6919:6924   */\n      0x00\n        /* \"#utility.yul\":6950:6956   */\n      dup2\n        /* \"#utility.yul\":6944:6957   */\n      mload\n        /* \"#utility.yul\":6935:6957   */\n      swap1\n      pop\n        /* \"#utility.yul\":6966:6999   */\n      tag_203\n        /* \"#utility.yul\":6993:6998   */\n      dup2\n        /* \"#utility.yul\":6966:6999   */\n      tag_107\n      jump\t// in\n    tag_203:\n        /* \"#utility.yul\":6862:7005   */\n      swap3\n      swap2\n      pop\n      pop\n      jump\t// out\n        /* \"#utility.yul\":7011:7982   */\n    tag_77:\n        /* \"#utility.yul\":7114:7120   */\n      0x00\n        /* \"#utility.yul\":7122:7128   */\n      0x00\n        /* \"#utility.yul\":7130:7136   */\n      0x00\n        /* \"#utility.yul\":7138:7144   */\n      0x00\n        /* \"#utility.yul\":7146:7152   */\n      0x00\n        /* \"#utility.yul\":7195:7198   */\n      0xa0\n        /* \"#utility.yul\":7183:7192   */\n      dup7\n        /* \"#utility.yul\":7174:7181   */\n      dup9\n        /* \"#utility.yul\":7170:7193   */\n      sub\n        /* \"#utility.yul\":7166:7199   */\n      slt\n        /* \"#utility.yul\":7163:7283   */\n      iszero\n      tag_205\n      jumpi\n        /* \"#utility.yul\":7202:7281   */\n      tag_206\n      tag_101\n      jump\t// in\n    tag_206:\n        /* \"#utility.yul\":7163:7283   */\n    tag_205:\n        /* \"#utility.yul\":7322:7323   */\n      0x00\n        /* \"#utility.yul\":7347:7410   */\n      tag_207\n        /* \"#utility.yul\":7402:7409   */\n      dup9\n        /* \"#utility.yul\":7393:7399   */\n      dup3\n        /* \"#utility.yul\":7382:7391   */\n      dup10\n        /* \"#utility.yul\":7378:7400   */\n      add\n        /* \"#utility.yul\":7347:7410   */\n      tag_120\n      jump\t// in\n    tag_207:\n        /* \"#utility.yul\":7337:7410   */\n      swap6\n      pop\n        /* \"#utility.yul\":7293:7420   */\n      pop\n        /* \"#utility.yul\":7459:7461   */\n      0x20\n        /* \"#utility.yul\":7485:7548   */\n      tag_208\n        /* \"#utility.yul\":7540:7547   */\n      dup9\n        /* \"#utility.yul\":7531:7537   */\n      dup3\n        /* \"#utility.yul\":7520:7529   */\n      dup10\n        /* \"#utility.yul\":7516:7538   */\n      add\n        /* \"#utility.yul\":7485:7548   */\n      tag_123\n      jump\t// in\n    tag_208:\n        /* \"#utility.yul\":7475:7548   */\n      swap5\n      pop\n        /* \"#utility.yul\":7430:7558   */\n      pop\n        /* \"#utility.yul\":7597:7599   */\n      0x40\n        /* \"#utility.yul\":7623:7687   */\n      tag_209\n        /* \"#utility.yul\":7679:7686   */\n      dup9\n        /* \"#utility.yul\":7670:7676   */\n      dup3\n        /* \"#utility.yul\":7659:7668   */\n      dup10\n        /* \"#utility.yul\":7655:7677   */\n      add\n        /* \"#utility.yul\":7623:7687   */\n      tag_124\n      jump\t// in\n    tag_209:\n        /* \"#utility.yul\":7613:7687   */\n      swap4\n      pop\n        /* \"#utility.yul\":7568:7697   */\n      pop\n        /* \"#utility.yul\":7736:7738   */\n      0x60\n        /* \"#utility.yul\":7762:7826   */\n      tag_210\n        /* \"#utility.yul\":7818:7825   */\n      dup9\n        /* \"#utility.yul\":7809:7815   */\n      dup3\n        /* \"#utility.yul\":7798:7807   */\n      dup10\n        /* \"#utility.yul\":7794:7816   */\n      add\n        /* \"#utility.yul\":7762:7826   */\n      tag_124\n      jump\t// in\n    tag_210:\n        /* \"#utility.yul\":7752:7826   */\n      swap3\n      pop\n        /* \"#utility.yul\":7707:7836   */\n      pop\n        /* \"#utility.yul\":7875:7878   */\n      0x80\n        /* \"#utility.yul\":7902:7965   */\n      tag_211\n        /* \"#utility.yul\":7957:7964   */\n      dup9\n        /* \"#utility.yul\":7948:7954   */\n      dup3\n        /* \"#utility.yul\":7937:7946   */\n      dup10\n        /* \"#utility.yul\":7933:7955   */\n      add\n        /* \"#utility.yul\":7902:7965   */\n      tag_120\n      jump\t// in\n    tag_211:\n        /* \"#utility.yul\":7892:7965   */\n      swap2\n      pop\n        /* \"#utility.yul\":7846:7975   */\n      pop\n        /* \"#utility.yul\":7011:7982   */\n      swap3\n      swap6\n      pop\n      swap3\n      swap6\n      swap1\n      swap4\n      pop\n      jump\t// out\n        /* \"#utility.yul\":7988:8544   */\n    tag_79:\n        /* \"#utility.yul\":8027:8034   */\n      0x00\n        /* \"#utility.yul\":8050:8069   */\n      tag_213\n        /* \"#utility.yul\":8067:8068   */\n      dup3\n        /* \"#utility.yul\":8050:8069   */\n      tag_121\n      jump\t// in\n    tag_213:\n        /* \"#utility.yul\":8045:8069   */\n      swap2\n      pop\n        /* \"#utility.yul\":8083:8102   */\n      tag_214\n        /* \"#utility.yul\":8100:8101   */\n      dup4\n        /* \"#utility.yul\":8083:8102   */\n      tag_121\n      jump\t// in\n    tag_214:\n        /* \"#utility.yul\":8078:8102   */\n      swap3\n      pop\n        /* \"#utility.yul\":8137:8138   */\n      dup3\n        /* \"#utility.yul\":8134:8135   */\n      dup3\n        /* \"#utility.yul\":8130:8139   */\n      mul\n        /* \"#utility.yul\":8159:8188   */\n      tag_215\n        /* \"#utility.yul\":8176:8187   */\n      dup2\n        /* \"#utility.yul\":8159:8188   */\n      tag_121\n      jump\t// in\n    tag_215:\n        /* \"#utility.yul\":8148:8188   */\n      swap2\n      pop\n        /* \"#utility.yul\":8246:8312   */\n      0x8000000000000000000000000000000000000000000000000000000000000000\n        /* \"#utility.yul\":8243:8244   */\n      dup5\n        /* \"#utility.yul\":8240:8313   */\n      eq\n        /* \"#utility.yul\":8236:8237   */\n      0x00\n        /* \"#utility.yul\":8233:8234   */\n      dup5\n        /* \"#utility.yul\":8229:8238   */\n      slt\n        /* \"#utility.yul\":8225:8314   */\n      and\n        /* \"#utility.yul\":8222:8337   */\n      iszero\n      tag_216\n      jumpi\n        /* \"#utility.yul\":8317:8335   */\n      tag_217\n      tag_116\n      jump\t// in\n    tag_217:\n        /* \"#utility.yul\":8222:8337   */\n    tag_216:\n        /* \"#utility.yul\":8487:8488   */\n      dup3\n        /* \"#utility.yul\":8478:8485   */\n      dup3\n        /* \"#utility.yul\":8473:8489   */\n      sdiv\n        /* \"#utility.yul\":8470:8471   */\n      dup5\n        /* \"#utility.yul\":8467:8490   */\n      eq\n        /* \"#utility.yul\":8447:8448   */\n      dup4\n        /* \"#utility.yul\":8440:8449   */\n      iszero\n        /* \"#utility.yul\":8420:8504   */\n      or\n        /* \"#utility.yul\":8397:8537   */\n      tag_218\n      jumpi\n        /* \"#utility.yul\":8517:8535   */\n      tag_219\n      tag_116\n      jump\t// in\n    tag_219:\n        /* \"#utility.yul\":8397:8537   */\n    tag_218:\n        /* \"#utility.yul\":8035:8544   */\n      pop\n        /* \"#utility.yul\":7988:8544   */\n      swap3\n      swap2\n      pop\n      pop\n      jump\t// out\n        /* \"#utility.yul\":8550:8718   */\n    tag_125:\n        /* \"#utility.yul\":8690:8710   */\n      0x4469646e27742073656e6420656e6f7567680000000000000000000000000000\n        /* \"#utility.yul\":8686:8687   */\n      0x00\n        /* \"#utility.yul\":8678:8684   */\n      dup3\n        /* \"#utility.yul\":8674:8688   */\n      add\n        /* \"#utility.yul\":8667:8711   */\n      mstore\n        /* \"#utility.yul\":8550:8718   */\n      pop\n      jump\t// out\n        /* \"#utility.yul\":8724:9090   */\n    tag_126:\n        /* \"#utility.yul\":8866:8869   */\n      0x00\n        /* \"#utility.yul\":8887:8954   */\n      tag_222\n        /* \"#utility.yul\":8951:8953   */\n      0x12\n        /* \"#utility.yul\":8946:8949   */\n      dup4\n        /* \"#utility.yul\":8887:8954   */\n      tag_110\n      jump\t// in\n    tag_222:\n        /* \"#utility.yul\":8880:8954   */\n      swap2\n      pop\n        /* \"#utility.yul\":8963:9056   */\n      tag_223\n        /* \"#utility.yul\":9052:9055   */\n      dup3\n        /* \"#utility.yul\":8963:9056   */\n      tag_125\n      jump\t// in\n    tag_223:\n        /* \"#utility.yul\":9081:9083   */\n      0x20\n        /* \"#utility.yul\":9076:9079   */\n      dup3\n        /* \"#utility.yul\":9072:9084   */\n      add\n        /* \"#utility.yul\":9065:9084   */\n      swap1\n      pop\n        /* \"#utility.yul\":8724:9090   */\n      swap2\n      swap1\n      pop\n      jump\t// out\n        /* \"#utility.yul\":9096:9515   */\n    tag_84:\n        /* \"#utility.yul\":9262:9266   */\n      0x00\n        /* \"#utility.yul\":9300:9302   */\n      0x20\n        /* \"#utility.yul\":9289:9298   */\n      dup3\n        /* \"#utility.yul\":9285:9303   */\n      add\n        /* \"#utility.yul\":9277:9303   */\n      swap1\n      pop\n        /* \"#utility.yul\":9349:9358   */\n      dup2\n        /* \"#utility.yul\":9343:9347   */\n      dup2\n        /* \"#utility.yul\":9339:9359   */\n      sub\n        /* \"#utility.yul\":9335:9336   */\n      0x00\n        /* \"#utility.yul\":9324:9333   */\n      dup4\n        /* \"#utility.yul\":9320:9337   */\n      add\n        /* \"#utility.yul\":9313:9360   */\n      mstore\n        /* \"#utility.yul\":9377:9508   */\n      tag_225\n        /* \"#utility.yul\":9503:9507   */\n      dup2\n        /* \"#utility.yul\":9377:9508   */\n      tag_126\n      jump\t// in\n    tag_225:\n        /* \"#utility.yul\":9369:9508   */\n      swap1\n      pop\n        /* \"#utility.yul\":9096:9515   */\n      swap2\n      swap1\n      pop\n      jump\t// out\n        /* \"#utility.yul\":9521:9712   */\n    tag_88:\n        /* \"#utility.yul\":9561:9564   */\n      0x00\n        /* \"#utility.yul\":9580:9600   */\n      tag_227\n        /* \"#utility.yul\":9598:9599   */\n      dup3\n        /* \"#utility.yul\":9580:9600   */\n      tag_98\n      jump\t// in\n    tag_227:\n        /* \"#utility.yul\":9575:9600   */\n      swap2\n      pop\n        /* \"#utility.yul\":9614:9634   */\n      tag_228\n        /* \"#utility.yul\":9632:9633   */\n      dup4\n        /* \"#utility.yul\":9614:9634   */\n      tag_98\n      jump\t// in\n    tag_228:\n        /* \"#utility.yul\":9609:9634   */\n      swap3\n      pop\n        /* \"#utility.yul\":9657:9658   */\n      dup3\n        /* \"#utility.yul\":9654:9655   */\n      dup3\n        /* \"#utility.yul\":9650:9659   */\n      add\n        /* \"#utility.yul\":9643:9659   */\n      swap1\n      pop\n        /* \"#utility.yul\":9678:9681   */\n      dup1\n        /* \"#utility.yul\":9675:9676   */\n      dup3\n        /* \"#utility.yul\":9672:9682   */\n      gt\n        /* \"#utility.yul\":9669:9705   */\n      iszero\n      tag_229\n      jumpi\n        /* \"#utility.yul\":9685:9703   */\n      tag_230\n      tag_116\n      jump\t// in\n    tag_230:\n        /* \"#utility.yul\":9669:9705   */\n    tag_229:\n        /* \"#utility.yul\":9521:9712   */\n      swap3\n      swap2\n      pop\n      pop\n      jump\t// out\n\n    auxdata: 0xa2646970667358221220dc9a98ebfa80f6bb443fa43b32e46dde859f78d6aa2620a569fbb906f668ae9d64736f6c634300081f0033\n}\n",
				"bytecode": {
					"linkReferences": {},
					"object": "6080604052674563918244f400005f553480156019575f5ffd5b50610c31806100275f395ff3fe60806040526004361061006f575f3560e01c80636e5b6b281161004d5780636e5b6b28146100ef57806398d5fdca1461012b578063b60d428814610155578063dc0d3dff1461015f5761006f565b8063098de820146100735780633ccfd60b1461009d5780633e47d6f3146100b3575b5f5ffd5b34801561007e575f5ffd5b5061008761019b565b60405161009491906106f0565b60405180910390f35b3480156100a8575f5ffd5b506100b16101a0565b005b3480156100be575f5ffd5b506100d960048036038101906100d49190610767565b6103c8565b6040516100e691906106f0565b60405180910390f35b3480156100fa575f5ffd5b50610115600480360381019061011091906107bc565b6103dd565b60405161012291906106f0565b60405180910390f35b348015610136575f5ffd5b5061013f610410565b60405161014c91906106f0565b60405180910390f35b61015d6104b5565b005b34801561016a575f5ffd5b50610185600480360381019061018091906107bc565b6105fb565b60405161019291906107f6565b60405180910390f35b5f5481565b5f5f90505b600180549050811015610241575f600182815481106101c7576101c661080f565b5b905f5260205f20015f9054906101000a900473ffffffffffffffffffffffffffffffffffffffff1690505f60025f8373ffffffffffffffffffffffffffffffffffffffff1673ffffffffffffffffffffffffffffffffffffffff1681526020019081526020015f20819055505080806001019150506101a5565b505f67ffffffffffffffff81111561025c5761025b61083c565b5b60405190808252806020026020018201604052801561028a5781602001602082028036833780820191505090505b50600190805190602001906102a0929190610636565b503373ffffffffffffffffffffffffffffffffffffffff166108fc4790811502906040515f60405180830381858888f193505050501580156102e4573d5f5f3e3d5ffd5b505f3373ffffffffffffffffffffffffffffffffffffffff166108fc4790811502906040515f60405180830381858888f1935050505090508061035c576040517f08c379a0000000000000000000000000000000000000000000000000000000008152600401610353906108c3565b60405180910390fd5b5f3373ffffffffffffffffffffffffffffffffffffffff16476040516103819061090e565b5f6040518083038185875af1925050503d805f81146103bb576040519150601f19603f3d011682016040523d82523d5f602084013e6103c0565b606091505b505090505050565b6002602052805f5260405f205f915090505481565b5f5f6103e7610410565b9050670de0b6b3a764000083826103fe919061094f565b61040891906109bd565b915050919050565b5f5f73694aa1769357215de4fac081bf1f309adc32530690505f8173ffffffffffffffffffffffffffffffffffffffff1663feaf968c6040518163ffffffff1660e01b815260040160a060405180830381865afa158015610473573d5f5f3e3d5ffd5b505050506040513d601f19601f820116820180604052508101906104979190610a73565b5050509150506402540be400816104ae9190610aea565b9250505090565b5f546104c0346103dd565b1015610501576040517f08c379a00000000000000000000000000000000000000000000000000000000081526004016104f890610baa565b60405180910390fd5b5f60025f3373ffffffffffffffffffffffffffffffffffffffff1673ffffffffffffffffffffffffffffffffffffffff1681526020019081526020015f2054036105a657600133908060018154018082558091505060019003905f5260205f20015f9091909190916101000a81548173ffffffffffffffffffffffffffffffffffffffff021916908373ffffffffffffffffffffffffffffffffffffffff1602179055505b3460025f3373ffffffffffffffffffffffffffffffffffffffff1673ffffffffffffffffffffffffffffffffffffffff1681526020019081526020015f205f8282546105f29190610bc8565b92505081905550565b6001818154811061060a575f80fd5b905f5260205f20015f915054906101000a900473ffffffffffffffffffffffffffffffffffffffff1681565b828054828255905f5260205f209081019282156106ac579160200282015b828111156106ab578251825f6101000a81548173ffffffffffffffffffffffffffffffffffffffff021916908373ffffffffffffffffffffffffffffffffffffffff16021790555091602001919060010190610654565b5b5090506106b991906106bd565b5090565b5b808211156106d4575f815f9055506001016106be565b5090565b5f819050919050565b6106ea816106d8565b82525050565b5f6020820190506107035f8301846106e1565b92915050565b5f5ffd5b5f73ffffffffffffffffffffffffffffffffffffffff82169050919050565b5f6107368261070d565b9050919050565b6107468161072c565b8114610750575f5ffd5b50565b5f813590506107618161073d565b92915050565b5f6020828403121561077c5761077b610709565b5b5f61078984828501610753565b91505092915050565b61079b816106d8565b81146107a5575f5ffd5b50565b5f813590506107b681610792565b92915050565b5f602082840312156107d1576107d0610709565b5b5f6107de848285016107a8565b91505092915050565b6107f08161072c565b82525050565b5f6020820190506108095f8301846107e7565b92915050565b7f4e487b71000000000000000000000000000000000000000000000000000000005f52603260045260245ffd5b7f4e487b71000000000000000000000000000000000000000000000000000000005f52604160045260245ffd5b5f82825260208201905092915050565b7f53656e64206661696c65640000000000000000000000000000000000000000005f82015250565b5f6108ad600b83610869565b91506108b882610879565b602082019050919050565b5f6020820190508181035f8301526108da816108a1565b9050919050565b5f81905092915050565b50565b5f6108f95f836108e1565b9150610904826108eb565b5f82019050919050565b5f610918826108ee565b9150819050919050565b7f4e487b71000000000000000000000000000000000000000000000000000000005f52601160045260245ffd5b5f610959826106d8565b9150610964836106d8565b9250828202610972816106d8565b9150828204841483151761098957610988610922565b5b5092915050565b7f4e487b71000000000000000000000000000000000000000000000000000000005f52601260045260245ffd5b5f6109c7826106d8565b91506109d2836106d8565b9250826109e2576109e1610990565b5b828204905092915050565b5f69ffffffffffffffffffff82169050919050565b610a0b816109ed565b8114610a15575f5ffd5b50565b5f81519050610a2681610a02565b92915050565b5f819050919050565b610a3e81610a2c565b8114610a48575f5ffd5b50565b5f81519050610a5981610a35565b92915050565b5f81519050610a6d81610792565b92915050565b5f5f5f5f5f60a08688031215610a8c57610a8b610709565b5b5f610a9988828901610a18565b9550506020610aaa88828901610a4b565b9450506040610abb88828901610a5f565b9350506060610acc88828901610a5f565b9250506080610add88828901610a18565b9150509295509295909350565b5f610af482610a2c565b9150610aff83610a2c565b9250828202610b0d81610a2c565b91507f800000000000000000000000000000000000000000000000000000000000000084145f84121615610b4457610b43610922565b5b8282058414831517610b5957610b58610922565b5b5092915050565b7f4469646e27742073656e6420656e6f75676800000000000000000000000000005f82015250565b5f610b94601283610869565b9150610b9f82610b60565b602082019050919050565b5f6020820190508181035f830152610bc181610b88565b9050919050565b5f610bd2826106d8565b9150610bdd836106d8565b9250828201905080821115610bf557610bf4610922565b5b9291505056fea2646970667358221220dc9a98ebfa80f6bb443fa43b32e46dde859f78d6aa2620a569fbb906f668ae9d64736f6c634300081f0033",
					"opcodes": "PUSH1 0x80 PUSH1 0x40 MSTORE PUSH8 0x4563918244F40000 PUSH0 SSTORE CALLVALUE DUP1 ISZERO PUSH1 0x19 JUMPI PUSH0 PUSH0 REVERT JUMPDEST POP PUSH2 0xC31 DUP1 PUSH2 0x27 PUSH0 CODECOPY PUSH0 RETURN INVALID PUSH1 0x80 PUSH1 0x40 MSTORE PUSH1 0x4 CALLDATASIZE LT PUSH2 0x6F JUMPI PUSH0 CALLDATALOAD PUSH1 0xE0 SHR DUP1 PUSH4 0x6E5B6B28 GT PUSH2 0x4D JUMPI DUP1 PUSH4 0x6E5B6B28 EQ PUSH2 0xEF JUMPI DUP1 PUSH4 0x98D5FDCA EQ PUSH2 0x12B JUMPI DUP1 PUSH4 0xB60D4288 EQ PUSH2 0x155 JUMPI DUP1 PUSH4 0xDC0D3DFF EQ PUSH2 0x15F JUMPI PUSH2 0x6F JUMP JUMPDEST DUP1 PUSH4 0x98DE820 EQ PUSH2 0x73 JUMPI DUP1 PUSH4 0x3CCFD60B EQ PUSH2 0x9D JUMPI DUP1 PUSH4 0x3E47D6F3 EQ PUSH2 0xB3 JUMPI JUMPDEST PUSH0 PUSH0 REVERT JUMPDEST CALLVALUE DUP1 ISZERO PUSH2 0x7E JUMPI PUSH0 PUSH0 REVERT JUMPDEST POP PUSH2 0x87 PUSH2 0x19B JUMP JUMPDEST PUSH1 0x40 MLOAD PUSH2 0x94 SWAP2 SWAP1 PUSH2 0x6F0 JUMP JUMPDEST PUSH1 0x40 MLOAD DUP1 SWAP2 SUB SWAP1 RETURN JUMPDEST CALLVALUE DUP1 ISZERO PUSH2 0xA8 JUMPI PUSH0 PUSH0 REVERT JUMPDEST POP PUSH2 0xB1 PUSH2 0x1A0 JUMP JUMPDEST STOP JUMPDEST CALLVALUE DUP1 ISZERO PUSH2 0xBE JUMPI PUSH0 PUSH0 REVERT JUMPDEST POP PUSH2 0xD9 PUSH1 0x4 DUP1 CALLDATASIZE SUB DUP2 ADD SWAP1 PUSH2 0xD4 SWAP2 SWAP1 PUSH2 0x767 JUMP JUMPDEST PUSH2 0x3C8 JUMP JUMPDEST PUSH1 0x40 MLOAD PUSH2 0xE6 SWAP2 SWAP1 PUSH2 0x6F0 JUMP JUMPDEST PUSH1 0x40 MLOAD DUP1 SWAP2 SUB SWAP1 RETURN JUMPDEST CALLVALUE DUP1 ISZERO PUSH2 0xFA JUMPI PUSH0 PUSH0 REVERT JUMPDEST POP PUSH2 0x115 PUSH1 0x4 DUP1 CALLDATASIZE SUB DUP2 ADD SWAP1 PUSH2 0x110 SWAP2 SWAP1 PUSH2 0x7BC JUMP JUMPDEST PUSH2 0x3DD JUMP JUMPDEST PUSH1 0x40 MLOAD PUSH2 0x122 SWAP2 SWAP1 PUSH2 0x6F0 JUMP JUMPDEST PUSH1 0x40 MLOAD DUP1 SWAP2 SUB SWAP1 RETURN JUMPDEST CALLVALUE DUP1 ISZERO PUSH2 0x136 JUMPI PUSH0 PUSH0 REVERT JUMPDEST POP PUSH2 0x13F PUSH2 0x410 JUMP JUMPDEST PUSH1 0x40 MLOAD PUSH2 0x14C SWAP2 SWAP1 PUSH2 0x6F0 JUMP JUMPDEST PUSH1 0x40 MLOAD DUP1 SWAP2 SUB SWAP1 RETURN JUMPDEST PUSH2 0x15D PUSH2 0x4B5 JUMP JUMPDEST STOP JUMPDEST CALLVALUE DUP1 ISZERO PUSH2 0x16A JUMPI PUSH0 PUSH0 REVERT JUMPDEST POP PUSH2 0x185 PUSH1 0x4 DUP1 CALLDATASIZE SUB DUP2 ADD SWAP1 PUSH2 0x180 SWAP2 SWAP1 PUSH2 0x7BC JUMP JUMPDEST PUSH2 0x5FB JUMP JUMPDEST PUSH1 0x40 MLOAD PUSH2 0x192 SWAP2 SWAP1 PUSH2 0x7F6 JUMP JUMPDEST PUSH1 0x40 MLOAD DUP1 SWAP2 SUB SWAP1 RETURN JUMPDEST PUSH0 SLOAD DUP2 JUMP JUMPDEST PUSH0 PUSH0 SWAP1 POP JUMPDEST PUSH1 0x1 DUP1 SLOAD SWAP1 POP DUP2 LT ISZERO PUSH2 0x241 JUMPI PUSH0 PUSH1 0x1 DUP3 DUP2 SLOAD DUP2 LT PUSH2 0x1C7 JUMPI PUSH2 0x1C6 PUSH2 0x80F JUMP JUMPDEST JUMPDEST SWAP1 PUSH0 MSTORE PUSH1 0x20 PUSH0 KECCAK256 ADD PUSH0 SWAP1 SLOAD SWAP1 PUSH2 0x100 EXP SWAP1 DIV PUSH20 0xFFFFFFFFFFFFFFFFFFFFFFFFFFFFFFFFFFFFFFFF AND SWAP1 POP PUSH0 PUSH1 0x2 PUSH0 DUP4 PUSH20 0xFFFFFFFFFFFFFFFFFFFFFFFFFFFFFFFFFFFFFFFF AND PUSH20 0xFFFFFFFFFFFFFFFFFFFFFFFFFFFFFFFFFFFFFFFF AND DUP2 MSTORE PUSH1 0x20 ADD SWAP1 DUP2 MSTORE PUSH1 0x20 ADD PUSH0 KECCAK256 DUP2 SWAP1 SSTORE POP POP DUP1 DUP1 PUSH1 0x1 ADD SWAP2 POP POP PUSH2 0x1A5 JUMP JUMPDEST POP PUSH0 PUSH8 0xFFFFFFFFFFFFFFFF DUP2 GT ISZERO PUSH2 0x25C JUMPI PUSH2 0x25B PUSH2 0x83C JUMP JUMPDEST JUMPDEST PUSH1 0x40 MLOAD SWAP1 DUP1 DUP3 MSTORE DUP1 PUSH1 0x20 MUL PUSH1 0x20 ADD DUP3 ADD PUSH1 0x40 MSTORE DUP1 ISZERO PUSH2 0x28A JUMPI DUP2 PUSH1 0x20 ADD PUSH1 0x20 DUP3 MUL DUP1 CALLDATASIZE DUP4 CALLDATACOPY DUP1 DUP3 ADD SWAP2 POP POP SWAP1 POP JUMPDEST POP PUSH1 0x1 SWAP1 DUP1 MLOAD SWAP1 PUSH1 0x20 ADD SWAP1 PUSH2 0x2A0 SWAP3 SWAP2 SWAP1 PUSH2 0x636 JUMP JUMPDEST POP CALLER PUSH20 0xFFFFFFFFFFFFFFFFFFFFFFFFFFFFFFFFFFFFFFFF AND PUSH2 0x8FC SELFBALANCE SWAP1 DUP2 ISZERO MUL SWAP1 PUSH1 0x40 MLOAD PUSH0 PUSH1 0x40 MLOAD DUP1 DUP4 SUB DUP2 DUP6 DUP9 DUP9 CALL SWAP4 POP POP POP POP ISZERO DUP1 ISZERO PUSH2 0x2E4 JUMPI RETURNDATASIZE PUSH0 PUSH0 RETURNDATACOPY RETURNDATASIZE PUSH0 REVERT JUMPDEST POP PUSH0 CALLER PUSH20 0xFFFFFFFFFFFFFFFFFFFFFFFFFFFFFFFFFFFFFFFF AND PUSH2 0x8FC SELFBALANCE SWAP1 DUP2 ISZERO MUL SWAP1 PUSH1 0x40 MLOAD PUSH0 PUSH1 0x40 MLOAD DUP1 DUP4 SUB DUP2 DUP6 DUP9 DUP9 CALL SWAP4 POP POP POP POP SWAP1 POP DUP1 PUSH2 0x35C JUMPI PUSH1 0x40 MLOAD PUSH32 0x8C379A000000000000000000000000000000000000000000000000000000000 DUP2 MSTORE PUSH1 0x4 ADD PUSH2 0x353 SWAP1 PUSH2 0x8C3 JUMP JUMPDEST PUSH1 0x40 MLOAD DUP1 SWAP2 SUB SWAP1 REVERT JUMPDEST PUSH0 CALLER PUSH20 0xFFFFFFFFFFFFFFFFFFFFFFFFFFFFFFFFFFFFFFFF AND SELFBALANCE PUSH1 0x40 MLOAD PUSH2 0x381 SWAP1 PUSH2 0x90E JUMP JUMPDEST PUSH0 PUSH1 0x40 MLOAD DUP1 DUP4 SUB DUP2 DUP6 DUP8 GAS CALL SWAP3 POP POP POP RETURNDATASIZE DUP1 PUSH0 DUP2 EQ PUSH2 0x3BB JUMPI PUSH1 0x40 MLOAD SWAP2 POP PUSH1 0x1F NOT PUSH1 0x3F RETURNDATASIZE ADD AND DUP3 ADD PUSH1 0x40 MSTORE RETURNDATASIZE DUP3 MSTORE RETURNDATASIZE PUSH0 PUSH1 0x20 DUP5 ADD RETURNDATACOPY PUSH2 0x3C0 JUMP JUMPDEST PUSH1 0x60 SWAP2 POP JUMPDEST POP POP SWAP1 POP POP POP JUMP JUMPDEST PUSH1 0x2 PUSH1 0x20 MSTORE DUP1 PUSH0 MSTORE PUSH1 0x40 PUSH0 KECCAK256 PUSH0 SWAP2 POP SWAP1 POP SLOAD DUP2 JUMP JUMPDEST PUSH0 PUSH0 PUSH2 0x3E7 PUSH2 0x410 JUMP JUMPDEST SWAP1 POP PUSH8 0xDE0B6B3A7640000 DUP4 DUP3 PUSH2 0x3FE SWAP2 SWAP1 PUSH2 0x94F JUMP JUMPDEST PUSH2 0x408 SWAP2 SWAP1 PUSH2 0x9BD JUMP JUMPDEST SWAP2 POP POP SWAP2 SWAP1 POP JUMP JUMPDEST PUSH0 PUSH0 PUSH20 0x694AA1769357215DE4FAC081BF1F309ADC325306 SWAP1 POP PUSH0 DUP2 PUSH20 0xFFFFFFFFFFFFFFFFFFFFFFFFFFFFFFFFFFFFFFFF AND PUSH4 0xFEAF968C PUSH1 0x40 MLOAD DUP2 PUSH4 0xFFFFFFFF AND PUSH1 0xE0 SHL DUP2 MSTORE PUSH1 0x4 ADD PUSH1 0xA0 PUSH1 0x40 MLOAD DUP1 DUP4 SUB DUP2 DUP7 GAS STATICCALL ISZERO DUP1 ISZERO PUSH2 0x473 JUMPI RETURNDATASIZE PUSH0 PUSH0 RETURNDATACOPY RETURNDATASIZE PUSH0 REVERT JUMPDEST POP POP POP POP PUSH1 0x40 MLOAD RETURNDATASIZE PUSH1 0x1F NOT PUSH1 0x1F DUP3 ADD AND DUP3 ADD DUP1 PUSH1 0x40 MSTORE POP DUP2 ADD SWAP1 PUSH2 0x497 SWAP2 SWAP1 PUSH2 0xA73 JUMP JUMPDEST POP POP POP SWAP2 POP POP PUSH5 0x2540BE400 DUP2 PUSH2 0x4AE SWAP2 SWAP1 PUSH2 0xAEA JUMP JUMPDEST SWAP3 POP POP POP SWAP1 JUMP JUMPDEST PUSH0 SLOAD PUSH2 0x4C0 CALLVALUE PUSH2 0x3DD JUMP JUMPDEST LT ISZERO PUSH2 0x501 JUMPI PUSH1 0x40 MLOAD PUSH32 0x8C379A000000000000000000000000000000000000000000000000000000000 DUP2 MSTORE PUSH1 0x4 ADD PUSH2 0x4F8 SWAP1 PUSH2 0xBAA JUMP JUMPDEST PUSH1 0x40 MLOAD DUP1 SWAP2 SUB SWAP1 REVERT JUMPDEST PUSH0 PUSH1 0x2 PUSH0 CALLER PUSH20 0xFFFFFFFFFFFFFFFFFFFFFFFFFFFFFFFFFFFFFFFF AND PUSH20 0xFFFFFFFFFFFFFFFFFFFFFFFFFFFFFFFFFFFFFFFF AND DUP2 MSTORE PUSH1 0x20 ADD SWAP1 DUP2 MSTORE PUSH1 0x20 ADD PUSH0 KECCAK256 SLOAD SUB PUSH2 0x5A6 JUMPI PUSH1 0x1 CALLER SWAP1 DUP1 PUSH1 0x1 DUP2 SLOAD ADD DUP1 DUP3 SSTORE DUP1 SWAP2 POP POP PUSH1 0x1 SWAP1 SUB SWAP1 PUSH0 MSTORE PUSH1 0x20 PUSH0 KECCAK256 ADD PUSH0 SWAP1 SWAP2 SWAP1 SWAP2 SWAP1 SWAP2 PUSH2 0x100 EXP DUP2 SLOAD DUP2 PUSH20 0xFFFFFFFFFFFFFFFFFFFFFFFFFFFFFFFFFFFFFFFF MUL NOT AND SWAP1 DUP4 PUSH20 0xFFFFFFFFFFFFFFFFFFFFFFFFFFFFFFFFFFFFFFFF AND MUL OR SWAP1 SSTORE POP JUMPDEST CALLVALUE PUSH1 0x2 PUSH0 CALLER PUSH20 0xFFFFFFFFFFFFFFFFFFFFFFFFFFFFFFFFFFFFFFFF AND PUSH20 0xFFFFFFFFFFFFFFFFFFFFFFFFFFFFFFFFFFFFFFFF AND DUP2 MSTORE PUSH1 0x20 ADD SWAP1 DUP2 MSTORE PUSH1 0x20 ADD PUSH0 KECCAK256 PUSH0 DUP3 DUP3 SLOAD PUSH2 0x5F2 SWAP2 SWAP1 PUSH2 0xBC8 JUMP JUMPDEST SWAP3 POP POP DUP2 SWAP1 SSTORE POP JUMP JUMPDEST PUSH1 0x1 DUP2 DUP2 SLOAD DUP2 LT PUSH2 0x60A JUMPI PUSH0 DUP1 REVERT JUMPDEST SWAP1 PUSH0 MSTORE PUSH1 0x20 PUSH0 KECCAK256 ADD PUSH0 SWAP2 POP SLOAD SWAP1 PUSH2 0x100 EXP SWAP1 DIV PUSH20 0xFFFFFFFFFFFFFFFFFFFFFFFFFFFFFFFFFFFFFFFF AND DUP2 JUMP JUMPDEST DUP3 DUP1 SLOAD DUP3 DUP3 SSTORE SWAP1 PUSH0 MSTORE PUSH1 0x20 PUSH0 KECCAK256 SWAP1 DUP2 ADD SWAP3 DUP3 ISZERO PUSH2 0x6AC JUMPI SWAP2 PUSH1 0x20 MUL DUP3 ADD JUMPDEST DUP3 DUP2 GT ISZERO PUSH2 0x6AB JUMPI DUP3 MLOAD DUP3 PUSH0 PUSH2 0x100 EXP DUP2 SLOAD DUP2 PUSH20 0xFFFFFFFFFFFFFFFFFFFFFFFFFFFFFFFFFFFFFFFF MUL NOT AND SWAP1 DUP4 PUSH20 0xFFFFFFFFFFFFFFFFFFFFFFFFFFFFFFFFFFFFFFFF AND MUL OR SWAP1 SSTORE POP SWAP2 PUSH1 0x20 ADD SWAP2 SWAP1 PUSH1 0x1 ADD SWAP1 PUSH2 0x654 JUMP JUMPDEST JUMPDEST POP SWAP1 POP PUSH2 0x6B9 SWAP2 SWAP1 PUSH2 0x6BD JUMP JUMPDEST POP SWAP1 JUMP JUMPDEST JUMPDEST DUP1 DUP3 GT ISZERO PUSH2 0x6D4 JUMPI PUSH0 DUP2 PUSH0 SWAP1 SSTORE POP PUSH1 0x1 ADD PUSH2 0x6BE JUMP JUMPDEST POP SWAP1 JUMP JUMPDEST PUSH0 DUP2 SWAP1 POP SWAP2 SWAP1 POP JUMP JUMPDEST PUSH2 0x6EA DUP2 PUSH2 0x6D8 JUMP JUMPDEST DUP3 MSTORE POP POP JUMP JUMPDEST PUSH0 PUSH1 0x20 DUP3 ADD SWAP1 POP PUSH2 0x703 PUSH0 DUP4 ADD DUP5 PUSH2 0x6E1 JUMP JUMPDEST SWAP3 SWAP2 POP POP JUMP JUMPDEST PUSH0 PUSH0 REVERT JUMPDEST PUSH0 PUSH20 0xFFFFFFFFFFFFFFFFFFFFFFFFFFFFFFFFFFFFFFFF DUP3 AND SWAP1 POP SWAP2 SWAP1 POP JUMP JUMPDEST PUSH0 PUSH2 0x736 DUP3 PUSH2 0x70D JUMP JUMPDEST SWAP1 POP SWAP2 SWAP1 POP JUMP JUMPDEST PUSH2 0x746 DUP2 PUSH2 0x72C JUMP JUMPDEST DUP2 EQ PUSH2 0x750 JUMPI PUSH0 PUSH0 REVERT JUMPDEST POP JUMP JUMPDEST PUSH0 DUP2 CALLDATALOAD SWAP1 POP PUSH2 0x761 DUP2 PUSH2 0x73D JUMP JUMPDEST SWAP3 SWAP2 POP POP JUMP JUMPDEST PUSH0 PUSH1 0x20 DUP3 DUP5 SUB SLT ISZERO PUSH2 0x77C JUMPI PUSH2 0x77B PUSH2 0x709 JUMP JUMPDEST JUMPDEST PUSH0 PUSH2 0x789 DUP5 DUP3 DUP6 ADD PUSH2 0x753 JUMP JUMPDEST SWAP2 POP POP SWAP3 SWAP2 POP POP JUMP JUMPDEST PUSH2 0x79B DUP2 PUSH2 0x6D8 JUMP JUMPDEST DUP2 EQ PUSH2 0x7A5 JUMPI PUSH0 PUSH0 REVERT JUMPDEST POP JUMP JUMPDEST PUSH0 DUP2 CALLDATALOAD SWAP1 POP PUSH2 0x7B6 DUP2 PUSH2 0x792 JUMP JUMPDEST SWAP3 SWAP2 POP POP JUMP JUMPDEST PUSH0 PUSH1 0x20 DUP3 DUP5 SUB SLT ISZERO PUSH2 0x7D1 JUMPI PUSH2 0x7D0 PUSH2 0x709 JUMP JUMPDEST JUMPDEST PUSH0 PUSH2 0x7DE DUP5 DUP3 DUP6 ADD PUSH2 0x7A8 JUMP JUMPDEST SWAP2 POP POP SWAP3 SWAP2 POP POP JUMP JUMPDEST PUSH2 0x7F0 DUP2 PUSH2 0x72C JUMP JUMPDEST DUP3 MSTORE POP POP JUMP JUMPDEST PUSH0 PUSH1 0x20 DUP3 ADD SWAP1 POP PUSH2 0x809 PUSH0 DUP4 ADD DUP5 PUSH2 0x7E7 JUMP JUMPDEST SWAP3 SWAP2 POP POP JUMP JUMPDEST PUSH32 0x4E487B7100000000000000000000000000000000000000000000000000000000 PUSH0 MSTORE PUSH1 0x32 PUSH1 0x4 MSTORE PUSH1 0x24 PUSH0 REVERT JUMPDEST PUSH32 0x4E487B7100000000000000000000000000000000000000000000000000000000 PUSH0 MSTORE PUSH1 0x41 PUSH1 0x4 MSTORE PUSH1 0x24 PUSH0 REVERT JUMPDEST PUSH0 DUP3 DUP3 MSTORE PUSH1 0x20 DUP3 ADD SWAP1 POP SWAP3 SWAP2 POP POP JUMP JUMPDEST PUSH32 0x53656E64206661696C6564000000000000000000000000000000000000000000 PUSH0 DUP3 ADD MSTORE POP JUMP JUMPDEST PUSH0 PUSH2 0x8AD PUSH1 0xB DUP4 PUSH2 0x869 JUMP JUMPDEST SWAP2 POP PUSH2 0x8B8 DUP3 PUSH2 0x879 JUMP JUMPDEST PUSH1 0x20 DUP3 ADD SWAP1 POP SWAP2 SWAP1 POP JUMP JUMPDEST PUSH0 PUSH1 0x20 DUP3 ADD SWAP1 POP DUP2 DUP2 SUB PUSH0 DUP4 ADD MSTORE PUSH2 0x8DA DUP2 PUSH2 0x8A1 JUMP JUMPDEST SWAP1 POP SWAP2 SWAP1 POP JUMP JUMPDEST PUSH0 DUP2 SWAP1 POP SWAP3 SWAP2 POP POP JUMP JUMPDEST POP JUMP JUMPDEST PUSH0 PUSH2 0x8F9 PUSH0 DUP4 PUSH2 0x8E1 JUMP JUMPDEST SWAP2 POP PUSH2 0x904 DUP3 PUSH2 0x8EB JUMP JUMPDEST PUSH0 DUP3 ADD SWAP1 POP SWAP2 SWAP1 POP JUMP JUMPDEST PUSH0 PUSH2 0x918 DUP3 PUSH2 0x8EE JUMP JUMPDEST SWAP2 POP DUP2 SWAP1 POP SWAP2 SWAP1 POP JUMP JUMPDEST PUSH32 0x4E487B7100000000000000000000000000000000000000000000000000000000 PUSH0 MSTORE PUSH1 0x11 PUSH1 0x4 MSTORE PUSH1 0x24 PUSH0 REVERT JUMPDEST PUSH0 PUSH2 0x959 DUP3 PUSH2 0x6D8 JUMP JUMPDEST SWAP2 POP PUSH2 0x964 DUP4 PUSH2 0x6D8 JUMP JUMPDEST SWAP3 POP DUP3 DUP3 MUL PUSH2 0x972 DUP2 PUSH2 0x6D8 JUMP JUMPDEST SWAP2 POP DUP3 DUP3 DIV DUP5 EQ DUP4 ISZERO OR PUSH2 0x989 JUMPI PUSH2 0x988 PUSH2 0x922 JUMP JUMPDEST JUMPDEST POP SWAP3 SWAP2 POP POP JUMP JUMPDEST PUSH32 0x4E487B7100000000000000000000000000000000000000000000000000000000 PUSH0 MSTORE PUSH1 0x12 PUSH1 0x4 MSTORE PUSH1 0x24 PUSH0 REVERT JUMPDEST PUSH0 PUSH2 0x9C7 DUP3 PUSH2 0x6D8 JUMP JUMPDEST SWAP2 POP PUSH2 0x9D2 DUP4 PUSH2 0x6D8 JUMP JUMPDEST SWAP3 POP DUP3 PUSH2 0x9E2 JUMPI PUSH2 0x9E1 PUSH2 0x990 JUMP JUMPDEST JUMPDEST DUP3 DUP3 DIV SWAP1 POP SWAP3 SWAP2 POP POP JUMP JUMPDEST PUSH0 PUSH10 0xFFFFFFFFFFFFFFFFFFFF DUP3 AND SWAP1 POP SWAP2 SWAP1 POP JUMP JUMPDEST PUSH2 0xA0B DUP2 PUSH2 0x9ED JUMP JUMPDEST DUP2 EQ PUSH2 0xA15 JUMPI PUSH0 PUSH0 REVERT JUMPDEST POP JUMP JUMPDEST PUSH0 DUP2 MLOAD SWAP1 POP PUSH2 0xA26 DUP2 PUSH2 0xA02 JUMP JUMPDEST SWAP3 SWAP2 POP POP JUMP JUMPDEST PUSH0 DUP2 SWAP1 POP SWAP2 SWAP1 POP JUMP JUMPDEST PUSH2 0xA3E DUP2 PUSH2 0xA2C JUMP JUMPDEST DUP2 EQ PUSH2 0xA48 JUMPI PUSH0 PUSH0 REVERT JUMPDEST POP JUMP JUMPDEST PUSH0 DUP2 MLOAD SWAP1 POP PUSH2 0xA59 DUP2 PUSH2 0xA35 JUMP JUMPDEST SWAP3 SWAP2 POP POP JUMP JUMPDEST PUSH0 DUP2 MLOAD SWAP1 POP PUSH2 0xA6D DUP2 PUSH2 0x792 JUMP JUMPDEST SWAP3 SWAP2 POP POP JUMP JUMPDEST PUSH0 PUSH0 PUSH0 PUSH0 PUSH0 PUSH1 0xA0 DUP7 DUP9 SUB SLT ISZERO PUSH2 0xA8C JUMPI PUSH2 0xA8B PUSH2 0x709 JUMP JUMPDEST JUMPDEST PUSH0 PUSH2 0xA99 DUP9 DUP3 DUP10 ADD PUSH2 0xA18 JUMP JUMPDEST SWAP6 POP POP PUSH1 0x20 PUSH2 0xAAA DUP9 DUP3 DUP10 ADD PUSH2 0xA4B JUMP JUMPDEST SWAP5 POP POP PUSH1 0x40 PUSH2 0xABB DUP9 DUP3 DUP10 ADD PUSH2 0xA5F JUMP JUMPDEST SWAP4 POP POP PUSH1 0x60 PUSH2 0xACC DUP9 DUP3 DUP10 ADD PUSH2 0xA5F JUMP JUMPDEST SWAP3 POP POP PUSH1 0x80 PUSH2 0xADD DUP9 DUP3 DUP10 ADD PUSH2 0xA18 JUMP JUMPDEST SWAP2 POP POP SWAP3 SWAP6 POP SWAP3 SWAP6 SWAP1 SWAP4 POP JUMP JUMPDEST PUSH0 PUSH2 0xAF4 DUP3 PUSH2 0xA2C JUMP JUMPDEST SWAP2 POP PUSH2 0xAFF DUP4 PUSH2 0xA2C JUMP JUMPDEST SWAP3 POP DUP3 DUP3 MUL PUSH2 0xB0D DUP2 PUSH2 0xA2C JUMP JUMPDEST SWAP2 POP PUSH32 0x8000000000000000000000000000000000000000000000000000000000000000 DUP5 EQ PUSH0 DUP5 SLT AND ISZERO PUSH2 0xB44 JUMPI PUSH2 0xB43 PUSH2 0x922 JUMP JUMPDEST JUMPDEST DUP3 DUP3 SDIV DUP5 EQ DUP4 ISZERO OR PUSH2 0xB59 JUMPI PUSH2 0xB58 PUSH2 0x922 JUMP JUMPDEST JUMPDEST POP SWAP3 SWAP2 POP POP JUMP JUMPDEST PUSH32 0x4469646E27742073656E6420656E6F7567680000000000000000000000000000 PUSH0 DUP3 ADD MSTORE POP JUMP JUMPDEST PUSH0 PUSH2 0xB94 PUSH1 0x12 DUP4 PUSH2 0x869 JUMP JUMPDEST SWAP2 POP PUSH2 0xB9F DUP3 PUSH2 0xB60 JUMP JUMPDEST PUSH1 0x20 DUP3 ADD SWAP1 POP SWAP2 SWAP1 POP JUMP JUMPDEST PUSH0 PUSH1 0x20 DUP3 ADD SWAP1 POP DUP2 DUP2 SUB PUSH0 DUP4 ADD MSTORE PUSH2 0xBC1 DUP2 PUSH2 0xB88 JUMP JUMPDEST SWAP1 POP SWAP2 SWAP1 POP JUMP JUMPDEST PUSH0 PUSH2 0xBD2 DUP3 PUSH2 0x6D8 JUMP JUMPDEST SWAP2 POP PUSH2 0xBDD DUP4 PUSH2 0x6D8 JUMP JUMPDEST SWAP3 POP DUP3 DUP3 ADD SWAP1 POP DUP1 DUP3 GT ISZERO PUSH2 0xBF5 JUMPI PUSH2 0xBF4 PUSH2 0x922 JUMP JUMPDEST JUMPDEST SWAP3 SWAP2 POP POP JUMP INVALID LOG2 PUSH5 0x6970667358 0x22 SLT KECCAK256 0xDC SWAP11 SWAP9 0xEB STATICCALL DUP1 0xF6 0xBB PREVRANDAO EXTCODEHASH LOG4 EXTCODESIZE ORIGIN RETF PUSH14 0xDE859F78D6AA2620A569FBB906F6 PUSH9 0xAE9D64736F6C634300 ADDMOD 0x1F STOP CALLER "
				},
				"gasEstimates": {
					"creation": {
						"codeDepositCost": "624200",
						"executionCost": "22760",
						"totalCost": "646960"
					},
					"external": {
						"addressToAmountFunded(address)": "2847",
						"fund()": "infinite",
						"funders(uint256)": "5010",
						"getConversionRate(uint256)": "infinite",
						"getPrice()": "infinite",
						"minimumUsd()": "2425",
						"withdraw()": "infinite"
					}
				},
				"methodIdentifiers": {
					"addressToAmountFunded(address)": "3e47d6f3",
					"fund()": "b60d4288",
					"funders(uint256)": "dc0d3dff",
					"getConversionRate(uint256)": "6e5b6b28",
					"getPrice()": "98d5fdca",
					"minimumUsd()": "098de820",
					"withdraw()": "3ccfd60b"
				}
			},
			"storageLayout": {
				"storage": [
					{
						"astId": 51,
						"contract": "FundMe.sol:FundMe",
						"label": "minimumUsd",
						"offset": 0,
						"slot": "0",
						"type": "t_uint256"
					},
					{
						"astId": 54,
						"contract": "FundMe.sol:FundMe",
						"label": "funders",
						"offset": 0,
						"slot": "1",
						"type": "t_array(t_address)dyn_storage"
					},
					{
						"astId": 58,
						"contract": "FundMe.sol:FundMe",
						"label": "addressToAmountFunded",
						"offset": 0,
						"slot": "2",
						"type": "t_mapping(t_address,t_uint256)"
					}
				],
				"types": {
					"t_address": {
						"encoding": "inplace",
						"label": "address",
						"numberOfBytes": "20"
					},
					"t_array(t_address)dyn_storage": {
						"base": "t_address",
						"encoding": "dynamic_array",
						"label": "address[]",
						"numberOfBytes": "32"
					},
					"t_mapping(t_address,t_uint256)": {
						"encoding": "mapping",
						"key": "t_address",
						"label": "mapping(address => uint256)",
						"numberOfBytes": "32",
						"value": "t_uint256"
					},
					"t_uint256": {
						"encoding": "inplace",
						"label": "uint256",
						"numberOfBytes": "32"
					}
				}
			},
			"userdoc": {
				"kind": "user",
				"methods": {},
				"version": 1
			}
		}
	}
}