{
	"Ballot.sol": {
		"Ballot": {
			"abi": [
				{
					"inputs": [
						{
							"internalType": "bytes32[]",
							"name": "proposalNames",
							"type": "bytes32[]"
						}
					],
					"stateMutability": "nonpayable",
					"type": "constructor"
				},
				{
					"inputs": [],
					"name": "chairperson",
					"outputs": [
						{
							"internalType": "address",
							"name": "",
							"type": "address"
						}
					],
					"stateMutability": "view",
					"type": "function"
				},
				{
					"inputs": [
						{
							"internalType": "address",
							"name": "to",
							"type": "address"
						}
					],
					"name": "delegate",
					"outputs": [],
					"stateMutability": "nonpayable",
					"type": "function"
				},
				{
					"inputs": [
						{
							"internalType": "address",
							"name": "voter",
							"type": "address"
						}
					],
					"name": "giveRightToVote",
					"outputs": [],
					"stateMutability": "nonpayable",
					"type": "function"
				},
				{
					"inputs": [
						{
							"internalType": "uint256",
							"name": "",
							"type": "uint256"
						}
					],
					"name": "proposals",
					"outputs": [
						{
							"internalType": "bytes32",
							"name": "name",
							"type": "bytes32"
						},
						{
							"internalType": "uint256",
							"name": "voteCount",
							"type": "uint256"
						}
					],
					"stateMutability": "view",
					"type": "function"
				},
				{
					"inputs": [
						{
							"internalType": "uint256",
							"name": "proposal",
							"type": "uint256"
						}
					],
					"name": "vote",
					"outputs": [],
					"stateMutability": "nonpayable",
					"type": "function"
				},
				{
					"inputs": [
						{
							"internalType": "address",
							"name": "",
							"type": "address"
						}
					],
					"name": "voters",
					"outputs": [
						{
							"internalType": "uint256",
							"name": "weight",
							"type": "uint256"
						},
						{
							"internalType": "bool",
							"name": "voted",
							"type": "bool"
						},
						{
							"internalType": "address",
							"name": "delegate",
							"type": "address"
						},
						{
							"internalType": "uint256",
							"name": "vote",
							"type": "uint256"
						}
					],
					"stateMutability": "view",
					"type": "function"
				}
			],
			"devdoc": {
				"kind": "dev",
				"methods": {},
				"version": 1
			},
			"evm": {
				"assembly": "    /* \"Ballot.sol\":61:3425  contract Ballot{... */\n  mstore(0x40, 0x80)\n    /* \"Ballot.sol\":1005:1508  constructor(bytes32[] memory proposalNames){... */\n  callvalue\n  dup1\n  iszero\n  tag_1\n  jumpi\n  revert(0x00, 0x00)\ntag_1:\n  pop\n  mload(0x40)\n  sub(codesize, bytecodeSize)\n  dup1\n  bytecodeSize\n  dup4\n  codecopy\n  dup2\n  dup2\n  add\n  0x40\n  mstore\n  dup2\n  add\n  swap1\n  tag_2\n  swap2\n  swap1\n  tag_3\n  jump\t// in\ntag_2:\n    /* \"Ballot.sol\":1103:1113  msg.sender */\n  caller\n    /* \"Ballot.sol\":1089:1100  chairperson */\n  0x00\n  0x00\n    /* \"Ballot.sol\":1089:1113  chairperson = msg.sender */\n  0x0100\n  exp\n  dup2\n  sload\n  dup2\n  0xffffffffffffffffffffffffffffffffffffffff\n  mul\n  not\n  and\n  swap1\n  dup4\n  0xffffffffffffffffffffffffffffffffffffffff\n  and\n  mul\n  or\n  swap1\n  sstore\n  pop\n    /* \"Ballot.sol\":1274:1275  1 */\n  0x01\n    /* \"Ballot.sol\":1245:1251  voters */\n  dup1\n    /* \"Ballot.sol\":1245:1264  voters[chairperson] */\n  0x00\n    /* \"Ballot.sol\":1252:1263  chairperson */\n  0x00\n  0x00\n  swap1\n  sload\n  swap1\n  0x0100\n  exp\n  swap1\n  div\n  0xffffffffffffffffffffffffffffffffffffffff\n  and\n    /* \"Ballot.sol\":1245:1264  voters[chairperson] */\n  0xffffffffffffffffffffffffffffffffffffffff\n  and\n  0xffffffffffffffffffffffffffffffffffffffff\n  and\n  dup2\n  mstore\n  0x20\n  add\n  swap1\n  dup2\n  mstore\n  0x20\n  add\n  0x00\n  keccak256\n    /* \"Ballot.sol\":1245:1271  voters[chairperson].weight */\n  0x00\n  add\n    /* \"Ballot.sol\":1245:1275  voters[chairperson].weight = 1 */\n  dup2\n  swap1\n  sstore\n  pop\n    /* \"Ballot.sol\":1324:1330  uint i */\n  0x00\n    /* \"Ballot.sol\":1331:1332  0 */\n  0x00\n    /* \"Ballot.sol\":1324:1332  uint i=0 */\n  swap1\n  pop\n    /* \"Ballot.sol\":1320:1501  for(uint i=0; i<proposalNames.length;i++){... */\ntag_6:\n    /* \"Ballot.sol\":1336:1349  proposalNames */\n  dup2\n    /* \"Ballot.sol\":1336:1356  proposalNames.length */\n  mload\n    /* \"Ballot.sol\":1334:1335  i */\n  dup2\n    /* \"Ballot.sol\":1334:1356  i<proposalNames.length */\n  lt\n    /* \"Ballot.sol\":1320:1501  for(uint i=0; i<proposalNames.length;i++){... */\n  iszero\n  tag_7\n  jumpi\n    /* \"Ballot.sol\":1376:1385  proposals */\n  0x02\n    /* \"Ballot.sol\":1391:1486  Proposal({... */\n  mload(0x40)\n  dup1\n  0x40\n  add\n  0x40\n  mstore\n  dup1\n    /* \"Ballot.sol\":1424:1437  proposalNames */\n  dup5\n    /* \"Ballot.sol\":1438:1439  i */\n  dup5\n    /* \"Ballot.sol\":1424:1440  proposalNames[i] */\n  dup2\n  mload\n  dup2\n  lt\n  tag_9\n  jumpi\n  tag_10\n  tag_11\n  jump\t// in\ntag_10:\ntag_9:\n  0x20\n  mul\n  0x20\n  add\n  add\n  mload\n    /* \"Ballot.sol\":1391:1486  Proposal({... */\n  dup2\n  mstore\n  0x20\n  add\n    /* \"Ballot.sol\":1469:1470  0 */\n  0x00\n    /* \"Ballot.sol\":1391:1486  Proposal({... */\n  dup2\n  mstore\n  pop\n    /* \"Ballot.sol\":1376:1487  proposals.push(Proposal({... */\n  swap1\n  dup1\n  0x01\n  dup2\n  sload\n  add\n  dup1\n  dup3\n  sstore\n  dup1\n  swap2\n  pop\n  pop\n  0x01\n  swap1\n  sub\n  swap1\n  0x00\n  mstore\n  keccak256(0x00, 0x20)\n  swap1\n  0x02\n  mul\n  add\n  0x00\n  swap1\n  swap2\n  swap1\n  swap2\n  swap1\n  swap2\n  pop\n  0x00\n  dup3\n  add\n  mload\n  dup2\n  0x00\n  add\n  sstore\n  0x20\n  dup3\n  add\n  mload\n  dup2\n  0x01\n  add\n  sstore\n  pop\n  pop\n    /* \"Ballot.sol\":1357:1360  i++ */\n  dup1\n  dup1\n  0x01\n  add\n  swap2\n  pop\n  pop\n    /* \"Ballot.sol\":1320:1501  for(uint i=0; i<proposalNames.length;i++){... */\n  jump(tag_6)\ntag_7:\n  pop\n    /* \"Ballot.sol\":1005:1508  constructor(bytes32[] memory proposalNames){... */\n  pop\n    /* \"Ballot.sol\":61:3425  contract Ballot{... */\n  jump(tag_13)\n    /* \"#utility.yul\":7:82   */\ntag_14:\n    /* \"#utility.yul\":40:46   */\n  0x00\n    /* \"#utility.yul\":73:75   */\n  0x40\n    /* \"#utility.yul\":67:76   */\n  mload\n    /* \"#utility.yul\":57:76   */\n  swap1\n  pop\n    /* \"#utility.yul\":7:82   */\n  swap1\n  jump\t// out\n    /* \"#utility.yul\":88:205   */\ntag_15:\n    /* \"#utility.yul\":197:198   */\n  0x00\n    /* \"#utility.yul\":194:195   */\n  0x00\n    /* \"#utility.yul\":187:199   */\n  revert\n    /* \"#utility.yul\":211:328   */\ntag_16:\n    /* \"#utility.yul\":320:321   */\n  0x00\n    /* \"#utility.yul\":317:318   */\n  0x00\n    /* \"#utility.yul\":310:322   */\n  revert\n    /* \"#utility.yul\":334:451   */\ntag_17:\n    /* \"#utility.yul\":443:444   */\n  0x00\n    /* \"#utility.yul\":440:441   */\n  0x00\n    /* \"#utility.yul\":433:445   */\n  revert\n    /* \"#utility.yul\":457:559   */\ntag_18:\n    /* \"#utility.yul\":498:504   */\n  0x00\n    /* \"#utility.yul\":549:551   */\n  0x1f\n    /* \"#utility.yul\":545:552   */\n  not\n    /* \"#utility.yul\":540:542   */\n  0x1f\n    /* \"#utility.yul\":533:538   */\n  dup4\n    /* \"#utility.yul\":529:543   */\n  add\n    /* \"#utility.yul\":525:553   */\n  and\n    /* \"#utility.yul\":515:553   */\n  swap1\n  pop\n    /* \"#utility.yul\":457:559   */\n  swap2\n  swap1\n  pop\n  jump\t// out\n    /* \"#utility.yul\":565:745   */\ntag_19:\n    /* \"#utility.yul\":613:690   */\n  0x4e487b7100000000000000000000000000000000000000000000000000000000\n    /* \"#utility.yul\":610:611   */\n  0x00\n    /* \"#utility.yul\":603:691   */\n  mstore\n    /* \"#utility.yul\":710:714   */\n  0x41\n    /* \"#utility.yul\":707:708   */\n  0x04\n    /* \"#utility.yul\":700:715   */\n  mstore\n    /* \"#utility.yul\":734:738   */\n  0x24\n    /* \"#utility.yul\":731:732   */\n  0x00\n    /* \"#utility.yul\":724:739   */\n  revert\n    /* \"#utility.yul\":751:1032   */\ntag_20:\n    /* \"#utility.yul\":834:861   */\n  tag_37\n    /* \"#utility.yul\":856:860   */\n  dup3\n    /* \"#utility.yul\":834:861   */\n  tag_18\n  jump\t// in\ntag_37:\n    /* \"#utility.yul\":826:832   */\n  dup2\n    /* \"#utility.yul\":822:862   */\n  add\n    /* \"#utility.yul\":964:970   */\n  dup2\n    /* \"#utility.yul\":952:962   */\n  dup2\n    /* \"#utility.yul\":949:971   */\n  lt\n    /* \"#utility.yul\":928:946   */\n  0xffffffffffffffff\n    /* \"#utility.yul\":916:926   */\n  dup3\n    /* \"#utility.yul\":913:947   */\n  gt\n    /* \"#utility.yul\":910:972   */\n  or\n    /* \"#utility.yul\":907:995   */\n  iszero\n  tag_38\n  jumpi\n    /* \"#utility.yul\":975:993   */\n  tag_39\n  tag_19\n  jump\t// in\ntag_39:\n    /* \"#utility.yul\":907:995   */\ntag_38:\n    /* \"#utility.yul\":1015:1025   */\n  dup1\n    /* \"#utility.yul\":1011:1013   */\n  0x40\n    /* \"#utility.yul\":1004:1026   */\n  mstore\n    /* \"#utility.yul\":794:1032   */\n  pop\n    /* \"#utility.yul\":751:1032   */\n  pop\n  pop\n  jump\t// out\n    /* \"#utility.yul\":1038:1167   */\ntag_21:\n    /* \"#utility.yul\":1072:1078   */\n  0x00\n    /* \"#utility.yul\":1099:1119   */\n  tag_41\n  tag_14\n  jump\t// in\ntag_41:\n    /* \"#utility.yul\":1089:1119   */\n  swap1\n  pop\n    /* \"#utility.yul\":1128:1161   */\n  tag_42\n    /* \"#utility.yul\":1156:1160   */\n  dup3\n    /* \"#utility.yul\":1148:1154   */\n  dup3\n    /* \"#utility.yul\":1128:1161   */\n  tag_20\n  jump\t// in\ntag_42:\n    /* \"#utility.yul\":1038:1167   */\n  swap2\n  swap1\n  pop\n  jump\t// out\n    /* \"#utility.yul\":1173:1484   */\ntag_22:\n    /* \"#utility.yul\":1250:1254   */\n  0x00\n    /* \"#utility.yul\":1340:1358   */\n  0xffffffffffffffff\n    /* \"#utility.yul\":1332:1338   */\n  dup3\n    /* \"#utility.yul\":1329:1359   */\n  gt\n    /* \"#utility.yul\":1326:1382   */\n  iszero\n  tag_44\n  jumpi\n    /* \"#utility.yul\":1362:1380   */\n  tag_45\n  tag_19\n  jump\t// in\ntag_45:\n    /* \"#utility.yul\":1326:1382   */\ntag_44:\n    /* \"#utility.yul\":1412:1416   */\n  0x20\n    /* \"#utility.yul\":1404:1410   */\n  dup3\n    /* \"#utility.yul\":1400:1417   */\n  mul\n    /* \"#utility.yul\":1392:1417   */\n  swap1\n  pop\n    /* \"#utility.yul\":1472:1476   */\n  0x20\n    /* \"#utility.yul\":1466:1470   */\n  dup2\n    /* \"#utility.yul\":1462:1477   */\n  add\n    /* \"#utility.yul\":1454:1477   */\n  swap1\n  pop\n    /* \"#utility.yul\":1173:1484   */\n  swap2\n  swap1\n  pop\n  jump\t// out\n    /* \"#utility.yul\":1490:1607   */\ntag_23:\n    /* \"#utility.yul\":1599:1600   */\n  0x00\n    /* \"#utility.yul\":1596:1597   */\n  0x00\n    /* \"#utility.yul\":1589:1601   */\n  revert\n    /* \"#utility.yul\":1613:1690   */\ntag_24:\n    /* \"#utility.yul\":1650:1657   */\n  0x00\n    /* \"#utility.yul\":1679:1684   */\n  dup2\n    /* \"#utility.yul\":1668:1684   */\n  swap1\n  pop\n    /* \"#utility.yul\":1613:1690   */\n  swap2\n  swap1\n  pop\n  jump\t// out\n    /* \"#utility.yul\":1696:1818   */\ntag_25:\n    /* \"#utility.yul\":1769:1793   */\n  tag_49\n    /* \"#utility.yul\":1787:1792   */\n  dup2\n    /* \"#utility.yul\":1769:1793   */\n  tag_24\n  jump\t// in\ntag_49:\n    /* \"#utility.yul\":1762:1767   */\n  dup2\n    /* \"#utility.yul\":1759:1794   */\n  eq\n    /* \"#utility.yul\":1749:1812   */\n  tag_50\n  jumpi\n    /* \"#utility.yul\":1808:1809   */\n  0x00\n    /* \"#utility.yul\":1805:1806   */\n  0x00\n    /* \"#utility.yul\":1798:1810   */\n  revert\n    /* \"#utility.yul\":1749:1812   */\ntag_50:\n    /* \"#utility.yul\":1696:1818   */\n  pop\n  jump\t// out\n    /* \"#utility.yul\":1824:1967   */\ntag_26:\n    /* \"#utility.yul\":1881:1886   */\n  0x00\n    /* \"#utility.yul\":1912:1918   */\n  dup2\n    /* \"#utility.yul\":1906:1919   */\n  mload\n    /* \"#utility.yul\":1897:1919   */\n  swap1\n  pop\n    /* \"#utility.yul\":1928:1961   */\n  tag_52\n    /* \"#utility.yul\":1955:1960   */\n  dup2\n    /* \"#utility.yul\":1928:1961   */\n  tag_25\n  jump\t// in\ntag_52:\n    /* \"#utility.yul\":1824:1967   */\n  swap3\n  swap2\n  pop\n  pop\n  jump\t// out\n    /* \"#utility.yul\":1990:2722   */\ntag_27:\n    /* \"#utility.yul\":2097:2102   */\n  0x00\n    /* \"#utility.yul\":2122:2203   */\n  tag_54\n    /* \"#utility.yul\":2138:2202   */\n  tag_55\n    /* \"#utility.yul\":2195:2201   */\n  dup5\n    /* \"#utility.yul\":2138:2202   */\n  tag_22\n  jump\t// in\ntag_55:\n    /* \"#utility.yul\":2122:2203   */\n  tag_21\n  jump\t// in\ntag_54:\n    /* \"#utility.yul\":2113:2203   */\n  swap1\n  pop\n    /* \"#utility.yul\":2223:2228   */\n  dup1\n    /* \"#utility.yul\":2252:2258   */\n  dup4\n    /* \"#utility.yul\":2245:2250   */\n  dup3\n    /* \"#utility.yul\":2238:2259   */\n  mstore\n    /* \"#utility.yul\":2286:2290   */\n  0x20\n    /* \"#utility.yul\":2279:2284   */\n  dup3\n    /* \"#utility.yul\":2275:2291   */\n  add\n    /* \"#utility.yul\":2268:2291   */\n  swap1\n  pop\n    /* \"#utility.yul\":2339:2343   */\n  0x20\n    /* \"#utility.yul\":2331:2337   */\n  dup5\n    /* \"#utility.yul\":2327:2344   */\n  mul\n    /* \"#utility.yul\":2319:2325   */\n  dup4\n    /* \"#utility.yul\":2315:2345   */\n  add\n    /* \"#utility.yul\":2368:2371   */\n  dup6\n    /* \"#utility.yul\":2360:2366   */\n  dup2\n    /* \"#utility.yul\":2357:2372   */\n  gt\n    /* \"#utility.yul\":2354:2476   */\n  iszero\n  tag_56\n  jumpi\n    /* \"#utility.yul\":2387:2466   */\n  tag_57\n  tag_23\n  jump\t// in\ntag_57:\n    /* \"#utility.yul\":2354:2476   */\ntag_56:\n    /* \"#utility.yul\":2502:2508   */\n  dup4\n    /* \"#utility.yul\":2485:2716   */\ntag_58:\n    /* \"#utility.yul\":2519:2525   */\n  dup2\n    /* \"#utility.yul\":2514:2517   */\n  dup2\n    /* \"#utility.yul\":2511:2526   */\n  lt\n    /* \"#utility.yul\":2485:2716   */\n  iszero\n  tag_60\n  jumpi\n    /* \"#utility.yul\":2594:2597   */\n  dup1\n    /* \"#utility.yul\":2623:2671   */\n  tag_61\n    /* \"#utility.yul\":2667:2670   */\n  dup9\n    /* \"#utility.yul\":2655:2665   */\n  dup3\n    /* \"#utility.yul\":2623:2671   */\n  tag_26\n  jump\t// in\ntag_61:\n    /* \"#utility.yul\":2618:2621   */\n  dup5\n    /* \"#utility.yul\":2611:2672   */\n  mstore\n    /* \"#utility.yul\":2701:2705   */\n  0x20\n    /* \"#utility.yul\":2696:2699   */\n  dup5\n    /* \"#utility.yul\":2692:2706   */\n  add\n    /* \"#utility.yul\":2685:2706   */\n  swap4\n  pop\n    /* \"#utility.yul\":2561:2716   */\n  pop\n    /* \"#utility.yul\":2545:2549   */\n  0x20\n    /* \"#utility.yul\":2540:2543   */\n  dup2\n    /* \"#utility.yul\":2536:2550   */\n  add\n    /* \"#utility.yul\":2529:2550   */\n  swap1\n  pop\n    /* \"#utility.yul\":2485:2716   */\n  jump(tag_58)\ntag_60:\n    /* \"#utility.yul\":2489:2510   */\n  pop\n    /* \"#utility.yul\":2103:2722   */\n  pop\n  pop\n    /* \"#utility.yul\":1990:2722   */\n  swap4\n  swap3\n  pop\n  pop\n  pop\n  jump\t// out\n    /* \"#utility.yul\":2745:3130   */\ntag_28:\n    /* \"#utility.yul\":2827:2832   */\n  0x00\n    /* \"#utility.yul\":2876:2879   */\n  dup3\n    /* \"#utility.yul\":2869:2873   */\n  0x1f\n    /* \"#utility.yul\":2861:2867   */\n  dup4\n    /* \"#utility.yul\":2857:2874   */\n  add\n    /* \"#utility.yul\":2853:2880   */\n  slt\n    /* \"#utility.yul\":2843:2965   */\n  tag_63\n  jumpi\n    /* \"#utility.yul\":2884:2963   */\n  tag_64\n  tag_17\n  jump\t// in\ntag_64:\n    /* \"#utility.yul\":2843:2965   */\ntag_63:\n    /* \"#utility.yul\":2994:3000   */\n  dup2\n    /* \"#utility.yul\":2988:3001   */\n  mload\n    /* \"#utility.yul\":3019:3124   */\n  tag_65\n    /* \"#utility.yul\":3120:3123   */\n  dup5\n    /* \"#utility.yul\":3112:3118   */\n  dup3\n    /* \"#utility.yul\":3105:3109   */\n  0x20\n    /* \"#utility.yul\":3097:3103   */\n  dup7\n    /* \"#utility.yul\":3093:3110   */\n  add\n    /* \"#utility.yul\":3019:3124   */\n  tag_27\n  jump\t// in\ntag_65:\n    /* \"#utility.yul\":3010:3124   */\n  swap2\n  pop\n    /* \"#utility.yul\":2833:3130   */\n  pop\n    /* \"#utility.yul\":2745:3130   */\n  swap3\n  swap2\n  pop\n  pop\n  jump\t// out\n    /* \"#utility.yul\":3136:3690   */\ntag_3:\n    /* \"#utility.yul\":3231:3237   */\n  0x00\n    /* \"#utility.yul\":3280:3282   */\n  0x20\n    /* \"#utility.yul\":3268:3277   */\n  dup3\n    /* \"#utility.yul\":3259:3266   */\n  dup5\n    /* \"#utility.yul\":3255:3278   */\n  sub\n    /* \"#utility.yul\":3251:3283   */\n  slt\n    /* \"#utility.yul\":3248:3367   */\n  iszero\n  tag_67\n  jumpi\n    /* \"#utility.yul\":3286:3365   */\n  tag_68\n  tag_15\n  jump\t// in\ntag_68:\n    /* \"#utility.yul\":3248:3367   */\ntag_67:\n    /* \"#utility.yul\":3427:3428   */\n  0x00\n    /* \"#utility.yul\":3416:3425   */\n  dup3\n    /* \"#utility.yul\":3412:3429   */\n  add\n    /* \"#utility.yul\":3406:3430   */\n  mload\n    /* \"#utility.yul\":3457:3475   */\n  0xffffffffffffffff\n    /* \"#utility.yul\":3449:3455   */\n  dup2\n    /* \"#utility.yul\":3446:3476   */\n  gt\n    /* \"#utility.yul\":3443:3560   */\n  iszero\n  tag_69\n  jumpi\n    /* \"#utility.yul\":3479:3558   */\n  tag_70\n  tag_16\n  jump\t// in\ntag_70:\n    /* \"#utility.yul\":3443:3560   */\ntag_69:\n    /* \"#utility.yul\":3584:3673   */\n  tag_71\n    /* \"#utility.yul\":3665:3672   */\n  dup5\n    /* \"#utility.yul\":3656:3662   */\n  dup3\n    /* \"#utility.yul\":3645:3654   */\n  dup6\n    /* \"#utility.yul\":3641:3663   */\n  add\n    /* \"#utility.yul\":3584:3673   */\n  tag_28\n  jump\t// in\ntag_71:\n    /* \"#utility.yul\":3574:3673   */\n  swap2\n  pop\n    /* \"#utility.yul\":3377:3683   */\n  pop\n    /* \"#utility.yul\":3136:3690   */\n  swap3\n  swap2\n  pop\n  pop\n  jump\t// out\n    /* \"#utility.yul\":3696:3876   */\ntag_11:\n    /* \"#utility.yul\":3744:3821   */\n  0x4e487b7100000000000000000000000000000000000000000000000000000000\n    /* \"#utility.yul\":3741:3742   */\n  0x00\n    /* \"#utility.yul\":3734:3822   */\n  mstore\n    /* \"#utility.yul\":3841:3845   */\n  0x32\n    /* \"#utility.yul\":3838:3839   */\n  0x04\n    /* \"#utility.yul\":3831:3846   */\n  mstore\n    /* \"#utility.yul\":3865:3869   */\n  0x24\n    /* \"#utility.yul\":3862:3863   */\n  0x00\n    /* \"#utility.yul\":3855:3870   */\n  revert\n    /* \"Ballot.sol\":61:3425  contract Ballot{... */\ntag_13:\n  dataSize(sub_0)\n  dup1\n  dataOffset(sub_0)\n  0x00\n  codecopy\n  0x00\n  return\nstop\n\nsub_0: assembly {\n        /* \"Ballot.sol\":61:3425  contract Ballot{... */\n      mstore(0x40, 0x80)\n      callvalue\n      dup1\n      iszero\n      tag_1\n      jumpi\n      revert(0x00, 0x00)\n    tag_1:\n      pop\n      jumpi(tag_2, lt(calldatasize, 0x04))\n      shr(0xe0, calldataload(0x00))\n      dup1\n      0x0121b93f\n      eq\n      tag_3\n      jumpi\n      dup1\n      0x013cf08b\n      eq\n      tag_4\n      jumpi\n      dup1\n      0x2e4176cf\n      eq\n      tag_5\n      jumpi\n      dup1\n      0x5c19a95c\n      eq\n      tag_6\n      jumpi\n      dup1\n      0x9e7b8d61\n      eq\n      tag_7\n      jumpi\n      dup1\n      0xa3ec138d\n      eq\n      tag_8\n      jumpi\n    tag_2:\n      revert(0x00, 0x00)\n        /* \"Ballot.sol\":2972:3422  function vote(uint proposal) external {... */\n    tag_3:\n      tag_9\n      0x04\n      dup1\n      calldatasize\n      sub\n      dup2\n      add\n      swap1\n      tag_10\n      swap2\n      swap1\n      tag_11\n      jump\t// in\n    tag_10:\n      tag_12\n      jump\t// in\n    tag_9:\n      stop\n        /* \"Ballot.sol\":899:928  Proposal [] public  proposals */\n    tag_4:\n      tag_13\n      0x04\n      dup1\n      calldatasize\n      sub\n      dup2\n      add\n      swap1\n      tag_14\n      swap2\n      swap1\n      tag_11\n      jump\t// in\n    tag_14:\n      tag_15\n      jump\t// in\n    tag_13:\n      mload(0x40)\n      tag_16\n      swap3\n      swap2\n      swap1\n      tag_17\n      jump\t// in\n    tag_16:\n      mload(0x40)\n      dup1\n      swap2\n      sub\n      swap1\n      return\n        /* \"Ballot.sol\":532:559  address public  chairperson */\n    tag_5:\n      tag_18\n      tag_19\n      jump\t// in\n    tag_18:\n      mload(0x40)\n      tag_20\n      swap2\n      swap1\n      tag_21\n      jump\t// in\n    tag_20:\n      mload(0x40)\n      dup1\n      swap2\n      sub\n      swap1\n      return\n        /* \"Ballot.sol\":2007:2945  function delegate(address to ) external{... */\n    tag_6:\n      tag_22\n      0x04\n      dup1\n      calldatasize\n      sub\n      dup2\n      add\n      swap1\n      tag_23\n      swap2\n      swap1\n      tag_24\n      jump\t// in\n    tag_23:\n      tag_25\n      jump\t// in\n    tag_22:\n      stop\n        /* \"Ballot.sol\":1560:1979  function giveRightToVote(address voter) external{... */\n    tag_7:\n      tag_26\n      0x04\n      dup1\n      calldatasize\n      sub\n      dup2\n      add\n      swap1\n      tag_27\n      swap2\n      swap1\n      tag_24\n      jump\t// in\n    tag_27:\n      tag_28\n      jump\t// in\n    tag_26:\n      stop\n        /* \"Ballot.sol\":662:701  mapping (address=> Voter) public voters */\n    tag_8:\n      tag_29\n      0x04\n      dup1\n      calldatasize\n      sub\n      dup2\n      add\n      swap1\n      tag_30\n      swap2\n      swap1\n      tag_24\n      jump\t// in\n    tag_30:\n      tag_31\n      jump\t// in\n    tag_29:\n      mload(0x40)\n      tag_32\n      swap5\n      swap4\n      swap3\n      swap2\n      swap1\n      tag_33\n      jump\t// in\n    tag_32:\n      mload(0x40)\n      dup1\n      swap2\n      sub\n      swap1\n      return\n        /* \"Ballot.sol\":2972:3422  function vote(uint proposal) external {... */\n    tag_12:\n        /* \"Ballot.sol\":3078:3098  Voter storage sender */\n      0x00\n        /* \"Ballot.sol\":3101:3107  voters */\n      0x01\n        /* \"Ballot.sol\":3101:3119  voters[msg.sender] */\n      0x00\n        /* \"Ballot.sol\":3108:3118  msg.sender */\n      caller\n        /* \"Ballot.sol\":3101:3119  voters[msg.sender] */\n      0xffffffffffffffffffffffffffffffffffffffff\n      and\n      0xffffffffffffffffffffffffffffffffffffffff\n      and\n      dup2\n      mstore\n      0x20\n      add\n      swap1\n      dup2\n      mstore\n      0x20\n      add\n      0x00\n      keccak256\n        /* \"Ballot.sol\":3078:3119  Voter storage sender = voters[msg.sender] */\n      swap1\n      pop\n        /* \"Ballot.sol\":3179:3180  0 */\n      0x00\n        /* \"Ballot.sol\":3163:3169  sender */\n      dup2\n        /* \"Ballot.sol\":3163:3176  sender.weight */\n      0x00\n      add\n      sload\n        /* \"Ballot.sol\":3163:3180  sender.weight !=0 */\n      sub\n        /* \"Ballot.sol\":3155:3205  require(sender.weight !=0, \"Has no right to vote\") */\n      tag_35\n      jumpi\n      mload(0x40)\n      0x08c379a000000000000000000000000000000000000000000000000000000000\n      dup2\n      mstore\n      0x04\n      add\n      tag_36\n      swap1\n      tag_37\n      jump\t// in\n    tag_36:\n      mload(0x40)\n      dup1\n      swap2\n      sub\n      swap1\n      revert\n    tag_35:\n        /* \"Ballot.sol\":3225:3231  sender */\n      dup1\n        /* \"Ballot.sol\":3225:3237  sender.voted */\n      0x01\n      add\n      0x00\n      swap1\n      sload\n      swap1\n      0x0100\n      exp\n      swap1\n      div\n      0xff\n      and\n        /* \"Ballot.sol\":3224:3237  !sender.voted */\n      iszero\n        /* \"Ballot.sol\":3216:3256  require(!sender.voted, \"Already voted.\") */\n      tag_38\n      jumpi\n      mload(0x40)\n      0x08c379a000000000000000000000000000000000000000000000000000000000\n      dup2\n      mstore\n      0x04\n      add\n      tag_39\n      swap1\n      tag_40\n      jump\t// in\n    tag_39:\n      mload(0x40)\n      dup1\n      swap2\n      sub\n      swap1\n      revert\n    tag_38:\n        /* \"Ballot.sol\":3310:3314  true */\n      0x01\n        /* \"Ballot.sol\":3295:3301  sender */\n      dup2\n        /* \"Ballot.sol\":3295:3307  sender.voted */\n      0x01\n      add\n      0x00\n        /* \"Ballot.sol\":3295:3314  sender.voted = true */\n      0x0100\n      exp\n      dup2\n      sload\n      dup2\n      0xff\n      mul\n      not\n      and\n      swap1\n      dup4\n      iszero\n      iszero\n      mul\n      or\n      swap1\n      sstore\n      pop\n        /* \"Ballot.sol\":3339:3347  proposal */\n      dup2\n        /* \"Ballot.sol\":3325:3331  sender */\n      dup2\n        /* \"Ballot.sol\":3325:3336  sender.vote */\n      0x02\n      add\n        /* \"Ballot.sol\":3325:3347  sender.vote = proposal */\n      dup2\n      swap1\n      sstore\n      pop\n        /* \"Ballot.sol\":3391:3397  sender */\n      dup1\n        /* \"Ballot.sol\":3391:3404  sender.weight */\n      0x00\n      add\n      sload\n        /* \"Ballot.sol\":3358:3367  proposals */\n      0x02\n        /* \"Ballot.sol\":3368:3376  proposal */\n      dup4\n        /* \"Ballot.sol\":3358:3377  proposals[proposal] */\n      dup2\n      sload\n      dup2\n      lt\n      tag_41\n      jumpi\n      tag_42\n      tag_43\n      jump\t// in\n    tag_42:\n    tag_41:\n      swap1\n      0x00\n      mstore\n      keccak256(0x00, 0x20)\n      swap1\n      0x02\n      mul\n      add\n        /* \"Ballot.sol\":3358:3387  proposals[proposal].voteCount */\n      0x01\n      add\n      0x00\n        /* \"Ballot.sol\":3358:3404  proposals[proposal].voteCount += sender.weight */\n      dup3\n      dup3\n      sload\n      tag_45\n      swap2\n      swap1\n      tag_46\n      jump\t// in\n    tag_45:\n      swap3\n      pop\n      pop\n      dup2\n      swap1\n      sstore\n      pop\n        /* \"Ballot.sol\":3010:3422  {... */\n      pop\n        /* \"Ballot.sol\":2972:3422  function vote(uint proposal) external {... */\n      pop\n      jump\t// out\n        /* \"Ballot.sol\":899:928  Proposal [] public  proposals */\n    tag_15:\n      0x02\n      dup2\n      dup2\n      sload\n      dup2\n      lt\n      tag_47\n      jumpi\n      0x00\n      dup1\n      revert\n    tag_47:\n      swap1\n      0x00\n      mstore\n      keccak256(0x00, 0x20)\n      swap1\n      0x02\n      mul\n      add\n      0x00\n      swap2\n      pop\n      swap1\n      pop\n      dup1\n      0x00\n      add\n      sload\n      swap1\n      dup1\n      0x01\n      add\n      sload\n      swap1\n      pop\n      dup3\n      jump\t// out\n        /* \"Ballot.sol\":532:559  address public  chairperson */\n    tag_19:\n      0x00\n      0x00\n      swap1\n      sload\n      swap1\n      0x0100\n      exp\n      swap1\n      div\n      0xffffffffffffffffffffffffffffffffffffffff\n      and\n      dup2\n      jump\t// out\n        /* \"Ballot.sol\":2007:2945  function delegate(address to ) external{... */\n    tag_25:\n        /* \"Ballot.sol\":2112:2132  Voter storage sender */\n      0x00\n        /* \"Ballot.sol\":2135:2141  voters */\n      0x01\n        /* \"Ballot.sol\":2135:2153  voters[msg.sender] */\n      0x00\n        /* \"Ballot.sol\":2142:2152  msg.sender */\n      caller\n        /* \"Ballot.sol\":2135:2153  voters[msg.sender] */\n      0xffffffffffffffffffffffffffffffffffffffff\n      and\n      0xffffffffffffffffffffffffffffffffffffffff\n      and\n      dup2\n      mstore\n      0x20\n      add\n      swap1\n      dup2\n      mstore\n      0x20\n      add\n      0x00\n      keccak256\n        /* \"Ballot.sol\":2112:2153  Voter storage sender = voters[msg.sender] */\n      swap1\n      pop\n        /* \"Ballot.sol\":2210:2211  0 */\n      0x00\n        /* \"Ballot.sol\":2194:2200  sender */\n      dup2\n        /* \"Ballot.sol\":2194:2207  sender.weight */\n      0x00\n      add\n      sload\n        /* \"Ballot.sol\":2194:2211  sender.weight !=0 */\n      sub\n        /* \"Ballot.sol\":2186:2241  require(sender.weight !=0, \"you have no right to vote\") */\n      tag_50\n      jumpi\n      mload(0x40)\n      0x08c379a000000000000000000000000000000000000000000000000000000000\n      dup2\n      mstore\n      0x04\n      add\n      tag_51\n      swap1\n      tag_52\n      jump\t// in\n    tag_51:\n      mload(0x40)\n      dup1\n      swap2\n      sub\n      swap1\n      revert\n    tag_50:\n        /* \"Ballot.sol\":2261:2267  sender */\n      dup1\n        /* \"Ballot.sol\":2261:2273  sender.voted */\n      0x01\n      add\n      0x00\n      swap1\n      sload\n      swap1\n      0x0100\n      exp\n      swap1\n      div\n      0xff\n      and\n        /* \"Ballot.sol\":2260:2273  !sender.voted */\n      iszero\n        /* \"Ballot.sol\":2252:2300  require(!sender.voted, \"you have already voted\") */\n      tag_53\n      jumpi\n      mload(0x40)\n      0x08c379a000000000000000000000000000000000000000000000000000000000\n      dup2\n      mstore\n      0x04\n      add\n      tag_54\n      swap1\n      tag_55\n      jump\t// in\n    tag_54:\n      mload(0x40)\n      dup1\n      swap2\n      sub\n      swap1\n      revert\n    tag_53:\n        /* \"Ballot.sol\":2323:2333  msg.sender */\n      caller\n        /* \"Ballot.sol\":2319:2333  to!=msg.sender */\n      0xffffffffffffffffffffffffffffffffffffffff\n      and\n        /* \"Ballot.sol\":2319:2321  to */\n      dup3\n        /* \"Ballot.sol\":2319:2333  to!=msg.sender */\n      0xffffffffffffffffffffffffffffffffffffffff\n      and\n      sub\n        /* \"Ballot.sol\":2311:2367  require(to!=msg.sender, \"Self-delegation is disallowed\") */\n      tag_56\n      jumpi\n      mload(0x40)\n      0x08c379a000000000000000000000000000000000000000000000000000000000\n      dup2\n      mstore\n      0x04\n      add\n      tag_57\n      swap1\n      tag_58\n      jump\t// in\n    tag_57:\n      mload(0x40)\n      dup1\n      swap2\n      sub\n      swap1\n      revert\n    tag_56:\n        /* \"Ballot.sol\":2380:2536  while(voters[to].delegate !=address(0)){... */\n    tag_59:\n        /* \"Ballot.sol\":2416:2417  0 */\n      0x00\n        /* \"Ballot.sol\":2386:2418  voters[to].delegate !=address(0) */\n      0xffffffffffffffffffffffffffffffffffffffff\n      and\n        /* \"Ballot.sol\":2386:2392  voters */\n      0x01\n        /* \"Ballot.sol\":2386:2396  voters[to] */\n      0x00\n        /* \"Ballot.sol\":2393:2395  to */\n      dup5\n        /* \"Ballot.sol\":2386:2396  voters[to] */\n      0xffffffffffffffffffffffffffffffffffffffff\n      and\n      0xffffffffffffffffffffffffffffffffffffffff\n      and\n      dup2\n      mstore\n      0x20\n      add\n      swap1\n      dup2\n      mstore\n      0x20\n      add\n      0x00\n      keccak256\n        /* \"Ballot.sol\":2386:2405  voters[to].delegate */\n      0x01\n      add\n      0x01\n      swap1\n      sload\n      swap1\n      0x0100\n      exp\n      swap1\n      div\n      0xffffffffffffffffffffffffffffffffffffffff\n      and\n        /* \"Ballot.sol\":2386:2418  voters[to].delegate !=address(0) */\n      0xffffffffffffffffffffffffffffffffffffffff\n      and\n      eq\n        /* \"Ballot.sol\":2380:2536  while(voters[to].delegate !=address(0)){... */\n      tag_60\n      jumpi\n        /* \"Ballot.sol\":2439:2445  voters */\n      0x01\n        /* \"Ballot.sol\":2439:2449  voters[to] */\n      0x00\n        /* \"Ballot.sol\":2446:2448  to */\n      dup4\n        /* \"Ballot.sol\":2439:2449  voters[to] */\n      0xffffffffffffffffffffffffffffffffffffffff\n      and\n      0xffffffffffffffffffffffffffffffffffffffff\n      and\n      dup2\n      mstore\n      0x20\n      add\n      swap1\n      dup2\n      mstore\n      0x20\n      add\n      0x00\n      keccak256\n        /* \"Ballot.sol\":2439:2458  voters[to].delegate */\n      0x01\n      add\n      0x01\n      swap1\n      sload\n      swap1\n      0x0100\n      exp\n      swap1\n      div\n      0xffffffffffffffffffffffffffffffffffffffff\n      and\n        /* \"Ballot.sol\":2434:2458  to = voters[to].delegate */\n      swap2\n      pop\n        /* \"Ballot.sol\":2485:2495  msg.sender */\n      caller\n        /* \"Ballot.sol\":2481:2495  to!=msg.sender */\n      0xffffffffffffffffffffffffffffffffffffffff\n      and\n        /* \"Ballot.sol\":2481:2483  to */\n      dup3\n        /* \"Ballot.sol\":2481:2495  to!=msg.sender */\n      0xffffffffffffffffffffffffffffffffffffffff\n      and\n      sub\n        /* \"Ballot.sol\":2473:2524  require(to!=msg.sender, \"Found loop in delegation\") */\n      tag_61\n      jumpi\n      mload(0x40)\n      0x08c379a000000000000000000000000000000000000000000000000000000000\n      dup2\n      mstore\n      0x04\n      add\n      tag_62\n      swap1\n      tag_63\n      jump\t// in\n    tag_62:\n      mload(0x40)\n      dup1\n      swap2\n      sub\n      swap1\n      revert\n    tag_61:\n        /* \"Ballot.sol\":2380:2536  while(voters[to].delegate !=address(0)){... */\n      jump(tag_59)\n    tag_60:\n        /* \"Ballot.sol\":2546:2569  Voter storage delegate_ */\n      0x00\n        /* \"Ballot.sol\":2572:2578  voters */\n      0x01\n        /* \"Ballot.sol\":2572:2582  voters[to] */\n      0x00\n        /* \"Ballot.sol\":2579:2581  to */\n      dup5\n        /* \"Ballot.sol\":2572:2582  voters[to] */\n      0xffffffffffffffffffffffffffffffffffffffff\n      and\n      0xffffffffffffffffffffffffffffffffffffffff\n      and\n      dup2\n      mstore\n      0x20\n      add\n      swap1\n      dup2\n      mstore\n      0x20\n      add\n      0x00\n      keccak256\n        /* \"Ballot.sol\":2546:2582  Voter storage delegate_ = voters[to] */\n      swap1\n      pop\n        /* \"Ballot.sol\":2619:2620  1 */\n      0x01\n        /* \"Ballot.sol\":2601:2610  delegate_ */\n      dup2\n        /* \"Ballot.sol\":2601:2617  delegate_.weight */\n      0x00\n      add\n      sload\n        /* \"Ballot.sol\":2601:2620  delegate_.weight>=1 */\n      lt\n      iszero\n        /* \"Ballot.sol\":2593:2621  require(delegate_.weight>=1) */\n      tag_64\n      jumpi\n      revert(0x00, 0x00)\n    tag_64:\n        /* \"Ballot.sol\":2680:2684  true */\n      0x01\n        /* \"Ballot.sol\":2665:2671  sender */\n      dup3\n        /* \"Ballot.sol\":2665:2677  sender.voted */\n      0x01\n      add\n      0x00\n        /* \"Ballot.sol\":2665:2684  sender.voted = true */\n      0x0100\n      exp\n      dup2\n      sload\n      dup2\n      0xff\n      mul\n      not\n      and\n      swap1\n      dup4\n      iszero\n      iszero\n      mul\n      or\n      swap1\n      sstore\n      pop\n        /* \"Ballot.sol\":2713:2715  to */\n      dup3\n        /* \"Ballot.sol\":2695:2701  sender */\n      dup3\n        /* \"Ballot.sol\":2695:2710  sender.delegate */\n      0x01\n      add\n      0x01\n        /* \"Ballot.sol\":2695:2715  sender.delegate = to */\n      0x0100\n      exp\n      dup2\n      sload\n      dup2\n      0xffffffffffffffffffffffffffffffffffffffff\n      mul\n      not\n      and\n      swap1\n      dup4\n      0xffffffffffffffffffffffffffffffffffffffff\n      and\n      mul\n      or\n      swap1\n      sstore\n      pop\n        /* \"Ballot.sol\":2763:2772  delegate_ */\n      dup1\n        /* \"Ballot.sol\":2763:2778  delegate_.voted */\n      0x01\n      add\n      0x00\n      swap1\n      sload\n      swap1\n      0x0100\n      exp\n      swap1\n      div\n      0xff\n      and\n        /* \"Ballot.sol\":2760:2938  if(delegate_.voted){... */\n      iszero\n      tag_65\n      jumpi\n        /* \"Ballot.sol\":2832:2838  sender */\n      dup2\n        /* \"Ballot.sol\":2832:2845  sender.weight */\n      0x00\n      add\n      sload\n        /* \"Ballot.sol\":2794:2803  proposals */\n      0x02\n        /* \"Ballot.sol\":2804:2813  delegate_ */\n      dup3\n        /* \"Ballot.sol\":2804:2818  delegate_.vote */\n      0x02\n      add\n      sload\n        /* \"Ballot.sol\":2794:2819  proposals[delegate_.vote] */\n      dup2\n      sload\n      dup2\n      lt\n      tag_66\n      jumpi\n      tag_67\n      tag_43\n      jump\t// in\n    tag_67:\n    tag_66:\n      swap1\n      0x00\n      mstore\n      keccak256(0x00, 0x20)\n      swap1\n      0x02\n      mul\n      add\n        /* \"Ballot.sol\":2794:2829  proposals[delegate_.vote].voteCount */\n      0x01\n      add\n      0x00\n        /* \"Ballot.sol\":2794:2845  proposals[delegate_.vote].voteCount +=sender.weight */\n      dup3\n      dup3\n      sload\n      tag_69\n      swap2\n      swap1\n      tag_46\n      jump\t// in\n    tag_69:\n      swap3\n      pop\n      pop\n      dup2\n      swap1\n      sstore\n      pop\n        /* \"Ballot.sol\":2760:2938  if(delegate_.voted){... */\n      jump(tag_70)\n    tag_65:\n        /* \"Ballot.sol\":2909:2915  sender */\n      dup2\n        /* \"Ballot.sol\":2909:2922  sender.weight */\n      0x00\n      add\n      sload\n        /* \"Ballot.sol\":2891:2900  delegate_ */\n      dup2\n        /* \"Ballot.sol\":2891:2907  delegate_.weight */\n      0x00\n      add\n      0x00\n        /* \"Ballot.sol\":2891:2922  delegate_.weight+=sender.weight */\n      dup3\n      dup3\n      sload\n      tag_71\n      swap2\n      swap1\n      tag_46\n      jump\t// in\n    tag_71:\n      swap3\n      pop\n      pop\n      dup2\n      swap1\n      sstore\n      pop\n        /* \"Ballot.sol\":2760:2938  if(delegate_.voted){... */\n    tag_70:\n        /* \"Ballot.sol\":2046:2945  {... */\n      pop\n      pop\n        /* \"Ballot.sol\":2007:2945  function delegate(address to ) external{... */\n      pop\n      jump\t// out\n        /* \"Ballot.sol\":1560:1979  function giveRightToVote(address voter) external{... */\n    tag_28:\n        /* \"Ballot.sol\":1641:1652  chairperson */\n      0x00\n      0x00\n      swap1\n      sload\n      swap1\n      0x0100\n      exp\n      swap1\n      div\n      0xffffffffffffffffffffffffffffffffffffffff\n      and\n        /* \"Ballot.sol\":1627:1652  msg.sender == chairperson */\n      0xffffffffffffffffffffffffffffffffffffffff\n      and\n        /* \"Ballot.sol\":1627:1637  msg.sender */\n      caller\n        /* \"Ballot.sol\":1627:1652  msg.sender == chairperson */\n      0xffffffffffffffffffffffffffffffffffffffff\n      and\n      eq\n        /* \"Ballot.sol\":1619:1698  require(msg.sender == chairperson, \"Only chairperson can give right to vote. \") */\n      tag_73\n      jumpi\n      mload(0x40)\n      0x08c379a000000000000000000000000000000000000000000000000000000000\n      dup2\n      mstore\n      0x04\n      add\n      tag_74\n      swap1\n      tag_75\n      jump\t// in\n    tag_74:\n      mload(0x40)\n      dup1\n      swap2\n      sub\n      swap1\n      revert\n    tag_73:\n        /* \"Ballot.sol\":1776:1782  voters */\n      0x01\n        /* \"Ballot.sol\":1776:1789  voters[voter] */\n      0x00\n        /* \"Ballot.sol\":1783:1788  voter */\n      dup3\n        /* \"Ballot.sol\":1776:1789  voters[voter] */\n      0xffffffffffffffffffffffffffffffffffffffff\n      and\n      0xffffffffffffffffffffffffffffffffffffffff\n      and\n      dup2\n      mstore\n      0x20\n      add\n      swap1\n      dup2\n      mstore\n      0x20\n      add\n      0x00\n      keccak256\n        /* \"Ballot.sol\":1776:1795  voters[voter].voted */\n      0x01\n      add\n      0x00\n      swap1\n      sload\n      swap1\n      0x0100\n      exp\n      swap1\n      div\n      0xff\n      and\n        /* \"Ballot.sol\":1775:1795  !voters[voter].voted */\n      iszero\n        /* \"Ballot.sol\":1767:1825  require(!voters[voter].voted, \"The voter already voted. \") */\n      tag_76\n      jumpi\n      mload(0x40)\n      0x08c379a000000000000000000000000000000000000000000000000000000000\n      dup2\n      mstore\n      0x04\n      add\n      tag_77\n      swap1\n      tag_78\n      jump\t// in\n    tag_77:\n      mload(0x40)\n      dup1\n      swap2\n      sub\n      swap1\n      revert\n    tag_76:\n        /* \"Ballot.sol\":1867:1868  0 */\n      0x00\n        /* \"Ballot.sol\":1844:1850  voters */\n      0x01\n        /* \"Ballot.sol\":1844:1857  voters[voter] */\n      0x00\n        /* \"Ballot.sol\":1851:1856  voter */\n      dup4\n        /* \"Ballot.sol\":1844:1857  voters[voter] */\n      0xffffffffffffffffffffffffffffffffffffffff\n      and\n      0xffffffffffffffffffffffffffffffffffffffff\n      and\n      dup2\n      mstore\n      0x20\n      add\n      swap1\n      dup2\n      mstore\n      0x20\n      add\n      0x00\n      keccak256\n        /* \"Ballot.sol\":1844:1864  voters[voter].weight */\n      0x00\n      add\n      sload\n        /* \"Ballot.sol\":1844:1868  voters[voter].weight ==0 */\n      eq\n        /* \"Ballot.sol\":1836:1869  require(voters[voter].weight ==0) */\n      tag_79\n      jumpi\n      revert(0x00, 0x00)\n    tag_79:\n        /* \"Ballot.sol\":1935:1936  1 */\n      0x01\n        /* \"Ballot.sol\":1912:1918  voters */\n      dup1\n        /* \"Ballot.sol\":1912:1925  voters[voter] */\n      0x00\n        /* \"Ballot.sol\":1919:1924  voter */\n      dup4\n        /* \"Ballot.sol\":1912:1925  voters[voter] */\n      0xffffffffffffffffffffffffffffffffffffffff\n      and\n      0xffffffffffffffffffffffffffffffffffffffff\n      and\n      dup2\n      mstore\n      0x20\n      add\n      swap1\n      dup2\n      mstore\n      0x20\n      add\n      0x00\n      keccak256\n        /* \"Ballot.sol\":1912:1932  voters[voter].weight */\n      0x00\n      add\n        /* \"Ballot.sol\":1912:1936  voters[voter].weight = 1 */\n      dup2\n      swap1\n      sstore\n      pop\n        /* \"Ballot.sol\":1560:1979  function giveRightToVote(address voter) external{... */\n      pop\n      jump\t// out\n        /* \"Ballot.sol\":662:701  mapping (address=> Voter) public voters */\n    tag_31:\n      mstore(0x20, 0x01)\n      dup1\n      0x00\n      mstore\n      keccak256(0x00, 0x40)\n      0x00\n      swap2\n      pop\n      swap1\n      pop\n      dup1\n      0x00\n      add\n      sload\n      swap1\n      dup1\n      0x01\n      add\n      0x00\n      swap1\n      sload\n      swap1\n      0x0100\n      exp\n      swap1\n      div\n      0xff\n      and\n      swap1\n      dup1\n      0x01\n      add\n      0x01\n      swap1\n      sload\n      swap1\n      0x0100\n      exp\n      swap1\n      div\n      0xffffffffffffffffffffffffffffffffffffffff\n      and\n      swap1\n      dup1\n      0x02\n      add\n      sload\n      swap1\n      pop\n      dup5\n      jump\t// out\n        /* \"#utility.yul\":88:205   */\n    tag_81:\n        /* \"#utility.yul\":197:198   */\n      0x00\n        /* \"#utility.yul\":194:195   */\n      0x00\n        /* \"#utility.yul\":187:199   */\n      revert\n        /* \"#utility.yul\":334:411   */\n    tag_83:\n        /* \"#utility.yul\":371:378   */\n      0x00\n        /* \"#utility.yul\":400:405   */\n      dup2\n        /* \"#utility.yul\":389:405   */\n      swap1\n      pop\n        /* \"#utility.yul\":334:411   */\n      swap2\n      swap1\n      pop\n      jump\t// out\n        /* \"#utility.yul\":417:539   */\n    tag_84:\n        /* \"#utility.yul\":490:514   */\n      tag_120\n        /* \"#utility.yul\":508:513   */\n      dup2\n        /* \"#utility.yul\":490:514   */\n      tag_83\n      jump\t// in\n    tag_120:\n        /* \"#utility.yul\":483:488   */\n      dup2\n        /* \"#utility.yul\":480:515   */\n      eq\n        /* \"#utility.yul\":470:533   */\n      tag_121\n      jumpi\n        /* \"#utility.yul\":529:530   */\n      0x00\n        /* \"#utility.yul\":526:527   */\n      0x00\n        /* \"#utility.yul\":519:531   */\n      revert\n        /* \"#utility.yul\":470:533   */\n    tag_121:\n        /* \"#utility.yul\":417:539   */\n      pop\n      jump\t// out\n        /* \"#utility.yul\":545:684   */\n    tag_85:\n        /* \"#utility.yul\":591:596   */\n      0x00\n        /* \"#utility.yul\":629:635   */\n      dup2\n        /* \"#utility.yul\":616:636   */\n      calldataload\n        /* \"#utility.yul\":607:636   */\n      swap1\n      pop\n        /* \"#utility.yul\":645:678   */\n      tag_123\n        /* \"#utility.yul\":672:677   */\n      dup2\n        /* \"#utility.yul\":645:678   */\n      tag_84\n      jump\t// in\n    tag_123:\n        /* \"#utility.yul\":545:684   */\n      swap3\n      swap2\n      pop\n      pop\n      jump\t// out\n        /* \"#utility.yul\":690:1019   */\n    tag_11:\n        /* \"#utility.yul\":749:755   */\n      0x00\n        /* \"#utility.yul\":798:800   */\n      0x20\n        /* \"#utility.yul\":786:795   */\n      dup3\n        /* \"#utility.yul\":777:784   */\n      dup5\n        /* \"#utility.yul\":773:796   */\n      sub\n        /* \"#utility.yul\":769:801   */\n      slt\n        /* \"#utility.yul\":766:885   */\n      iszero\n      tag_125\n      jumpi\n        /* \"#utility.yul\":804:883   */\n      tag_126\n      tag_81\n      jump\t// in\n    tag_126:\n        /* \"#utility.yul\":766:885   */\n    tag_125:\n        /* \"#utility.yul\":924:925   */\n      0x00\n        /* \"#utility.yul\":949:1002   */\n      tag_127\n        /* \"#utility.yul\":994:1001   */\n      dup5\n        /* \"#utility.yul\":985:991   */\n      dup3\n        /* \"#utility.yul\":974:983   */\n      dup6\n        /* \"#utility.yul\":970:992   */\n      add\n        /* \"#utility.yul\":949:1002   */\n      tag_85\n      jump\t// in\n    tag_127:\n        /* \"#utility.yul\":939:1002   */\n      swap2\n      pop\n        /* \"#utility.yul\":895:1012   */\n      pop\n        /* \"#utility.yul\":690:1019   */\n      swap3\n      swap2\n      pop\n      pop\n      jump\t// out\n        /* \"#utility.yul\":1025:1102   */\n    tag_86:\n        /* \"#utility.yul\":1062:1069   */\n      0x00\n        /* \"#utility.yul\":1091:1096   */\n      dup2\n        /* \"#utility.yul\":1080:1096   */\n      swap1\n      pop\n        /* \"#utility.yul\":1025:1102   */\n      swap2\n      swap1\n      pop\n      jump\t// out\n        /* \"#utility.yul\":1108:1226   */\n    tag_87:\n        /* \"#utility.yul\":1195:1219   */\n      tag_130\n        /* \"#utility.yul\":1213:1218   */\n      dup2\n        /* \"#utility.yul\":1195:1219   */\n      tag_86\n      jump\t// in\n    tag_130:\n        /* \"#utility.yul\":1190:1193   */\n      dup3\n        /* \"#utility.yul\":1183:1220   */\n      mstore\n        /* \"#utility.yul\":1108:1226   */\n      pop\n      pop\n      jump\t// out\n        /* \"#utility.yul\":1232:1350   */\n    tag_88:\n        /* \"#utility.yul\":1319:1343   */\n      tag_132\n        /* \"#utility.yul\":1337:1342   */\n      dup2\n        /* \"#utility.yul\":1319:1343   */\n      tag_83\n      jump\t// in\n    tag_132:\n        /* \"#utility.yul\":1314:1317   */\n      dup3\n        /* \"#utility.yul\":1307:1344   */\n      mstore\n        /* \"#utility.yul\":1232:1350   */\n      pop\n      pop\n      jump\t// out\n        /* \"#utility.yul\":1356:1688   */\n    tag_17:\n        /* \"#utility.yul\":1477:1481   */\n      0x00\n        /* \"#utility.yul\":1515:1517   */\n      0x40\n        /* \"#utility.yul\":1504:1513   */\n      dup3\n        /* \"#utility.yul\":1500:1518   */\n      add\n        /* \"#utility.yul\":1492:1518   */\n      swap1\n      pop\n        /* \"#utility.yul\":1528:1599   */\n      tag_134\n        /* \"#utility.yul\":1596:1597   */\n      0x00\n        /* \"#utility.yul\":1585:1594   */\n      dup4\n        /* \"#utility.yul\":1581:1598   */\n      add\n        /* \"#utility.yul\":1572:1578   */\n      dup6\n        /* \"#utility.yul\":1528:1599   */\n      tag_87\n      jump\t// in\n    tag_134:\n        /* \"#utility.yul\":1609:1681   */\n      tag_135\n        /* \"#utility.yul\":1677:1679   */\n      0x20\n        /* \"#utility.yul\":1666:1675   */\n      dup4\n        /* \"#utility.yul\":1662:1680   */\n      add\n        /* \"#utility.yul\":1653:1659   */\n      dup5\n        /* \"#utility.yul\":1609:1681   */\n      tag_88\n      jump\t// in\n    tag_135:\n        /* \"#utility.yul\":1356:1688   */\n      swap4\n      swap3\n      pop\n      pop\n      pop\n      jump\t// out\n        /* \"#utility.yul\":1694:1820   */\n    tag_89:\n        /* \"#utility.yul\":1731:1738   */\n      0x00\n        /* \"#utility.yul\":1771:1813   */\n      0xffffffffffffffffffffffffffffffffffffffff\n        /* \"#utility.yul\":1764:1769   */\n      dup3\n        /* \"#utility.yul\":1760:1814   */\n      and\n        /* \"#utility.yul\":1749:1814   */\n      swap1\n      pop\n        /* \"#utility.yul\":1694:1820   */\n      swap2\n      swap1\n      pop\n      jump\t// out\n        /* \"#utility.yul\":1826:1922   */\n    tag_90:\n        /* \"#utility.yul\":1863:1870   */\n      0x00\n        /* \"#utility.yul\":1892:1916   */\n      tag_138\n        /* \"#utility.yul\":1910:1915   */\n      dup3\n        /* \"#utility.yul\":1892:1916   */\n      tag_89\n      jump\t// in\n    tag_138:\n        /* \"#utility.yul\":1881:1916   */\n      swap1\n      pop\n        /* \"#utility.yul\":1826:1922   */\n      swap2\n      swap1\n      pop\n      jump\t// out\n        /* \"#utility.yul\":1928:2046   */\n    tag_91:\n        /* \"#utility.yul\":2015:2039   */\n      tag_140\n        /* \"#utility.yul\":2033:2038   */\n      dup2\n        /* \"#utility.yul\":2015:2039   */\n      tag_90\n      jump\t// in\n    tag_140:\n        /* \"#utility.yul\":2010:2013   */\n      dup3\n        /* \"#utility.yul\":2003:2040   */\n      mstore\n        /* \"#utility.yul\":1928:2046   */\n      pop\n      pop\n      jump\t// out\n        /* \"#utility.yul\":2052:2274   */\n    tag_21:\n        /* \"#utility.yul\":2145:2149   */\n      0x00\n        /* \"#utility.yul\":2183:2185   */\n      0x20\n        /* \"#utility.yul\":2172:2181   */\n      dup3\n        /* \"#utility.yul\":2168:2186   */\n      add\n        /* \"#utility.yul\":2160:2186   */\n      swap1\n      pop\n        /* \"#utility.yul\":2196:2267   */\n      tag_142\n        /* \"#utility.yul\":2264:2265   */\n      0x00\n        /* \"#utility.yul\":2253:2262   */\n      dup4\n        /* \"#utility.yul\":2249:2266   */\n      add\n        /* \"#utility.yul\":2240:2246   */\n      dup5\n        /* \"#utility.yul\":2196:2267   */\n      tag_91\n      jump\t// in\n    tag_142:\n        /* \"#utility.yul\":2052:2274   */\n      swap3\n      swap2\n      pop\n      pop\n      jump\t// out\n        /* \"#utility.yul\":2280:2402   */\n    tag_92:\n        /* \"#utility.yul\":2353:2377   */\n      tag_144\n        /* \"#utility.yul\":2371:2376   */\n      dup2\n        /* \"#utility.yul\":2353:2377   */\n      tag_90\n      jump\t// in\n    tag_144:\n        /* \"#utility.yul\":2346:2351   */\n      dup2\n        /* \"#utility.yul\":2343:2378   */\n      eq\n        /* \"#utility.yul\":2333:2396   */\n      tag_145\n      jumpi\n        /* \"#utility.yul\":2392:2393   */\n      0x00\n        /* \"#utility.yul\":2389:2390   */\n      0x00\n        /* \"#utility.yul\":2382:2394   */\n      revert\n        /* \"#utility.yul\":2333:2396   */\n    tag_145:\n        /* \"#utility.yul\":2280:2402   */\n      pop\n      jump\t// out\n        /* \"#utility.yul\":2408:2547   */\n    tag_93:\n        /* \"#utility.yul\":2454:2459   */\n      0x00\n        /* \"#utility.yul\":2492:2498   */\n      dup2\n        /* \"#utility.yul\":2479:2499   */\n      calldataload\n        /* \"#utility.yul\":2470:2499   */\n      swap1\n      pop\n        /* \"#utility.yul\":2508:2541   */\n      tag_147\n        /* \"#utility.yul\":2535:2540   */\n      dup2\n        /* \"#utility.yul\":2508:2541   */\n      tag_92\n      jump\t// in\n    tag_147:\n        /* \"#utility.yul\":2408:2547   */\n      swap3\n      swap2\n      pop\n      pop\n      jump\t// out\n        /* \"#utility.yul\":2553:2882   */\n    tag_24:\n        /* \"#utility.yul\":2612:2618   */\n      0x00\n        /* \"#utility.yul\":2661:2663   */\n      0x20\n        /* \"#utility.yul\":2649:2658   */\n      dup3\n        /* \"#utility.yul\":2640:2647   */\n      dup5\n        /* \"#utility.yul\":2636:2659   */\n      sub\n        /* \"#utility.yul\":2632:2664   */\n      slt\n        /* \"#utility.yul\":2629:2748   */\n      iszero\n      tag_149\n      jumpi\n        /* \"#utility.yul\":2667:2746   */\n      tag_150\n      tag_81\n      jump\t// in\n    tag_150:\n        /* \"#utility.yul\":2629:2748   */\n    tag_149:\n        /* \"#utility.yul\":2787:2788   */\n      0x00\n        /* \"#utility.yul\":2812:2865   */\n      tag_151\n        /* \"#utility.yul\":2857:2864   */\n      dup5\n        /* \"#utility.yul\":2848:2854   */\n      dup3\n        /* \"#utility.yul\":2837:2846   */\n      dup6\n        /* \"#utility.yul\":2833:2855   */\n      add\n        /* \"#utility.yul\":2812:2865   */\n      tag_93\n      jump\t// in\n    tag_151:\n        /* \"#utility.yul\":2802:2865   */\n      swap2\n      pop\n        /* \"#utility.yul\":2758:2875   */\n      pop\n        /* \"#utility.yul\":2553:2882   */\n      swap3\n      swap2\n      pop\n      pop\n      jump\t// out\n        /* \"#utility.yul\":2888:2978   */\n    tag_94:\n        /* \"#utility.yul\":2922:2929   */\n      0x00\n        /* \"#utility.yul\":2965:2970   */\n      dup2\n        /* \"#utility.yul\":2958:2971   */\n      iszero\n        /* \"#utility.yul\":2951:2972   */\n      iszero\n        /* \"#utility.yul\":2940:2972   */\n      swap1\n      pop\n        /* \"#utility.yul\":2888:2978   */\n      swap2\n      swap1\n      pop\n      jump\t// out\n        /* \"#utility.yul\":2984:3093   */\n    tag_95:\n        /* \"#utility.yul\":3065:3086   */\n      tag_154\n        /* \"#utility.yul\":3080:3085   */\n      dup2\n        /* \"#utility.yul\":3065:3086   */\n      tag_94\n      jump\t// in\n    tag_154:\n        /* \"#utility.yul\":3060:3063   */\n      dup3\n        /* \"#utility.yul\":3053:3087   */\n      mstore\n        /* \"#utility.yul\":2984:3093   */\n      pop\n      pop\n      jump\t// out\n        /* \"#utility.yul\":3099:3640   */\n    tag_33:\n        /* \"#utility.yul\":3270:3274   */\n      0x00\n        /* \"#utility.yul\":3308:3311   */\n      0x80\n        /* \"#utility.yul\":3297:3306   */\n      dup3\n        /* \"#utility.yul\":3293:3312   */\n      add\n        /* \"#utility.yul\":3285:3312   */\n      swap1\n      pop\n        /* \"#utility.yul\":3322:3393   */\n      tag_156\n        /* \"#utility.yul\":3390:3391   */\n      0x00\n        /* \"#utility.yul\":3379:3388   */\n      dup4\n        /* \"#utility.yul\":3375:3392   */\n      add\n        /* \"#utility.yul\":3366:3372   */\n      dup8\n        /* \"#utility.yul\":3322:3393   */\n      tag_88\n      jump\t// in\n    tag_156:\n        /* \"#utility.yul\":3403:3469   */\n      tag_157\n        /* \"#utility.yul\":3465:3467   */\n      0x20\n        /* \"#utility.yul\":3454:3463   */\n      dup4\n        /* \"#utility.yul\":3450:3468   */\n      add\n        /* \"#utility.yul\":3441:3447   */\n      dup7\n        /* \"#utility.yul\":3403:3469   */\n      tag_95\n      jump\t// in\n    tag_157:\n        /* \"#utility.yul\":3479:3551   */\n      tag_158\n        /* \"#utility.yul\":3547:3549   */\n      0x40\n        /* \"#utility.yul\":3536:3545   */\n      dup4\n        /* \"#utility.yul\":3532:3550   */\n      add\n        /* \"#utility.yul\":3523:3529   */\n      dup6\n        /* \"#utility.yul\":3479:3551   */\n      tag_91\n      jump\t// in\n    tag_158:\n        /* \"#utility.yul\":3561:3633   */\n      tag_159\n        /* \"#utility.yul\":3629:3631   */\n      0x60\n        /* \"#utility.yul\":3618:3627   */\n      dup4\n        /* \"#utility.yul\":3614:3632   */\n      add\n        /* \"#utility.yul\":3605:3611   */\n      dup5\n        /* \"#utility.yul\":3561:3633   */\n      tag_88\n      jump\t// in\n    tag_159:\n        /* \"#utility.yul\":3099:3640   */\n      swap6\n      swap5\n      pop\n      pop\n      pop\n      pop\n      pop\n      jump\t// out\n        /* \"#utility.yul\":3646:3815   */\n    tag_96:\n        /* \"#utility.yul\":3730:3741   */\n      0x00\n        /* \"#utility.yul\":3764:3770   */\n      dup3\n        /* \"#utility.yul\":3759:3762   */\n      dup3\n        /* \"#utility.yul\":3752:3771   */\n      mstore\n        /* \"#utility.yul\":3804:3808   */\n      0x20\n        /* \"#utility.yul\":3799:3802   */\n      dup3\n        /* \"#utility.yul\":3795:3809   */\n      add\n        /* \"#utility.yul\":3780:3809   */\n      swap1\n      pop\n        /* \"#utility.yul\":3646:3815   */\n      swap3\n      swap2\n      pop\n      pop\n      jump\t// out\n        /* \"#utility.yul\":3821:3991   */\n    tag_97:\n        /* \"#utility.yul\":3961:3983   */\n      0x486173206e6f20726967687420746f20766f7465000000000000000000000000\n        /* \"#utility.yul\":3957:3958   */\n      0x00\n        /* \"#utility.yul\":3949:3955   */\n      dup3\n        /* \"#utility.yul\":3945:3959   */\n      add\n        /* \"#utility.yul\":3938:3984   */\n      mstore\n        /* \"#utility.yul\":3821:3991   */\n      pop\n      jump\t// out\n        /* \"#utility.yul\":3997:4363   */\n    tag_98:\n        /* \"#utility.yul\":4139:4142   */\n      0x00\n        /* \"#utility.yul\":4160:4227   */\n      tag_163\n        /* \"#utility.yul\":4224:4226   */\n      0x14\n        /* \"#utility.yul\":4219:4222   */\n      dup4\n        /* \"#utility.yul\":4160:4227   */\n      tag_96\n      jump\t// in\n    tag_163:\n        /* \"#utility.yul\":4153:4227   */\n      swap2\n      pop\n        /* \"#utility.yul\":4236:4329   */\n      tag_164\n        /* \"#utility.yul\":4325:4328   */\n      dup3\n        /* \"#utility.yul\":4236:4329   */\n      tag_97\n      jump\t// in\n    tag_164:\n        /* \"#utility.yul\":4354:4356   */\n      0x20\n        /* \"#utility.yul\":4349:4352   */\n      dup3\n        /* \"#utility.yul\":4345:4357   */\n      add\n        /* \"#utility.yul\":4338:4357   */\n      swap1\n      pop\n        /* \"#utility.yul\":3997:4363   */\n      swap2\n      swap1\n      pop\n      jump\t// out\n        /* \"#utility.yul\":4369:4788   */\n    tag_37:\n        /* \"#utility.yul\":4535:4539   */\n      0x00\n        /* \"#utility.yul\":4573:4575   */\n      0x20\n        /* \"#utility.yul\":4562:4571   */\n      dup3\n        /* \"#utility.yul\":4558:4576   */\n      add\n        /* \"#utility.yul\":4550:4576   */\n      swap1\n      pop\n        /* \"#utility.yul\":4622:4631   */\n      dup2\n        /* \"#utility.yul\":4616:4620   */\n      dup2\n        /* \"#utility.yul\":4612:4632   */\n      sub\n        /* \"#utility.yul\":4608:4609   */\n      0x00\n        /* \"#utility.yul\":4597:4606   */\n      dup4\n        /* \"#utility.yul\":4593:4610   */\n      add\n        /* \"#utility.yul\":4586:4633   */\n      mstore\n        /* \"#utility.yul\":4650:4781   */\n      tag_166\n        /* \"#utility.yul\":4776:4780   */\n      dup2\n        /* \"#utility.yul\":4650:4781   */\n      tag_98\n      jump\t// in\n    tag_166:\n        /* \"#utility.yul\":4642:4781   */\n      swap1\n      pop\n        /* \"#utility.yul\":4369:4788   */\n      swap2\n      swap1\n      pop\n      jump\t// out\n        /* \"#utility.yul\":4794:4958   */\n    tag_99:\n        /* \"#utility.yul\":4934:4950   */\n      0x416c726561647920766f7465642e000000000000000000000000000000000000\n        /* \"#utility.yul\":4930:4931   */\n      0x00\n        /* \"#utility.yul\":4922:4928   */\n      dup3\n        /* \"#utility.yul\":4918:4932   */\n      add\n        /* \"#utility.yul\":4911:4951   */\n      mstore\n        /* \"#utility.yul\":4794:4958   */\n      pop\n      jump\t// out\n        /* \"#utility.yul\":4964:5330   */\n    tag_100:\n        /* \"#utility.yul\":5106:5109   */\n      0x00\n        /* \"#utility.yul\":5127:5194   */\n      tag_169\n        /* \"#utility.yul\":5191:5193   */\n      0x0e\n        /* \"#utility.yul\":5186:5189   */\n      dup4\n        /* \"#utility.yul\":5127:5194   */\n      tag_96\n      jump\t// in\n    tag_169:\n        /* \"#utility.yul\":5120:5194   */\n      swap2\n      pop\n        /* \"#utility.yul\":5203:5296   */\n      tag_170\n        /* \"#utility.yul\":5292:5295   */\n      dup3\n        /* \"#utility.yul\":5203:5296   */\n      tag_99\n      jump\t// in\n    tag_170:\n        /* \"#utility.yul\":5321:5323   */\n      0x20\n        /* \"#utility.yul\":5316:5319   */\n      dup3\n        /* \"#utility.yul\":5312:5324   */\n      add\n        /* \"#utility.yul\":5305:5324   */\n      swap1\n      pop\n        /* \"#utility.yul\":4964:5330   */\n      swap2\n      swap1\n      pop\n      jump\t// out\n        /* \"#utility.yul\":5336:5755   */\n    tag_40:\n        /* \"#utility.yul\":5502:5506   */\n      0x00\n        /* \"#utility.yul\":5540:5542   */\n      0x20\n        /* \"#utility.yul\":5529:5538   */\n      dup3\n        /* \"#utility.yul\":5525:5543   */\n      add\n        /* \"#utility.yul\":5517:5543   */\n      swap1\n      pop\n        /* \"#utility.yul\":5589:5598   */\n      dup2\n        /* \"#utility.yul\":5583:5587   */\n      dup2\n        /* \"#utility.yul\":5579:5599   */\n      sub\n        /* \"#utility.yul\":5575:5576   */\n      0x00\n        /* \"#utility.yul\":5564:5573   */\n      dup4\n        /* \"#utility.yul\":5560:5577   */\n      add\n        /* \"#utility.yul\":5553:5600   */\n      mstore\n        /* \"#utility.yul\":5617:5748   */\n      tag_172\n        /* \"#utility.yul\":5743:5747   */\n      dup2\n        /* \"#utility.yul\":5617:5748   */\n      tag_100\n      jump\t// in\n    tag_172:\n        /* \"#utility.yul\":5609:5748   */\n      swap1\n      pop\n        /* \"#utility.yul\":5336:5755   */\n      swap2\n      swap1\n      pop\n      jump\t// out\n        /* \"#utility.yul\":5761:5941   */\n    tag_43:\n        /* \"#utility.yul\":5809:5886   */\n      0x4e487b7100000000000000000000000000000000000000000000000000000000\n        /* \"#utility.yul\":5806:5807   */\n      0x00\n        /* \"#utility.yul\":5799:5887   */\n      mstore\n        /* \"#utility.yul\":5906:5910   */\n      0x32\n        /* \"#utility.yul\":5903:5904   */\n      0x04\n        /* \"#utility.yul\":5896:5911   */\n      mstore\n        /* \"#utility.yul\":5930:5934   */\n      0x24\n        /* \"#utility.yul\":5927:5928   */\n      0x00\n        /* \"#utility.yul\":5920:5935   */\n      revert\n        /* \"#utility.yul\":5947:6127   */\n    tag_101:\n        /* \"#utility.yul\":5995:6072   */\n      0x4e487b7100000000000000000000000000000000000000000000000000000000\n        /* \"#utility.yul\":5992:5993   */\n      0x00\n        /* \"#utility.yul\":5985:6073   */\n      mstore\n        /* \"#utility.yul\":6092:6096   */\n      0x11\n        /* \"#utility.yul\":6089:6090   */\n      0x04\n        /* \"#utility.yul\":6082:6097   */\n      mstore\n        /* \"#utility.yul\":6116:6120   */\n      0x24\n        /* \"#utility.yul\":6113:6114   */\n      0x00\n        /* \"#utility.yul\":6106:6121   */\n      revert\n        /* \"#utility.yul\":6133:6324   */\n    tag_46:\n        /* \"#utility.yul\":6173:6176   */\n      0x00\n        /* \"#utility.yul\":6192:6212   */\n      tag_176\n        /* \"#utility.yul\":6210:6211   */\n      dup3\n        /* \"#utility.yul\":6192:6212   */\n      tag_83\n      jump\t// in\n    tag_176:\n        /* \"#utility.yul\":6187:6212   */\n      swap2\n      pop\n        /* \"#utility.yul\":6226:6246   */\n      tag_177\n        /* \"#utility.yul\":6244:6245   */\n      dup4\n        /* \"#utility.yul\":6226:6246   */\n      tag_83\n      jump\t// in\n    tag_177:\n        /* \"#utility.yul\":6221:6246   */\n      swap3\n      pop\n        /* \"#utility.yul\":6269:6270   */\n      dup3\n        /* \"#utility.yul\":6266:6267   */\n      dup3\n        /* \"#utility.yul\":6262:6271   */\n      add\n        /* \"#utility.yul\":6255:6271   */\n      swap1\n      pop\n        /* \"#utility.yul\":6290:6293   */\n      dup1\n        /* \"#utility.yul\":6287:6288   */\n      dup3\n        /* \"#utility.yul\":6284:6294   */\n      gt\n        /* \"#utility.yul\":6281:6317   */\n      iszero\n      tag_178\n      jumpi\n        /* \"#utility.yul\":6297:6315   */\n      tag_179\n      tag_101\n      jump\t// in\n    tag_179:\n        /* \"#utility.yul\":6281:6317   */\n    tag_178:\n        /* \"#utility.yul\":6133:6324   */\n      swap3\n      swap2\n      pop\n      pop\n      jump\t// out\n        /* \"#utility.yul\":6330:6505   */\n    tag_102:\n        /* \"#utility.yul\":6470:6497   */\n      0x796f752068617665206e6f20726967687420746f20766f746500000000000000\n        /* \"#utility.yul\":6466:6467   */\n      0x00\n        /* \"#utility.yul\":6458:6464   */\n      dup3\n        /* \"#utility.yul\":6454:6468   */\n      add\n        /* \"#utility.yul\":6447:6498   */\n      mstore\n        /* \"#utility.yul\":6330:6505   */\n      pop\n      jump\t// out\n        /* \"#utility.yul\":6511:6877   */\n    tag_103:\n        /* \"#utility.yul\":6653:6656   */\n      0x00\n        /* \"#utility.yul\":6674:6741   */\n      tag_182\n        /* \"#utility.yul\":6738:6740   */\n      0x19\n        /* \"#utility.yul\":6733:6736   */\n      dup4\n        /* \"#utility.yul\":6674:6741   */\n      tag_96\n      jump\t// in\n    tag_182:\n        /* \"#utility.yul\":6667:6741   */\n      swap2\n      pop\n        /* \"#utility.yul\":6750:6843   */\n      tag_183\n        /* \"#utility.yul\":6839:6842   */\n      dup3\n        /* \"#utility.yul\":6750:6843   */\n      tag_102\n      jump\t// in\n    tag_183:\n        /* \"#utility.yul\":6868:6870   */\n      0x20\n        /* \"#utility.yul\":6863:6866   */\n      dup3\n        /* \"#utility.yul\":6859:6871   */\n      add\n        /* \"#utility.yul\":6852:6871   */\n      swap1\n      pop\n        /* \"#utility.yul\":6511:6877   */\n      swap2\n      swap1\n      pop\n      jump\t// out\n        /* \"#utility.yul\":6883:7302   */\n    tag_52:\n        /* \"#utility.yul\":7049:7053   */\n      0x00\n        /* \"#utility.yul\":7087:7089   */\n      0x20\n        /* \"#utility.yul\":7076:7085   */\n      dup3\n        /* \"#utility.yul\":7072:7090   */\n      add\n        /* \"#utility.yul\":7064:7090   */\n      swap1\n      pop\n        /* \"#utility.yul\":7136:7145   */\n      dup2\n        /* \"#utility.yul\":7130:7134   */\n      dup2\n        /* \"#utility.yul\":7126:7146   */\n      sub\n        /* \"#utility.yul\":7122:7123   */\n      0x00\n        /* \"#utility.yul\":7111:7120   */\n      dup4\n        /* \"#utility.yul\":7107:7124   */\n      add\n        /* \"#utility.yul\":7100:7147   */\n      mstore\n        /* \"#utility.yul\":7164:7295   */\n      tag_185\n        /* \"#utility.yul\":7290:7294   */\n      dup2\n        /* \"#utility.yul\":7164:7295   */\n      tag_103\n      jump\t// in\n    tag_185:\n        /* \"#utility.yul\":7156:7295   */\n      swap1\n      pop\n        /* \"#utility.yul\":6883:7302   */\n      swap2\n      swap1\n      pop\n      jump\t// out\n        /* \"#utility.yul\":7308:7480   */\n    tag_104:\n        /* \"#utility.yul\":7448:7472   */\n      0x796f75206861766520616c726561647920766f74656400000000000000000000\n        /* \"#utility.yul\":7444:7445   */\n      0x00\n        /* \"#utility.yul\":7436:7442   */\n      dup3\n        /* \"#utility.yul\":7432:7446   */\n      add\n        /* \"#utility.yul\":7425:7473   */\n      mstore\n        /* \"#utility.yul\":7308:7480   */\n      pop\n      jump\t// out\n        /* \"#utility.yul\":7486:7852   */\n    tag_105:\n        /* \"#utility.yul\":7628:7631   */\n      0x00\n        /* \"#utility.yul\":7649:7716   */\n      tag_188\n        /* \"#utility.yul\":7713:7715   */\n      0x16\n        /* \"#utility.yul\":7708:7711   */\n      dup4\n        /* \"#utility.yul\":7649:7716   */\n      tag_96\n      jump\t// in\n    tag_188:\n        /* \"#utility.yul\":7642:7716   */\n      swap2\n      pop\n        /* \"#utility.yul\":7725:7818   */\n      tag_189\n        /* \"#utility.yul\":7814:7817   */\n      dup3\n        /* \"#utility.yul\":7725:7818   */\n      tag_104\n      jump\t// in\n    tag_189:\n        /* \"#utility.yul\":7843:7845   */\n      0x20\n        /* \"#utility.yul\":7838:7841   */\n      dup3\n        /* \"#utility.yul\":7834:7846   */\n      add\n        /* \"#utility.yul\":7827:7846   */\n      swap1\n      pop\n        /* \"#utility.yul\":7486:7852   */\n      swap2\n      swap1\n      pop\n      jump\t// out\n        /* \"#utility.yul\":7858:8277   */\n    tag_55:\n        /* \"#utility.yul\":8024:8028   */\n      0x00\n        /* \"#utility.yul\":8062:8064   */\n      0x20\n        /* \"#utility.yul\":8051:8060   */\n      dup3\n        /* \"#utility.yul\":8047:8065   */\n      add\n        /* \"#utility.yul\":8039:8065   */\n      swap1\n      pop\n        /* \"#utility.yul\":8111:8120   */\n      dup2\n        /* \"#utility.yul\":8105:8109   */\n      dup2\n        /* \"#utility.yul\":8101:8121   */\n      sub\n        /* \"#utility.yul\":8097:8098   */\n      0x00\n        /* \"#utility.yul\":8086:8095   */\n      dup4\n        /* \"#utility.yul\":8082:8099   */\n      add\n        /* \"#utility.yul\":8075:8122   */\n      mstore\n        /* \"#utility.yul\":8139:8270   */\n      tag_191\n        /* \"#utility.yul\":8265:8269   */\n      dup2\n        /* \"#utility.yul\":8139:8270   */\n      tag_105\n      jump\t// in\n    tag_191:\n        /* \"#utility.yul\":8131:8270   */\n      swap1\n      pop\n        /* \"#utility.yul\":7858:8277   */\n      swap2\n      swap1\n      pop\n      jump\t// out\n        /* \"#utility.yul\":8283:8462   */\n    tag_106:\n        /* \"#utility.yul\":8423:8454   */\n      0x53656c662d64656c65676174696f6e20697320646973616c6c6f776564000000\n        /* \"#utility.yul\":8419:8420   */\n      0x00\n        /* \"#utility.yul\":8411:8417   */\n      dup3\n        /* \"#utility.yul\":8407:8421   */\n      add\n        /* \"#utility.yul\":8400:8455   */\n      mstore\n        /* \"#utility.yul\":8283:8462   */\n      pop\n      jump\t// out\n        /* \"#utility.yul\":8468:8834   */\n    tag_107:\n        /* \"#utility.yul\":8610:8613   */\n      0x00\n        /* \"#utility.yul\":8631:8698   */\n      tag_194\n        /* \"#utility.yul\":8695:8697   */\n      0x1d\n        /* \"#utility.yul\":8690:8693   */\n      dup4\n        /* \"#utility.yul\":8631:8698   */\n      tag_96\n      jump\t// in\n    tag_194:\n        /* \"#utility.yul\":8624:8698   */\n      swap2\n      pop\n        /* \"#utility.yul\":8707:8800   */\n      tag_195\n        /* \"#utility.yul\":8796:8799   */\n      dup3\n        /* \"#utility.yul\":8707:8800   */\n      tag_106\n      jump\t// in\n    tag_195:\n        /* \"#utility.yul\":8825:8827   */\n      0x20\n        /* \"#utility.yul\":8820:8823   */\n      dup3\n        /* \"#utility.yul\":8816:8828   */\n      add\n        /* \"#utility.yul\":8809:8828   */\n      swap1\n      pop\n        /* \"#utility.yul\":8468:8834   */\n      swap2\n      swap1\n      pop\n      jump\t// out\n        /* \"#utility.yul\":8840:9259   */\n    tag_58:\n        /* \"#utility.yul\":9006:9010   */\n      0x00\n        /* \"#utility.yul\":9044:9046   */\n      0x20\n        /* \"#utility.yul\":9033:9042   */\n      dup3\n        /* \"#utility.yul\":9029:9047   */\n      add\n        /* \"#utility.yul\":9021:9047   */\n      swap1\n      pop\n        /* \"#utility.yul\":9093:9102   */\n      dup2\n        /* \"#utility.yul\":9087:9091   */\n      dup2\n        /* \"#utility.yul\":9083:9103   */\n      sub\n        /* \"#utility.yul\":9079:9080   */\n      0x00\n        /* \"#utility.yul\":9068:9077   */\n      dup4\n        /* \"#utility.yul\":9064:9081   */\n      add\n        /* \"#utility.yul\":9057:9104   */\n      mstore\n        /* \"#utility.yul\":9121:9252   */\n      tag_197\n        /* \"#utility.yul\":9247:9251   */\n      dup2\n        /* \"#utility.yul\":9121:9252   */\n      tag_107\n      jump\t// in\n    tag_197:\n        /* \"#utility.yul\":9113:9252   */\n      swap1\n      pop\n        /* \"#utility.yul\":8840:9259   */\n      swap2\n      swap1\n      pop\n      jump\t// out\n        /* \"#utility.yul\":9265:9439   */\n    tag_108:\n        /* \"#utility.yul\":9405:9431   */\n      0x466f756e64206c6f6f7020696e2064656c65676174696f6e0000000000000000\n        /* \"#utility.yul\":9401:9402   */\n      0x00\n        /* \"#utility.yul\":9393:9399   */\n      dup3\n        /* \"#utility.yul\":9389:9403   */\n      add\n        /* \"#utility.yul\":9382:9432   */\n      mstore\n        /* \"#utility.yul\":9265:9439   */\n      pop\n      jump\t// out\n        /* \"#utility.yul\":9445:9811   */\n    tag_109:\n        /* \"#utility.yul\":9587:9590   */\n      0x00\n        /* \"#utility.yul\":9608:9675   */\n      tag_200\n        /* \"#utility.yul\":9672:9674   */\n      0x18\n        /* \"#utility.yul\":9667:9670   */\n      dup4\n        /* \"#utility.yul\":9608:9675   */\n      tag_96\n      jump\t// in\n    tag_200:\n        /* \"#utility.yul\":9601:9675   */\n      swap2\n      pop\n        /* \"#utility.yul\":9684:9777   */\n      tag_201\n        /* \"#utility.yul\":9773:9776   */\n      dup3\n        /* \"#utility.yul\":9684:9777   */\n      tag_108\n      jump\t// in\n    tag_201:\n        /* \"#utility.yul\":9802:9804   */\n      0x20\n        /* \"#utility.yul\":9797:9800   */\n      dup3\n        /* \"#utility.yul\":9793:9805   */\n      add\n        /* \"#utility.yul\":9786:9805   */\n      swap1\n      pop\n        /* \"#utility.yul\":9445:9811   */\n      swap2\n      swap1\n      pop\n      jump\t// out\n        /* \"#utility.yul\":9817:10236   */\n    tag_63:\n        /* \"#utility.yul\":9983:9987   */\n      0x00\n        /* \"#utility.yul\":10021:10023   */\n      0x20\n        /* \"#utility.yul\":10010:10019   */\n      dup3\n        /* \"#utility.yul\":10006:10024   */\n      add\n        /* \"#utility.yul\":9998:10024   */\n      swap1\n      pop\n        /* \"#utility.yul\":10070:10079   */\n      dup2\n        /* \"#utility.yul\":10064:10068   */\n      dup2\n        /* \"#utility.yul\":10060:10080   */\n      sub\n        /* \"#utility.yul\":10056:10057   */\n      0x00\n        /* \"#utility.yul\":10045:10054   */\n      dup4\n        /* \"#utility.yul\":10041:10058   */\n      add\n        /* \"#utility.yul\":10034:10081   */\n      mstore\n        /* \"#utility.yul\":10098:10229   */\n      tag_203\n        /* \"#utility.yul\":10224:10228   */\n      dup2\n        /* \"#utility.yul\":10098:10229   */\n      tag_109\n      jump\t// in\n    tag_203:\n        /* \"#utility.yul\":10090:10229   */\n      swap1\n      pop\n        /* \"#utility.yul\":9817:10236   */\n      swap2\n      swap1\n      pop\n      jump\t// out\n        /* \"#utility.yul\":10242:10470   */\n    tag_110:\n        /* \"#utility.yul\":10382:10416   */\n      0x4f6e6c79206368616972706572736f6e2063616e206769766520726967687420\n        /* \"#utility.yul\":10378:10379   */\n      0x00\n        /* \"#utility.yul\":10370:10376   */\n      dup3\n        /* \"#utility.yul\":10366:10380   */\n      add\n        /* \"#utility.yul\":10359:10417   */\n      mstore\n        /* \"#utility.yul\":10451:10462   */\n      0x746f20766f74652e200000000000000000000000000000000000000000000000\n        /* \"#utility.yul\":10446:10448   */\n      0x20\n        /* \"#utility.yul\":10438:10444   */\n      dup3\n        /* \"#utility.yul\":10434:10449   */\n      add\n        /* \"#utility.yul\":10427:10463   */\n      mstore\n        /* \"#utility.yul\":10242:10470   */\n      pop\n      jump\t// out\n        /* \"#utility.yul\":10476:10842   */\n    tag_111:\n        /* \"#utility.yul\":10618:10621   */\n      0x00\n        /* \"#utility.yul\":10639:10706   */\n      tag_206\n        /* \"#utility.yul\":10703:10705   */\n      0x29\n        /* \"#utility.yul\":10698:10701   */\n      dup4\n        /* \"#utility.yul\":10639:10706   */\n      tag_96\n      jump\t// in\n    tag_206:\n        /* \"#utility.yul\":10632:10706   */\n      swap2\n      pop\n        /* \"#utility.yul\":10715:10808   */\n      tag_207\n        /* \"#utility.yul\":10804:10807   */\n      dup3\n        /* \"#utility.yul\":10715:10808   */\n      tag_110\n      jump\t// in\n    tag_207:\n        /* \"#utility.yul\":10833:10835   */\n      0x40\n        /* \"#utility.yul\":10828:10831   */\n      dup3\n        /* \"#utility.yul\":10824:10836   */\n      add\n        /* \"#utility.yul\":10817:10836   */\n      swap1\n      pop\n        /* \"#utility.yul\":10476:10842   */\n      swap2\n      swap1\n      pop\n      jump\t// out\n        /* \"#utility.yul\":10848:11267   */\n    tag_75:\n        /* \"#utility.yul\":11014:11018   */\n      0x00\n        /* \"#utility.yul\":11052:11054   */\n      0x20\n        /* \"#utility.yul\":11041:11050   */\n      dup3\n        /* \"#utility.yul\":11037:11055   */\n      add\n        /* \"#utility.yul\":11029:11055   */\n      swap1\n      pop\n        /* \"#utility.yul\":11101:11110   */\n      dup2\n        /* \"#utility.yul\":11095:11099   */\n      dup2\n        /* \"#utility.yul\":11091:11111   */\n      sub\n        /* \"#utility.yul\":11087:11088   */\n      0x00\n        /* \"#utility.yul\":11076:11085   */\n      dup4\n        /* \"#utility.yul\":11072:11089   */\n      add\n        /* \"#utility.yul\":11065:11112   */\n      mstore\n        /* \"#utility.yul\":11129:11260   */\n      tag_209\n        /* \"#utility.yul\":11255:11259   */\n      dup2\n        /* \"#utility.yul\":11129:11260   */\n      tag_111\n      jump\t// in\n    tag_209:\n        /* \"#utility.yul\":11121:11260   */\n      swap1\n      pop\n        /* \"#utility.yul\":10848:11267   */\n      swap2\n      swap1\n      pop\n      jump\t// out\n        /* \"#utility.yul\":11273:11448   */\n    tag_112:\n        /* \"#utility.yul\":11413:11440   */\n      0x54686520766f74657220616c726561647920766f7465642e2000000000000000\n        /* \"#utility.yul\":11409:11410   */\n      0x00\n        /* \"#utility.yul\":11401:11407   */\n      dup3\n        /* \"#utility.yul\":11397:11411   */\n      add\n        /* \"#utility.yul\":11390:11441   */\n      mstore\n        /* \"#utility.yul\":11273:11448   */\n      pop\n      jump\t// out\n        /* \"#utility.yul\":11454:11820   */\n    tag_113:\n        /* \"#utility.yul\":11596:11599   */\n      0x00\n        /* \"#utility.yul\":11617:11684   */\n      tag_212\n        /* \"#utility.yul\":11681:11683   */\n      0x19\n        /* \"#utility.yul\":11676:11679   */\n      dup4\n        /* \"#utility.yul\":11617:11684   */\n      tag_96\n      jump\t// in\n    tag_212:\n        /* \"#utility.yul\":11610:11684   */\n      swap2\n      pop\n        /* \"#utility.yul\":11693:11786   */\n      tag_213\n        /* \"#utility.yul\":11782:11785   */\n      dup3\n        /* \"#utility.yul\":11693:11786   */\n      tag_112\n      jump\t// in\n    tag_213:\n        /* \"#utility.yul\":11811:11813   */\n      0x20\n        /* \"#utility.yul\":11806:11809   */\n      dup3\n        /* \"#utility.yul\":11802:11814   */\n      add\n        /* \"#utility.yul\":11795:11814   */\n      swap1\n      pop\n        /* \"#utility.yul\":11454:11820   */\n      swap2\n      swap1\n      pop\n      jump\t// out\n        /* \"#utility.yul\":11826:12245   */\n    tag_78:\n        /* \"#utility.yul\":11992:11996   */\n      0x00\n        /* \"#utility.yul\":12030:12032   */\n      0x20\n        /* \"#utility.yul\":12019:12028   */\n      dup3\n        /* \"#utility.yul\":12015:12033   */\n      add\n        /* \"#utility.yul\":12007:12033   */\n      swap1\n      pop\n        /* \"#utility.yul\":12079:12088   */\n      dup2\n        /* \"#utility.yul\":12073:12077   */\n      dup2\n        /* \"#utility.yul\":12069:12089   */\n      sub\n        /* \"#utility.yul\":12065:12066   */\n      0x00\n        /* \"#utility.yul\":12054:12063   */\n      dup4\n        /* \"#utility.yul\":12050:12067   */\n      add\n        /* \"#utility.yul\":12043:12090   */\n      mstore\n        /* \"#utility.yul\":12107:12238   */\n      tag_215\n        /* \"#utility.yul\":12233:12237   */\n      dup2\n        /* \"#utility.yul\":12107:12238   */\n      tag_113\n      jump\t// in\n    tag_215:\n        /* \"#utility.yul\":12099:12238   */\n      swap1\n      pop\n        /* \"#utility.yul\":11826:12245   */\n      swap2\n      swap1\n      pop\n      jump\t// out\n\n    auxdata: 0xa2646970667358221220cf6d8acf65e6350c6676de38d563ee20dd24a4cdb4a422e5c9674c8219fe30ee64736f6c634300081f0033\n}\n",
				"bytecode": {
					"linkReferences": {},
					"object": "608060405234801561000f575f5ffd5b5060405161120f38038061120f833981810160405281019061003191906102f5565b335f5f6101000a81548173ffffffffffffffffffffffffffffffffffffffff021916908373ffffffffffffffffffffffffffffffffffffffff1602179055506001805f5f5f9054906101000a900473ffffffffffffffffffffffffffffffffffffffff1673ffffffffffffffffffffffffffffffffffffffff1673ffffffffffffffffffffffffffffffffffffffff1681526020019081526020015f205f01819055505f5f90505b815181101561015a57600260405180604001604052808484815181106101025761010161033c565b5b602002602001015181526020015f815250908060018154018082558091505060019003905f5260205f2090600202015f909190919091505f820151815f015560208201518160010155505080806001019150506100d9565b5050610369565b5f604051905090565b5f5ffd5b5f5ffd5b5f5ffd5b5f601f19601f8301169050919050565b7f4e487b71000000000000000000000000000000000000000000000000000000005f52604160045260245ffd5b6101bc82610176565b810181811067ffffffffffffffff821117156101db576101da610186565b5b80604052505050565b5f6101ed610161565b90506101f982826101b3565b919050565b5f67ffffffffffffffff82111561021857610217610186565b5b602082029050602081019050919050565b5f5ffd5b5f819050919050565b61023f8161022d565b8114610249575f5ffd5b50565b5f8151905061025a81610236565b92915050565b5f61027261026d846101fe565b6101e4565b9050808382526020820190506020840283018581111561029557610294610229565b5b835b818110156102be57806102aa888261024c565b845260208401935050602081019050610297565b5050509392505050565b5f82601f8301126102dc576102db610172565b5b81516102ec848260208601610260565b91505092915050565b5f6020828403121561030a5761030961016a565b5b5f82015167ffffffffffffffff8111156103275761032661016e565b5b610333848285016102c8565b91505092915050565b7f4e487b71000000000000000000000000000000000000000000000000000000005f52603260045260245ffd5b610e99806103765f395ff3fe608060405234801561000f575f5ffd5b5060043610610060575f3560e01c80630121b93f14610064578063013cf08b146100805780632e4176cf146100b15780635c19a95c146100cf5780639e7b8d61146100eb578063a3ec138d14610107575b5f5ffd5b61007e600480360381019061007991906108dd565b61013a565b005b61009a600480360381019061009591906108dd565b610275565b6040516100a892919061092f565b60405180910390f35b6100b96102a4565b6040516100c69190610995565b60405180910390f35b6100e960048036038101906100e491906109d8565b6102c8565b005b610105600480360381019061010091906109d8565b6106a2565b005b610121600480360381019061011c91906109d8565b61084e565b6040516101319493929190610a1d565b60405180910390f35b5f60015f3373ffffffffffffffffffffffffffffffffffffffff1673ffffffffffffffffffffffffffffffffffffffff1681526020019081526020015f2090505f815f0154036101bf576040517f08c379a00000000000000000000000000000000000000000000000000000000081526004016101b690610aba565b60405180910390fd5b806001015f9054906101000a900460ff1615610210576040517f08c379a000000000000000000000000000000000000000000000000000000000815260040161020790610b22565b60405180910390fd5b6001816001015f6101000a81548160ff021916908315150217905550818160020181905550805f01546002838154811061024d5761024c610b40565b5b905f5260205f2090600202016001015f82825461026a9190610b9a565b925050819055505050565b60028181548110610284575f80fd5b905f5260205f2090600202015f91509050805f0154908060010154905082565b5f5f9054906101000a900473ffffffffffffffffffffffffffffffffffffffff1681565b5f60015f3373ffffffffffffffffffffffffffffffffffffffff1673ffffffffffffffffffffffffffffffffffffffff1681526020019081526020015f2090505f815f01540361034d576040517f08c379a000000000000000000000000000000000000000000000000000000000815260040161034490610c17565b60405180910390fd5b806001015f9054906101000a900460ff161561039e576040517f08c379a000000000000000000000000000000000000000000000000000000000815260040161039590610c7f565b60405180910390fd5b3373ffffffffffffffffffffffffffffffffffffffff168273ffffffffffffffffffffffffffffffffffffffff160361040c576040517f08c379a000000000000000000000000000000000000000000000000000000000815260040161040390610ce7565b60405180910390fd5b5b5f73ffffffffffffffffffffffffffffffffffffffff1660015f8473ffffffffffffffffffffffffffffffffffffffff1673ffffffffffffffffffffffffffffffffffffffff1681526020019081526020015f2060010160019054906101000a900473ffffffffffffffffffffffffffffffffffffffff1673ffffffffffffffffffffffffffffffffffffffff16146105765760015f8373ffffffffffffffffffffffffffffffffffffffff1673ffffffffffffffffffffffffffffffffffffffff1681526020019081526020015f2060010160019054906101000a900473ffffffffffffffffffffffffffffffffffffffff1691503373ffffffffffffffffffffffffffffffffffffffff168273ffffffffffffffffffffffffffffffffffffffff1603610571576040517f08c379a000000000000000000000000000000000000000000000000000000000815260040161056890610d4f565b60405180910390fd5b61040d565b5f60015f8473ffffffffffffffffffffffffffffffffffffffff1673ffffffffffffffffffffffffffffffffffffffff1681526020019081526020015f2090506001815f015410156105c6575f5ffd5b6001826001015f6101000a81548160ff021916908315150217905550828260010160016101000a81548173ffffffffffffffffffffffffffffffffffffffff021916908373ffffffffffffffffffffffffffffffffffffffff160217905550806001015f9054906101000a900460ff161561068057815f0154600282600201548154811061065757610656610b40565b5b905f5260205f2090600202016001015f8282546106749190610b9a565b9250508190555061069d565b815f0154815f015f8282546106959190610b9a565b925050819055505b505050565b5f5f9054906101000a900473ffffffffffffffffffffffffffffffffffffffff1673ffffffffffffffffffffffffffffffffffffffff163373ffffffffffffffffffffffffffffffffffffffff1614610730576040517f08c379a000000000000000000000000000000000000000000000000000000000815260040161072790610ddd565b60405180910390fd5b60015f8273ffffffffffffffffffffffffffffffffffffffff1673ffffffffffffffffffffffffffffffffffffffff1681526020019081526020015f206001015f9054906101000a900460ff16156107bd576040517f08c379a00000000000000000000000000000000000000000000000000000000081526004016107b490610e45565b60405180910390fd5b5f60015f8373ffffffffffffffffffffffffffffffffffffffff1673ffffffffffffffffffffffffffffffffffffffff1681526020019081526020015f205f015414610807575f5ffd5b6001805f8373ffffffffffffffffffffffffffffffffffffffff1673ffffffffffffffffffffffffffffffffffffffff1681526020019081526020015f205f018190555050565b6001602052805f5260405f205f91509050805f015490806001015f9054906101000a900460ff16908060010160019054906101000a900473ffffffffffffffffffffffffffffffffffffffff16908060020154905084565b5f5ffd5b5f819050919050565b6108bc816108aa565b81146108c6575f5ffd5b50565b5f813590506108d7816108b3565b92915050565b5f602082840312156108f2576108f16108a6565b5b5f6108ff848285016108c9565b91505092915050565b5f819050919050565b61091a81610908565b82525050565b610929816108aa565b82525050565b5f6040820190506109425f830185610911565b61094f6020830184610920565b9392505050565b5f73ffffffffffffffffffffffffffffffffffffffff82169050919050565b5f61097f82610956565b9050919050565b61098f81610975565b82525050565b5f6020820190506109a85f830184610986565b92915050565b6109b781610975565b81146109c1575f5ffd5b50565b5f813590506109d2816109ae565b92915050565b5f602082840312156109ed576109ec6108a6565b5b5f6109fa848285016109c4565b91505092915050565b5f8115159050919050565b610a1781610a03565b82525050565b5f608082019050610a305f830187610920565b610a3d6020830186610a0e565b610a4a6040830185610986565b610a576060830184610920565b95945050505050565b5f82825260208201905092915050565b7f486173206e6f20726967687420746f20766f74650000000000000000000000005f82015250565b5f610aa4601483610a60565b9150610aaf82610a70565b602082019050919050565b5f6020820190508181035f830152610ad181610a98565b9050919050565b7f416c726561647920766f7465642e0000000000000000000000000000000000005f82015250565b5f610b0c600e83610a60565b9150610b1782610ad8565b602082019050919050565b5f6020820190508181035f830152610b3981610b00565b9050919050565b7f4e487b71000000000000000000000000000000000000000000000000000000005f52603260045260245ffd5b7f4e487b71000000000000000000000000000000000000000000000000000000005f52601160045260245ffd5b5f610ba4826108aa565b9150610baf836108aa565b9250828201905080821115610bc757610bc6610b6d565b5b92915050565b7f796f752068617665206e6f20726967687420746f20766f7465000000000000005f82015250565b5f610c01601983610a60565b9150610c0c82610bcd565b602082019050919050565b5f6020820190508181035f830152610c2e81610bf5565b9050919050565b7f796f75206861766520616c726561647920766f746564000000000000000000005f82015250565b5f610c69601683610a60565b9150610c7482610c35565b602082019050919050565b5f6020820190508181035f830152610c9681610c5d565b9050919050565b7f53656c662d64656c65676174696f6e20697320646973616c6c6f7765640000005f82015250565b5f610cd1601d83610a60565b9150610cdc82610c9d565b602082019050919050565b5f6020820190508181035f830152610cfe81610cc5565b9050919050565b7f466f756e64206c6f6f7020696e2064656c65676174696f6e00000000000000005f82015250565b5f610d39601883610a60565b9150610d4482610d05565b602082019050919050565b5f6020820190508181035f830152610d6681610d2d565b9050919050565b7f4f6e6c79206368616972706572736f6e2063616e2067697665207269676874205f8201527f746f20766f74652e200000000000000000000000000000000000000000000000602082015250565b5f610dc7602983610a60565b9150610dd282610d6d565b604082019050919050565b5f6020820190508181035f830152610df481610dbb565b9050919050565b7f54686520766f74657220616c726561647920766f7465642e20000000000000005f82015250565b5f610e2f601983610a60565b9150610e3a82610dfb565b602082019050919050565b5f6020820190508181035f830152610e5c81610e23565b905091905056fea2646970667358221220cf6d8acf65e6350c6676de38d563ee20dd24a4cdb4a422e5c9674c8219fe30ee64736f6c634300081f0033",
					"opcodes": "PUSH1 0x80 PUSH1 0x40 MSTORE CALLVALUE DUP1 ISZERO PUSH2 0xF JUMPI PUSH0 PUSH0 REVERT JUMPDEST POP PUSH1 0x40 MLOAD PUSH2 0x120F CODESIZE SUB DUP1 PUSH2 0x120F DUP4 CODECOPY DUP2 DUP2 ADD PUSH1 0x40 MSTORE DUP2 ADD SWAP1 PUSH2 0x31 SWAP2 SWAP1 PUSH2 0x2F5 JUMP JUMPDEST CALLER PUSH0 PUSH0 PUSH2 0x100 EXP DUP2 SLOAD DUP2 PUSH20 0xFFFFFFFFFFFFFFFFFFFFFFFFFFFFFFFFFFFFFFFF MUL NOT AND SWAP1 DUP4 PUSH20 0xFFFFFFFFFFFFFFFFFFFFFFFFFFFFFFFFFFFFFFFF AND MUL OR SWAP1 SSTORE POP PUSH1 0x1 DUP1 PUSH0 PUSH0 PUSH0 SWAP1 SLOAD SWAP1 PUSH2 0x100 EXP SWAP1 DIV PUSH20 0xFFFFFFFFFFFFFFFFFFFFFFFFFFFFFFFFFFFFFFFF AND PUSH20 0xFFFFFFFFFFFFFFFFFFFFFFFFFFFFFFFFFFFFFFFF AND PUSH20 0xFFFFFFFFFFFFFFFFFFFFFFFFFFFFFFFFFFFFFFFF AND DUP2 MSTORE PUSH1 0x20 ADD SWAP1 DUP2 MSTORE PUSH1 0x20 ADD PUSH0 KECCAK256 PUSH0 ADD DUP2 SWAP1 SSTORE POP PUSH0 PUSH0 SWAP1 POP JUMPDEST DUP2 MLOAD DUP2 LT ISZERO PUSH2 0x15A JUMPI PUSH1 0x2 PUSH1 0x40 MLOAD DUP1 PUSH1 0x40 ADD PUSH1 0x40 MSTORE DUP1 DUP5 DUP5 DUP2 MLOAD DUP2 LT PUSH2 0x102 JUMPI PUSH2 0x101 PUSH2 0x33C JUMP JUMPDEST JUMPDEST PUSH1 0x20 MUL PUSH1 0x20 ADD ADD MLOAD DUP2 MSTORE PUSH1 0x20 ADD PUSH0 DUP2 MSTORE POP SWAP1 DUP1 PUSH1 0x1 DUP2 SLOAD ADD DUP1 DUP3 SSTORE DUP1 SWAP2 POP POP PUSH1 0x1 SWAP1 SUB SWAP1 PUSH0 MSTORE PUSH1 0x20 PUSH0 KECCAK256 SWAP1 PUSH1 0x2 MUL ADD PUSH0 SWAP1 SWAP2 SWAP1 SWAP2 SWAP1 SWAP2 POP PUSH0 DUP3 ADD MLOAD DUP2 PUSH0 ADD SSTORE PUSH1 0x20 DUP3 ADD MLOAD DUP2 PUSH1 0x1 ADD SSTORE POP POP DUP1 DUP1 PUSH1 0x1 ADD SWAP2 POP POP PUSH2 0xD9 JUMP JUMPDEST POP POP PUSH2 0x369 JUMP JUMPDEST PUSH0 PUSH1 0x40 MLOAD SWAP1 POP SWAP1 JUMP JUMPDEST PUSH0 PUSH0 REVERT JUMPDEST PUSH0 PUSH0 REVERT JUMPDEST PUSH0 PUSH0 REVERT JUMPDEST PUSH0 PUSH1 0x1F NOT PUSH1 0x1F DUP4 ADD AND SWAP1 POP SWAP2 SWAP1 POP JUMP JUMPDEST PUSH32 0x4E487B7100000000000000000000000000000000000000000000000000000000 PUSH0 MSTORE PUSH1 0x41 PUSH1 0x4 MSTORE PUSH1 0x24 PUSH0 REVERT JUMPDEST PUSH2 0x1BC DUP3 PUSH2 0x176 JUMP JUMPDEST DUP2 ADD DUP2 DUP2 LT PUSH8 0xFFFFFFFFFFFFFFFF DUP3 GT OR ISZERO PUSH2 0x1DB JUMPI PUSH2 0x1DA PUSH2 0x186 JUMP JUMPDEST JUMPDEST DUP1 PUSH1 0x40 MSTORE POP POP POP JUMP JUMPDEST PUSH0 PUSH2 0x1ED PUSH2 0x161 JUMP JUMPDEST SWAP1 POP PUSH2 0x1F9 DUP3 DUP3 PUSH2 0x1B3 JUMP JUMPDEST SWAP2 SWAP1 POP JUMP JUMPDEST PUSH0 PUSH8 0xFFFFFFFFFFFFFFFF DUP3 GT ISZERO PUSH2 0x218 JUMPI PUSH2 0x217 PUSH2 0x186 JUMP JUMPDEST JUMPDEST PUSH1 0x20 DUP3 MUL SWAP1 POP PUSH1 0x20 DUP2 ADD SWAP1 POP SWAP2 SWAP1 POP JUMP JUMPDEST PUSH0 PUSH0 REVERT JUMPDEST PUSH0 DUP2 SWAP1 POP SWAP2 SWAP1 POP JUMP JUMPDEST PUSH2 0x23F DUP2 PUSH2 0x22D JUMP JUMPDEST DUP2 EQ PUSH2 0x249 JUMPI PUSH0 PUSH0 REVERT JUMPDEST POP JUMP JUMPDEST PUSH0 DUP2 MLOAD SWAP1 POP PUSH2 0x25A DUP2 PUSH2 0x236 JUMP JUMPDEST SWAP3 SWAP2 POP POP JUMP JUMPDEST PUSH0 PUSH2 0x272 PUSH2 0x26D DUP5 PUSH2 0x1FE JUMP JUMPDEST PUSH2 0x1E4 JUMP JUMPDEST SWAP1 POP DUP1 DUP4 DUP3 MSTORE PUSH1 0x20 DUP3 ADD SWAP1 POP PUSH1 0x20 DUP5 MUL DUP4 ADD DUP6 DUP2 GT ISZERO PUSH2 0x295 JUMPI PUSH2 0x294 PUSH2 0x229 JUMP JUMPDEST JUMPDEST DUP4 JUMPDEST DUP2 DUP2 LT ISZERO PUSH2 0x2BE JUMPI DUP1 PUSH2 0x2AA DUP9 DUP3 PUSH2 0x24C JUMP JUMPDEST DUP5 MSTORE PUSH1 0x20 DUP5 ADD SWAP4 POP POP PUSH1 0x20 DUP2 ADD SWAP1 POP PUSH2 0x297 JUMP JUMPDEST POP POP POP SWAP4 SWAP3 POP POP POP JUMP JUMPDEST PUSH0 DUP3 PUSH1 0x1F DUP4 ADD SLT PUSH2 0x2DC JUMPI PUSH2 0x2DB PUSH2 0x172 JUMP JUMPDEST JUMPDEST DUP2 MLOAD PUSH2 0x2EC DUP5 DUP3 PUSH1 0x20 DUP7 ADD PUSH2 0x260 JUMP JUMPDEST SWAP2 POP POP SWAP3 SWAP2 POP POP JUMP JUMPDEST PUSH0 PUSH1 0x20 DUP3 DUP5 SUB SLT ISZERO PUSH2 0x30A JUMPI PUSH2 0x309 PUSH2 0x16A JUMP JUMPDEST JUMPDEST PUSH0 DUP3 ADD MLOAD PUSH8 0xFFFFFFFFFFFFFFFF DUP2 GT ISZERO PUSH2 0x327 JUMPI PUSH2 0x326 PUSH2 0x16E JUMP JUMPDEST JUMPDEST PUSH2 0x333 DUP5 DUP3 DUP6 ADD PUSH2 0x2C8 JUMP JUMPDEST SWAP2 POP POP SWAP3 SWAP2 POP POP JUMP JUMPDEST PUSH32 0x4E487B7100000000000000000000000000000000000000000000000000000000 PUSH0 MSTORE PUSH1 0x32 PUSH1 0x4 MSTORE PUSH1 0x24 PUSH0 REVERT JUMPDEST PUSH2 0xE99 DUP1 PUSH2 0x376 PUSH0 CODECOPY PUSH0 RETURN INVALID PUSH1 0x80 PUSH1 0x40 MSTORE CALLVALUE DUP1 ISZERO PUSH2 0xF JUMPI PUSH0 PUSH0 REVERT JUMPDEST POP PUSH1 0x4 CALLDATASIZE LT PUSH2 0x60 JUMPI PUSH0 CALLDATALOAD PUSH1 0xE0 SHR DUP1 PUSH4 0x121B93F EQ PUSH2 0x64 JUMPI DUP1 PUSH4 0x13CF08B EQ PUSH2 0x80 JUMPI DUP1 PUSH4 0x2E4176CF EQ PUSH2 0xB1 JUMPI DUP1 PUSH4 0x5C19A95C EQ PUSH2 0xCF JUMPI DUP1 PUSH4 0x9E7B8D61 EQ PUSH2 0xEB JUMPI DUP1 PUSH4 0xA3EC138D EQ PUSH2 0x107 JUMPI JUMPDEST PUSH0 PUSH0 REVERT JUMPDEST PUSH2 0x7E PUSH1 0x4 DUP1 CALLDATASIZE SUB DUP2 ADD SWAP1 PUSH2 0x79 SWAP2 SWAP1 PUSH2 0x8DD JUMP JUMPDEST PUSH2 0x13A JUMP JUMPDEST STOP JUMPDEST PUSH2 0x9A PUSH1 0x4 DUP1 CALLDATASIZE SUB DUP2 ADD SWAP1 PUSH2 0x95 SWAP2 SWAP1 PUSH2 0x8DD JUMP JUMPDEST PUSH2 0x275 JUMP JUMPDEST PUSH1 0x40 MLOAD PUSH2 0xA8 SWAP3 SWAP2 SWAP1 PUSH2 0x92F JUMP JUMPDEST PUSH1 0x40 MLOAD DUP1 SWAP2 SUB SWAP1 RETURN JUMPDEST PUSH2 0xB9 PUSH2 0x2A4 JUMP JUMPDEST PUSH1 0x40 MLOAD PUSH2 0xC6 SWAP2 SWAP1 PUSH2 0x995 JUMP JUMPDEST PUSH1 0x40 MLOAD DUP1 SWAP2 SUB SWAP1 RETURN JUMPDEST PUSH2 0xE9 PUSH1 0x4 DUP1 CALLDATASIZE SUB DUP2 ADD SWAP1 PUSH2 0xE4 SWAP2 SWAP1 PUSH2 0x9D8 JUMP JUMPDEST PUSH2 0x2C8 JUMP JUMPDEST STOP JUMPDEST PUSH2 0x105 PUSH1 0x4 DUP1 CALLDATASIZE SUB DUP2 ADD SWAP1 PUSH2 0x100 SWAP2 SWAP1 PUSH2 0x9D8 JUMP JUMPDEST PUSH2 0x6A2 JUMP JUMPDEST STOP JUMPDEST PUSH2 0x121 PUSH1 0x4 DUP1 CALLDATASIZE SUB DUP2 ADD SWAP1 PUSH2 0x11C SWAP2 SWAP1 PUSH2 0x9D8 JUMP JUMPDEST PUSH2 0x84E JUMP JUMPDEST PUSH1 0x40 MLOAD PUSH2 0x131 SWAP5 SWAP4 SWAP3 SWAP2 SWAP1 PUSH2 0xA1D JUMP JUMPDEST PUSH1 0x40 MLOAD DUP1 SWAP2 SUB SWAP1 RETURN JUMPDEST PUSH0 PUSH1 0x1 PUSH0 CALLER PUSH20 0xFFFFFFFFFFFFFFFFFFFFFFFFFFFFFFFFFFFFFFFF AND PUSH20 0xFFFFFFFFFFFFFFFFFFFFFFFFFFFFFFFFFFFFFFFF AND DUP2 MSTORE PUSH1 0x20 ADD SWAP1 DUP2 MSTORE PUSH1 0x20 ADD PUSH0 KECCAK256 SWAP1 POP PUSH0 DUP2 PUSH0 ADD SLOAD SUB PUSH2 0x1BF JUMPI PUSH1 0x40 MLOAD PUSH32 0x8C379A000000000000000000000000000000000000000000000000000000000 DUP2 MSTORE PUSH1 0x4 ADD PUSH2 0x1B6 SWAP1 PUSH2 0xABA JUMP JUMPDEST PUSH1 0x40 MLOAD DUP1 SWAP2 SUB SWAP1 REVERT JUMPDEST DUP1 PUSH1 0x1 ADD PUSH0 SWAP1 SLOAD SWAP1 PUSH2 0x100 EXP SWAP1 DIV PUSH1 0xFF AND ISZERO PUSH2 0x210 JUMPI PUSH1 0x40 MLOAD PUSH32 0x8C379A000000000000000000000000000000000000000000000000000000000 DUP2 MSTORE PUSH1 0x4 ADD PUSH2 0x207 SWAP1 PUSH2 0xB22 JUMP JUMPDEST PUSH1 0x40 MLOAD DUP1 SWAP2 SUB SWAP1 REVERT JUMPDEST PUSH1 0x1 DUP2 PUSH1 0x1 ADD PUSH0 PUSH2 0x100 EXP DUP2 SLOAD DUP2 PUSH1 0xFF MUL NOT AND SWAP1 DUP4 ISZERO ISZERO MUL OR SWAP1 SSTORE POP DUP2 DUP2 PUSH1 0x2 ADD DUP2 SWAP1 SSTORE POP DUP1 PUSH0 ADD SLOAD PUSH1 0x2 DUP4 DUP2 SLOAD DUP2 LT PUSH2 0x24D JUMPI PUSH2 0x24C PUSH2 0xB40 JUMP JUMPDEST JUMPDEST SWAP1 PUSH0 MSTORE PUSH1 0x20 PUSH0 KECCAK256 SWAP1 PUSH1 0x2 MUL ADD PUSH1 0x1 ADD PUSH0 DUP3 DUP3 SLOAD PUSH2 0x26A SWAP2 SWAP1 PUSH2 0xB9A JUMP JUMPDEST SWAP3 POP POP DUP2 SWAP1 SSTORE POP POP POP JUMP JUMPDEST PUSH1 0x2 DUP2 DUP2 SLOAD DUP2 LT PUSH2 0x284 JUMPI PUSH0 DUP1 REVERT JUMPDEST SWAP1 PUSH0 MSTORE PUSH1 0x20 PUSH0 KECCAK256 SWAP1 PUSH1 0x2 MUL ADD PUSH0 SWAP2 POP SWAP1 POP DUP1 PUSH0 ADD SLOAD SWAP1 DUP1 PUSH1 0x1 ADD SLOAD SWAP1 POP DUP3 JUMP JUMPDEST PUSH0 PUSH0 SWAP1 SLOAD SWAP1 PUSH2 0x100 EXP SWAP1 DIV PUSH20 0xFFFFFFFFFFFFFFFFFFFFFFFFFFFFFFFFFFFFFFFF AND DUP2 JUMP JUMPDEST PUSH0 PUSH1 0x1 PUSH0 CALLER PUSH20 0xFFFFFFFFFFFFFFFFFFFFFFFFFFFFFFFFFFFFFFFF AND PUSH20 0xFFFFFFFFFFFFFFFFFFFFFFFFFFFFFFFFFFFFFFFF AND DUP2 MSTORE PUSH1 0x20 ADD SWAP1 DUP2 MSTORE PUSH1 0x20 ADD PUSH0 KECCAK256 SWAP1 POP PUSH0 DUP2 PUSH0 ADD SLOAD SUB PUSH2 0x34D JUMPI PUSH1 0x40 MLOAD PUSH32 0x8C379A000000000000000000000000000000000000000000000000000000000 DUP2 MSTORE PUSH1 0x4 ADD PUSH2 0x344 SWAP1 PUSH2 0xC17 JUMP JUMPDEST PUSH1 0x40 MLOAD DUP1 SWAP2 SUB SWAP1 REVERT JUMPDEST DUP1 PUSH1 0x1 ADD PUSH0 SWAP1 SLOAD SWAP1 PUSH2 0x100 EXP SWAP1 DIV PUSH1 0xFF AND ISZERO PUSH2 0x39E JUMPI PUSH1 0x40 MLOAD PUSH32 0x8C379A000000000000000000000000000000000000000000000000000000000 DUP2 MSTORE PUSH1 0x4 ADD PUSH2 0x395 SWAP1 PUSH2 0xC7F JUMP JUMPDEST PUSH1 0x40 MLOAD DUP1 SWAP2 SUB SWAP1 REVERT JUMPDEST CALLER PUSH20 0xFFFFFFFFFFFFFFFFFFFFFFFFFFFFFFFFFFFFFFFF AND DUP3 PUSH20 0xFFFFFFFFFFFFFFFFFFFFFFFFFFFFFFFFFFFFFFFF AND SUB PUSH2 0x40C JUMPI PUSH1 0x40 MLOAD PUSH32 0x8C379A000000000000000000000000000000000000000000000000000000000 DUP2 MSTORE PUSH1 0x4 ADD PUSH2 0x403 SWAP1 PUSH2 0xCE7 JUMP JUMPDEST PUSH1 0x40 MLOAD DUP1 SWAP2 SUB SWAP1 REVERT JUMPDEST JUMPDEST PUSH0 PUSH20 0xFFFFFFFFFFFFFFFFFFFFFFFFFFFFFFFFFFFFFFFF AND PUSH1 0x1 PUSH0 DUP5 PUSH20 0xFFFFFFFFFFFFFFFFFFFFFFFFFFFFFFFFFFFFFFFF AND PUSH20 0xFFFFFFFFFFFFFFFFFFFFFFFFFFFFFFFFFFFFFFFF AND DUP2 MSTORE PUSH1 0x20 ADD SWAP1 DUP2 MSTORE PUSH1 0x20 ADD PUSH0 KECCAK256 PUSH1 0x1 ADD PUSH1 0x1 SWAP1 SLOAD SWAP1 PUSH2 0x100 EXP SWAP1 DIV PUSH20 0xFFFFFFFFFFFFFFFFFFFFFFFFFFFFFFFFFFFFFFFF AND PUSH20 0xFFFFFFFFFFFFFFFFFFFFFFFFFFFFFFFFFFFFFFFF AND EQ PUSH2 0x576 JUMPI PUSH1 0x1 PUSH0 DUP4 PUSH20 0xFFFFFFFFFFFFFFFFFFFFFFFFFFFFFFFFFFFFFFFF AND PUSH20 0xFFFFFFFFFFFFFFFFFFFFFFFFFFFFFFFFFFFFFFFF AND DUP2 MSTORE PUSH1 0x20 ADD SWAP1 DUP2 MSTORE PUSH1 0x20 ADD PUSH0 KECCAK256 PUSH1 0x1 ADD PUSH1 0x1 SWAP1 SLOAD SWAP1 PUSH2 0x100 EXP SWAP1 DIV PUSH20 0xFFFFFFFFFFFFFFFFFFFFFFFFFFFFFFFFFFFFFFFF AND SWAP2 POP CALLER PUSH20 0xFFFFFFFFFFFFFFFFFFFFFFFFFFFFFFFFFFFFFFFF AND DUP3 PUSH20 0xFFFFFFFFFFFFFFFFFFFFFFFFFFFFFFFFFFFFFFFF AND SUB PUSH2 0x571 JUMPI PUSH1 0x40 MLOAD PUSH32 0x8C379A000000000000000000000000000000000000000000000000000000000 DUP2 MSTORE PUSH1 0x4 ADD PUSH2 0x568 SWAP1 PUSH2 0xD4F JUMP JUMPDEST PUSH1 0x40 MLOAD DUP1 SWAP2 SUB SWAP1 REVERT JUMPDEST PUSH2 0x40D JUMP JUMPDEST PUSH0 PUSH1 0x1 PUSH0 DUP5 PUSH20 0xFFFFFFFFFFFFFFFFFFFFFFFFFFFFFFFFFFFFFFFF AND PUSH20 0xFFFFFFFFFFFFFFFFFFFFFFFFFFFFFFFFFFFFFFFF AND DUP2 MSTORE PUSH1 0x20 ADD SWAP1 DUP2 MSTORE PUSH1 0x20 ADD PUSH0 KECCAK256 SWAP1 POP PUSH1 0x1 DUP2 PUSH0 ADD SLOAD LT ISZERO PUSH2 0x5C6 JUMPI PUSH0 PUSH0 REVERT JUMPDEST PUSH1 0x1 DUP3 PUSH1 0x1 ADD PUSH0 PUSH2 0x100 EXP DUP2 SLOAD DUP2 PUSH1 0xFF MUL NOT AND SWAP1 DUP4 ISZERO ISZERO MUL OR SWAP1 SSTORE POP DUP3 DUP3 PUSH1 0x1 ADD PUSH1 0x1 PUSH2 0x100 EXP DUP2 SLOAD DUP2 PUSH20 0xFFFFFFFFFFFFFFFFFFFFFFFFFFFFFFFFFFFFFFFF MUL NOT AND SWAP1 DUP4 PUSH20 0xFFFFFFFFFFFFFFFFFFFFFFFFFFFFFFFFFFFFFFFF AND MUL OR SWAP1 SSTORE POP DUP1 PUSH1 0x1 ADD PUSH0 SWAP1 SLOAD SWAP1 PUSH2 0x100 EXP SWAP1 DIV PUSH1 0xFF AND ISZERO PUSH2 0x680 JUMPI DUP2 PUSH0 ADD SLOAD PUSH1 0x2 DUP3 PUSH1 0x2 ADD SLOAD DUP2 SLOAD DUP2 LT PUSH2 0x657 JUMPI PUSH2 0x656 PUSH2 0xB40 JUMP JUMPDEST JUMPDEST SWAP1 PUSH0 MSTORE PUSH1 0x20 PUSH0 KECCAK256 SWAP1 PUSH1 0x2 MUL ADD PUSH1 0x1 ADD PUSH0 DUP3 DUP3 SLOAD PUSH2 0x674 SWAP2 SWAP1 PUSH2 0xB9A JUMP JUMPDEST SWAP3 POP POP DUP2 SWAP1 SSTORE POP PUSH2 0x69D JUMP JUMPDEST DUP2 PUSH0 ADD SLOAD DUP2 PUSH0 ADD PUSH0 DUP3 DUP3 SLOAD PUSH2 0x695 SWAP2 SWAP1 PUSH2 0xB9A JUMP JUMPDEST SWAP3 POP POP DUP2 SWAP1 SSTORE POP JUMPDEST POP POP POP JUMP JUMPDEST PUSH0 PUSH0 SWAP1 SLOAD SWAP1 PUSH2 0x100 EXP SWAP1 DIV PUSH20 0xFFFFFFFFFFFFFFFFFFFFFFFFFFFFFFFFFFFFFFFF AND PUSH20 0xFFFFFFFFFFFFFFFFFFFFFFFFFFFFFFFFFFFFFFFF AND CALLER PUSH20 0xFFFFFFFFFFFFFFFFFFFFFFFFFFFFFFFFFFFFFFFF AND EQ PUSH2 0x730 JUMPI PUSH1 0x40 MLOAD PUSH32 0x8C379A000000000000000000000000000000000000000000000000000000000 DUP2 MSTORE PUSH1 0x4 ADD PUSH2 0x727 SWAP1 PUSH2 0xDDD JUMP JUMPDEST PUSH1 0x40 MLOAD DUP1 SWAP2 SUB SWAP1 REVERT JUMPDEST PUSH1 0x1 PUSH0 DUP3 PUSH20 0xFFFFFFFFFFFFFFFFFFFFFFFFFFFFFFFFFFFFFFFF AND PUSH20 0xFFFFFFFFFFFFFFFFFFFFFFFFFFFFFFFFFFFFFFFF AND DUP2 MSTORE PUSH1 0x20 ADD SWAP1 DUP2 MSTORE PUSH1 0x20 ADD PUSH0 KECCAK256 PUSH1 0x1 ADD PUSH0 SWAP1 SLOAD SWAP1 PUSH2 0x100 EXP SWAP1 DIV PUSH1 0xFF AND ISZERO PUSH2 0x7BD JUMPI PUSH1 0x40 MLOAD PUSH32 0x8C379A000000000000000000000000000000000000000000000000000000000 DUP2 MSTORE PUSH1 0x4 ADD PUSH2 0x7B4 SWAP1 PUSH2 0xE45 JUMP JUMPDEST PUSH1 0x40 MLOAD DUP1 SWAP2 SUB SWAP1 REVERT JUMPDEST PUSH0 PUSH1 0x1 PUSH0 DUP4 PUSH20 0xFFFFFFFFFFFFFFFFFFFFFFFFFFFFFFFFFFFFFFFF AND PUSH20 0xFFFFFFFFFFFFFFFFFFFFFFFFFFFFFFFFFFFFFFFF AND DUP2 MSTORE PUSH1 0x20 ADD SWAP1 DUP2 MSTORE PUSH1 0x20 ADD PUSH0 KECCAK256 PUSH0 ADD SLOAD EQ PUSH2 0x807 JUMPI PUSH0 PUSH0 REVERT JUMPDEST PUSH1 0x1 DUP1 PUSH0 DUP4 PUSH20 0xFFFFFFFFFFFFFFFFFFFFFFFFFFFFFFFFFFFFFFFF AND PUSH20 0xFFFFFFFFFFFFFFFFFFFFFFFFFFFFFFFFFFFFFFFF AND DUP2 MSTORE PUSH1 0x20 ADD SWAP1 DUP2 MSTORE PUSH1 0x20 ADD PUSH0 KECCAK256 PUSH0 ADD DUP2 SWAP1 SSTORE POP POP JUMP JUMPDEST PUSH1 0x1 PUSH1 0x20 MSTORE DUP1 PUSH0 MSTORE PUSH1 0x40 PUSH0 KECCAK256 PUSH0 SWAP2 POP SWAP1 POP DUP1 PUSH0 ADD SLOAD SWAP1 DUP1 PUSH1 0x1 ADD PUSH0 SWAP1 SLOAD SWAP1 PUSH2 0x100 EXP SWAP1 DIV PUSH1 0xFF AND SWAP1 DUP1 PUSH1 0x1 ADD PUSH1 0x1 SWAP1 SLOAD SWAP1 PUSH2 0x100 EXP SWAP1 DIV PUSH20 0xFFFFFFFFFFFFFFFFFFFFFFFFFFFFFFFFFFFFFFFF AND SWAP1 DUP1 PUSH1 0x2 ADD SLOAD SWAP1 POP DUP5 JUMP JUMPDEST PUSH0 PUSH0 REVERT JUMPDEST PUSH0 DUP2 SWAP1 POP SWAP2 SWAP1 POP JUMP JUMPDEST PUSH2 0x8BC DUP2 PUSH2 0x8AA JUMP JUMPDEST DUP2 EQ PUSH2 0x8C6 JUMPI PUSH0 PUSH0 REVERT JUMPDEST POP JUMP JUMPDEST PUSH0 DUP2 CALLDATALOAD SWAP1 POP PUSH2 0x8D7 DUP2 PUSH2 0x8B3 JUMP JUMPDEST SWAP3 SWAP2 POP POP JUMP JUMPDEST PUSH0 PUSH1 0x20 DUP3 DUP5 SUB SLT ISZERO PUSH2 0x8F2 JUMPI PUSH2 0x8F1 PUSH2 0x8A6 JUMP JUMPDEST JUMPDEST PUSH0 PUSH2 0x8FF DUP5 DUP3 DUP6 ADD PUSH2 0x8C9 JUMP JUMPDEST SWAP2 POP POP SWAP3 SWAP2 POP POP JUMP JUMPDEST PUSH0 DUP2 SWAP1 POP SWAP2 SWAP1 POP JUMP JUMPDEST PUSH2 0x91A DUP2 PUSH2 0x908 JUMP JUMPDEST DUP3 MSTORE POP POP JUMP JUMPDEST PUSH2 0x929 DUP2 PUSH2 0x8AA JUMP JUMPDEST DUP3 MSTORE POP POP JUMP JUMPDEST PUSH0 PUSH1 0x40 DUP3 ADD SWAP1 POP PUSH2 0x942 PUSH0 DUP4 ADD DUP6 PUSH2 0x911 JUMP JUMPDEST PUSH2 0x94F PUSH1 0x20 DUP4 ADD DUP5 PUSH2 0x920 JUMP JUMPDEST SWAP4 SWAP3 POP POP POP JUMP JUMPDEST PUSH0 PUSH20 0xFFFFFFFFFFFFFFFFFFFFFFFFFFFFFFFFFFFFFFFF DUP3 AND SWAP1 POP SWAP2 SWAP1 POP JUMP JUMPDEST PUSH0 PUSH2 0x97F DUP3 PUSH2 0x956 JUMP JUMPDEST SWAP1 POP SWAP2 SWAP1 POP JUMP JUMPDEST PUSH2 0x98F DUP2 PUSH2 0x975 JUMP JUMPDEST DUP3 MSTORE POP POP JUMP JUMPDEST PUSH0 PUSH1 0x20 DUP3 ADD SWAP1 POP PUSH2 0x9A8 PUSH0 DUP4 ADD DUP5 PUSH2 0x986 JUMP JUMPDEST SWAP3 SWAP2 POP POP JUMP JUMPDEST PUSH2 0x9B7 DUP2 PUSH2 0x975 JUMP JUMPDEST DUP2 EQ PUSH2 0x9C1 JUMPI PUSH0 PUSH0 REVERT JUMPDEST POP JUMP JUMPDEST PUSH0 DUP2 CALLDATALOAD SWAP1 POP PUSH2 0x9D2 DUP2 PUSH2 0x9AE JUMP JUMPDEST SWAP3 SWAP2 POP POP JUMP JUMPDEST PUSH0 PUSH1 0x20 DUP3 DUP5 SUB SLT ISZERO PUSH2 0x9ED JUMPI PUSH2 0x9EC PUSH2 0x8A6 JUMP JUMPDEST JUMPDEST PUSH0 PUSH2 0x9FA DUP5 DUP3 DUP6 ADD PUSH2 0x9C4 JUMP JUMPDEST SWAP2 POP POP SWAP3 SWAP2 POP POP JUMP JUMPDEST PUSH0 DUP2 ISZERO ISZERO SWAP1 POP SWAP2 SWAP1 POP JUMP JUMPDEST PUSH2 0xA17 DUP2 PUSH2 0xA03 JUMP JUMPDEST DUP3 MSTORE POP POP JUMP JUMPDEST PUSH0 PUSH1 0x80 DUP3 ADD SWAP1 POP PUSH2 0xA30 PUSH0 DUP4 ADD DUP8 PUSH2 0x920 JUMP JUMPDEST PUSH2 0xA3D PUSH1 0x20 DUP4 ADD DUP7 PUSH2 0xA0E JUMP JUMPDEST PUSH2 0xA4A PUSH1 0x40 DUP4 ADD DUP6 PUSH2 0x986 JUMP JUMPDEST PUSH2 0xA57 PUSH1 0x60 DUP4 ADD DUP5 PUSH2 0x920 JUMP JUMPDEST SWAP6 SWAP5 POP POP POP POP POP JUMP JUMPDEST PUSH0 DUP3 DUP3 MSTORE PUSH1 0x20 DUP3 ADD SWAP1 POP SWAP3 SWAP2 POP POP JUMP JUMPDEST PUSH32 0x486173206E6F20726967687420746F20766F7465000000000000000000000000 PUSH0 DUP3 ADD MSTORE POP JUMP JUMPDEST PUSH0 PUSH2 0xAA4 PUSH1 0x14 DUP4 PUSH2 0xA60 JUMP JUMPDEST SWAP2 POP PUSH2 0xAAF DUP3 PUSH2 0xA70 JUMP JUMPDEST PUSH1 0x20 DUP3 ADD SWAP1 POP SWAP2 SWAP1 POP JUMP JUMPDEST PUSH0 PUSH1 0x20 DUP3 ADD SWAP1 POP DUP2 DUP2 SUB PUSH0 DUP4 ADD MSTORE PUSH2 0xAD1 DUP2 PUSH2 0xA98 JUMP JUMPDEST SWAP1 POP SWAP2 SWAP1 POP JUMP JUMPDEST PUSH32 0x416C726561647920766F7465642E000000000000000000000000000000000000 PUSH0 DUP3 ADD MSTORE POP JUMP JUMPDEST PUSH0 PUSH2 0xB0C PUSH1 0xE DUP4 PUSH2 0xA60 JUMP JUMPDEST SWAP2 POP PUSH2 0xB17 DUP3 PUSH2 0xAD8 JUMP JUMPDEST PUSH1 0x20 DUP3 ADD SWAP1 POP SWAP2 SWAP1 POP JUMP JUMPDEST PUSH0 PUSH1 0x20 DUP3 ADD SWAP1 POP DUP2 DUP2 SUB PUSH0 DUP4 ADD MSTORE PUSH2 0xB39 DUP2 PUSH2 0xB00 JUMP JUMPDEST SWAP1 POP SWAP2 SWAP1 POP JUMP JUMPDEST PUSH32 0x4E487B7100000000000000000000000000000000000000000000000000000000 PUSH0 MSTORE PUSH1 0x32 PUSH1 0x4 MSTORE PUSH1 0x24 PUSH0 REVERT JUMPDEST PUSH32 0x4E487B7100000000000000000000000000000000000000000000000000000000 PUSH0 MSTORE PUSH1 0x11 PUSH1 0x4 MSTORE PUSH1 0x24 PUSH0 REVERT JUMPDEST PUSH0 PUSH2 0xBA4 DUP3 PUSH2 0x8AA JUMP JUMPDEST SWAP2 POP PUSH2 0xBAF DUP4 PUSH2 0x8AA JUMP JUMPDEST SWAP3 POP DUP3 DUP3 ADD SWAP1 POP DUP1 DUP3 GT ISZERO PUSH2 0xBC7 JUMPI PUSH2 0xBC6 PUSH2 0xB6D JUMP JUMPDEST JUMPDEST SWAP3 SWAP2 POP POP JUMP JUMPDEST PUSH32 0x796F752068617665206E6F20726967687420746F20766F746500000000000000 PUSH0 DUP3 ADD MSTORE POP JUMP JUMPDEST PUSH0 PUSH2 0xC01 PUSH1 0x19 DUP4 PUSH2 0xA60 JUMP JUMPDEST SWAP2 POP PUSH2 0xC0C DUP3 PUSH2 0xBCD JUMP JUMPDEST PUSH1 0x20 DUP3 ADD SWAP1 POP SWAP2 SWAP1 POP JUMP JUMPDEST PUSH0 PUSH1 0x20 DUP3 ADD SWAP1 POP DUP2 DUP2 SUB PUSH0 DUP4 ADD MSTORE PUSH2 0xC2E DUP2 PUSH2 0xBF5 JUMP JUMPDEST SWAP1 POP SWAP2 SWAP1 POP JUMP JUMPDEST PUSH32 0x796F75206861766520616C726561647920766F74656400000000000000000000 PUSH0 DUP3 ADD MSTORE POP JUMP JUMPDEST PUSH0 PUSH2 0xC69 PUSH1 0x16 DUP4 PUSH2 0xA60 JUMP JUMPDEST SWAP2 POP PUSH2 0xC74 DUP3 PUSH2 0xC35 JUMP JUMPDEST PUSH1 0x20 DUP3 ADD SWAP1 POP SWAP2 SWAP1 POP JUMP JUMPDEST PUSH0 PUSH1 0x20 DUP3 ADD SWAP1 POP DUP2 DUP2 SUB PUSH0 DUP4 ADD MSTORE PUSH2 0xC96 DUP2 PUSH2 0xC5D JUMP JUMPDEST SWAP1 POP SWAP2 SWAP1 POP JUMP JUMPDEST PUSH32 0x53656C662D64656C65676174696F6E20697320646973616C6C6F776564000000 PUSH0 DUP3 ADD MSTORE POP JUMP JUMPDEST PUSH0 PUSH2 0xCD1 PUSH1 0x1D DUP4 PUSH2 0xA60 JUMP JUMPDEST SWAP2 POP PUSH2 0xCDC DUP3 PUSH2 0xC9D JUMP JUMPDEST PUSH1 0x20 DUP3 ADD SWAP1 POP SWAP2 SWAP1 POP JUMP JUMPDEST PUSH0 PUSH1 0x20 DUP3 ADD SWAP1 POP DUP2 DUP2 SUB PUSH0 DUP4 ADD MSTORE PUSH2 0xCFE DUP2 PUSH2 0xCC5 JUMP JUMPDEST SWAP1 POP SWAP2 SWAP1 POP JUMP JUMPDEST PUSH32 0x466F756E64206C6F6F7020696E2064656C65676174696F6E0000000000000000 PUSH0 DUP3 ADD MSTORE POP JUMP JUMPDEST PUSH0 PUSH2 0xD39 PUSH1 0x18 DUP4 PUSH2 0xA60 JUMP JUMPDEST SWAP2 POP PUSH2 0xD44 DUP3 PUSH2 0xD05 JUMP JUMPDEST PUSH1 0x20 DUP3 ADD SWAP1 POP SWAP2 SWAP1 POP JUMP JUMPDEST PUSH0 PUSH1 0x20 DUP3 ADD SWAP1 POP DUP2 DUP2 SUB PUSH0 DUP4 ADD MSTORE PUSH2 0xD66 DUP2 PUSH2 0xD2D JUMP JUMPDEST SWAP1 POP SWAP2 SWAP1 POP JUMP JUMPDEST PUSH32 0x4F6E6C79206368616972706572736F6E2063616E206769766520726967687420 PUSH0 DUP3 ADD MSTORE PUSH32 0x746F20766F74652E200000000000000000000000000000000000000000000000 PUSH1 0x20 DUP3 ADD MSTORE POP JUMP JUMPDEST PUSH0 PUSH2 0xDC7 PUSH1 0x29 DUP4 PUSH2 0xA60 JUMP JUMPDEST SWAP2 POP PUSH2 0xDD2 DUP3 PUSH2 0xD6D JUMP JUMPDEST PUSH1 0x40 DUP3 ADD SWAP1 POP SWAP2 SWAP1 POP JUMP JUMPDEST PUSH0 PUSH1 0x20 DUP3 ADD SWAP1 POP DUP2 DUP2 SUB PUSH0 DUP4 ADD MSTORE PUSH2 0xDF4 DUP2 PUSH2 0xDBB JUMP JUMPDEST SWAP1 POP SWAP2 SWAP1 POP JUMP JUMPDEST PUSH32 0x54686520766F74657220616C726561647920766F7465642E2000000000000000 PUSH0 DUP3 ADD MSTORE POP JUMP JUMPDEST PUSH0 PUSH2 0xE2F PUSH1 0x19 DUP4 PUSH2 0xA60 JUMP JUMPDEST SWAP2 POP PUSH2 0xE3A DUP3 PUSH2 0xDFB JUMP JUMPDEST PUSH1 0x20 DUP3 ADD SWAP1 POP SWAP2 SWAP1 POP JUMP JUMPDEST PUSH0 PUSH1 0x20 DUP3 ADD SWAP1 POP DUP2 DUP2 SUB PUSH0 DUP4 ADD MSTORE PUSH2 0xE5C DUP2 PUSH2 0xE23 JUMP JUMPDEST SWAP1 POP SWAP2 SWAP1 POP JUMP INVALID LOG2 PUSH5 0x6970667358 0x22 SLT KECCAK256 0xCF PUSH14 0x8ACF65E6350C6676DE38D563EE20 0xDD 0x24 LOG4 0xCD 0xB4 LOG4 0x22 JUMPF 0xC967 0x4C DUP3 NOT INVALID ADDRESS RETURNCONTRACT 0x64 PUSH20 0x6F6C634300081F00330000000000000000000000 "
				},
				"gasEstimates": {
					"creation": {
						"codeDepositCost": "747400",
						"executionCost": "infinite",
						"totalCost": "infinite"
					},
					"external": {
						"chairperson()": "2529",
						"delegate(address)": "infinite",
						"giveRightToVote(address)": "29354",
						"proposals(uint256)": "infinite",
						"vote(uint256)": "infinite",
						"voters(address)": "infinite"
					}
				},
				"methodIdentifiers": {
					"chairperson()": "2e4176cf",
					"delegate(address)": "5c19a95c",
					"giveRightToVote(address)": "9e7b8d61",
					"proposals(uint256)": "013cf08b",
					"vote(uint256)": "0121b93f",
					"voters(address)": "a3ec138d"
				}
			},
			"storageLayout": {
				"storage": [
					{
						"astId": 17,
						"contract": "Ballot.sol:Ballot",
						"label": "chairperson",
						"offset": 0,
						"slot": "0",
						"type": "t_address"
					},
					{
						"astId": 22,
						"contract": "Ballot.sol:Ballot",
						"label": "voters",
						"offset": 0,
						"slot": "1",
						"type": "t_mapping(t_address,t_struct(Voter)10_storage)"
					},
					{
						"astId": 26,
						"contract": "Ballot.sol:Ballot",
						"label": "proposals",
						"offset": 0,
						"slot": "2",
						"type": "t_array(t_struct(Proposal)15_storage)dyn_storage"
					}
				],
				"types": {
					"t_address": {
						"encoding": "inplace",
						"label": "address",
						"numberOfBytes": "20"
					},
					"t_array(t_struct(Proposal)15_storage)dyn_storage": {
						"base": "t_struct(Proposal)15_storage",
						"encoding": "dynamic_array",
						"label": "struct Ballot.Proposal[]",
						"numberOfBytes": "32"
					},
					"t_bool": {
						"encoding": "inplace",
						"label": "bool",
						"numberOfBytes": "1"
					},
					"t_bytes32": {
						"encoding": "inplace",
						"label": "bytes32",
						"numberOfBytes": "32"
					},
					"t_mapping(t_address,t_struct(Voter)10_storage)": {
						"encoding": "mapping",
						"key": "t_address",
						"label": "mapping(address => struct Ballot.Voter)",
						"numberOfBytes": "32",
						"value": "t_struct(Voter)10_storage"
					},
					"t_struct(Proposal)15_storage": {
						"encoding": "inplace",
						"label": "struct Ballot.Proposal",
						"members": [
							{
								"astId": 12,
								"contract": "Ballot.sol:Ballot",
								"label": "name",
								"offset": 0,
								"slot": "0",
								"type": "t_bytes32"
							},
							{
								"astId": 14,
								"contract": "Ballot.sol:Ballot",
								"label": "voteCount",
								"offset": 0,
								"slot": "1",
								"type": "t_uint256"
							}
						],
						"numberOfBytes": "64"
					},
					"t_struct(Voter)10_storage": {
						"encoding": "inplace",
						"label": "struct Ballot.Voter",
						"members": [
							{
								"astId": 3,
								"contract": "Ballot.sol:Ballot",
								"label": "weight",
								"offset": 0,
								"slot": "0",
								"type": "t_uint256"
							},
							{
								"astId": 5,
								"contract": "Ballot.sol:Ballot",
								"label": "voted",
								"offset": 0,
								"slot": "1",
								"type": "t_bool"
							},
							{
								"astId": 7,
								"contract": "Ballot.sol:Ballot",
								"label": "delegate",
								"offset": 1,
								"slot": "1",
								"type": "t_address"
							},
							{
								"astId": 9,
								"contract": "Ballot.sol:Ballot",
								"label": "vote",
								"offset": 0,
								"slot": "2",
								"type": "t_uint256"
							}
						],
						"numberOfBytes": "96"
					},
					"t_uint256": {
						"encoding": "inplace",
						"label": "uint256",
						"numberOfBytes": "32"
					}
				}
			},
			"userdoc": {
				"kind": "user",
				"methods": {},
				"version": 1
			}
		}
	}
}