{
	"data": {
		"bytecode": {
			"linkReferences": {},
			"object": "608060405260065f553480156012575f5ffd5b5060c180601e5f395ff3fe6080604052348015600e575f5ffd5b50600436106026575f3560e01c8063d9d15a8b14602a575b5f5ffd5b60306044565b604051603b91906074565b60405180910390f35b5f60065f5403605557600190506059565b5f90505b90565b5f8115159050919050565b606e81605c565b82525050565b5f60208201905060855f8301846067565b9291505056fea264697066735822122033aa50f1602b92cdfa35574f8d3d44e76a61858e843db46938d57b3bc0b83c7b64736f6c634300081f0033",
			"opcodes": "PUSH1 0x80 PUSH1 0x40 MSTORE PUSH1 0x6 PUSH0 SSTORE CALLVALUE DUP1 ISZERO PUSH1 0x12 JUMPI PUSH0 PUSH0 REVERT JUMPDEST POP PUSH1 0xC1 DUP1 PUSH1 0x1E PUSH0 CODECOPY PUSH0 RETURN INVALID PUSH1 0x80 PUSH1 0x40 MSTORE CALLVALUE DUP1 ISZERO PUSH1 0xE JUMPI PUSH0 PUSH0 REVERT JUMPDEST POP PUSH1 0x4 CALLDATASIZE LT PUSH1 0x26 JUMPI PUSH0 CALLDATALOAD PUSH1 0xE0 SHR DUP1 PUSH4 0xD9D15A8B EQ PUSH1 0x2A JUMPI JUMPDEST PUSH0 PUSH0 REVERT JUMPDEST PUSH1 0x30 PUSH1 0x44 JUMP JUMPDEST PUSH1 0x40 MLOAD PUSH1 0x3B SWAP2 SWAP1 PUSH1 0x74 JUMP JUMPDEST PUSH1 0x40 MLOAD DUP1 SWAP2 SUB SWAP1 RETURN JUMPDEST PUSH0 PUSH1 0x6 PUSH0 SLOAD SUB PUSH1 0x55 JUMPI PUSH1 0x1 SWAP1 POP PUSH1 0x59 JUMP JUMPDEST PUSH0 SWAP1 POP JUMPDEST SWAP1 JUMP JUMPDEST PUSH0 DUP2 ISZERO ISZERO SWAP1 POP SWAP2 SWAP1 POP JUMP JUMPDEST PUSH1 0x6E DUP2 PUSH1 0x5C JUMP JUMPDEST DUP3 MSTORE POP POP JUMP JUMPDEST PUSH0 PUSH1 0x20 DUP3 ADD SWAP1 POP PUSH1 0x85 PUSH0 DUP4 ADD DUP5 PUSH1 0x67 JUMP JUMPDEST SWAP3 SWAP2 POP POP JUMP INVALID LOG2 PUSH5 0x6970667358 0x22 SLT KECCAK256 CALLER 0xAA POP CALL PUSH1 0x2B SWAP3 0xCD STATICCALL CALLDATALOAD JUMPI 0x4F DUP14 RETURNDATASIZE PREVRANDAO SWAPN 0x6A PUSH2 0x858E DUP5 RETURNDATASIZE 0xB4 PUSH10 0x38D57B3BC0B83C7B6473 PUSH16 0x6C634300081F00330000000000000000 "
		},
		"gasEstimates": {
			"creation": {
				"codeDepositCost": "38600",
				"executionCost": "22196",
				"totalCost": "60796"
			},
			"external": {
				"validateBag()": "2449"
			}
		},
		"methodIdentifiers": {
			"validateBag()": "d9d15a8b"
		}
	},
	"abi": [
		{
			"inputs": [],
			"name": "validateBag",
			"outputs": [
				{
					"internalType": "bool",
					"name": "",
					"type": "bool"
				}
			],
			"stateMutability": "view",
			"type": "function"
		}
	]
}